{
	"data": {
		"bytecode": {
			"linkReferences": {},
			"object": "608060405234801561001057600080fd5b50336000806101000a81548173ffffffffffffffffffffffffffffffffffffffff021916908373ffffffffffffffffffffffffffffffffffffffff16021790555061394a806100606000396000f3fe6080604052600436106100865760003560e01c80638342196611610059578063834219661461014c57806388409afa1461017557806397d62620146101b9578063b6c3c9b9146101f7578063e2cce1c61461022057610086565b8063170792611461008b578063224164c3146100b65780633bce9437146100df5780635d9c61c21461010f575b600080fd5b34801561009757600080fd5b506100a0610249565b6040516100ad9190611fde565b60405180910390f35b3480156100c257600080fd5b506100dd60048036038101906100d8919061205d565b610738565b005b6100f960048036038101906100f491906120de565b610a2b565b6040516101069190612136565b60405180910390f35b34801561011b57600080fd5b506101366004803603810190610131919061217d565b610c82565b6040516101439190611fde565b60405180910390f35b34801561015857600080fd5b50610173600480360381019061016e919061220a565b611141565b005b34801561018157600080fd5b5061019c6004803603810190610197919061227e565b611396565b6040516101b0989796959493929190612304565b60405180910390f35b3480156101c557600080fd5b506101e060048036038101906101db919061239e565b61162e565b6040516101ee9291906123de565b60405180910390f35b34801561020357600080fd5b5061021e60048036038101906102199190612429565b61167f565b005b34801561022c57600080fd5b5061024760048036038101906102429190612429565b611a37565b005b606060004290506000805b60018054905081101561031257826001828154811061027657610275612469565b5b906000526020600020906008020160040154111580156102eb575082600182815481106102a6576102a5612469565b5b906000526020600020906008020160050154600183815481106102cc576102cb612469565b5b9060005260206000209060080201600401546102e891906124c7565b10155b156102ff5781806102fb9061251d565b9250505b808061030a9061251d565b915050610254565b508067ffffffffffffffff81111561032d5761032c612566565b5b60405190808252806020026020018201604052801561036657816020015b610353611bcc565b81526020019060019003908161034b5790505b5092506000805b60018054905081101561073157836001828154811061038f5761038e612469565b5b90600052602060002090600802016004015411158015610404575083600182815481106103bf576103be612469565b5b906000526020600020906008020160050154600183815481106103e5576103e4612469565b5b90600052602060002090600802016004015461040191906124c7565b10155b1561071e576001818154811061041d5761041c612469565b5b906000526020600020906008020160405180610100016040529081600082018054610447906125c4565b80601f0160208091040260200160405190810160405280929190818152602001828054610473906125c4565b80156104c05780601f10610495576101008083540402835291602001916104c0565b820191906000526020600020905b8154815290600101906020018083116104a357829003601f168201915b505050505081526020016001820180546104d9906125c4565b80601f0160208091040260200160405190810160405280929190818152602001828054610505906125c4565b80156105525780601f1061052757610100808354040283529160200191610552565b820191906000526020600020905b81548152906001019060200180831161053557829003601f168201915b505050505081526020016002820160009054906101000a900473ffffffffffffffffffffffffffffffffffffffff1673ffffffffffffffffffffffffffffffffffffffff1673ffffffffffffffffffffffffffffffffffffffff1681526020016003820154815260200160048201548152602001600582015481526020016006820180546105df906125c4565b80601f016020809104026020016040519081016040528092919081815260200182805461060b906125c4565b80156106585780601f1061062d57610100808354040283529160200191610658565b820191906000526020600020905b81548152906001019060200180831161063b57829003601f168201915b50505050508152602001600782018054610671906125c4565b80601f016020809104026020016040519081016040528092919081815260200182805461069d906125c4565b80156106ea5780601f106106bf576101008083540402835291602001916106ea565b820191906000526020600020905b8154815290600101906020018083116106cd57829003601f168201915b5050505050815250508583806106ff9061251d565b94508151811061071257610711612469565b5b60200260200101819052505b80806107299061251d565b91505061036d565b5050505090565b60008054906101000a900473ffffffffffffffffffffffffffffffffffffffff1673ffffffffffffffffffffffffffffffffffffffff163373ffffffffffffffffffffffffffffffffffffffff1614806108025750600182815481106107a1576107a0612469565b5b906000526020600020906008020160020160009054906101000a900473ffffffffffffffffffffffffffffffffffffffff1673ffffffffffffffffffffffffffffffffffffffff163373ffffffffffffffffffffffffffffffffffffffff16145b610841576040517f08c379a000000000000000000000000000000000000000000000000000000000815260040161083890612668565b60405180910390fd5b60005b60018110156109c357600082826001811061086257610861612469565b5b6020028101906108729190612697565b806000019061088191906126bf565b905014156108c4576040517f08c379a00000000000000000000000000000000000000000000000000000000081526004016108bb9061276e565b60405180910390fd5b60005b8282600181106108da576108d9612469565b5b6020028101906108ea9190612697565b80602001906108f9919061278e565b5060048110156109af57600083836001811061091857610917612469565b5b6020028101906109289190612697565b8060200190610937919061278e565b826004811061094957610948612469565b5b60200281019061095991906126bf565b9050141561099c576040517f08c379a000000000000000000000000000000000000000000000000000000000815260040161099390612802565b60405180910390fd5b80806109a79061251d565b9150506108c7565b5080806109bb9061251d565b915050610844565b5042600183815481106109d9576109d8612469565b5b9060005260206000209060080201600401819055507fb5a265e268d51746e1d7589c6598fb5a4fadfb287e4a17eb32d5d7907f9c8a638282604051610a1f929190612af6565b60405180910390a15050565b600042826080013511610a73576040517f08c379a0000000000000000000000000000000000000000000000000000000008152600401610a6a90612b98565b60405180910390fd5b81608001358260a001358360800135610a8c91906124c7565b11610acc576040517f08c379a0000000000000000000000000000000000000000000000000000000008152600401610ac390612c2a565b60405180910390fd5b6000828060000190610ade91906126bf565b90501415610b21576040517f08c379a0000000000000000000000000000000000000000000000000000000008152600401610b1890612c96565b60405180910390fd5b6000826060013511610b68576040517f08c379a0000000000000000000000000000000000000000000000000000000008152600401610b5f90612d02565b60405180910390fd5b34826060013514610bae576040517f08c379a0000000000000000000000000000000000000000000000000000000008152600401610ba590612d94565b60405180910390fd5b600073ffffffffffffffffffffffffffffffffffffffff16826040016020810190610bd9919061217d565b73ffffffffffffffffffffffffffffffffffffffff161415610c30576040517f08c379a0000000000000000000000000000000000000000000000000000000008152600401610c2790612e00565b60405180910390fd5b60018290806001815401808255809150506001900390600052602060002090600802016000909190919091508181610c68919061330a565b505060018080549050610c7b9190613318565b9050919050565b60606000805b600180549050811015610d30578373ffffffffffffffffffffffffffffffffffffffff1660018281548110610cc057610cbf612469565b5b906000526020600020906008020160020160009054906101000a900473ffffffffffffffffffffffffffffffffffffffff1673ffffffffffffffffffffffffffffffffffffffff161415610d1d578180610d199061251d565b9250505b8080610d289061251d565b915050610c88565b508067ffffffffffffffff811115610d4b57610d4a612566565b5b604051908082528060200260200182016040528015610d8457816020015b610d71611bcc565b815260200190600190039081610d695790505b5091506000805b600180549050811015611139578473ffffffffffffffffffffffffffffffffffffffff1660018281548110610dc357610dc2612469565b5b906000526020600020906008020160020160009054906101000a900473ffffffffffffffffffffffffffffffffffffffff1673ffffffffffffffffffffffffffffffffffffffff1614156111265760018181548110610e2557610e24612469565b5b906000526020600020906008020160405180610100016040529081600082018054610e4f906125c4565b80601f0160208091040260200160405190810160405280929190818152602001828054610e7b906125c4565b8015610ec85780601f10610e9d57610100808354040283529160200191610ec8565b820191906000526020600020905b815481529060010190602001808311610eab57829003601f168201915b50505050508152602001600182018054610ee1906125c4565b80601f0160208091040260200160405190810160405280929190818152602001828054610f0d906125c4565b8015610f5a5780601f10610f2f57610100808354040283529160200191610f5a565b820191906000526020600020905b815481529060010190602001808311610f3d57829003601f168201915b505050505081526020016002820160009054906101000a900473ffffffffffffffffffffffffffffffffffffffff1673ffffffffffffffffffffffffffffffffffffffff1673ffffffffffffffffffffffffffffffffffffffff168152602001600382015481526020016004820154815260200160058201548152602001600682018054610fe7906125c4565b80601f0160208091040260200160405190810160405280929190818152602001828054611013906125c4565b80156110605780601f1061103557610100808354040283529160200191611060565b820191906000526020600020905b81548152906001019060200180831161104357829003601f168201915b50505050508152602001600782018054611079906125c4565b80601f01602080910402602001604051908101604052809291908181526020018280546110a5906125c4565b80156110f25780601f106110c7576101008083540402835291602001916110f2565b820191906000526020600020905b8154815290600101906020018083116110d557829003601f168201915b5050505050815250508483806111079061251d565b94508151811061111a57611119612469565b5b60200260200101819052505b80806111319061251d565b915050610d8b565b505050919050565b8360018054905011611188576040517f08c379a000000000000000000000000000000000000000000000000000000000815260040161117f90613398565b60405180910390fd5b3373ffffffffffffffffffffffffffffffffffffffff16600185815481106111b3576111b2612469565b5b906000526020600020906008020160020160009054906101000a900473ffffffffffffffffffffffffffffffffffffffff1673ffffffffffffffffffffffffffffffffffffffff161461123b576040517f08c379a00000000000000000000000000000000000000000000000000000000081526004016112329061342a565b60405180910390fd5b42600185815481106112505761124f612469565b5b906000526020600020906008020160040154116112a2576040517f08c379a0000000000000000000000000000000000000000000000000000000008152600401611299906134bc565b60405180910390fd5b600073ffffffffffffffffffffffffffffffffffffffff168173ffffffffffffffffffffffffffffffffffffffff161415611312576040517f08c379a000000000000000000000000000000000000000000000000000000000815260040161130990612e00565b60405180910390fd5b60006001858154811061132857611327612469565b5b90600052602060002090600802019050838382600101919061134b929190611c27565b50818160020160006101000a81548173ffffffffffffffffffffffffffffffffffffffff021916908373ffffffffffffffffffffffffffffffffffffffff1602179055505050505050565b600181815481106113a657600080fd5b90600052602060002090600802016000915090508060000180546113c9906125c4565b80601f01602080910402602001604051908101604052809291908181526020018280546113f5906125c4565b80156114425780601f1061141757610100808354040283529160200191611442565b820191906000526020600020905b81548152906001019060200180831161142557829003601f168201915b505050505090806001018054611457906125c4565b80601f0160208091040260200160405190810160405280929190818152602001828054611483906125c4565b80156114d05780601f106114a5576101008083540402835291602001916114d0565b820191906000526020600020905b8154815290600101906020018083116114b357829003601f168201915b5050505050908060020160009054906101000a900473ffffffffffffffffffffffffffffffffffffffff169080600301549080600401549080600501549080600601805461151d906125c4565b80601f0160208091040260200160405190810160405280929190818152602001828054611549906125c4565b80156115965780601f1061156b57610100808354040283529160200191611596565b820191906000526020600020905b81548152906001019060200180831161157957829003601f168201915b5050505050908060070180546115ab906125c4565b80601f01602080910402602001604051908101604052809291908181526020018280546115d7906125c4565b80156116245780601f106115f957610100808354040283529160200191611624565b820191906000526020600020905b81548152906001019060200180831161160757829003601f168201915b5050505050905088565b6002602052816000526040600020602052806000526040600020600091509150508060010154908060020160009054906101000a900473ffffffffffffffffffffffffffffffffffffffff16905082565b426001838154811061169457611693612469565b5b90600052602060002090600802016004015411156116e7576040517f08c379a00000000000000000000000000000000000000000000000000000000081526004016116de90613528565b60405180910390fd5b42600183815481106116fc576116fb612469565b5b9060005260206000209060080201600501546001848154811061172257611721612469565b5b90600052602060002090600802016004015461173e91906124c7565b101561177f576040517f08c379a000000000000000000000000000000000000000000000000000000000815260040161177690613594565b60405180910390fd5b60006002600084815260200190815260200160002060003373ffffffffffffffffffffffffffffffffffffffff1673ffffffffffffffffffffffffffffffffffffffff1681526020019081526020016000206001015414611815576040517f08c379a000000000000000000000000000000000000000000000000000000000815260040161180c90613626565b60405180910390fd5b60005b600181101561190e57600460ff1682826001811061183957611838612469565b5b60200201602081019061184c919061367f565b60ff161061188f576040517f08c379a0000000000000000000000000000000000000000000000000000000008152600401611886906136f8565b60405180910390fd5b60008282600181106118a4576118a3612469565b5b6020020160208101906118b7919061367f565b60ff1614156118fb576040517f08c379a00000000000000000000000000000000000000000000000000000000081526004016118f290613764565b60405180910390fd5b80806119069061251d565b915050611818565b506040518060600160405280826001806020026040519081016040528092919082600160200280828437600081840152601f19601f82011690508083019250505050505081526020014281526020013373ffffffffffffffffffffffffffffffffffffffff168152506002600084815260200190815260200160002060003373ffffffffffffffffffffffffffffffffffffffff1673ffffffffffffffffffffffffffffffffffffffff1681526020019081526020016000206000820151816000019060016119de929190611cad565b506020820151816001015560408201518160020160006101000a81548173ffffffffffffffffffffffffffffffffffffffff021916908373ffffffffffffffffffffffffffffffffffffffff1602179055509050505050565b6001805490508210611a7e576040517f08c379a0000000000000000000000000000000000000000000000000000000008152600401611a75906137d0565b60405180910390fd5b60018281548110611a9257611a91612469565b5b90600052602060002090600802016005015460018381548110611ab857611ab7612469565b5b906000526020600020906008020160040154611ad491906124c7565b4211611b15576040517f08c379a0000000000000000000000000000000000000000000000000000000008152600401611b0c90613862565b60405180910390fd5b3373ffffffffffffffffffffffffffffffffffffffff1660018381548110611b4057611b3f612469565b5b906000526020600020906008020160020160009054906101000a900473ffffffffffffffffffffffffffffffffffffffff1673ffffffffffffffffffffffffffffffffffffffff1614611bc8576040517f08c379a0000000000000000000000000000000000000000000000000000000008152600401611bbf906138f4565b60405180910390fd5b5050565b6040518061010001604052806060815260200160608152602001600073ffffffffffffffffffffffffffffffffffffffff16815260200160008152602001600081526020016000815260200160608152602001606081525090565b828054611c33906125c4565b90600052602060002090601f016020900481019282611c555760008555611c9c565b82601f10611c6e57803560ff1916838001178555611c9c565b82800160010185558215611c9c579182015b82811115611c9b578235825591602001919060010190611c80565b5b509050611ca99190611d47565b5090565b826001601f01602090048101928215611d365791602002820160005b83821115611d0757835183826101000a81548160ff021916908360ff1602179055509260200192600101602081600001049283019260010302611cc9565b8015611d345782816101000a81549060ff0219169055600101602081600001049283019260010302611d07565b505b509050611d439190611d47565b5090565b5b80821115611d60576000816000905550600101611d48565b5090565b600081519050919050565b600082825260208201905092915050565b6000819050602082019050919050565b600081519050919050565b600082825260208201905092915050565b60005b83811015611dca578082015181840152602081019050611daf565b83811115611dd9576000848401525b50505050565b6000601f19601f8301169050919050565b6000611dfb82611d90565b611e058185611d9b565b9350611e15818560208601611dac565b611e1e81611ddf565b840191505092915050565b600073ffffffffffffffffffffffffffffffffffffffff82169050919050565b6000611e5482611e29565b9050919050565b611e6481611e49565b82525050565b6000819050919050565b611e7d81611e6a565b82525050565b6000610100830160008301518482036000860152611ea18282611df0565b91505060208301518482036020860152611ebb8282611df0565b9150506040830151611ed06040860182611e5b565b506060830151611ee36060860182611e74565b506080830151611ef66080860182611e74565b5060a0830151611f0960a0860182611e74565b5060c083015184820360c0860152611f218282611df0565b91505060e083015184820360e0860152611f3b8282611df0565b9150508091505092915050565b6000611f548383611e83565b905092915050565b6000602082019050919050565b6000611f7482611d64565b611f7e8185611d6f565b935083602082028501611f9085611d80565b8060005b85811015611fcc5784840389528151611fad8582611f48565b9450611fb883611f5c565b925060208a01995050600181019050611f94565b50829750879550505050505092915050565b60006020820190508181036000830152611ff88184611f69565b905092915050565b600080fd5b600080fd5b61201381611e6a565b811461201e57600080fd5b50565b6000813590506120308161200a565b92915050565b600080fd5b60008190508260206001028201111561205757612056612036565b5b92915050565b6000806040838503121561207457612073612000565b5b600061208285828601612021565b925050602083013567ffffffffffffffff8111156120a3576120a2612005565b5b6120af8582860161203b565b9150509250929050565b600080fd5b600061010082840312156120d5576120d46120b9565b5b81905092915050565b6000602082840312156120f4576120f3612000565b5b600082013567ffffffffffffffff81111561211257612111612005565b5b61211e848285016120be565b91505092915050565b61213081611e6a565b82525050565b600060208201905061214b6000830184612127565b92915050565b61215a81611e49565b811461216557600080fd5b50565b60008135905061217781612151565b92915050565b60006020828403121561219357612192612000565b5b60006121a184828501612168565b91505092915050565b600080fd5b600080fd5b60008083601f8401126121ca576121c96121aa565b5b8235905067ffffffffffffffff8111156121e7576121e66121af565b5b60208301915083600182028301111561220357612202612036565b5b9250929050565b6000806000806060858703121561222457612223612000565b5b600061223287828801612021565b945050602085013567ffffffffffffffff81111561225357612252612005565b5b61225f878288016121b4565b9350935050604061227287828801612168565b91505092959194509250565b60006020828403121561229457612293612000565b5b60006122a284828501612021565b91505092915050565b600082825260208201905092915050565b60006122c782611d90565b6122d181856122ab565b93506122e1818560208601611dac565b6122ea81611ddf565b840191505092915050565b6122fe81611e49565b82525050565b600061010082019050818103600083015261231f818b6122bc565b90508181036020830152612333818a6122bc565b905061234260408301896122f5565b61234f6060830188612127565b61235c6080830187612127565b61236960a0830186612127565b81810360c083015261237b81856122bc565b905081810360e083015261238f81846122bc565b90509998505050505050505050565b600080604083850312156123b5576123b4612000565b5b60006123c385828601612021565b92505060206123d485828601612168565b9150509250929050565b60006040820190506123f36000830185612127565b61240060208301846122f5565b9392505050565b60008190508260206001028201111561242357612422612036565b5b92915050565b600080604083850312156124405761243f612000565b5b600061244e85828601612021565b925050602061245f85828601612407565b9150509250929050565b7f4e487b7100000000000000000000000000000000000000000000000000000000600052603260045260246000fd5b7f4e487b7100000000000000000000000000000000000000000000000000000000600052601160045260246000fd5b60006124d282611e6a565b91506124dd83611e6a565b9250827fffffffffffffffffffffffffffffffffffffffffffffffffffffffffffffffff0382111561251257612511612498565b5b828201905092915050565b600061252882611e6a565b91507fffffffffffffffffffffffffffffffffffffffffffffffffffffffffffffffff82141561255b5761255a612498565b5b600182019050919050565b7f4e487b7100000000000000000000000000000000000000000000000000000000600052604160045260246000fd5b7f4e487b7100000000000000000000000000000000000000000000000000000000600052602260045260246000fd5b600060028204905060018216806125dc57607f821691505b602082108114156125f0576125ef612595565b5b50919050565b7f4f6e6c79206f776e6572206f7220746865207175697a2063726561746f72206360008201527f616e207375626d6974207175657374696f6e7300000000000000000000000000602082015250565b60006126526033836122ab565b915061265d826125f6565b604082019050919050565b6000602082019050818103600083015261268181612645565b9050919050565b600080fd5b600080fd5b600080fd5b6000823560016040038336030381126126b3576126b2612688565b5b80830191505092915050565b600080833560016020038436030381126126dc576126db612688565b5b80840192508235915067ffffffffffffffff8211156126fe576126fd61268d565b5b60208301925060018202360383131561271a57612719612692565b5b509250929050565b7f5175657374696f6e2063616e6e6f7420626520656d7074790000000000000000600082015250565b60006127586018836122ab565b915061276382612722565b602082019050919050565b600060208201905081810360008301526127878161274b565b9050919050565b6000823560016080038336030381126127aa576127a9612688565b5b80830191505092915050565b7f4f7074696f6e2063616e6e6f7420626520656d70747900000000000000000000600082015250565b60006127ec6016836122ab565b91506127f7826127b6565b602082019050919050565b6000602082019050818103600083015261281b816127df565b9050919050565b600060019050919050565b600081905092915050565b6000819050919050565b600080fd5b600080fd5b600080fd5b6000808335600160200384360303811261286e5761286d61284c565b5b83810192508235915060208301925067ffffffffffffffff82111561289657612895612842565b5b6001820236038413156128ac576128ab612847565b5b509250929050565b82818337600083830152505050565b60006128cf8385611d9b565b93506128dc8385846128b4565b6128e583611ddf565b840190509392505050565b60008235600160800383360303811261290c5761290b61284c565b5b82810191505092915050565b600060049050919050565b600081905092915050565b6000819050919050565b60006129458484846128c3565b90509392505050565b6000602082019050919050565b600061296682612918565b6129708185612923565b9350836020820285016129828561292e565b8060005b858110156129c857848403895261299d8284612851565b6129a8868284612938565b95506129b38461294e565b935060208b019a505050600181019050612986565b50829750879550505050505092915050565b6000604083016129ed6000840184612851565b8583036000870152612a008382846128c3565b92505050612a1160208401846128f0565b8482036020860152612a23828261295b565b9150508091505092915050565b6000612a3c83836129da565b905092915050565b600082356001604003833603038112612a6057612a5f61284c565b5b82810191505092915050565b6000602082019050919050565b6000612a8482612822565b612a8e818561282d565b935083602082028501612aa085612838565b8060005b85811015612ae4578484038952612abb8284612a44565b612ac58582612a30565b9450612ad083612a6c565b925060208a01995050600181019050612aa4565b50829750879550505050505092915050565b6000604082019050612b0b6000830185612127565b8181036020830152612b1d8184612a79565b90509392505050565b7f5175697a2063616e6e6f74206265206372656174656420696e2074686520706160008201527f7374000000000000000000000000000000000000000000000000000000000000602082015250565b6000612b826022836122ab565b9150612b8d82612b26565b604082019050919050565b60006020820190508181036000830152612bb181612b75565b9050919050565b7f5175697a2063616e6e6f742062652063726561746564207769746820656e642060008201527f74696d65206265666f72652073746172742074696d6500000000000000000000602082015250565b6000612c146036836122ab565b9150612c1f82612bb8565b604082019050919050565b60006020820190508181036000830152612c4381612c07565b9050919050565b7f5175697a206e616d652063616e6e6f7420626520656d70747900000000000000600082015250565b6000612c806019836122ab565b9150612c8b82612c4a565b602082019050919050565b60006020820190508181036000830152612caf81612c73565b9050919050565b7f5072697a65206d6f6e65792063616e6e6f74206265207a65726f000000000000600082015250565b6000612cec601a836122ab565b9150612cf782612cb6565b602082019050919050565b60006020820190508181036000830152612d1b81612cdf565b9050919050565b7f5072697a65206d6f6e6579206d757374206d617463682074686520616d6f756e60008201527f742073656e740000000000000000000000000000000000000000000000000000602082015250565b6000612d7e6026836122ab565b9150612d8982612d22565b604082019050919050565b60006020820190508181036000830152612dad81612d71565b9050919050565b7f5175697a206f776e65722063616e6e6f7420626520656d707479000000000000600082015250565b6000612dea601a836122ab565b9150612df582612db4565b602082019050919050565b60006020820190508181036000830152612e1981612ddd565b9050919050565b600082905092915050565b60008190508160005260206000209050919050565b60006020601f8301049050919050565b600082821b905092915050565b600060088302612e8d7fffffffffffffffffffffffffffffffffffffffffffffffffffffffffffffffff82612e50565b612e978683612e50565b95508019841693508086168417925050509392505050565b6000819050919050565b6000612ed4612ecf612eca84611e6a565b612eaf565b611e6a565b9050919050565b6000819050919050565b612eee83612eb9565b612f02612efa82612edb565b848454612e5d565b825550505050565b600090565b612f17612f0a565b612f22818484612ee5565b505050565b5b81811015612f4657612f3b600082612f0f565b600181019050612f28565b5050565b601f821115612f8b57612f5c81612e2b565b612f6584612e40565b81016020851015612f74578190505b612f88612f8085612e40565b830182612f27565b50505b505050565b600082821c905092915050565b6000612fae60001984600802612f90565b1980831691505092915050565b6000612fc78383612f9d565b9150826002028217905092915050565b612fe18383612e20565b67ffffffffffffffff811115612ffa57612ff9612566565b5b61300482546125c4565b61300f828285612f4a565b6000601f83116001811461303e576000841561302c578287013590505b6130368582612fbb565b86555061309e565b601f19841661304c86612e2b565b60005b828110156130745784890135825560018201915060208501945060208101905061304f565b86831015613091578489013561308d601f891682612f9d565b8355505b6001600288020188555050505b50505050505050565b6130b2838383612fd7565b505050565b600081356130c481612151565b80915050919050565b60008160001b9050919050565b600073ffffffffffffffffffffffffffffffffffffffff6130fa846130cd565b9350801983169250808416831791505092915050565b600061312b61312661312184611e29565b612eaf565b611e29565b9050919050565b600061313d82613110565b9050919050565b600061314f82613132565b9050919050565b6000819050919050565b61316982613144565b61317c61317582613156565b83546130da565b8255505050565b600081356131908161200a565b80915050919050565b60007fffffffffffffffffffffffffffffffffffffffffffffffffffffffffffffffff6131c5846130cd565b9350801983169250808416831791505092915050565b6131e482612eb9565b6131f76131f082612edb565b8354613199565b8255505050565b600081016000830161321081856126bf565b61321b8183866130a7565b50505050600181016020830161323181856126bf565b61323c8183866130a7565b50505050600281016040830180613252816130b7565b905061325e8184613160565b50505060038101606083018061327381613183565b905061327f81846131db565b50505060048101608083018061329481613183565b90506132a081846131db565b5050506005810160a08301806132b581613183565b90506132c181846131db565b5050506006810160c083016132d681856126bf565b6132e18183866130a7565b505050506007810160e083016132f781856126bf565b6133028183866130a7565b505050505050565b61331482826131fe565b5050565b600061332382611e6a565b915061332e83611e6a565b92508282101561334157613340612498565b5b828203905092915050565b7f5175697a20496420646f6573206e6f7420657869737473000000000000000000600082015250565b60006133826017836122ab565b915061338d8261334c565b602082019050919050565b600060208201905081810360008301526133b181613375565b9050919050565b7f4f6e6c79205175697a204f776e65722063616e2075706461746520746865207160008201527f75697a0000000000000000000000000000000000000000000000000000000000602082015250565b60006134146023836122ab565b915061341f826133b8565b604082019050919050565b6000602082019050818103600083015261344381613407565b9050919050565b7f5175697a2063616e2062652075706461746564206265666f726520737461727460008201527f206f6620746865207175697a0000000000000000000000000000000000000000602082015250565b60006134a6602c836122ab565b91506134b18261344a565b604082019050919050565b600060208201905081810360008301526134d581613499565b9050919050565b7f5175697a20686173206e6f742073746172746564207965740000000000000000600082015250565b60006135126018836122ab565b915061351d826134dc565b602082019050919050565b6000602082019050818103600083015261354181613505565b9050919050565b7f5175697a2068617320656e646564000000000000000000000000000000000000600082015250565b600061357e600e836122ab565b915061358982613548565b602082019050919050565b600060208201905081810360008301526135ad81613571565b9050919050565b7f596f75206861766520616c7265616479207375626d697474656420746865206160008201527f6e73776572730000000000000000000000000000000000000000000000000000602082015250565b60006136106026836122ab565b915061361b826135b4565b604082019050919050565b6000602082019050818103600083015261363f81613603565b9050919050565b600060ff82169050919050565b61365c81613646565b811461366757600080fd5b50565b60008135905061367981613653565b92915050565b60006020828403121561369557613694612000565b5b60006136a38482850161366a565b91505092915050565b7f416e73776572206973206f7574206f662072616e676500000000000000000000600082015250565b60006136e26016836122ab565b91506136ed826136ac565b602082019050919050565b60006020820190508181036000830152613711816136d5565b9050919050565b7f416e737765722063616e6e6f7420626520656d70747900000000000000000000600082015250565b600061374e6016836122ab565b915061375982613718565b602082019050919050565b6000602082019050818103600083015261377d81613741565b9050919050565b7f5175697a20646f6573206e6f7420657869737400000000000000000000000000600082015250565b60006137ba6013836122ab565b91506137c582613784565b602082019050919050565b600060208201905081810360008301526137e9816137ad565b9050919050565b7f436f727265637420416e73776572732063616e6e6f74206265207375626d697460008201527f746564206265666f726520656e642074696d6500000000000000000000000000602082015250565b600061384c6033836122ab565b9150613857826137f0565b604082019050919050565b6000602082019050818103600083015261387b8161383f565b9050919050565b7f4f6e6c79207175697a206f776e65722063616e207375626d697420636f72726560008201527f637420616e737765727300000000000000000000000000000000000000000000602082015250565b60006138de602a836122ab565b91506138e982613882565b604082019050919050565b6000602082019050818103600083015261390d816138d1565b905091905056fea2646970667358221220e3879d69dcf0cd567286030f11e0ee15f8db9fa8c8c076ff1e8f204bc123fb4c64736f6c634300080b0033",
			"opcodes": "PUSH1 0x80 PUSH1 0x40 MSTORE CALLVALUE DUP1 ISZERO PUSH2 0x10 JUMPI PUSH1 0x0 DUP1 REVERT JUMPDEST POP CALLER PUSH1 0x0 DUP1 PUSH2 0x100 EXP DUP2 SLOAD DUP2 PUSH20 0xFFFFFFFFFFFFFFFFFFFFFFFFFFFFFFFFFFFFFFFF MUL NOT AND SWAP1 DUP4 PUSH20 0xFFFFFFFFFFFFFFFFFFFFFFFFFFFFFFFFFFFFFFFF AND MUL OR SWAP1 SSTORE POP PUSH2 0x394A DUP1 PUSH2 0x60 PUSH1 0x0 CODECOPY PUSH1 0x0 RETURN INVALID PUSH1 0x80 PUSH1 0x40 MSTORE PUSH1 0x4 CALLDATASIZE LT PUSH2 0x86 JUMPI PUSH1 0x0 CALLDATALOAD PUSH1 0xE0 SHR DUP1 PUSH4 0x83421966 GT PUSH2 0x59 JUMPI DUP1 PUSH4 0x83421966 EQ PUSH2 0x14C JUMPI DUP1 PUSH4 0x88409AFA EQ PUSH2 0x175 JUMPI DUP1 PUSH4 0x97D62620 EQ PUSH2 0x1B9 JUMPI DUP1 PUSH4 0xB6C3C9B9 EQ PUSH2 0x1F7 JUMPI DUP1 PUSH4 0xE2CCE1C6 EQ PUSH2 0x220 JUMPI PUSH2 0x86 JUMP JUMPDEST DUP1 PUSH4 0x17079261 EQ PUSH2 0x8B JUMPI DUP1 PUSH4 0x224164C3 EQ PUSH2 0xB6 JUMPI DUP1 PUSH4 0x3BCE9437 EQ PUSH2 0xDF JUMPI DUP1 PUSH4 0x5D9C61C2 EQ PUSH2 0x10F JUMPI JUMPDEST PUSH1 0x0 DUP1 REVERT JUMPDEST CALLVALUE DUP1 ISZERO PUSH2 0x97 JUMPI PUSH1 0x0 DUP1 REVERT JUMPDEST POP PUSH2 0xA0 PUSH2 0x249 JUMP JUMPDEST PUSH1 0x40 MLOAD PUSH2 0xAD SWAP2 SWAP1 PUSH2 0x1FDE JUMP JUMPDEST PUSH1 0x40 MLOAD DUP1 SWAP2 SUB SWAP1 RETURN JUMPDEST CALLVALUE DUP1 ISZERO PUSH2 0xC2 JUMPI PUSH1 0x0 DUP1 REVERT JUMPDEST POP PUSH2 0xDD PUSH1 0x4 DUP1 CALLDATASIZE SUB DUP2 ADD SWAP1 PUSH2 0xD8 SWAP2 SWAP1 PUSH2 0x205D JUMP JUMPDEST PUSH2 0x738 JUMP JUMPDEST STOP JUMPDEST PUSH2 0xF9 PUSH1 0x4 DUP1 CALLDATASIZE SUB DUP2 ADD SWAP1 PUSH2 0xF4 SWAP2 SWAP1 PUSH2 0x20DE JUMP JUMPDEST PUSH2 0xA2B JUMP JUMPDEST PUSH1 0x40 MLOAD PUSH2 0x106 SWAP2 SWAP1 PUSH2 0x2136 JUMP JUMPDEST PUSH1 0x40 MLOAD DUP1 SWAP2 SUB SWAP1 RETURN JUMPDEST CALLVALUE DUP1 ISZERO PUSH2 0x11B JUMPI PUSH1 0x0 DUP1 REVERT JUMPDEST POP PUSH2 0x136 PUSH1 0x4 DUP1 CALLDATASIZE SUB DUP2 ADD SWAP1 PUSH2 0x131 SWAP2 SWAP1 PUSH2 0x217D JUMP JUMPDEST PUSH2 0xC82 JUMP JUMPDEST PUSH1 0x40 MLOAD PUSH2 0x143 SWAP2 SWAP1 PUSH2 0x1FDE JUMP JUMPDEST PUSH1 0x40 MLOAD DUP1 SWAP2 SUB SWAP1 RETURN JUMPDEST CALLVALUE DUP1 ISZERO PUSH2 0x158 JUMPI PUSH1 0x0 DUP1 REVERT JUMPDEST POP PUSH2 0x173 PUSH1 0x4 DUP1 CALLDATASIZE SUB DUP2 ADD SWAP1 PUSH2 0x16E SWAP2 SWAP1 PUSH2 0x220A JUMP JUMPDEST PUSH2 0x1141 JUMP JUMPDEST STOP JUMPDEST CALLVALUE DUP1 ISZERO PUSH2 0x181 JUMPI PUSH1 0x0 DUP1 REVERT JUMPDEST POP PUSH2 0x19C PUSH1 0x4 DUP1 CALLDATASIZE SUB DUP2 ADD SWAP1 PUSH2 0x197 SWAP2 SWAP1 PUSH2 0x227E JUMP JUMPDEST PUSH2 0x1396 JUMP JUMPDEST PUSH1 0x40 MLOAD PUSH2 0x1B0 SWAP9 SWAP8 SWAP7 SWAP6 SWAP5 SWAP4 SWAP3 SWAP2 SWAP1 PUSH2 0x2304 JUMP JUMPDEST PUSH1 0x40 MLOAD DUP1 SWAP2 SUB SWAP1 RETURN JUMPDEST CALLVALUE DUP1 ISZERO PUSH2 0x1C5 JUMPI PUSH1 0x0 DUP1 REVERT JUMPDEST POP PUSH2 0x1E0 PUSH1 0x4 DUP1 CALLDATASIZE SUB DUP2 ADD SWAP1 PUSH2 0x1DB SWAP2 SWAP1 PUSH2 0x239E JUMP JUMPDEST PUSH2 0x162E JUMP JUMPDEST PUSH1 0x40 MLOAD PUSH2 0x1EE SWAP3 SWAP2 SWAP1 PUSH2 0x23DE JUMP JUMPDEST PUSH1 0x40 MLOAD DUP1 SWAP2 SUB SWAP1 RETURN JUMPDEST CALLVALUE DUP1 ISZERO PUSH2 0x203 JUMPI PUSH1 0x0 DUP1 REVERT JUMPDEST POP PUSH2 0x21E PUSH1 0x4 DUP1 CALLDATASIZE SUB DUP2 ADD SWAP1 PUSH2 0x219 SWAP2 SWAP1 PUSH2 0x2429 JUMP JUMPDEST PUSH2 0x167F JUMP JUMPDEST STOP JUMPDEST CALLVALUE DUP1 ISZERO PUSH2 0x22C JUMPI PUSH1 0x0 DUP1 REVERT JUMPDEST POP PUSH2 0x247 PUSH1 0x4 DUP1 CALLDATASIZE SUB DUP2 ADD SWAP1 PUSH2 0x242 SWAP2 SWAP1 PUSH2 0x2429 JUMP JUMPDEST PUSH2 0x1A37 JUMP JUMPDEST STOP JUMPDEST PUSH1 0x60 PUSH1 0x0 TIMESTAMP SWAP1 POP PUSH1 0x0 DUP1 JUMPDEST PUSH1 0x1 DUP1 SLOAD SWAP1 POP DUP2 LT ISZERO PUSH2 0x312 JUMPI DUP3 PUSH1 0x1 DUP3 DUP2 SLOAD DUP2 LT PUSH2 0x276 JUMPI PUSH2 0x275 PUSH2 0x2469 JUMP JUMPDEST JUMPDEST SWAP1 PUSH1 0x0 MSTORE PUSH1 0x20 PUSH1 0x0 KECCAK256 SWAP1 PUSH1 0x8 MUL ADD PUSH1 0x4 ADD SLOAD GT ISZERO DUP1 ISZERO PUSH2 0x2EB JUMPI POP DUP3 PUSH1 0x1 DUP3 DUP2 SLOAD DUP2 LT PUSH2 0x2A6 JUMPI PUSH2 0x2A5 PUSH2 0x2469 JUMP JUMPDEST JUMPDEST SWAP1 PUSH1 0x0 MSTORE PUSH1 0x20 PUSH1 0x0 KECCAK256 SWAP1 PUSH1 0x8 MUL ADD PUSH1 0x5 ADD SLOAD PUSH1 0x1 DUP4 DUP2 SLOAD DUP2 LT PUSH2 0x2CC JUMPI PUSH2 0x2CB PUSH2 0x2469 JUMP JUMPDEST JUMPDEST SWAP1 PUSH1 0x0 MSTORE PUSH1 0x20 PUSH1 0x0 KECCAK256 SWAP1 PUSH1 0x8 MUL ADD PUSH1 0x4 ADD SLOAD PUSH2 0x2E8 SWAP2 SWAP1 PUSH2 0x24C7 JUMP JUMPDEST LT ISZERO JUMPDEST ISZERO PUSH2 0x2FF JUMPI DUP2 DUP1 PUSH2 0x2FB SWAP1 PUSH2 0x251D JUMP JUMPDEST SWAP3 POP POP JUMPDEST DUP1 DUP1 PUSH2 0x30A SWAP1 PUSH2 0x251D JUMP JUMPDEST SWAP2 POP POP PUSH2 0x254 JUMP JUMPDEST POP DUP1 PUSH8 0xFFFFFFFFFFFFFFFF DUP2 GT ISZERO PUSH2 0x32D JUMPI PUSH2 0x32C PUSH2 0x2566 JUMP JUMPDEST JUMPDEST PUSH1 0x40 MLOAD SWAP1 DUP1 DUP3 MSTORE DUP1 PUSH1 0x20 MUL PUSH1 0x20 ADD DUP3 ADD PUSH1 0x40 MSTORE DUP1 ISZERO PUSH2 0x366 JUMPI DUP2 PUSH1 0x20 ADD JUMPDEST PUSH2 0x353 PUSH2 0x1BCC JUMP JUMPDEST DUP2 MSTORE PUSH1 0x20 ADD SWAP1 PUSH1 0x1 SWAP1 SUB SWAP1 DUP2 PUSH2 0x34B JUMPI SWAP1 POP JUMPDEST POP SWAP3 POP PUSH1 0x0 DUP1 JUMPDEST PUSH1 0x1 DUP1 SLOAD SWAP1 POP DUP2 LT ISZERO PUSH2 0x731 JUMPI DUP4 PUSH1 0x1 DUP3 DUP2 SLOAD DUP2 LT PUSH2 0x38F JUMPI PUSH2 0x38E PUSH2 0x2469 JUMP JUMPDEST JUMPDEST SWAP1 PUSH1 0x0 MSTORE PUSH1 0x20 PUSH1 0x0 KECCAK256 SWAP1 PUSH1 0x8 MUL ADD PUSH1 0x4 ADD SLOAD GT ISZERO DUP1 ISZERO PUSH2 0x404 JUMPI POP DUP4 PUSH1 0x1 DUP3 DUP2 SLOAD DUP2 LT PUSH2 0x3BF JUMPI PUSH2 0x3BE PUSH2 0x2469 JUMP JUMPDEST JUMPDEST SWAP1 PUSH1 0x0 MSTORE PUSH1 0x20 PUSH1 0x0 KECCAK256 SWAP1 PUSH1 0x8 MUL ADD PUSH1 0x5 ADD SLOAD PUSH1 0x1 DUP4 DUP2 SLOAD DUP2 LT PUSH2 0x3E5 JUMPI PUSH2 0x3E4 PUSH2 0x2469 JUMP JUMPDEST JUMPDEST SWAP1 PUSH1 0x0 MSTORE PUSH1 0x20 PUSH1 0x0 KECCAK256 SWAP1 PUSH1 0x8 MUL ADD PUSH1 0x4 ADD SLOAD PUSH2 0x401 SWAP2 SWAP1 PUSH2 0x24C7 JUMP JUMPDEST LT ISZERO JUMPDEST ISZERO PUSH2 0x71E JUMPI PUSH1 0x1 DUP2 DUP2 SLOAD DUP2 LT PUSH2 0x41D JUMPI PUSH2 0x41C PUSH2 0x2469 JUMP JUMPDEST JUMPDEST SWAP1 PUSH1 0x0 MSTORE PUSH1 0x20 PUSH1 0x0 KECCAK256 SWAP1 PUSH1 0x8 MUL ADD PUSH1 0x40 MLOAD DUP1 PUSH2 0x100 ADD PUSH1 0x40 MSTORE SWAP1 DUP2 PUSH1 0x0 DUP3 ADD DUP1 SLOAD PUSH2 0x447 SWAP1 PUSH2 0x25C4 JUMP JUMPDEST DUP1 PUSH1 0x1F ADD PUSH1 0x20 DUP1 SWAP2 DIV MUL PUSH1 0x20 ADD PUSH1 0x40 MLOAD SWAP1 DUP2 ADD PUSH1 0x40 MSTORE DUP1 SWAP3 SWAP2 SWAP1 DUP2 DUP2 MSTORE PUSH1 0x20 ADD DUP3 DUP1 SLOAD PUSH2 0x473 SWAP1 PUSH2 0x25C4 JUMP JUMPDEST DUP1 ISZERO PUSH2 0x4C0 JUMPI DUP1 PUSH1 0x1F LT PUSH2 0x495 JUMPI PUSH2 0x100 DUP1 DUP4 SLOAD DIV MUL DUP4 MSTORE SWAP2 PUSH1 0x20 ADD SWAP2 PUSH2 0x4C0 JUMP JUMPDEST DUP3 ADD SWAP2 SWAP1 PUSH1 0x0 MSTORE PUSH1 0x20 PUSH1 0x0 KECCAK256 SWAP1 JUMPDEST DUP2 SLOAD DUP2 MSTORE SWAP1 PUSH1 0x1 ADD SWAP1 PUSH1 0x20 ADD DUP1 DUP4 GT PUSH2 0x4A3 JUMPI DUP3 SWAP1 SUB PUSH1 0x1F AND DUP3 ADD SWAP2 JUMPDEST POP POP POP POP POP DUP2 MSTORE PUSH1 0x20 ADD PUSH1 0x1 DUP3 ADD DUP1 SLOAD PUSH2 0x4D9 SWAP1 PUSH2 0x25C4 JUMP JUMPDEST DUP1 PUSH1 0x1F ADD PUSH1 0x20 DUP1 SWAP2 DIV MUL PUSH1 0x20 ADD PUSH1 0x40 MLOAD SWAP1 DUP2 ADD PUSH1 0x40 MSTORE DUP1 SWAP3 SWAP2 SWAP1 DUP2 DUP2 MSTORE PUSH1 0x20 ADD DUP3 DUP1 SLOAD PUSH2 0x505 SWAP1 PUSH2 0x25C4 JUMP JUMPDEST DUP1 ISZERO PUSH2 0x552 JUMPI DUP1 PUSH1 0x1F LT PUSH2 0x527 JUMPI PUSH2 0x100 DUP1 DUP4 SLOAD DIV MUL DUP4 MSTORE SWAP2 PUSH1 0x20 ADD SWAP2 PUSH2 0x552 JUMP JUMPDEST DUP3 ADD SWAP2 SWAP1 PUSH1 0x0 MSTORE PUSH1 0x20 PUSH1 0x0 KECCAK256 SWAP1 JUMPDEST DUP2 SLOAD DUP2 MSTORE SWAP1 PUSH1 0x1 ADD SWAP1 PUSH1 0x20 ADD DUP1 DUP4 GT PUSH2 0x535 JUMPI DUP3 SWAP1 SUB PUSH1 0x1F AND DUP3 ADD SWAP2 JUMPDEST POP POP POP POP POP DUP2 MSTORE PUSH1 0x20 ADD PUSH1 0x2 DUP3 ADD PUSH1 0x0 SWAP1 SLOAD SWAP1 PUSH2 0x100 EXP SWAP1 DIV PUSH20 0xFFFFFFFFFFFFFFFFFFFFFFFFFFFFFFFFFFFFFFFF AND PUSH20 0xFFFFFFFFFFFFFFFFFFFFFFFFFFFFFFFFFFFFFFFF AND PUSH20 0xFFFFFFFFFFFFFFFFFFFFFFFFFFFFFFFFFFFFFFFF AND DUP2 MSTORE PUSH1 0x20 ADD PUSH1 0x3 DUP3 ADD SLOAD DUP2 MSTORE PUSH1 0x20 ADD PUSH1 0x4 DUP3 ADD SLOAD DUP2 MSTORE PUSH1 0x20 ADD PUSH1 0x5 DUP3 ADD SLOAD DUP2 MSTORE PUSH1 0x20 ADD PUSH1 0x6 DUP3 ADD DUP1 SLOAD PUSH2 0x5DF SWAP1 PUSH2 0x25C4 JUMP JUMPDEST DUP1 PUSH1 0x1F ADD PUSH1 0x20 DUP1 SWAP2 DIV MUL PUSH1 0x20 ADD PUSH1 0x40 MLOAD SWAP1 DUP2 ADD PUSH1 0x40 MSTORE DUP1 SWAP3 SWAP2 SWAP1 DUP2 DUP2 MSTORE PUSH1 0x20 ADD DUP3 DUP1 SLOAD PUSH2 0x60B SWAP1 PUSH2 0x25C4 JUMP JUMPDEST DUP1 ISZERO PUSH2 0x658 JUMPI DUP1 PUSH1 0x1F LT PUSH2 0x62D JUMPI PUSH2 0x100 DUP1 DUP4 SLOAD DIV MUL DUP4 MSTORE SWAP2 PUSH1 0x20 ADD SWAP2 PUSH2 0x658 JUMP JUMPDEST DUP3 ADD SWAP2 SWAP1 PUSH1 0x0 MSTORE PUSH1 0x20 PUSH1 0x0 KECCAK256 SWAP1 JUMPDEST DUP2 SLOAD DUP2 MSTORE SWAP1 PUSH1 0x1 ADD SWAP1 PUSH1 0x20 ADD DUP1 DUP4 GT PUSH2 0x63B JUMPI DUP3 SWAP1 SUB PUSH1 0x1F AND DUP3 ADD SWAP2 JUMPDEST POP POP POP POP POP DUP2 MSTORE PUSH1 0x20 ADD PUSH1 0x7 DUP3 ADD DUP1 SLOAD PUSH2 0x671 SWAP1 PUSH2 0x25C4 JUMP JUMPDEST DUP1 PUSH1 0x1F ADD PUSH1 0x20 DUP1 SWAP2 DIV MUL PUSH1 0x20 ADD PUSH1 0x40 MLOAD SWAP1 DUP2 ADD PUSH1 0x40 MSTORE DUP1 SWAP3 SWAP2 SWAP1 DUP2 DUP2 MSTORE PUSH1 0x20 ADD DUP3 DUP1 SLOAD PUSH2 0x69D SWAP1 PUSH2 0x25C4 JUMP JUMPDEST DUP1 ISZERO PUSH2 0x6EA JUMPI DUP1 PUSH1 0x1F LT PUSH2 0x6BF JUMPI PUSH2 0x100 DUP1 DUP4 SLOAD DIV MUL DUP4 MSTORE SWAP2 PUSH1 0x20 ADD SWAP2 PUSH2 0x6EA JUMP JUMPDEST DUP3 ADD SWAP2 SWAP1 PUSH1 0x0 MSTORE PUSH1 0x20 PUSH1 0x0 KECCAK256 SWAP1 JUMPDEST DUP2 SLOAD DUP2 MSTORE SWAP1 PUSH1 0x1 ADD SWAP1 PUSH1 0x20 ADD DUP1 DUP4 GT PUSH2 0x6CD JUMPI DUP3 SWAP1 SUB PUSH1 0x1F AND DUP3 ADD SWAP2 JUMPDEST POP POP POP POP POP DUP2 MSTORE POP POP DUP6 DUP4 DUP1 PUSH2 0x6FF SWAP1 PUSH2 0x251D JUMP JUMPDEST SWAP5 POP DUP2 MLOAD DUP2 LT PUSH2 0x712 JUMPI PUSH2 0x711 PUSH2 0x2469 JUMP JUMPDEST JUMPDEST PUSH1 0x20 MUL PUSH1 0x20 ADD ADD DUP2 SWAP1 MSTORE POP JUMPDEST DUP1 DUP1 PUSH2 0x729 SWAP1 PUSH2 0x251D JUMP JUMPDEST SWAP2 POP POP PUSH2 0x36D JUMP JUMPDEST POP POP POP POP SWAP1 JUMP JUMPDEST PUSH1 0x0 DUP1 SLOAD SWAP1 PUSH2 0x100 EXP SWAP1 DIV PUSH20 0xFFFFFFFFFFFFFFFFFFFFFFFFFFFFFFFFFFFFFFFF AND PUSH20 0xFFFFFFFFFFFFFFFFFFFFFFFFFFFFFFFFFFFFFFFF AND CALLER PUSH20 0xFFFFFFFFFFFFFFFFFFFFFFFFFFFFFFFFFFFFFFFF AND EQ DUP1 PUSH2 0x802 JUMPI POP PUSH1 0x1 DUP3 DUP2 SLOAD DUP2 LT PUSH2 0x7A1 JUMPI PUSH2 0x7A0 PUSH2 0x2469 JUMP JUMPDEST JUMPDEST SWAP1 PUSH1 0x0 MSTORE PUSH1 0x20 PUSH1 0x0 KECCAK256 SWAP1 PUSH1 0x8 MUL ADD PUSH1 0x2 ADD PUSH1 0x0 SWAP1 SLOAD SWAP1 PUSH2 0x100 EXP SWAP1 DIV PUSH20 0xFFFFFFFFFFFFFFFFFFFFFFFFFFFFFFFFFFFFFFFF AND PUSH20 0xFFFFFFFFFFFFFFFFFFFFFFFFFFFFFFFFFFFFFFFF AND CALLER PUSH20 0xFFFFFFFFFFFFFFFFFFFFFFFFFFFFFFFFFFFFFFFF AND EQ JUMPDEST PUSH2 0x841 JUMPI PUSH1 0x40 MLOAD PUSH32 0x8C379A000000000000000000000000000000000000000000000000000000000 DUP2 MSTORE PUSH1 0x4 ADD PUSH2 0x838 SWAP1 PUSH2 0x2668 JUMP JUMPDEST PUSH1 0x40 MLOAD DUP1 SWAP2 SUB SWAP1 REVERT JUMPDEST PUSH1 0x0 JUMPDEST PUSH1 0x1 DUP2 LT ISZERO PUSH2 0x9C3 JUMPI PUSH1 0x0 DUP3 DUP3 PUSH1 0x1 DUP2 LT PUSH2 0x862 JUMPI PUSH2 0x861 PUSH2 0x2469 JUMP JUMPDEST JUMPDEST PUSH1 0x20 MUL DUP2 ADD SWAP1 PUSH2 0x872 SWAP2 SWAP1 PUSH2 0x2697 JUMP JUMPDEST DUP1 PUSH1 0x0 ADD SWAP1 PUSH2 0x881 SWAP2 SWAP1 PUSH2 0x26BF JUMP JUMPDEST SWAP1 POP EQ ISZERO PUSH2 0x8C4 JUMPI PUSH1 0x40 MLOAD PUSH32 0x8C379A000000000000000000000000000000000000000000000000000000000 DUP2 MSTORE PUSH1 0x4 ADD PUSH2 0x8BB SWAP1 PUSH2 0x276E JUMP JUMPDEST PUSH1 0x40 MLOAD DUP1 SWAP2 SUB SWAP1 REVERT JUMPDEST PUSH1 0x0 JUMPDEST DUP3 DUP3 PUSH1 0x1 DUP2 LT PUSH2 0x8DA JUMPI PUSH2 0x8D9 PUSH2 0x2469 JUMP JUMPDEST JUMPDEST PUSH1 0x20 MUL DUP2 ADD SWAP1 PUSH2 0x8EA SWAP2 SWAP1 PUSH2 0x2697 JUMP JUMPDEST DUP1 PUSH1 0x20 ADD SWAP1 PUSH2 0x8F9 SWAP2 SWAP1 PUSH2 0x278E JUMP JUMPDEST POP PUSH1 0x4 DUP2 LT ISZERO PUSH2 0x9AF JUMPI PUSH1 0x0 DUP4 DUP4 PUSH1 0x1 DUP2 LT PUSH2 0x918 JUMPI PUSH2 0x917 PUSH2 0x2469 JUMP JUMPDEST JUMPDEST PUSH1 0x20 MUL DUP2 ADD SWAP1 PUSH2 0x928 SWAP2 SWAP1 PUSH2 0x2697 JUMP JUMPDEST DUP1 PUSH1 0x20 ADD SWAP1 PUSH2 0x937 SWAP2 SWAP1 PUSH2 0x278E JUMP JUMPDEST DUP3 PUSH1 0x4 DUP2 LT PUSH2 0x949 JUMPI PUSH2 0x948 PUSH2 0x2469 JUMP JUMPDEST JUMPDEST PUSH1 0x20 MUL DUP2 ADD SWAP1 PUSH2 0x959 SWAP2 SWAP1 PUSH2 0x26BF JUMP JUMPDEST SWAP1 POP EQ ISZERO PUSH2 0x99C JUMPI PUSH1 0x40 MLOAD PUSH32 0x8C379A000000000000000000000000000000000000000000000000000000000 DUP2 MSTORE PUSH1 0x4 ADD PUSH2 0x993 SWAP1 PUSH2 0x2802 JUMP JUMPDEST PUSH1 0x40 MLOAD DUP1 SWAP2 SUB SWAP1 REVERT JUMPDEST DUP1 DUP1 PUSH2 0x9A7 SWAP1 PUSH2 0x251D JUMP JUMPDEST SWAP2 POP POP PUSH2 0x8C7 JUMP JUMPDEST POP DUP1 DUP1 PUSH2 0x9BB SWAP1 PUSH2 0x251D JUMP JUMPDEST SWAP2 POP POP PUSH2 0x844 JUMP JUMPDEST POP TIMESTAMP PUSH1 0x1 DUP4 DUP2 SLOAD DUP2 LT PUSH2 0x9D9 JUMPI PUSH2 0x9D8 PUSH2 0x2469 JUMP JUMPDEST JUMPDEST SWAP1 PUSH1 0x0 MSTORE PUSH1 0x20 PUSH1 0x0 KECCAK256 SWAP1 PUSH1 0x8 MUL ADD PUSH1 0x4 ADD DUP2 SWAP1 SSTORE POP PUSH32 0xB5A265E268D51746E1D7589C6598FB5A4FADFB287E4A17EB32D5D7907F9C8A63 DUP3 DUP3 PUSH1 0x40 MLOAD PUSH2 0xA1F SWAP3 SWAP2 SWAP1 PUSH2 0x2AF6 JUMP JUMPDEST PUSH1 0x40 MLOAD DUP1 SWAP2 SUB SWAP1 LOG1 POP POP JUMP JUMPDEST PUSH1 0x0 TIMESTAMP DUP3 PUSH1 0x80 ADD CALLDATALOAD GT PUSH2 0xA73 JUMPI PUSH1 0x40 MLOAD PUSH32 0x8C379A000000000000000000000000000000000000000000000000000000000 DUP2 MSTORE PUSH1 0x4 ADD PUSH2 0xA6A SWAP1 PUSH2 0x2B98 JUMP JUMPDEST PUSH1 0x40 MLOAD DUP1 SWAP2 SUB SWAP1 REVERT JUMPDEST DUP2 PUSH1 0x80 ADD CALLDATALOAD DUP3 PUSH1 0xA0 ADD CALLDATALOAD DUP4 PUSH1 0x80 ADD CALLDATALOAD PUSH2 0xA8C SWAP2 SWAP1 PUSH2 0x24C7 JUMP JUMPDEST GT PUSH2 0xACC JUMPI PUSH1 0x40 MLOAD PUSH32 0x8C379A000000000000000000000000000000000000000000000000000000000 DUP2 MSTORE PUSH1 0x4 ADD PUSH2 0xAC3 SWAP1 PUSH2 0x2C2A JUMP JUMPDEST PUSH1 0x40 MLOAD DUP1 SWAP2 SUB SWAP1 REVERT JUMPDEST PUSH1 0x0 DUP3 DUP1 PUSH1 0x0 ADD SWAP1 PUSH2 0xADE SWAP2 SWAP1 PUSH2 0x26BF JUMP JUMPDEST SWAP1 POP EQ ISZERO PUSH2 0xB21 JUMPI PUSH1 0x40 MLOAD PUSH32 0x8C379A000000000000000000000000000000000000000000000000000000000 DUP2 MSTORE PUSH1 0x4 ADD PUSH2 0xB18 SWAP1 PUSH2 0x2C96 JUMP JUMPDEST PUSH1 0x40 MLOAD DUP1 SWAP2 SUB SWAP1 REVERT JUMPDEST PUSH1 0x0 DUP3 PUSH1 0x60 ADD CALLDATALOAD GT PUSH2 0xB68 JUMPI PUSH1 0x40 MLOAD PUSH32 0x8C379A000000000000000000000000000000000000000000000000000000000 DUP2 MSTORE PUSH1 0x4 ADD PUSH2 0xB5F SWAP1 PUSH2 0x2D02 JUMP JUMPDEST PUSH1 0x40 MLOAD DUP1 SWAP2 SUB SWAP1 REVERT JUMPDEST CALLVALUE DUP3 PUSH1 0x60 ADD CALLDATALOAD EQ PUSH2 0xBAE JUMPI PUSH1 0x40 MLOAD PUSH32 0x8C379A000000000000000000000000000000000000000000000000000000000 DUP2 MSTORE PUSH1 0x4 ADD PUSH2 0xBA5 SWAP1 PUSH2 0x2D94 JUMP JUMPDEST PUSH1 0x40 MLOAD DUP1 SWAP2 SUB SWAP1 REVERT JUMPDEST PUSH1 0x0 PUSH20 0xFFFFFFFFFFFFFFFFFFFFFFFFFFFFFFFFFFFFFFFF AND DUP3 PUSH1 0x40 ADD PUSH1 0x20 DUP2 ADD SWAP1 PUSH2 0xBD9 SWAP2 SWAP1 PUSH2 0x217D JUMP JUMPDEST PUSH20 0xFFFFFFFFFFFFFFFFFFFFFFFFFFFFFFFFFFFFFFFF AND EQ ISZERO PUSH2 0xC30 JUMPI PUSH1 0x40 MLOAD PUSH32 0x8C379A000000000000000000000000000000000000000000000000000000000 DUP2 MSTORE PUSH1 0x4 ADD PUSH2 0xC27 SWAP1 PUSH2 0x2E00 JUMP JUMPDEST PUSH1 0x40 MLOAD DUP1 SWAP2 SUB SWAP1 REVERT JUMPDEST PUSH1 0x1 DUP3 SWAP1 DUP1 PUSH1 0x1 DUP2 SLOAD ADD DUP1 DUP3 SSTORE DUP1 SWAP2 POP POP PUSH1 0x1 SWAP1 SUB SWAP1 PUSH1 0x0 MSTORE PUSH1 0x20 PUSH1 0x0 KECCAK256 SWAP1 PUSH1 0x8 MUL ADD PUSH1 0x0 SWAP1 SWAP2 SWAP1 SWAP2 SWAP1 SWAP2 POP DUP2 DUP2 PUSH2 0xC68 SWAP2 SWAP1 PUSH2 0x330A JUMP JUMPDEST POP POP PUSH1 0x1 DUP1 DUP1 SLOAD SWAP1 POP PUSH2 0xC7B SWAP2 SWAP1 PUSH2 0x3318 JUMP JUMPDEST SWAP1 POP SWAP2 SWAP1 POP JUMP JUMPDEST PUSH1 0x60 PUSH1 0x0 DUP1 JUMPDEST PUSH1 0x1 DUP1 SLOAD SWAP1 POP DUP2 LT ISZERO PUSH2 0xD30 JUMPI DUP4 PUSH20 0xFFFFFFFFFFFFFFFFFFFFFFFFFFFFFFFFFFFFFFFF AND PUSH1 0x1 DUP3 DUP2 SLOAD DUP2 LT PUSH2 0xCC0 JUMPI PUSH2 0xCBF PUSH2 0x2469 JUMP JUMPDEST JUMPDEST SWAP1 PUSH1 0x0 MSTORE PUSH1 0x20 PUSH1 0x0 KECCAK256 SWAP1 PUSH1 0x8 MUL ADD PUSH1 0x2 ADD PUSH1 0x0 SWAP1 SLOAD SWAP1 PUSH2 0x100 EXP SWAP1 DIV PUSH20 0xFFFFFFFFFFFFFFFFFFFFFFFFFFFFFFFFFFFFFFFF AND PUSH20 0xFFFFFFFFFFFFFFFFFFFFFFFFFFFFFFFFFFFFFFFF AND EQ ISZERO PUSH2 0xD1D JUMPI DUP2 DUP1 PUSH2 0xD19 SWAP1 PUSH2 0x251D JUMP JUMPDEST SWAP3 POP POP JUMPDEST DUP1 DUP1 PUSH2 0xD28 SWAP1 PUSH2 0x251D JUMP JUMPDEST SWAP2 POP POP PUSH2 0xC88 JUMP JUMPDEST POP DUP1 PUSH8 0xFFFFFFFFFFFFFFFF DUP2 GT ISZERO PUSH2 0xD4B JUMPI PUSH2 0xD4A PUSH2 0x2566 JUMP JUMPDEST JUMPDEST PUSH1 0x40 MLOAD SWAP1 DUP1 DUP3 MSTORE DUP1 PUSH1 0x20 MUL PUSH1 0x20 ADD DUP3 ADD PUSH1 0x40 MSTORE DUP1 ISZERO PUSH2 0xD84 JUMPI DUP2 PUSH1 0x20 ADD JUMPDEST PUSH2 0xD71 PUSH2 0x1BCC JUMP JUMPDEST DUP2 MSTORE PUSH1 0x20 ADD SWAP1 PUSH1 0x1 SWAP1 SUB SWAP1 DUP2 PUSH2 0xD69 JUMPI SWAP1 POP JUMPDEST POP SWAP2 POP PUSH1 0x0 DUP1 JUMPDEST PUSH1 0x1 DUP1 SLOAD SWAP1 POP DUP2 LT ISZERO PUSH2 0x1139 JUMPI DUP5 PUSH20 0xFFFFFFFFFFFFFFFFFFFFFFFFFFFFFFFFFFFFFFFF AND PUSH1 0x1 DUP3 DUP2 SLOAD DUP2 LT PUSH2 0xDC3 JUMPI PUSH2 0xDC2 PUSH2 0x2469 JUMP JUMPDEST JUMPDEST SWAP1 PUSH1 0x0 MSTORE PUSH1 0x20 PUSH1 0x0 KECCAK256 SWAP1 PUSH1 0x8 MUL ADD PUSH1 0x2 ADD PUSH1 0x0 SWAP1 SLOAD SWAP1 PUSH2 0x100 EXP SWAP1 DIV PUSH20 0xFFFFFFFFFFFFFFFFFFFFFFFFFFFFFFFFFFFFFFFF AND PUSH20 0xFFFFFFFFFFFFFFFFFFFFFFFFFFFFFFFFFFFFFFFF AND EQ ISZERO PUSH2 0x1126 JUMPI PUSH1 0x1 DUP2 DUP2 SLOAD DUP2 LT PUSH2 0xE25 JUMPI PUSH2 0xE24 PUSH2 0x2469 JUMP JUMPDEST JUMPDEST SWAP1 PUSH1 0x0 MSTORE PUSH1 0x20 PUSH1 0x0 KECCAK256 SWAP1 PUSH1 0x8 MUL ADD PUSH1 0x40 MLOAD DUP1 PUSH2 0x100 ADD PUSH1 0x40 MSTORE SWAP1 DUP2 PUSH1 0x0 DUP3 ADD DUP1 SLOAD PUSH2 0xE4F SWAP1 PUSH2 0x25C4 JUMP JUMPDEST DUP1 PUSH1 0x1F ADD PUSH1 0x20 DUP1 SWAP2 DIV MUL PUSH1 0x20 ADD PUSH1 0x40 MLOAD SWAP1 DUP2 ADD PUSH1 0x40 MSTORE DUP1 SWAP3 SWAP2 SWAP1 DUP2 DUP2 MSTORE PUSH1 0x20 ADD DUP3 DUP1 SLOAD PUSH2 0xE7B SWAP1 PUSH2 0x25C4 JUMP JUMPDEST DUP1 ISZERO PUSH2 0xEC8 JUMPI DUP1 PUSH1 0x1F LT PUSH2 0xE9D JUMPI PUSH2 0x100 DUP1 DUP4 SLOAD DIV MUL DUP4 MSTORE SWAP2 PUSH1 0x20 ADD SWAP2 PUSH2 0xEC8 JUMP JUMPDEST DUP3 ADD SWAP2 SWAP1 PUSH1 0x0 MSTORE PUSH1 0x20 PUSH1 0x0 KECCAK256 SWAP1 JUMPDEST DUP2 SLOAD DUP2 MSTORE SWAP1 PUSH1 0x1 ADD SWAP1 PUSH1 0x20 ADD DUP1 DUP4 GT PUSH2 0xEAB JUMPI DUP3 SWAP1 SUB PUSH1 0x1F AND DUP3 ADD SWAP2 JUMPDEST POP POP POP POP POP DUP2 MSTORE PUSH1 0x20 ADD PUSH1 0x1 DUP3 ADD DUP1 SLOAD PUSH2 0xEE1 SWAP1 PUSH2 0x25C4 JUMP JUMPDEST DUP1 PUSH1 0x1F ADD PUSH1 0x20 DUP1 SWAP2 DIV MUL PUSH1 0x20 ADD PUSH1 0x40 MLOAD SWAP1 DUP2 ADD PUSH1 0x40 MSTORE DUP1 SWAP3 SWAP2 SWAP1 DUP2 DUP2 MSTORE PUSH1 0x20 ADD DUP3 DUP1 SLOAD PUSH2 0xF0D SWAP1 PUSH2 0x25C4 JUMP JUMPDEST DUP1 ISZERO PUSH2 0xF5A JUMPI DUP1 PUSH1 0x1F LT PUSH2 0xF2F JUMPI PUSH2 0x100 DUP1 DUP4 SLOAD DIV MUL DUP4 MSTORE SWAP2 PUSH1 0x20 ADD SWAP2 PUSH2 0xF5A JUMP JUMPDEST DUP3 ADD SWAP2 SWAP1 PUSH1 0x0 MSTORE PUSH1 0x20 PUSH1 0x0 KECCAK256 SWAP1 JUMPDEST DUP2 SLOAD DUP2 MSTORE SWAP1 PUSH1 0x1 ADD SWAP1 PUSH1 0x20 ADD DUP1 DUP4 GT PUSH2 0xF3D JUMPI DUP3 SWAP1 SUB PUSH1 0x1F AND DUP3 ADD SWAP2 JUMPDEST POP POP POP POP POP DUP2 MSTORE PUSH1 0x20 ADD PUSH1 0x2 DUP3 ADD PUSH1 0x0 SWAP1 SLOAD SWAP1 PUSH2 0x100 EXP SWAP1 DIV PUSH20 0xFFFFFFFFFFFFFFFFFFFFFFFFFFFFFFFFFFFFFFFF AND PUSH20 0xFFFFFFFFFFFFFFFFFFFFFFFFFFFFFFFFFFFFFFFF AND PUSH20 0xFFFFFFFFFFFFFFFFFFFFFFFFFFFFFFFFFFFFFFFF AND DUP2 MSTORE PUSH1 0x20 ADD PUSH1 0x3 DUP3 ADD SLOAD DUP2 MSTORE PUSH1 0x20 ADD PUSH1 0x4 DUP3 ADD SLOAD DUP2 MSTORE PUSH1 0x20 ADD PUSH1 0x5 DUP3 ADD SLOAD DUP2 MSTORE PUSH1 0x20 ADD PUSH1 0x6 DUP3 ADD DUP1 SLOAD PUSH2 0xFE7 SWAP1 PUSH2 0x25C4 JUMP JUMPDEST DUP1 PUSH1 0x1F ADD PUSH1 0x20 DUP1 SWAP2 DIV MUL PUSH1 0x20 ADD PUSH1 0x40 MLOAD SWAP1 DUP2 ADD PUSH1 0x40 MSTORE DUP1 SWAP3 SWAP2 SWAP1 DUP2 DUP2 MSTORE PUSH1 0x20 ADD DUP3 DUP1 SLOAD PUSH2 0x1013 SWAP1 PUSH2 0x25C4 JUMP JUMPDEST DUP1 ISZERO PUSH2 0x1060 JUMPI DUP1 PUSH1 0x1F LT PUSH2 0x1035 JUMPI PUSH2 0x100 DUP1 DUP4 SLOAD DIV MUL DUP4 MSTORE SWAP2 PUSH1 0x20 ADD SWAP2 PUSH2 0x1060 JUMP JUMPDEST DUP3 ADD SWAP2 SWAP1 PUSH1 0x0 MSTORE PUSH1 0x20 PUSH1 0x0 KECCAK256 SWAP1 JUMPDEST DUP2 SLOAD DUP2 MSTORE SWAP1 PUSH1 0x1 ADD SWAP1 PUSH1 0x20 ADD DUP1 DUP4 GT PUSH2 0x1043 JUMPI DUP3 SWAP1 SUB PUSH1 0x1F AND DUP3 ADD SWAP2 JUMPDEST POP POP POP POP POP DUP2 MSTORE PUSH1 0x20 ADD PUSH1 0x7 DUP3 ADD DUP1 SLOAD PUSH2 0x1079 SWAP1 PUSH2 0x25C4 JUMP JUMPDEST DUP1 PUSH1 0x1F ADD PUSH1 0x20 DUP1 SWAP2 DIV MUL PUSH1 0x20 ADD PUSH1 0x40 MLOAD SWAP1 DUP2 ADD PUSH1 0x40 MSTORE DUP1 SWAP3 SWAP2 SWAP1 DUP2 DUP2 MSTORE PUSH1 0x20 ADD DUP3 DUP1 SLOAD PUSH2 0x10A5 SWAP1 PUSH2 0x25C4 JUMP JUMPDEST DUP1 ISZERO PUSH2 0x10F2 JUMPI DUP1 PUSH1 0x1F LT PUSH2 0x10C7 JUMPI PUSH2 0x100 DUP1 DUP4 SLOAD DIV MUL DUP4 MSTORE SWAP2 PUSH1 0x20 ADD SWAP2 PUSH2 0x10F2 JUMP JUMPDEST DUP3 ADD SWAP2 SWAP1 PUSH1 0x0 MSTORE PUSH1 0x20 PUSH1 0x0 KECCAK256 SWAP1 JUMPDEST DUP2 SLOAD DUP2 MSTORE SWAP1 PUSH1 0x1 ADD SWAP1 PUSH1 0x20 ADD DUP1 DUP4 GT PUSH2 0x10D5 JUMPI DUP3 SWAP1 SUB PUSH1 0x1F AND DUP3 ADD SWAP2 JUMPDEST POP POP POP POP POP DUP2 MSTORE POP POP DUP5 DUP4 DUP1 PUSH2 0x1107 SWAP1 PUSH2 0x251D JUMP JUMPDEST SWAP5 POP DUP2 MLOAD DUP2 LT PUSH2 0x111A JUMPI PUSH2 0x1119 PUSH2 0x2469 JUMP JUMPDEST JUMPDEST PUSH1 0x20 MUL PUSH1 0x20 ADD ADD DUP2 SWAP1 MSTORE POP JUMPDEST DUP1 DUP1 PUSH2 0x1131 SWAP1 PUSH2 0x251D JUMP JUMPDEST SWAP2 POP POP PUSH2 0xD8B JUMP JUMPDEST POP POP POP SWAP2 SWAP1 POP JUMP JUMPDEST DUP4 PUSH1 0x1 DUP1 SLOAD SWAP1 POP GT PUSH2 0x1188 JUMPI PUSH1 0x40 MLOAD PUSH32 0x8C379A000000000000000000000000000000000000000000000000000000000 DUP2 MSTORE PUSH1 0x4 ADD PUSH2 0x117F SWAP1 PUSH2 0x3398 JUMP JUMPDEST PUSH1 0x40 MLOAD DUP1 SWAP2 SUB SWAP1 REVERT JUMPDEST CALLER PUSH20 0xFFFFFFFFFFFFFFFFFFFFFFFFFFFFFFFFFFFFFFFF AND PUSH1 0x1 DUP6 DUP2 SLOAD DUP2 LT PUSH2 0x11B3 JUMPI PUSH2 0x11B2 PUSH2 0x2469 JUMP JUMPDEST JUMPDEST SWAP1 PUSH1 0x0 MSTORE PUSH1 0x20 PUSH1 0x0 KECCAK256 SWAP1 PUSH1 0x8 MUL ADD PUSH1 0x2 ADD PUSH1 0x0 SWAP1 SLOAD SWAP1 PUSH2 0x100 EXP SWAP1 DIV PUSH20 0xFFFFFFFFFFFFFFFFFFFFFFFFFFFFFFFFFFFFFFFF AND PUSH20 0xFFFFFFFFFFFFFFFFFFFFFFFFFFFFFFFFFFFFFFFF AND EQ PUSH2 0x123B JUMPI PUSH1 0x40 MLOAD PUSH32 0x8C379A000000000000000000000000000000000000000000000000000000000 DUP2 MSTORE PUSH1 0x4 ADD PUSH2 0x1232 SWAP1 PUSH2 0x342A JUMP JUMPDEST PUSH1 0x40 MLOAD DUP1 SWAP2 SUB SWAP1 REVERT JUMPDEST TIMESTAMP PUSH1 0x1 DUP6 DUP2 SLOAD DUP2 LT PUSH2 0x1250 JUMPI PUSH2 0x124F PUSH2 0x2469 JUMP JUMPDEST JUMPDEST SWAP1 PUSH1 0x0 MSTORE PUSH1 0x20 PUSH1 0x0 KECCAK256 SWAP1 PUSH1 0x8 MUL ADD PUSH1 0x4 ADD SLOAD GT PUSH2 0x12A2 JUMPI PUSH1 0x40 MLOAD PUSH32 0x8C379A000000000000000000000000000000000000000000000000000000000 DUP2 MSTORE PUSH1 0x4 ADD PUSH2 0x1299 SWAP1 PUSH2 0x34BC JUMP JUMPDEST PUSH1 0x40 MLOAD DUP1 SWAP2 SUB SWAP1 REVERT JUMPDEST PUSH1 0x0 PUSH20 0xFFFFFFFFFFFFFFFFFFFFFFFFFFFFFFFFFFFFFFFF AND DUP2 PUSH20 0xFFFFFFFFFFFFFFFFFFFFFFFFFFFFFFFFFFFFFFFF AND EQ ISZERO PUSH2 0x1312 JUMPI PUSH1 0x40 MLOAD PUSH32 0x8C379A000000000000000000000000000000000000000000000000000000000 DUP2 MSTORE PUSH1 0x4 ADD PUSH2 0x1309 SWAP1 PUSH2 0x2E00 JUMP JUMPDEST PUSH1 0x40 MLOAD DUP1 SWAP2 SUB SWAP1 REVERT JUMPDEST PUSH1 0x0 PUSH1 0x1 DUP6 DUP2 SLOAD DUP2 LT PUSH2 0x1328 JUMPI PUSH2 0x1327 PUSH2 0x2469 JUMP JUMPDEST JUMPDEST SWAP1 PUSH1 0x0 MSTORE PUSH1 0x20 PUSH1 0x0 KECCAK256 SWAP1 PUSH1 0x8 MUL ADD SWAP1 POP DUP4 DUP4 DUP3 PUSH1 0x1 ADD SWAP2 SWAP1 PUSH2 0x134B SWAP3 SWAP2 SWAP1 PUSH2 0x1C27 JUMP JUMPDEST POP DUP2 DUP2 PUSH1 0x2 ADD PUSH1 0x0 PUSH2 0x100 EXP DUP2 SLOAD DUP2 PUSH20 0xFFFFFFFFFFFFFFFFFFFFFFFFFFFFFFFFFFFFFFFF MUL NOT AND SWAP1 DUP4 PUSH20 0xFFFFFFFFFFFFFFFFFFFFFFFFFFFFFFFFFFFFFFFF AND MUL OR SWAP1 SSTORE POP POP POP POP POP POP JUMP JUMPDEST PUSH1 0x1 DUP2 DUP2 SLOAD DUP2 LT PUSH2 0x13A6 JUMPI PUSH1 0x0 DUP1 REVERT JUMPDEST SWAP1 PUSH1 0x0 MSTORE PUSH1 0x20 PUSH1 0x0 KECCAK256 SWAP1 PUSH1 0x8 MUL ADD PUSH1 0x0 SWAP2 POP SWAP1 POP DUP1 PUSH1 0x0 ADD DUP1 SLOAD PUSH2 0x13C9 SWAP1 PUSH2 0x25C4 JUMP JUMPDEST DUP1 PUSH1 0x1F ADD PUSH1 0x20 DUP1 SWAP2 DIV MUL PUSH1 0x20 ADD PUSH1 0x40 MLOAD SWAP1 DUP2 ADD PUSH1 0x40 MSTORE DUP1 SWAP3 SWAP2 SWAP1 DUP2 DUP2 MSTORE PUSH1 0x20 ADD DUP3 DUP1 SLOAD PUSH2 0x13F5 SWAP1 PUSH2 0x25C4 JUMP JUMPDEST DUP1 ISZERO PUSH2 0x1442 JUMPI DUP1 PUSH1 0x1F LT PUSH2 0x1417 JUMPI PUSH2 0x100 DUP1 DUP4 SLOAD DIV MUL DUP4 MSTORE SWAP2 PUSH1 0x20 ADD SWAP2 PUSH2 0x1442 JUMP JUMPDEST DUP3 ADD SWAP2 SWAP1 PUSH1 0x0 MSTORE PUSH1 0x20 PUSH1 0x0 KECCAK256 SWAP1 JUMPDEST DUP2 SLOAD DUP2 MSTORE SWAP1 PUSH1 0x1 ADD SWAP1 PUSH1 0x20 ADD DUP1 DUP4 GT PUSH2 0x1425 JUMPI DUP3 SWAP1 SUB PUSH1 0x1F AND DUP3 ADD SWAP2 JUMPDEST POP POP POP POP POP SWAP1 DUP1 PUSH1 0x1 ADD DUP1 SLOAD PUSH2 0x1457 SWAP1 PUSH2 0x25C4 JUMP JUMPDEST DUP1 PUSH1 0x1F ADD PUSH1 0x20 DUP1 SWAP2 DIV MUL PUSH1 0x20 ADD PUSH1 0x40 MLOAD SWAP1 DUP2 ADD PUSH1 0x40 MSTORE DUP1 SWAP3 SWAP2 SWAP1 DUP2 DUP2 MSTORE PUSH1 0x20 ADD DUP3 DUP1 SLOAD PUSH2 0x1483 SWAP1 PUSH2 0x25C4 JUMP JUMPDEST DUP1 ISZERO PUSH2 0x14D0 JUMPI DUP1 PUSH1 0x1F LT PUSH2 0x14A5 JUMPI PUSH2 0x100 DUP1 DUP4 SLOAD DIV MUL DUP4 MSTORE SWAP2 PUSH1 0x20 ADD SWAP2 PUSH2 0x14D0 JUMP JUMPDEST DUP3 ADD SWAP2 SWAP1 PUSH1 0x0 MSTORE PUSH1 0x20 PUSH1 0x0 KECCAK256 SWAP1 JUMPDEST DUP2 SLOAD DUP2 MSTORE SWAP1 PUSH1 0x1 ADD SWAP1 PUSH1 0x20 ADD DUP1 DUP4 GT PUSH2 0x14B3 JUMPI DUP3 SWAP1 SUB PUSH1 0x1F AND DUP3 ADD SWAP2 JUMPDEST POP POP POP POP POP SWAP1 DUP1 PUSH1 0x2 ADD PUSH1 0x0 SWAP1 SLOAD SWAP1 PUSH2 0x100 EXP SWAP1 DIV PUSH20 0xFFFFFFFFFFFFFFFFFFFFFFFFFFFFFFFFFFFFFFFF AND SWAP1 DUP1 PUSH1 0x3 ADD SLOAD SWAP1 DUP1 PUSH1 0x4 ADD SLOAD SWAP1 DUP1 PUSH1 0x5 ADD SLOAD SWAP1 DUP1 PUSH1 0x6 ADD DUP1 SLOAD PUSH2 0x151D SWAP1 PUSH2 0x25C4 JUMP JUMPDEST DUP1 PUSH1 0x1F ADD PUSH1 0x20 DUP1 SWAP2 DIV MUL PUSH1 0x20 ADD PUSH1 0x40 MLOAD SWAP1 DUP2 ADD PUSH1 0x40 MSTORE DUP1 SWAP3 SWAP2 SWAP1 DUP2 DUP2 MSTORE PUSH1 0x20 ADD DUP3 DUP1 SLOAD PUSH2 0x1549 SWAP1 PUSH2 0x25C4 JUMP JUMPDEST DUP1 ISZERO PUSH2 0x1596 JUMPI DUP1 PUSH1 0x1F LT PUSH2 0x156B JUMPI PUSH2 0x100 DUP1 DUP4 SLOAD DIV MUL DUP4 MSTORE SWAP2 PUSH1 0x20 ADD SWAP2 PUSH2 0x1596 JUMP JUMPDEST DUP3 ADD SWAP2 SWAP1 PUSH1 0x0 MSTORE PUSH1 0x20 PUSH1 0x0 KECCAK256 SWAP1 JUMPDEST DUP2 SLOAD DUP2 MSTORE SWAP1 PUSH1 0x1 ADD SWAP1 PUSH1 0x20 ADD DUP1 DUP4 GT PUSH2 0x1579 JUMPI DUP3 SWAP1 SUB PUSH1 0x1F AND DUP3 ADD SWAP2 JUMPDEST POP POP POP POP POP SWAP1 DUP1 PUSH1 0x7 ADD DUP1 SLOAD PUSH2 0x15AB SWAP1 PUSH2 0x25C4 JUMP JUMPDEST DUP1 PUSH1 0x1F ADD PUSH1 0x20 DUP1 SWAP2 DIV MUL PUSH1 0x20 ADD PUSH1 0x40 MLOAD SWAP1 DUP2 ADD PUSH1 0x40 MSTORE DUP1 SWAP3 SWAP2 SWAP1 DUP2 DUP2 MSTORE PUSH1 0x20 ADD DUP3 DUP1 SLOAD PUSH2 0x15D7 SWAP1 PUSH2 0x25C4 JUMP JUMPDEST DUP1 ISZERO PUSH2 0x1624 JUMPI DUP1 PUSH1 0x1F LT PUSH2 0x15F9 JUMPI PUSH2 0x100 DUP1 DUP4 SLOAD DIV MUL DUP4 MSTORE SWAP2 PUSH1 0x20 ADD SWAP2 PUSH2 0x1624 JUMP JUMPDEST DUP3 ADD SWAP2 SWAP1 PUSH1 0x0 MSTORE PUSH1 0x20 PUSH1 0x0 KECCAK256 SWAP1 JUMPDEST DUP2 SLOAD DUP2 MSTORE SWAP1 PUSH1 0x1 ADD SWAP1 PUSH1 0x20 ADD DUP1 DUP4 GT PUSH2 0x1607 JUMPI DUP3 SWAP1 SUB PUSH1 0x1F AND DUP3 ADD SWAP2 JUMPDEST POP POP POP POP POP SWAP1 POP DUP9 JUMP JUMPDEST PUSH1 0x2 PUSH1 0x20 MSTORE DUP2 PUSH1 0x0 MSTORE PUSH1 0x40 PUSH1 0x0 KECCAK256 PUSH1 0x20 MSTORE DUP1 PUSH1 0x0 MSTORE PUSH1 0x40 PUSH1 0x0 KECCAK256 PUSH1 0x0 SWAP2 POP SWAP2 POP POP DUP1 PUSH1 0x1 ADD SLOAD SWAP1 DUP1 PUSH1 0x2 ADD PUSH1 0x0 SWAP1 SLOAD SWAP1 PUSH2 0x100 EXP SWAP1 DIV PUSH20 0xFFFFFFFFFFFFFFFFFFFFFFFFFFFFFFFFFFFFFFFF AND SWAP1 POP DUP3 JUMP JUMPDEST TIMESTAMP PUSH1 0x1 DUP4 DUP2 SLOAD DUP2 LT PUSH2 0x1694 JUMPI PUSH2 0x1693 PUSH2 0x2469 JUMP JUMPDEST JUMPDEST SWAP1 PUSH1 0x0 MSTORE PUSH1 0x20 PUSH1 0x0 KECCAK256 SWAP1 PUSH1 0x8 MUL ADD PUSH1 0x4 ADD SLOAD GT ISZERO PUSH2 0x16E7 JUMPI PUSH1 0x40 MLOAD PUSH32 0x8C379A000000000000000000000000000000000000000000000000000000000 DUP2 MSTORE PUSH1 0x4 ADD PUSH2 0x16DE SWAP1 PUSH2 0x3528 JUMP JUMPDEST PUSH1 0x40 MLOAD DUP1 SWAP2 SUB SWAP1 REVERT JUMPDEST TIMESTAMP PUSH1 0x1 DUP4 DUP2 SLOAD DUP2 LT PUSH2 0x16FC JUMPI PUSH2 0x16FB PUSH2 0x2469 JUMP JUMPDEST JUMPDEST SWAP1 PUSH1 0x0 MSTORE PUSH1 0x20 PUSH1 0x0 KECCAK256 SWAP1 PUSH1 0x8 MUL ADD PUSH1 0x5 ADD SLOAD PUSH1 0x1 DUP5 DUP2 SLOAD DUP2 LT PUSH2 0x1722 JUMPI PUSH2 0x1721 PUSH2 0x2469 JUMP JUMPDEST JUMPDEST SWAP1 PUSH1 0x0 MSTORE PUSH1 0x20 PUSH1 0x0 KECCAK256 SWAP1 PUSH1 0x8 MUL ADD PUSH1 0x4 ADD SLOAD PUSH2 0x173E SWAP2 SWAP1 PUSH2 0x24C7 JUMP JUMPDEST LT ISZERO PUSH2 0x177F JUMPI PUSH1 0x40 MLOAD PUSH32 0x8C379A000000000000000000000000000000000000000000000000000000000 DUP2 MSTORE PUSH1 0x4 ADD PUSH2 0x1776 SWAP1 PUSH2 0x3594 JUMP JUMPDEST PUSH1 0x40 MLOAD DUP1 SWAP2 SUB SWAP1 REVERT JUMPDEST PUSH1 0x0 PUSH1 0x2 PUSH1 0x0 DUP5 DUP2 MSTORE PUSH1 0x20 ADD SWAP1 DUP2 MSTORE PUSH1 0x20 ADD PUSH1 0x0 KECCAK256 PUSH1 0x0 CALLER PUSH20 0xFFFFFFFFFFFFFFFFFFFFFFFFFFFFFFFFFFFFFFFF AND PUSH20 0xFFFFFFFFFFFFFFFFFFFFFFFFFFFFFFFFFFFFFFFF AND DUP2 MSTORE PUSH1 0x20 ADD SWAP1 DUP2 MSTORE PUSH1 0x20 ADD PUSH1 0x0 KECCAK256 PUSH1 0x1 ADD SLOAD EQ PUSH2 0x1815 JUMPI PUSH1 0x40 MLOAD PUSH32 0x8C379A000000000000000000000000000000000000000000000000000000000 DUP2 MSTORE PUSH1 0x4 ADD PUSH2 0x180C SWAP1 PUSH2 0x3626 JUMP JUMPDEST PUSH1 0x40 MLOAD DUP1 SWAP2 SUB SWAP1 REVERT JUMPDEST PUSH1 0x0 JUMPDEST PUSH1 0x1 DUP2 LT ISZERO PUSH2 0x190E JUMPI PUSH1 0x4 PUSH1 0xFF AND DUP3 DUP3 PUSH1 0x1 DUP2 LT PUSH2 0x1839 JUMPI PUSH2 0x1838 PUSH2 0x2469 JUMP JUMPDEST JUMPDEST PUSH1 0x20 MUL ADD PUSH1 0x20 DUP2 ADD SWAP1 PUSH2 0x184C SWAP2 SWAP1 PUSH2 0x367F JUMP JUMPDEST PUSH1 0xFF AND LT PUSH2 0x188F JUMPI PUSH1 0x40 MLOAD PUSH32 0x8C379A000000000000000000000000000000000000000000000000000000000 DUP2 MSTORE PUSH1 0x4 ADD PUSH2 0x1886 SWAP1 PUSH2 0x36F8 JUMP JUMPDEST PUSH1 0x40 MLOAD DUP1 SWAP2 SUB SWAP1 REVERT JUMPDEST PUSH1 0x0 DUP3 DUP3 PUSH1 0x1 DUP2 LT PUSH2 0x18A4 JUMPI PUSH2 0x18A3 PUSH2 0x2469 JUMP JUMPDEST JUMPDEST PUSH1 0x20 MUL ADD PUSH1 0x20 DUP2 ADD SWAP1 PUSH2 0x18B7 SWAP2 SWAP1 PUSH2 0x367F JUMP JUMPDEST PUSH1 0xFF AND EQ ISZERO PUSH2 0x18FB JUMPI PUSH1 0x40 MLOAD PUSH32 0x8C379A000000000000000000000000000000000000000000000000000000000 DUP2 MSTORE PUSH1 0x4 ADD PUSH2 0x18F2 SWAP1 PUSH2 0x3764 JUMP JUMPDEST PUSH1 0x40 MLOAD DUP1 SWAP2 SUB SWAP1 REVERT JUMPDEST DUP1 DUP1 PUSH2 0x1906 SWAP1 PUSH2 0x251D JUMP JUMPDEST SWAP2 POP POP PUSH2 0x1818 JUMP JUMPDEST POP PUSH1 0x40 MLOAD DUP1 PUSH1 0x60 ADD PUSH1 0x40 MSTORE DUP1 DUP3 PUSH1 0x1 DUP1 PUSH1 0x20 MUL PUSH1 0x40 MLOAD SWAP1 DUP2 ADD PUSH1 0x40 MSTORE DUP1 SWAP3 SWAP2 SWAP1 DUP3 PUSH1 0x1 PUSH1 0x20 MUL DUP1 DUP3 DUP5 CALLDATACOPY PUSH1 0x0 DUP2 DUP5 ADD MSTORE PUSH1 0x1F NOT PUSH1 0x1F DUP3 ADD AND SWAP1 POP DUP1 DUP4 ADD SWAP3 POP POP POP POP POP POP DUP2 MSTORE PUSH1 0x20 ADD TIMESTAMP DUP2 MSTORE PUSH1 0x20 ADD CALLER PUSH20 0xFFFFFFFFFFFFFFFFFFFFFFFFFFFFFFFFFFFFFFFF AND DUP2 MSTORE POP PUSH1 0x2 PUSH1 0x0 DUP5 DUP2 MSTORE PUSH1 0x20 ADD SWAP1 DUP2 MSTORE PUSH1 0x20 ADD PUSH1 0x0 KECCAK256 PUSH1 0x0 CALLER PUSH20 0xFFFFFFFFFFFFFFFFFFFFFFFFFFFFFFFFFFFFFFFF AND PUSH20 0xFFFFFFFFFFFFFFFFFFFFFFFFFFFFFFFFFFFFFFFF AND DUP2 MSTORE PUSH1 0x20 ADD SWAP1 DUP2 MSTORE PUSH1 0x20 ADD PUSH1 0x0 KECCAK256 PUSH1 0x0 DUP3 ADD MLOAD DUP2 PUSH1 0x0 ADD SWAP1 PUSH1 0x1 PUSH2 0x19DE SWAP3 SWAP2 SWAP1 PUSH2 0x1CAD JUMP JUMPDEST POP PUSH1 0x20 DUP3 ADD MLOAD DUP2 PUSH1 0x1 ADD SSTORE PUSH1 0x40 DUP3 ADD MLOAD DUP2 PUSH1 0x2 ADD PUSH1 0x0 PUSH2 0x100 EXP DUP2 SLOAD DUP2 PUSH20 0xFFFFFFFFFFFFFFFFFFFFFFFFFFFFFFFFFFFFFFFF MUL NOT AND SWAP1 DUP4 PUSH20 0xFFFFFFFFFFFFFFFFFFFFFFFFFFFFFFFFFFFFFFFF AND MUL OR SWAP1 SSTORE POP SWAP1 POP POP POP POP JUMP JUMPDEST PUSH1 0x1 DUP1 SLOAD SWAP1 POP DUP3 LT PUSH2 0x1A7E JUMPI PUSH1 0x40 MLOAD PUSH32 0x8C379A000000000000000000000000000000000000000000000000000000000 DUP2 MSTORE PUSH1 0x4 ADD PUSH2 0x1A75 SWAP1 PUSH2 0x37D0 JUMP JUMPDEST PUSH1 0x40 MLOAD DUP1 SWAP2 SUB SWAP1 REVERT JUMPDEST PUSH1 0x1 DUP3 DUP2 SLOAD DUP2 LT PUSH2 0x1A92 JUMPI PUSH2 0x1A91 PUSH2 0x2469 JUMP JUMPDEST JUMPDEST SWAP1 PUSH1 0x0 MSTORE PUSH1 0x20 PUSH1 0x0 KECCAK256 SWAP1 PUSH1 0x8 MUL ADD PUSH1 0x5 ADD SLOAD PUSH1 0x1 DUP4 DUP2 SLOAD DUP2 LT PUSH2 0x1AB8 JUMPI PUSH2 0x1AB7 PUSH2 0x2469 JUMP JUMPDEST JUMPDEST SWAP1 PUSH1 0x0 MSTORE PUSH1 0x20 PUSH1 0x0 KECCAK256 SWAP1 PUSH1 0x8 MUL ADD PUSH1 0x4 ADD SLOAD PUSH2 0x1AD4 SWAP2 SWAP1 PUSH2 0x24C7 JUMP JUMPDEST TIMESTAMP GT PUSH2 0x1B15 JUMPI PUSH1 0x40 MLOAD PUSH32 0x8C379A000000000000000000000000000000000000000000000000000000000 DUP2 MSTORE PUSH1 0x4 ADD PUSH2 0x1B0C SWAP1 PUSH2 0x3862 JUMP JUMPDEST PUSH1 0x40 MLOAD DUP1 SWAP2 SUB SWAP1 REVERT JUMPDEST CALLER PUSH20 0xFFFFFFFFFFFFFFFFFFFFFFFFFFFFFFFFFFFFFFFF AND PUSH1 0x1 DUP4 DUP2 SLOAD DUP2 LT PUSH2 0x1B40 JUMPI PUSH2 0x1B3F PUSH2 0x2469 JUMP JUMPDEST JUMPDEST SWAP1 PUSH1 0x0 MSTORE PUSH1 0x20 PUSH1 0x0 KECCAK256 SWAP1 PUSH1 0x8 MUL ADD PUSH1 0x2 ADD PUSH1 0x0 SWAP1 SLOAD SWAP1 PUSH2 0x100 EXP SWAP1 DIV PUSH20 0xFFFFFFFFFFFFFFFFFFFFFFFFFFFFFFFFFFFFFFFF AND PUSH20 0xFFFFFFFFFFFFFFFFFFFFFFFFFFFFFFFFFFFFFFFF AND EQ PUSH2 0x1BC8 JUMPI PUSH1 0x40 MLOAD PUSH32 0x8C379A000000000000000000000000000000000000000000000000000000000 DUP2 MSTORE PUSH1 0x4 ADD PUSH2 0x1BBF SWAP1 PUSH2 0x38F4 JUMP JUMPDEST PUSH1 0x40 MLOAD DUP1 SWAP2 SUB SWAP1 REVERT JUMPDEST POP POP JUMP JUMPDEST PUSH1 0x40 MLOAD DUP1 PUSH2 0x100 ADD PUSH1 0x40 MSTORE DUP1 PUSH1 0x60 DUP2 MSTORE PUSH1 0x20 ADD PUSH1 0x60 DUP2 MSTORE PUSH1 0x20 ADD PUSH1 0x0 PUSH20 0xFFFFFFFFFFFFFFFFFFFFFFFFFFFFFFFFFFFFFFFF AND DUP2 MSTORE PUSH1 0x20 ADD PUSH1 0x0 DUP2 MSTORE PUSH1 0x20 ADD PUSH1 0x0 DUP2 MSTORE PUSH1 0x20 ADD PUSH1 0x0 DUP2 MSTORE PUSH1 0x20 ADD PUSH1 0x60 DUP2 MSTORE PUSH1 0x20 ADD PUSH1 0x60 DUP2 MSTORE POP SWAP1 JUMP JUMPDEST DUP3 DUP1 SLOAD PUSH2 0x1C33 SWAP1 PUSH2 0x25C4 JUMP JUMPDEST SWAP1 PUSH1 0x0 MSTORE PUSH1 0x20 PUSH1 0x0 KECCAK256 SWAP1 PUSH1 0x1F ADD PUSH1 0x20 SWAP1 DIV DUP2 ADD SWAP3 DUP3 PUSH2 0x1C55 JUMPI PUSH1 0x0 DUP6 SSTORE PUSH2 0x1C9C JUMP JUMPDEST DUP3 PUSH1 0x1F LT PUSH2 0x1C6E JUMPI DUP1 CALLDATALOAD PUSH1 0xFF NOT AND DUP4 DUP1 ADD OR DUP6 SSTORE PUSH2 0x1C9C JUMP JUMPDEST DUP3 DUP1 ADD PUSH1 0x1 ADD DUP6 SSTORE DUP3 ISZERO PUSH2 0x1C9C JUMPI SWAP2 DUP3 ADD JUMPDEST DUP3 DUP2 GT ISZERO PUSH2 0x1C9B JUMPI DUP3 CALLDATALOAD DUP3 SSTORE SWAP2 PUSH1 0x20 ADD SWAP2 SWAP1 PUSH1 0x1 ADD SWAP1 PUSH2 0x1C80 JUMP JUMPDEST JUMPDEST POP SWAP1 POP PUSH2 0x1CA9 SWAP2 SWAP1 PUSH2 0x1D47 JUMP JUMPDEST POP SWAP1 JUMP JUMPDEST DUP3 PUSH1 0x1 PUSH1 0x1F ADD PUSH1 0x20 SWAP1 DIV DUP2 ADD SWAP3 DUP3 ISZERO PUSH2 0x1D36 JUMPI SWAP2 PUSH1 0x20 MUL DUP3 ADD PUSH1 0x0 JUMPDEST DUP4 DUP3 GT ISZERO PUSH2 0x1D07 JUMPI DUP4 MLOAD DUP4 DUP3 PUSH2 0x100 EXP DUP2 SLOAD DUP2 PUSH1 0xFF MUL NOT AND SWAP1 DUP4 PUSH1 0xFF AND MUL OR SWAP1 SSTORE POP SWAP3 PUSH1 0x20 ADD SWAP3 PUSH1 0x1 ADD PUSH1 0x20 DUP2 PUSH1 0x0 ADD DIV SWAP3 DUP4 ADD SWAP3 PUSH1 0x1 SUB MUL PUSH2 0x1CC9 JUMP JUMPDEST DUP1 ISZERO PUSH2 0x1D34 JUMPI DUP3 DUP2 PUSH2 0x100 EXP DUP2 SLOAD SWAP1 PUSH1 0xFF MUL NOT AND SWAP1 SSTORE PUSH1 0x1 ADD PUSH1 0x20 DUP2 PUSH1 0x0 ADD DIV SWAP3 DUP4 ADD SWAP3 PUSH1 0x1 SUB MUL PUSH2 0x1D07 JUMP JUMPDEST POP JUMPDEST POP SWAP1 POP PUSH2 0x1D43 SWAP2 SWAP1 PUSH2 0x1D47 JUMP JUMPDEST POP SWAP1 JUMP JUMPDEST JUMPDEST DUP1 DUP3 GT ISZERO PUSH2 0x1D60 JUMPI PUSH1 0x0 DUP2 PUSH1 0x0 SWAP1 SSTORE POP PUSH1 0x1 ADD PUSH2 0x1D48 JUMP JUMPDEST POP SWAP1 JUMP JUMPDEST PUSH1 0x0 DUP2 MLOAD SWAP1 POP SWAP2 SWAP1 POP JUMP JUMPDEST PUSH1 0x0 DUP3 DUP3 MSTORE PUSH1 0x20 DUP3 ADD SWAP1 POP SWAP3 SWAP2 POP POP JUMP JUMPDEST PUSH1 0x0 DUP2 SWAP1 POP PUSH1 0x20 DUP3 ADD SWAP1 POP SWAP2 SWAP1 POP JUMP JUMPDEST PUSH1 0x0 DUP2 MLOAD SWAP1 POP SWAP2 SWAP1 POP JUMP JUMPDEST PUSH1 0x0 DUP3 DUP3 MSTORE PUSH1 0x20 DUP3 ADD SWAP1 POP SWAP3 SWAP2 POP POP JUMP JUMPDEST PUSH1 0x0 JUMPDEST DUP4 DUP2 LT ISZERO PUSH2 0x1DCA JUMPI DUP1 DUP3 ADD MLOAD DUP2 DUP5 ADD MSTORE PUSH1 0x20 DUP2 ADD SWAP1 POP PUSH2 0x1DAF JUMP JUMPDEST DUP4 DUP2 GT ISZERO PUSH2 0x1DD9 JUMPI PUSH1 0x0 DUP5 DUP5 ADD MSTORE JUMPDEST POP POP POP POP JUMP JUMPDEST PUSH1 0x0 PUSH1 0x1F NOT PUSH1 0x1F DUP4 ADD AND SWAP1 POP SWAP2 SWAP1 POP JUMP JUMPDEST PUSH1 0x0 PUSH2 0x1DFB DUP3 PUSH2 0x1D90 JUMP JUMPDEST PUSH2 0x1E05 DUP2 DUP6 PUSH2 0x1D9B JUMP JUMPDEST SWAP4 POP PUSH2 0x1E15 DUP2 DUP6 PUSH1 0x20 DUP7 ADD PUSH2 0x1DAC JUMP JUMPDEST PUSH2 0x1E1E DUP2 PUSH2 0x1DDF JUMP JUMPDEST DUP5 ADD SWAP2 POP POP SWAP3 SWAP2 POP POP JUMP JUMPDEST PUSH1 0x0 PUSH20 0xFFFFFFFFFFFFFFFFFFFFFFFFFFFFFFFFFFFFFFFF DUP3 AND SWAP1 POP SWAP2 SWAP1 POP JUMP JUMPDEST PUSH1 0x0 PUSH2 0x1E54 DUP3 PUSH2 0x1E29 JUMP JUMPDEST SWAP1 POP SWAP2 SWAP1 POP JUMP JUMPDEST PUSH2 0x1E64 DUP2 PUSH2 0x1E49 JUMP JUMPDEST DUP3 MSTORE POP POP JUMP JUMPDEST PUSH1 0x0 DUP2 SWAP1 POP SWAP2 SWAP1 POP JUMP JUMPDEST PUSH2 0x1E7D DUP2 PUSH2 0x1E6A JUMP JUMPDEST DUP3 MSTORE POP POP JUMP JUMPDEST PUSH1 0x0 PUSH2 0x100 DUP4 ADD PUSH1 0x0 DUP4 ADD MLOAD DUP5 DUP3 SUB PUSH1 0x0 DUP7 ADD MSTORE PUSH2 0x1EA1 DUP3 DUP3 PUSH2 0x1DF0 JUMP JUMPDEST SWAP2 POP POP PUSH1 0x20 DUP4 ADD MLOAD DUP5 DUP3 SUB PUSH1 0x20 DUP7 ADD MSTORE PUSH2 0x1EBB DUP3 DUP3 PUSH2 0x1DF0 JUMP JUMPDEST SWAP2 POP POP PUSH1 0x40 DUP4 ADD MLOAD PUSH2 0x1ED0 PUSH1 0x40 DUP7 ADD DUP3 PUSH2 0x1E5B JUMP JUMPDEST POP PUSH1 0x60 DUP4 ADD MLOAD PUSH2 0x1EE3 PUSH1 0x60 DUP7 ADD DUP3 PUSH2 0x1E74 JUMP JUMPDEST POP PUSH1 0x80 DUP4 ADD MLOAD PUSH2 0x1EF6 PUSH1 0x80 DUP7 ADD DUP3 PUSH2 0x1E74 JUMP JUMPDEST POP PUSH1 0xA0 DUP4 ADD MLOAD PUSH2 0x1F09 PUSH1 0xA0 DUP7 ADD DUP3 PUSH2 0x1E74 JUMP JUMPDEST POP PUSH1 0xC0 DUP4 ADD MLOAD DUP5 DUP3 SUB PUSH1 0xC0 DUP7 ADD MSTORE PUSH2 0x1F21 DUP3 DUP3 PUSH2 0x1DF0 JUMP JUMPDEST SWAP2 POP POP PUSH1 0xE0 DUP4 ADD MLOAD DUP5 DUP3 SUB PUSH1 0xE0 DUP7 ADD MSTORE PUSH2 0x1F3B DUP3 DUP3 PUSH2 0x1DF0 JUMP JUMPDEST SWAP2 POP POP DUP1 SWAP2 POP POP SWAP3 SWAP2 POP POP JUMP JUMPDEST PUSH1 0x0 PUSH2 0x1F54 DUP4 DUP4 PUSH2 0x1E83 JUMP JUMPDEST SWAP1 POP SWAP3 SWAP2 POP POP JUMP JUMPDEST PUSH1 0x0 PUSH1 0x20 DUP3 ADD SWAP1 POP SWAP2 SWAP1 POP JUMP JUMPDEST PUSH1 0x0 PUSH2 0x1F74 DUP3 PUSH2 0x1D64 JUMP JUMPDEST PUSH2 0x1F7E DUP2 DUP6 PUSH2 0x1D6F JUMP JUMPDEST SWAP4 POP DUP4 PUSH1 0x20 DUP3 MUL DUP6 ADD PUSH2 0x1F90 DUP6 PUSH2 0x1D80 JUMP JUMPDEST DUP1 PUSH1 0x0 JUMPDEST DUP6 DUP2 LT ISZERO PUSH2 0x1FCC JUMPI DUP5 DUP5 SUB DUP10 MSTORE DUP2 MLOAD PUSH2 0x1FAD DUP6 DUP3 PUSH2 0x1F48 JUMP JUMPDEST SWAP5 POP PUSH2 0x1FB8 DUP4 PUSH2 0x1F5C JUMP JUMPDEST SWAP3 POP PUSH1 0x20 DUP11 ADD SWAP10 POP POP PUSH1 0x1 DUP2 ADD SWAP1 POP PUSH2 0x1F94 JUMP JUMPDEST POP DUP3 SWAP8 POP DUP8 SWAP6 POP POP POP POP POP POP SWAP3 SWAP2 POP POP JUMP JUMPDEST PUSH1 0x0 PUSH1 0x20 DUP3 ADD SWAP1 POP DUP2 DUP2 SUB PUSH1 0x0 DUP4 ADD MSTORE PUSH2 0x1FF8 DUP2 DUP5 PUSH2 0x1F69 JUMP JUMPDEST SWAP1 POP SWAP3 SWAP2 POP POP JUMP JUMPDEST PUSH1 0x0 DUP1 REVERT JUMPDEST PUSH1 0x0 DUP1 REVERT JUMPDEST PUSH2 0x2013 DUP2 PUSH2 0x1E6A JUMP JUMPDEST DUP2 EQ PUSH2 0x201E JUMPI PUSH1 0x0 DUP1 REVERT JUMPDEST POP JUMP JUMPDEST PUSH1 0x0 DUP2 CALLDATALOAD SWAP1 POP PUSH2 0x2030 DUP2 PUSH2 0x200A JUMP JUMPDEST SWAP3 SWAP2 POP POP JUMP JUMPDEST PUSH1 0x0 DUP1 REVERT JUMPDEST PUSH1 0x0 DUP2 SWAP1 POP DUP3 PUSH1 0x20 PUSH1 0x1 MUL DUP3 ADD GT ISZERO PUSH2 0x2057 JUMPI PUSH2 0x2056 PUSH2 0x2036 JUMP JUMPDEST JUMPDEST SWAP3 SWAP2 POP POP JUMP JUMPDEST PUSH1 0x0 DUP1 PUSH1 0x40 DUP4 DUP6 SUB SLT ISZERO PUSH2 0x2074 JUMPI PUSH2 0x2073 PUSH2 0x2000 JUMP JUMPDEST JUMPDEST PUSH1 0x0 PUSH2 0x2082 DUP6 DUP3 DUP7 ADD PUSH2 0x2021 JUMP JUMPDEST SWAP3 POP POP PUSH1 0x20 DUP4 ADD CALLDATALOAD PUSH8 0xFFFFFFFFFFFFFFFF DUP2 GT ISZERO PUSH2 0x20A3 JUMPI PUSH2 0x20A2 PUSH2 0x2005 JUMP JUMPDEST JUMPDEST PUSH2 0x20AF DUP6 DUP3 DUP7 ADD PUSH2 0x203B JUMP JUMPDEST SWAP2 POP POP SWAP3 POP SWAP3 SWAP1 POP JUMP JUMPDEST PUSH1 0x0 DUP1 REVERT JUMPDEST PUSH1 0x0 PUSH2 0x100 DUP3 DUP5 SUB SLT ISZERO PUSH2 0x20D5 JUMPI PUSH2 0x20D4 PUSH2 0x20B9 JUMP JUMPDEST JUMPDEST DUP2 SWAP1 POP SWAP3 SWAP2 POP POP JUMP JUMPDEST PUSH1 0x0 PUSH1 0x20 DUP3 DUP5 SUB SLT ISZERO PUSH2 0x20F4 JUMPI PUSH2 0x20F3 PUSH2 0x2000 JUMP JUMPDEST JUMPDEST PUSH1 0x0 DUP3 ADD CALLDATALOAD PUSH8 0xFFFFFFFFFFFFFFFF DUP2 GT ISZERO PUSH2 0x2112 JUMPI PUSH2 0x2111 PUSH2 0x2005 JUMP JUMPDEST JUMPDEST PUSH2 0x211E DUP5 DUP3 DUP6 ADD PUSH2 0x20BE JUMP JUMPDEST SWAP2 POP POP SWAP3 SWAP2 POP POP JUMP JUMPDEST PUSH2 0x2130 DUP2 PUSH2 0x1E6A JUMP JUMPDEST DUP3 MSTORE POP POP JUMP JUMPDEST PUSH1 0x0 PUSH1 0x20 DUP3 ADD SWAP1 POP PUSH2 0x214B PUSH1 0x0 DUP4 ADD DUP5 PUSH2 0x2127 JUMP JUMPDEST SWAP3 SWAP2 POP POP JUMP JUMPDEST PUSH2 0x215A DUP2 PUSH2 0x1E49 JUMP JUMPDEST DUP2 EQ PUSH2 0x2165 JUMPI PUSH1 0x0 DUP1 REVERT JUMPDEST POP JUMP JUMPDEST PUSH1 0x0 DUP2 CALLDATALOAD SWAP1 POP PUSH2 0x2177 DUP2 PUSH2 0x2151 JUMP JUMPDEST SWAP3 SWAP2 POP POP JUMP JUMPDEST PUSH1 0x0 PUSH1 0x20 DUP3 DUP5 SUB SLT ISZERO PUSH2 0x2193 JUMPI PUSH2 0x2192 PUSH2 0x2000 JUMP JUMPDEST JUMPDEST PUSH1 0x0 PUSH2 0x21A1 DUP5 DUP3 DUP6 ADD PUSH2 0x2168 JUMP JUMPDEST SWAP2 POP POP SWAP3 SWAP2 POP POP JUMP JUMPDEST PUSH1 0x0 DUP1 REVERT JUMPDEST PUSH1 0x0 DUP1 REVERT JUMPDEST PUSH1 0x0 DUP1 DUP4 PUSH1 0x1F DUP5 ADD SLT PUSH2 0x21CA JUMPI PUSH2 0x21C9 PUSH2 0x21AA JUMP JUMPDEST JUMPDEST DUP3 CALLDATALOAD SWAP1 POP PUSH8 0xFFFFFFFFFFFFFFFF DUP2 GT ISZERO PUSH2 0x21E7 JUMPI PUSH2 0x21E6 PUSH2 0x21AF JUMP JUMPDEST JUMPDEST PUSH1 0x20 DUP4 ADD SWAP2 POP DUP4 PUSH1 0x1 DUP3 MUL DUP4 ADD GT ISZERO PUSH2 0x2203 JUMPI PUSH2 0x2202 PUSH2 0x2036 JUMP JUMPDEST JUMPDEST SWAP3 POP SWAP3 SWAP1 POP JUMP JUMPDEST PUSH1 0x0 DUP1 PUSH1 0x0 DUP1 PUSH1 0x60 DUP6 DUP8 SUB SLT ISZERO PUSH2 0x2224 JUMPI PUSH2 0x2223 PUSH2 0x2000 JUMP JUMPDEST JUMPDEST PUSH1 0x0 PUSH2 0x2232 DUP8 DUP3 DUP9 ADD PUSH2 0x2021 JUMP JUMPDEST SWAP5 POP POP PUSH1 0x20 DUP6 ADD CALLDATALOAD PUSH8 0xFFFFFFFFFFFFFFFF DUP2 GT ISZERO PUSH2 0x2253 JUMPI PUSH2 0x2252 PUSH2 0x2005 JUMP JUMPDEST JUMPDEST PUSH2 0x225F DUP8 DUP3 DUP9 ADD PUSH2 0x21B4 JUMP JUMPDEST SWAP4 POP SWAP4 POP POP PUSH1 0x40 PUSH2 0x2272 DUP8 DUP3 DUP9 ADD PUSH2 0x2168 JUMP JUMPDEST SWAP2 POP POP SWAP3 SWAP6 SWAP2 SWAP5 POP SWAP3 POP JUMP JUMPDEST PUSH1 0x0 PUSH1 0x20 DUP3 DUP5 SUB SLT ISZERO PUSH2 0x2294 JUMPI PUSH2 0x2293 PUSH2 0x2000 JUMP JUMPDEST JUMPDEST PUSH1 0x0 PUSH2 0x22A2 DUP5 DUP3 DUP6 ADD PUSH2 0x2021 JUMP JUMPDEST SWAP2 POP POP SWAP3 SWAP2 POP POP JUMP JUMPDEST PUSH1 0x0 DUP3 DUP3 MSTORE PUSH1 0x20 DUP3 ADD SWAP1 POP SWAP3 SWAP2 POP POP JUMP JUMPDEST PUSH1 0x0 PUSH2 0x22C7 DUP3 PUSH2 0x1D90 JUMP JUMPDEST PUSH2 0x22D1 DUP2 DUP6 PUSH2 0x22AB JUMP JUMPDEST SWAP4 POP PUSH2 0x22E1 DUP2 DUP6 PUSH1 0x20 DUP7 ADD PUSH2 0x1DAC JUMP JUMPDEST PUSH2 0x22EA DUP2 PUSH2 0x1DDF JUMP JUMPDEST DUP5 ADD SWAP2 POP POP SWAP3 SWAP2 POP POP JUMP JUMPDEST PUSH2 0x22FE DUP2 PUSH2 0x1E49 JUMP JUMPDEST DUP3 MSTORE POP POP JUMP JUMPDEST PUSH1 0x0 PUSH2 0x100 DUP3 ADD SWAP1 POP DUP2 DUP2 SUB PUSH1 0x0 DUP4 ADD MSTORE PUSH2 0x231F DUP2 DUP12 PUSH2 0x22BC JUMP JUMPDEST SWAP1 POP DUP2 DUP2 SUB PUSH1 0x20 DUP4 ADD MSTORE PUSH2 0x2333 DUP2 DUP11 PUSH2 0x22BC JUMP JUMPDEST SWAP1 POP PUSH2 0x2342 PUSH1 0x40 DUP4 ADD DUP10 PUSH2 0x22F5 JUMP JUMPDEST PUSH2 0x234F PUSH1 0x60 DUP4 ADD DUP9 PUSH2 0x2127 JUMP JUMPDEST PUSH2 0x235C PUSH1 0x80 DUP4 ADD DUP8 PUSH2 0x2127 JUMP JUMPDEST PUSH2 0x2369 PUSH1 0xA0 DUP4 ADD DUP7 PUSH2 0x2127 JUMP JUMPDEST DUP2 DUP2 SUB PUSH1 0xC0 DUP4 ADD MSTORE PUSH2 0x237B DUP2 DUP6 PUSH2 0x22BC JUMP JUMPDEST SWAP1 POP DUP2 DUP2 SUB PUSH1 0xE0 DUP4 ADD MSTORE PUSH2 0x238F DUP2 DUP5 PUSH2 0x22BC JUMP JUMPDEST SWAP1 POP SWAP10 SWAP9 POP POP POP POP POP POP POP POP POP JUMP JUMPDEST PUSH1 0x0 DUP1 PUSH1 0x40 DUP4 DUP6 SUB SLT ISZERO PUSH2 0x23B5 JUMPI PUSH2 0x23B4 PUSH2 0x2000 JUMP JUMPDEST JUMPDEST PUSH1 0x0 PUSH2 0x23C3 DUP6 DUP3 DUP7 ADD PUSH2 0x2021 JUMP JUMPDEST SWAP3 POP POP PUSH1 0x20 PUSH2 0x23D4 DUP6 DUP3 DUP7 ADD PUSH2 0x2168 JUMP JUMPDEST SWAP2 POP POP SWAP3 POP SWAP3 SWAP1 POP JUMP JUMPDEST PUSH1 0x0 PUSH1 0x40 DUP3 ADD SWAP1 POP PUSH2 0x23F3 PUSH1 0x0 DUP4 ADD DUP6 PUSH2 0x2127 JUMP JUMPDEST PUSH2 0x2400 PUSH1 0x20 DUP4 ADD DUP5 PUSH2 0x22F5 JUMP JUMPDEST SWAP4 SWAP3 POP POP POP JUMP JUMPDEST PUSH1 0x0 DUP2 SWAP1 POP DUP3 PUSH1 0x20 PUSH1 0x1 MUL DUP3 ADD GT ISZERO PUSH2 0x2423 JUMPI PUSH2 0x2422 PUSH2 0x2036 JUMP JUMPDEST JUMPDEST SWAP3 SWAP2 POP POP JUMP JUMPDEST PUSH1 0x0 DUP1 PUSH1 0x40 DUP4 DUP6 SUB SLT ISZERO PUSH2 0x2440 JUMPI PUSH2 0x243F PUSH2 0x2000 JUMP JUMPDEST JUMPDEST PUSH1 0x0 PUSH2 0x244E DUP6 DUP3 DUP7 ADD PUSH2 0x2021 JUMP JUMPDEST SWAP3 POP POP PUSH1 0x20 PUSH2 0x245F DUP6 DUP3 DUP7 ADD PUSH2 0x2407 JUMP JUMPDEST SWAP2 POP POP SWAP3 POP SWAP3 SWAP1 POP JUMP JUMPDEST PUSH32 0x4E487B7100000000000000000000000000000000000000000000000000000000 PUSH1 0x0 MSTORE PUSH1 0x32 PUSH1 0x4 MSTORE PUSH1 0x24 PUSH1 0x0 REVERT JUMPDEST PUSH32 0x4E487B7100000000000000000000000000000000000000000000000000000000 PUSH1 0x0 MSTORE PUSH1 0x11 PUSH1 0x4 MSTORE PUSH1 0x24 PUSH1 0x0 REVERT JUMPDEST PUSH1 0x0 PUSH2 0x24D2 DUP3 PUSH2 0x1E6A JUMP JUMPDEST SWAP2 POP PUSH2 0x24DD DUP4 PUSH2 0x1E6A JUMP JUMPDEST SWAP3 POP DUP3 PUSH32 0xFFFFFFFFFFFFFFFFFFFFFFFFFFFFFFFFFFFFFFFFFFFFFFFFFFFFFFFFFFFFFFFF SUB DUP3 GT ISZERO PUSH2 0x2512 JUMPI PUSH2 0x2511 PUSH2 0x2498 JUMP JUMPDEST JUMPDEST DUP3 DUP3 ADD SWAP1 POP SWAP3 SWAP2 POP POP JUMP JUMPDEST PUSH1 0x0 PUSH2 0x2528 DUP3 PUSH2 0x1E6A JUMP JUMPDEST SWAP2 POP PUSH32 0xFFFFFFFFFFFFFFFFFFFFFFFFFFFFFFFFFFFFFFFFFFFFFFFFFFFFFFFFFFFFFFFF DUP3 EQ ISZERO PUSH2 0x255B JUMPI PUSH2 0x255A PUSH2 0x2498 JUMP JUMPDEST JUMPDEST PUSH1 0x1 DUP3 ADD SWAP1 POP SWAP2 SWAP1 POP JUMP JUMPDEST PUSH32 0x4E487B7100000000000000000000000000000000000000000000000000000000 PUSH1 0x0 MSTORE PUSH1 0x41 PUSH1 0x4 MSTORE PUSH1 0x24 PUSH1 0x0 REVERT JUMPDEST PUSH32 0x4E487B7100000000000000000000000000000000000000000000000000000000 PUSH1 0x0 MSTORE PUSH1 0x22 PUSH1 0x4 MSTORE PUSH1 0x24 PUSH1 0x0 REVERT JUMPDEST PUSH1 0x0 PUSH1 0x2 DUP3 DIV SWAP1 POP PUSH1 0x1 DUP3 AND DUP1 PUSH2 0x25DC JUMPI PUSH1 0x7F DUP3 AND SWAP2 POP JUMPDEST PUSH1 0x20 DUP3 LT DUP2 EQ ISZERO PUSH2 0x25F0 JUMPI PUSH2 0x25EF PUSH2 0x2595 JUMP JUMPDEST JUMPDEST POP SWAP2 SWAP1 POP JUMP JUMPDEST PUSH32 0x4F6E6C79206F776E6572206F7220746865207175697A2063726561746F722063 PUSH1 0x0 DUP3 ADD MSTORE PUSH32 0x616E207375626D6974207175657374696F6E7300000000000000000000000000 PUSH1 0x20 DUP3 ADD MSTORE POP JUMP JUMPDEST PUSH1 0x0 PUSH2 0x2652 PUSH1 0x33 DUP4 PUSH2 0x22AB JUMP JUMPDEST SWAP2 POP PUSH2 0x265D DUP3 PUSH2 0x25F6 JUMP JUMPDEST PUSH1 0x40 DUP3 ADD SWAP1 POP SWAP2 SWAP1 POP JUMP JUMPDEST PUSH1 0x0 PUSH1 0x20 DUP3 ADD SWAP1 POP DUP2 DUP2 SUB PUSH1 0x0 DUP4 ADD MSTORE PUSH2 0x2681 DUP2 PUSH2 0x2645 JUMP JUMPDEST SWAP1 POP SWAP2 SWAP1 POP JUMP JUMPDEST PUSH1 0x0 DUP1 REVERT JUMPDEST PUSH1 0x0 DUP1 REVERT JUMPDEST PUSH1 0x0 DUP1 REVERT JUMPDEST PUSH1 0x0 DUP3 CALLDATALOAD PUSH1 0x1 PUSH1 0x40 SUB DUP4 CALLDATASIZE SUB SUB DUP2 SLT PUSH2 0x26B3 JUMPI PUSH2 0x26B2 PUSH2 0x2688 JUMP JUMPDEST JUMPDEST DUP1 DUP4 ADD SWAP2 POP POP SWAP3 SWAP2 POP POP JUMP JUMPDEST PUSH1 0x0 DUP1 DUP4 CALLDATALOAD PUSH1 0x1 PUSH1 0x20 SUB DUP5 CALLDATASIZE SUB SUB DUP2 SLT PUSH2 0x26DC JUMPI PUSH2 0x26DB PUSH2 0x2688 JUMP JUMPDEST JUMPDEST DUP1 DUP5 ADD SWAP3 POP DUP3 CALLDATALOAD SWAP2 POP PUSH8 0xFFFFFFFFFFFFFFFF DUP3 GT ISZERO PUSH2 0x26FE JUMPI PUSH2 0x26FD PUSH2 0x268D JUMP JUMPDEST JUMPDEST PUSH1 0x20 DUP4 ADD SWAP3 POP PUSH1 0x1 DUP3 MUL CALLDATASIZE SUB DUP4 SGT ISZERO PUSH2 0x271A JUMPI PUSH2 0x2719 PUSH2 0x2692 JUMP JUMPDEST JUMPDEST POP SWAP3 POP SWAP3 SWAP1 POP JUMP JUMPDEST PUSH32 0x5175657374696F6E2063616E6E6F7420626520656D7074790000000000000000 PUSH1 0x0 DUP3 ADD MSTORE POP JUMP JUMPDEST PUSH1 0x0 PUSH2 0x2758 PUSH1 0x18 DUP4 PUSH2 0x22AB JUMP JUMPDEST SWAP2 POP PUSH2 0x2763 DUP3 PUSH2 0x2722 JUMP JUMPDEST PUSH1 0x20 DUP3 ADD SWAP1 POP SWAP2 SWAP1 POP JUMP JUMPDEST PUSH1 0x0 PUSH1 0x20 DUP3 ADD SWAP1 POP DUP2 DUP2 SUB PUSH1 0x0 DUP4 ADD MSTORE PUSH2 0x2787 DUP2 PUSH2 0x274B JUMP JUMPDEST SWAP1 POP SWAP2 SWAP1 POP JUMP JUMPDEST PUSH1 0x0 DUP3 CALLDATALOAD PUSH1 0x1 PUSH1 0x80 SUB DUP4 CALLDATASIZE SUB SUB DUP2 SLT PUSH2 0x27AA JUMPI PUSH2 0x27A9 PUSH2 0x2688 JUMP JUMPDEST JUMPDEST DUP1 DUP4 ADD SWAP2 POP POP SWAP3 SWAP2 POP POP JUMP JUMPDEST PUSH32 0x4F7074696F6E2063616E6E6F7420626520656D70747900000000000000000000 PUSH1 0x0 DUP3 ADD MSTORE POP JUMP JUMPDEST PUSH1 0x0 PUSH2 0x27EC PUSH1 0x16 DUP4 PUSH2 0x22AB JUMP JUMPDEST SWAP2 POP PUSH2 0x27F7 DUP3 PUSH2 0x27B6 JUMP JUMPDEST PUSH1 0x20 DUP3 ADD SWAP1 POP SWAP2 SWAP1 POP JUMP JUMPDEST PUSH1 0x0 PUSH1 0x20 DUP3 ADD SWAP1 POP DUP2 DUP2 SUB PUSH1 0x0 DUP4 ADD MSTORE PUSH2 0x281B DUP2 PUSH2 0x27DF JUMP JUMPDEST SWAP1 POP SWAP2 SWAP1 POP JUMP JUMPDEST PUSH1 0x0 PUSH1 0x1 SWAP1 POP SWAP2 SWAP1 POP JUMP JUMPDEST PUSH1 0x0 DUP2 SWAP1 POP SWAP3 SWAP2 POP POP JUMP JUMPDEST PUSH1 0x0 DUP2 SWAP1 POP SWAP2 SWAP1 POP JUMP JUMPDEST PUSH1 0x0 DUP1 REVERT JUMPDEST PUSH1 0x0 DUP1 REVERT JUMPDEST PUSH1 0x0 DUP1 REVERT JUMPDEST PUSH1 0x0 DUP1 DUP4 CALLDATALOAD PUSH1 0x1 PUSH1 0x20 SUB DUP5 CALLDATASIZE SUB SUB DUP2 SLT PUSH2 0x286E JUMPI PUSH2 0x286D PUSH2 0x284C JUMP JUMPDEST JUMPDEST DUP4 DUP2 ADD SWAP3 POP DUP3 CALLDATALOAD SWAP2 POP PUSH1 0x20 DUP4 ADD SWAP3 POP PUSH8 0xFFFFFFFFFFFFFFFF DUP3 GT ISZERO PUSH2 0x2896 JUMPI PUSH2 0x2895 PUSH2 0x2842 JUMP JUMPDEST JUMPDEST PUSH1 0x1 DUP3 MUL CALLDATASIZE SUB DUP5 SGT ISZERO PUSH2 0x28AC JUMPI PUSH2 0x28AB PUSH2 0x2847 JUMP JUMPDEST JUMPDEST POP SWAP3 POP SWAP3 SWAP1 POP JUMP JUMPDEST DUP3 DUP2 DUP4 CALLDATACOPY PUSH1 0x0 DUP4 DUP4 ADD MSTORE POP POP POP JUMP JUMPDEST PUSH1 0x0 PUSH2 0x28CF DUP4 DUP6 PUSH2 0x1D9B JUMP JUMPDEST SWAP4 POP PUSH2 0x28DC DUP4 DUP6 DUP5 PUSH2 0x28B4 JUMP JUMPDEST PUSH2 0x28E5 DUP4 PUSH2 0x1DDF JUMP JUMPDEST DUP5 ADD SWAP1 POP SWAP4 SWAP3 POP POP POP JUMP JUMPDEST PUSH1 0x0 DUP3 CALLDATALOAD PUSH1 0x1 PUSH1 0x80 SUB DUP4 CALLDATASIZE SUB SUB DUP2 SLT PUSH2 0x290C JUMPI PUSH2 0x290B PUSH2 0x284C JUMP JUMPDEST JUMPDEST DUP3 DUP2 ADD SWAP2 POP POP SWAP3 SWAP2 POP POP JUMP JUMPDEST PUSH1 0x0 PUSH1 0x4 SWAP1 POP SWAP2 SWAP1 POP JUMP JUMPDEST PUSH1 0x0 DUP2 SWAP1 POP SWAP3 SWAP2 POP POP JUMP JUMPDEST PUSH1 0x0 DUP2 SWAP1 POP SWAP2 SWAP1 POP JUMP JUMPDEST PUSH1 0x0 PUSH2 0x2945 DUP5 DUP5 DUP5 PUSH2 0x28C3 JUMP JUMPDEST SWAP1 POP SWAP4 SWAP3 POP POP POP JUMP JUMPDEST PUSH1 0x0 PUSH1 0x20 DUP3 ADD SWAP1 POP SWAP2 SWAP1 POP JUMP JUMPDEST PUSH1 0x0 PUSH2 0x2966 DUP3 PUSH2 0x2918 JUMP JUMPDEST PUSH2 0x2970 DUP2 DUP6 PUSH2 0x2923 JUMP JUMPDEST SWAP4 POP DUP4 PUSH1 0x20 DUP3 MUL DUP6 ADD PUSH2 0x2982 DUP6 PUSH2 0x292E JUMP JUMPDEST DUP1 PUSH1 0x0 JUMPDEST DUP6 DUP2 LT ISZERO PUSH2 0x29C8 JUMPI DUP5 DUP5 SUB DUP10 MSTORE PUSH2 0x299D DUP3 DUP5 PUSH2 0x2851 JUMP JUMPDEST PUSH2 0x29A8 DUP7 DUP3 DUP5 PUSH2 0x2938 JUMP JUMPDEST SWAP6 POP PUSH2 0x29B3 DUP5 PUSH2 0x294E JUMP JUMPDEST SWAP4 POP PUSH1 0x20 DUP12 ADD SWAP11 POP POP POP PUSH1 0x1 DUP2 ADD SWAP1 POP PUSH2 0x2986 JUMP JUMPDEST POP DUP3 SWAP8 POP DUP8 SWAP6 POP POP POP POP POP POP SWAP3 SWAP2 POP POP JUMP JUMPDEST PUSH1 0x0 PUSH1 0x40 DUP4 ADD PUSH2 0x29ED PUSH1 0x0 DUP5 ADD DUP5 PUSH2 0x2851 JUMP JUMPDEST DUP6 DUP4 SUB PUSH1 0x0 DUP8 ADD MSTORE PUSH2 0x2A00 DUP4 DUP3 DUP5 PUSH2 0x28C3 JUMP JUMPDEST SWAP3 POP POP POP PUSH2 0x2A11 PUSH1 0x20 DUP5 ADD DUP5 PUSH2 0x28F0 JUMP JUMPDEST DUP5 DUP3 SUB PUSH1 0x20 DUP7 ADD MSTORE PUSH2 0x2A23 DUP3 DUP3 PUSH2 0x295B JUMP JUMPDEST SWAP2 POP POP DUP1 SWAP2 POP POP SWAP3 SWAP2 POP POP JUMP JUMPDEST PUSH1 0x0 PUSH2 0x2A3C DUP4 DUP4 PUSH2 0x29DA JUMP JUMPDEST SWAP1 POP SWAP3 SWAP2 POP POP JUMP JUMPDEST PUSH1 0x0 DUP3 CALLDATALOAD PUSH1 0x1 PUSH1 0x40 SUB DUP4 CALLDATASIZE SUB SUB DUP2 SLT PUSH2 0x2A60 JUMPI PUSH2 0x2A5F PUSH2 0x284C JUMP JUMPDEST JUMPDEST DUP3 DUP2 ADD SWAP2 POP POP SWAP3 SWAP2 POP POP JUMP JUMPDEST PUSH1 0x0 PUSH1 0x20 DUP3 ADD SWAP1 POP SWAP2 SWAP1 POP JUMP JUMPDEST PUSH1 0x0 PUSH2 0x2A84 DUP3 PUSH2 0x2822 JUMP JUMPDEST PUSH2 0x2A8E DUP2 DUP6 PUSH2 0x282D JUMP JUMPDEST SWAP4 POP DUP4 PUSH1 0x20 DUP3 MUL DUP6 ADD PUSH2 0x2AA0 DUP6 PUSH2 0x2838 JUMP JUMPDEST DUP1 PUSH1 0x0 JUMPDEST DUP6 DUP2 LT ISZERO PUSH2 0x2AE4 JUMPI DUP5 DUP5 SUB DUP10 MSTORE PUSH2 0x2ABB DUP3 DUP5 PUSH2 0x2A44 JUMP JUMPDEST PUSH2 0x2AC5 DUP6 DUP3 PUSH2 0x2A30 JUMP JUMPDEST SWAP5 POP PUSH2 0x2AD0 DUP4 PUSH2 0x2A6C JUMP JUMPDEST SWAP3 POP PUSH1 0x20 DUP11 ADD SWAP10 POP POP PUSH1 0x1 DUP2 ADD SWAP1 POP PUSH2 0x2AA4 JUMP JUMPDEST POP DUP3 SWAP8 POP DUP8 SWAP6 POP POP POP POP POP POP SWAP3 SWAP2 POP POP JUMP JUMPDEST PUSH1 0x0 PUSH1 0x40 DUP3 ADD SWAP1 POP PUSH2 0x2B0B PUSH1 0x0 DUP4 ADD DUP6 PUSH2 0x2127 JUMP JUMPDEST DUP2 DUP2 SUB PUSH1 0x20 DUP4 ADD MSTORE PUSH2 0x2B1D DUP2 DUP5 PUSH2 0x2A79 JUMP JUMPDEST SWAP1 POP SWAP4 SWAP3 POP POP POP JUMP JUMPDEST PUSH32 0x5175697A2063616E6E6F74206265206372656174656420696E20746865207061 PUSH1 0x0 DUP3 ADD MSTORE PUSH32 0x7374000000000000000000000000000000000000000000000000000000000000 PUSH1 0x20 DUP3 ADD MSTORE POP JUMP JUMPDEST PUSH1 0x0 PUSH2 0x2B82 PUSH1 0x22 DUP4 PUSH2 0x22AB JUMP JUMPDEST SWAP2 POP PUSH2 0x2B8D DUP3 PUSH2 0x2B26 JUMP JUMPDEST PUSH1 0x40 DUP3 ADD SWAP1 POP SWAP2 SWAP1 POP JUMP JUMPDEST PUSH1 0x0 PUSH1 0x20 DUP3 ADD SWAP1 POP DUP2 DUP2 SUB PUSH1 0x0 DUP4 ADD MSTORE PUSH2 0x2BB1 DUP2 PUSH2 0x2B75 JUMP JUMPDEST SWAP1 POP SWAP2 SWAP1 POP JUMP JUMPDEST PUSH32 0x5175697A2063616E6E6F742062652063726561746564207769746820656E6420 PUSH1 0x0 DUP3 ADD MSTORE PUSH32 0x74696D65206265666F72652073746172742074696D6500000000000000000000 PUSH1 0x20 DUP3 ADD MSTORE POP JUMP JUMPDEST PUSH1 0x0 PUSH2 0x2C14 PUSH1 0x36 DUP4 PUSH2 0x22AB JUMP JUMPDEST SWAP2 POP PUSH2 0x2C1F DUP3 PUSH2 0x2BB8 JUMP JUMPDEST PUSH1 0x40 DUP3 ADD SWAP1 POP SWAP2 SWAP1 POP JUMP JUMPDEST PUSH1 0x0 PUSH1 0x20 DUP3 ADD SWAP1 POP DUP2 DUP2 SUB PUSH1 0x0 DUP4 ADD MSTORE PUSH2 0x2C43 DUP2 PUSH2 0x2C07 JUMP JUMPDEST SWAP1 POP SWAP2 SWAP1 POP JUMP JUMPDEST PUSH32 0x5175697A206E616D652063616E6E6F7420626520656D70747900000000000000 PUSH1 0x0 DUP3 ADD MSTORE POP JUMP JUMPDEST PUSH1 0x0 PUSH2 0x2C80 PUSH1 0x19 DUP4 PUSH2 0x22AB JUMP JUMPDEST SWAP2 POP PUSH2 0x2C8B DUP3 PUSH2 0x2C4A JUMP JUMPDEST PUSH1 0x20 DUP3 ADD SWAP1 POP SWAP2 SWAP1 POP JUMP JUMPDEST PUSH1 0x0 PUSH1 0x20 DUP3 ADD SWAP1 POP DUP2 DUP2 SUB PUSH1 0x0 DUP4 ADD MSTORE PUSH2 0x2CAF DUP2 PUSH2 0x2C73 JUMP JUMPDEST SWAP1 POP SWAP2 SWAP1 POP JUMP JUMPDEST PUSH32 0x5072697A65206D6F6E65792063616E6E6F74206265207A65726F000000000000 PUSH1 0x0 DUP3 ADD MSTORE POP JUMP JUMPDEST PUSH1 0x0 PUSH2 0x2CEC PUSH1 0x1A DUP4 PUSH2 0x22AB JUMP JUMPDEST SWAP2 POP PUSH2 0x2CF7 DUP3 PUSH2 0x2CB6 JUMP JUMPDEST PUSH1 0x20 DUP3 ADD SWAP1 POP SWAP2 SWAP1 POP JUMP JUMPDEST PUSH1 0x0 PUSH1 0x20 DUP3 ADD SWAP1 POP DUP2 DUP2 SUB PUSH1 0x0 DUP4 ADD MSTORE PUSH2 0x2D1B DUP2 PUSH2 0x2CDF JUMP JUMPDEST SWAP1 POP SWAP2 SWAP1 POP JUMP JUMPDEST PUSH32 0x5072697A65206D6F6E6579206D757374206D617463682074686520616D6F756E PUSH1 0x0 DUP3 ADD MSTORE PUSH32 0x742073656E740000000000000000000000000000000000000000000000000000 PUSH1 0x20 DUP3 ADD MSTORE POP JUMP JUMPDEST PUSH1 0x0 PUSH2 0x2D7E PUSH1 0x26 DUP4 PUSH2 0x22AB JUMP JUMPDEST SWAP2 POP PUSH2 0x2D89 DUP3 PUSH2 0x2D22 JUMP JUMPDEST PUSH1 0x40 DUP3 ADD SWAP1 POP SWAP2 SWAP1 POP JUMP JUMPDEST PUSH1 0x0 PUSH1 0x20 DUP3 ADD SWAP1 POP DUP2 DUP2 SUB PUSH1 0x0 DUP4 ADD MSTORE PUSH2 0x2DAD DUP2 PUSH2 0x2D71 JUMP JUMPDEST SWAP1 POP SWAP2 SWAP1 POP JUMP JUMPDEST PUSH32 0x5175697A206F776E65722063616E6E6F7420626520656D707479000000000000 PUSH1 0x0 DUP3 ADD MSTORE POP JUMP JUMPDEST PUSH1 0x0 PUSH2 0x2DEA PUSH1 0x1A DUP4 PUSH2 0x22AB JUMP JUMPDEST SWAP2 POP PUSH2 0x2DF5 DUP3 PUSH2 0x2DB4 JUMP JUMPDEST PUSH1 0x20 DUP3 ADD SWAP1 POP SWAP2 SWAP1 POP JUMP JUMPDEST PUSH1 0x0 PUSH1 0x20 DUP3 ADD SWAP1 POP DUP2 DUP2 SUB PUSH1 0x0 DUP4 ADD MSTORE PUSH2 0x2E19 DUP2 PUSH2 0x2DDD JUMP JUMPDEST SWAP1 POP SWAP2 SWAP1 POP JUMP JUMPDEST PUSH1 0x0 DUP3 SWAP1 POP SWAP3 SWAP2 POP POP JUMP JUMPDEST PUSH1 0x0 DUP2 SWAP1 POP DUP2 PUSH1 0x0 MSTORE PUSH1 0x20 PUSH1 0x0 KECCAK256 SWAP1 POP SWAP2 SWAP1 POP JUMP JUMPDEST PUSH1 0x0 PUSH1 0x20 PUSH1 0x1F DUP4 ADD DIV SWAP1 POP SWAP2 SWAP1 POP JUMP JUMPDEST PUSH1 0x0 DUP3 DUP3 SHL SWAP1 POP SWAP3 SWAP2 POP POP JUMP JUMPDEST PUSH1 0x0 PUSH1 0x8 DUP4 MUL PUSH2 0x2E8D PUSH32 0xFFFFFFFFFFFFFFFFFFFFFFFFFFFFFFFFFFFFFFFFFFFFFFFFFFFFFFFFFFFFFFFF DUP3 PUSH2 0x2E50 JUMP JUMPDEST PUSH2 0x2E97 DUP7 DUP4 PUSH2 0x2E50 JUMP JUMPDEST SWAP6 POP DUP1 NOT DUP5 AND SWAP4 POP DUP1 DUP7 AND DUP5 OR SWAP3 POP POP POP SWAP4 SWAP3 POP POP POP JUMP JUMPDEST PUSH1 0x0 DUP2 SWAP1 POP SWAP2 SWAP1 POP JUMP JUMPDEST PUSH1 0x0 PUSH2 0x2ED4 PUSH2 0x2ECF PUSH2 0x2ECA DUP5 PUSH2 0x1E6A JUMP JUMPDEST PUSH2 0x2EAF JUMP JUMPDEST PUSH2 0x1E6A JUMP JUMPDEST SWAP1 POP SWAP2 SWAP1 POP JUMP JUMPDEST PUSH1 0x0 DUP2 SWAP1 POP SWAP2 SWAP1 POP JUMP JUMPDEST PUSH2 0x2EEE DUP4 PUSH2 0x2EB9 JUMP JUMPDEST PUSH2 0x2F02 PUSH2 0x2EFA DUP3 PUSH2 0x2EDB JUMP JUMPDEST DUP5 DUP5 SLOAD PUSH2 0x2E5D JUMP JUMPDEST DUP3 SSTORE POP POP POP POP JUMP JUMPDEST PUSH1 0x0 SWAP1 JUMP JUMPDEST PUSH2 0x2F17 PUSH2 0x2F0A JUMP JUMPDEST PUSH2 0x2F22 DUP2 DUP5 DUP5 PUSH2 0x2EE5 JUMP JUMPDEST POP POP POP JUMP JUMPDEST JUMPDEST DUP2 DUP2 LT ISZERO PUSH2 0x2F46 JUMPI PUSH2 0x2F3B PUSH1 0x0 DUP3 PUSH2 0x2F0F JUMP JUMPDEST PUSH1 0x1 DUP2 ADD SWAP1 POP PUSH2 0x2F28 JUMP JUMPDEST POP POP JUMP JUMPDEST PUSH1 0x1F DUP3 GT ISZERO PUSH2 0x2F8B JUMPI PUSH2 0x2F5C DUP2 PUSH2 0x2E2B JUMP JUMPDEST PUSH2 0x2F65 DUP5 PUSH2 0x2E40 JUMP JUMPDEST DUP2 ADD PUSH1 0x20 DUP6 LT ISZERO PUSH2 0x2F74 JUMPI DUP2 SWAP1 POP JUMPDEST PUSH2 0x2F88 PUSH2 0x2F80 DUP6 PUSH2 0x2E40 JUMP JUMPDEST DUP4 ADD DUP3 PUSH2 0x2F27 JUMP JUMPDEST POP POP JUMPDEST POP POP POP JUMP JUMPDEST PUSH1 0x0 DUP3 DUP3 SHR SWAP1 POP SWAP3 SWAP2 POP POP JUMP JUMPDEST PUSH1 0x0 PUSH2 0x2FAE PUSH1 0x0 NOT DUP5 PUSH1 0x8 MUL PUSH2 0x2F90 JUMP JUMPDEST NOT DUP1 DUP4 AND SWAP2 POP POP SWAP3 SWAP2 POP POP JUMP JUMPDEST PUSH1 0x0 PUSH2 0x2FC7 DUP4 DUP4 PUSH2 0x2F9D JUMP JUMPDEST SWAP2 POP DUP3 PUSH1 0x2 MUL DUP3 OR SWAP1 POP SWAP3 SWAP2 POP POP JUMP JUMPDEST PUSH2 0x2FE1 DUP4 DUP4 PUSH2 0x2E20 JUMP JUMPDEST PUSH8 0xFFFFFFFFFFFFFFFF DUP2 GT ISZERO PUSH2 0x2FFA JUMPI PUSH2 0x2FF9 PUSH2 0x2566 JUMP JUMPDEST JUMPDEST PUSH2 0x3004 DUP3 SLOAD PUSH2 0x25C4 JUMP JUMPDEST PUSH2 0x300F DUP3 DUP3 DUP6 PUSH2 0x2F4A JUMP JUMPDEST PUSH1 0x0 PUSH1 0x1F DUP4 GT PUSH1 0x1 DUP2 EQ PUSH2 0x303E JUMPI PUSH1 0x0 DUP5 ISZERO PUSH2 0x302C JUMPI DUP3 DUP8 ADD CALLDATALOAD SWAP1 POP JUMPDEST PUSH2 0x3036 DUP6 DUP3 PUSH2 0x2FBB JUMP JUMPDEST DUP7 SSTORE POP PUSH2 0x309E JUMP JUMPDEST PUSH1 0x1F NOT DUP5 AND PUSH2 0x304C DUP7 PUSH2 0x2E2B JUMP JUMPDEST PUSH1 0x0 JUMPDEST DUP3 DUP2 LT ISZERO PUSH2 0x3074 JUMPI DUP5 DUP10 ADD CALLDATALOAD DUP3 SSTORE PUSH1 0x1 DUP3 ADD SWAP2 POP PUSH1 0x20 DUP6 ADD SWAP5 POP PUSH1 0x20 DUP2 ADD SWAP1 POP PUSH2 0x304F JUMP JUMPDEST DUP7 DUP4 LT ISZERO PUSH2 0x3091 JUMPI DUP5 DUP10 ADD CALLDATALOAD PUSH2 0x308D PUSH1 0x1F DUP10 AND DUP3 PUSH2 0x2F9D JUMP JUMPDEST DUP4 SSTORE POP JUMPDEST PUSH1 0x1 PUSH1 0x2 DUP9 MUL ADD DUP9 SSTORE POP POP POP JUMPDEST POP POP POP POP POP POP POP JUMP JUMPDEST PUSH2 0x30B2 DUP4 DUP4 DUP4 PUSH2 0x2FD7 JUMP JUMPDEST POP POP POP JUMP JUMPDEST PUSH1 0x0 DUP2 CALLDATALOAD PUSH2 0x30C4 DUP2 PUSH2 0x2151 JUMP JUMPDEST DUP1 SWAP2 POP POP SWAP2 SWAP1 POP JUMP JUMPDEST PUSH1 0x0 DUP2 PUSH1 0x0 SHL SWAP1 POP SWAP2 SWAP1 POP JUMP JUMPDEST PUSH1 0x0 PUSH20 0xFFFFFFFFFFFFFFFFFFFFFFFFFFFFFFFFFFFFFFFF PUSH2 0x30FA DUP5 PUSH2 0x30CD JUMP JUMPDEST SWAP4 POP DUP1 NOT DUP4 AND SWAP3 POP DUP1 DUP5 AND DUP4 OR SWAP2 POP POP SWAP3 SWAP2 POP POP JUMP JUMPDEST PUSH1 0x0 PUSH2 0x312B PUSH2 0x3126 PUSH2 0x3121 DUP5 PUSH2 0x1E29 JUMP JUMPDEST PUSH2 0x2EAF JUMP JUMPDEST PUSH2 0x1E29 JUMP JUMPDEST SWAP1 POP SWAP2 SWAP1 POP JUMP JUMPDEST PUSH1 0x0 PUSH2 0x313D DUP3 PUSH2 0x3110 JUMP JUMPDEST SWAP1 POP SWAP2 SWAP1 POP JUMP JUMPDEST PUSH1 0x0 PUSH2 0x314F DUP3 PUSH2 0x3132 JUMP JUMPDEST SWAP1 POP SWAP2 SWAP1 POP JUMP JUMPDEST PUSH1 0x0 DUP2 SWAP1 POP SWAP2 SWAP1 POP JUMP JUMPDEST PUSH2 0x3169 DUP3 PUSH2 0x3144 JUMP JUMPDEST PUSH2 0x317C PUSH2 0x3175 DUP3 PUSH2 0x3156 JUMP JUMPDEST DUP4 SLOAD PUSH2 0x30DA JUMP JUMPDEST DUP3 SSTORE POP POP POP JUMP JUMPDEST PUSH1 0x0 DUP2 CALLDATALOAD PUSH2 0x3190 DUP2 PUSH2 0x200A JUMP JUMPDEST DUP1 SWAP2 POP POP SWAP2 SWAP1 POP JUMP JUMPDEST PUSH1 0x0 PUSH32 0xFFFFFFFFFFFFFFFFFFFFFFFFFFFFFFFFFFFFFFFFFFFFFFFFFFFFFFFFFFFFFFFF PUSH2 0x31C5 DUP5 PUSH2 0x30CD JUMP JUMPDEST SWAP4 POP DUP1 NOT DUP4 AND SWAP3 POP DUP1 DUP5 AND DUP4 OR SWAP2 POP POP SWAP3 SWAP2 POP POP JUMP JUMPDEST PUSH2 0x31E4 DUP3 PUSH2 0x2EB9 JUMP JUMPDEST PUSH2 0x31F7 PUSH2 0x31F0 DUP3 PUSH2 0x2EDB JUMP JUMPDEST DUP4 SLOAD PUSH2 0x3199 JUMP JUMPDEST DUP3 SSTORE POP POP POP JUMP JUMPDEST PUSH1 0x0 DUP2 ADD PUSH1 0x0 DUP4 ADD PUSH2 0x3210 DUP2 DUP6 PUSH2 0x26BF JUMP JUMPDEST PUSH2 0x321B DUP2 DUP4 DUP7 PUSH2 0x30A7 JUMP JUMPDEST POP POP POP POP PUSH1 0x1 DUP2 ADD PUSH1 0x20 DUP4 ADD PUSH2 0x3231 DUP2 DUP6 PUSH2 0x26BF JUMP JUMPDEST PUSH2 0x323C DUP2 DUP4 DUP7 PUSH2 0x30A7 JUMP JUMPDEST POP POP POP POP PUSH1 0x2 DUP2 ADD PUSH1 0x40 DUP4 ADD DUP1 PUSH2 0x3252 DUP2 PUSH2 0x30B7 JUMP JUMPDEST SWAP1 POP PUSH2 0x325E DUP2 DUP5 PUSH2 0x3160 JUMP JUMPDEST POP POP POP PUSH1 0x3 DUP2 ADD PUSH1 0x60 DUP4 ADD DUP1 PUSH2 0x3273 DUP2 PUSH2 0x3183 JUMP JUMPDEST SWAP1 POP PUSH2 0x327F DUP2 DUP5 PUSH2 0x31DB JUMP JUMPDEST POP POP POP PUSH1 0x4 DUP2 ADD PUSH1 0x80 DUP4 ADD DUP1 PUSH2 0x3294 DUP2 PUSH2 0x3183 JUMP JUMPDEST SWAP1 POP PUSH2 0x32A0 DUP2 DUP5 PUSH2 0x31DB JUMP JUMPDEST POP POP POP PUSH1 0x5 DUP2 ADD PUSH1 0xA0 DUP4 ADD DUP1 PUSH2 0x32B5 DUP2 PUSH2 0x3183 JUMP JUMPDEST SWAP1 POP PUSH2 0x32C1 DUP2 DUP5 PUSH2 0x31DB JUMP JUMPDEST POP POP POP PUSH1 0x6 DUP2 ADD PUSH1 0xC0 DUP4 ADD PUSH2 0x32D6 DUP2 DUP6 PUSH2 0x26BF JUMP JUMPDEST PUSH2 0x32E1 DUP2 DUP4 DUP7 PUSH2 0x30A7 JUMP JUMPDEST POP POP POP POP PUSH1 0x7 DUP2 ADD PUSH1 0xE0 DUP4 ADD PUSH2 0x32F7 DUP2 DUP6 PUSH2 0x26BF JUMP JUMPDEST PUSH2 0x3302 DUP2 DUP4 DUP7 PUSH2 0x30A7 JUMP JUMPDEST POP POP POP POP POP POP JUMP JUMPDEST PUSH2 0x3314 DUP3 DUP3 PUSH2 0x31FE JUMP JUMPDEST POP POP JUMP JUMPDEST PUSH1 0x0 PUSH2 0x3323 DUP3 PUSH2 0x1E6A JUMP JUMPDEST SWAP2 POP PUSH2 0x332E DUP4 PUSH2 0x1E6A JUMP JUMPDEST SWAP3 POP DUP3 DUP3 LT ISZERO PUSH2 0x3341 JUMPI PUSH2 0x3340 PUSH2 0x2498 JUMP JUMPDEST JUMPDEST DUP3 DUP3 SUB SWAP1 POP SWAP3 SWAP2 POP POP JUMP JUMPDEST PUSH32 0x5175697A20496420646F6573206E6F7420657869737473000000000000000000 PUSH1 0x0 DUP3 ADD MSTORE POP JUMP JUMPDEST PUSH1 0x0 PUSH2 0x3382 PUSH1 0x17 DUP4 PUSH2 0x22AB JUMP JUMPDEST SWAP2 POP PUSH2 0x338D DUP3 PUSH2 0x334C JUMP JUMPDEST PUSH1 0x20 DUP3 ADD SWAP1 POP SWAP2 SWAP1 POP JUMP JUMPDEST PUSH1 0x0 PUSH1 0x20 DUP3 ADD SWAP1 POP DUP2 DUP2 SUB PUSH1 0x0 DUP4 ADD MSTORE PUSH2 0x33B1 DUP2 PUSH2 0x3375 JUMP JUMPDEST SWAP1 POP SWAP2 SWAP1 POP JUMP JUMPDEST PUSH32 0x4F6E6C79205175697A204F776E65722063616E20757064617465207468652071 PUSH1 0x0 DUP3 ADD MSTORE PUSH32 0x75697A0000000000000000000000000000000000000000000000000000000000 PUSH1 0x20 DUP3 ADD MSTORE POP JUMP JUMPDEST PUSH1 0x0 PUSH2 0x3414 PUSH1 0x23 DUP4 PUSH2 0x22AB JUMP JUMPDEST SWAP2 POP PUSH2 0x341F DUP3 PUSH2 0x33B8 JUMP JUMPDEST PUSH1 0x40 DUP3 ADD SWAP1 POP SWAP2 SWAP1 POP JUMP JUMPDEST PUSH1 0x0 PUSH1 0x20 DUP3 ADD SWAP1 POP DUP2 DUP2 SUB PUSH1 0x0 DUP4 ADD MSTORE PUSH2 0x3443 DUP2 PUSH2 0x3407 JUMP JUMPDEST SWAP1 POP SWAP2 SWAP1 POP JUMP JUMPDEST PUSH32 0x5175697A2063616E2062652075706461746564206265666F7265207374617274 PUSH1 0x0 DUP3 ADD MSTORE PUSH32 0x206F6620746865207175697A0000000000000000000000000000000000000000 PUSH1 0x20 DUP3 ADD MSTORE POP JUMP JUMPDEST PUSH1 0x0 PUSH2 0x34A6 PUSH1 0x2C DUP4 PUSH2 0x22AB JUMP JUMPDEST SWAP2 POP PUSH2 0x34B1 DUP3 PUSH2 0x344A JUMP JUMPDEST PUSH1 0x40 DUP3 ADD SWAP1 POP SWAP2 SWAP1 POP JUMP JUMPDEST PUSH1 0x0 PUSH1 0x20 DUP3 ADD SWAP1 POP DUP2 DUP2 SUB PUSH1 0x0 DUP4 ADD MSTORE PUSH2 0x34D5 DUP2 PUSH2 0x3499 JUMP JUMPDEST SWAP1 POP SWAP2 SWAP1 POP JUMP JUMPDEST PUSH32 0x5175697A20686173206E6F742073746172746564207965740000000000000000 PUSH1 0x0 DUP3 ADD MSTORE POP JUMP JUMPDEST PUSH1 0x0 PUSH2 0x3512 PUSH1 0x18 DUP4 PUSH2 0x22AB JUMP JUMPDEST SWAP2 POP PUSH2 0x351D DUP3 PUSH2 0x34DC JUMP JUMPDEST PUSH1 0x20 DUP3 ADD SWAP1 POP SWAP2 SWAP1 POP JUMP JUMPDEST PUSH1 0x0 PUSH1 0x20 DUP3 ADD SWAP1 POP DUP2 DUP2 SUB PUSH1 0x0 DUP4 ADD MSTORE PUSH2 0x3541 DUP2 PUSH2 0x3505 JUMP JUMPDEST SWAP1 POP SWAP2 SWAP1 POP JUMP JUMPDEST PUSH32 0x5175697A2068617320656E646564000000000000000000000000000000000000 PUSH1 0x0 DUP3 ADD MSTORE POP JUMP JUMPDEST PUSH1 0x0 PUSH2 0x357E PUSH1 0xE DUP4 PUSH2 0x22AB JUMP JUMPDEST SWAP2 POP PUSH2 0x3589 DUP3 PUSH2 0x3548 JUMP JUMPDEST PUSH1 0x20 DUP3 ADD SWAP1 POP SWAP2 SWAP1 POP JUMP JUMPDEST PUSH1 0x0 PUSH1 0x20 DUP3 ADD SWAP1 POP DUP2 DUP2 SUB PUSH1 0x0 DUP4 ADD MSTORE PUSH2 0x35AD DUP2 PUSH2 0x3571 JUMP JUMPDEST SWAP1 POP SWAP2 SWAP1 POP JUMP JUMPDEST PUSH32 0x596F75206861766520616C7265616479207375626D6974746564207468652061 PUSH1 0x0 DUP3 ADD MSTORE PUSH32 0x6E73776572730000000000000000000000000000000000000000000000000000 PUSH1 0x20 DUP3 ADD MSTORE POP JUMP JUMPDEST PUSH1 0x0 PUSH2 0x3610 PUSH1 0x26 DUP4 PUSH2 0x22AB JUMP JUMPDEST SWAP2 POP PUSH2 0x361B DUP3 PUSH2 0x35B4 JUMP JUMPDEST PUSH1 0x40 DUP3 ADD SWAP1 POP SWAP2 SWAP1 POP JUMP JUMPDEST PUSH1 0x0 PUSH1 0x20 DUP3 ADD SWAP1 POP DUP2 DUP2 SUB PUSH1 0x0 DUP4 ADD MSTORE PUSH2 0x363F DUP2 PUSH2 0x3603 JUMP JUMPDEST SWAP1 POP SWAP2 SWAP1 POP JUMP JUMPDEST PUSH1 0x0 PUSH1 0xFF DUP3 AND SWAP1 POP SWAP2 SWAP1 POP JUMP JUMPDEST PUSH2 0x365C DUP2 PUSH2 0x3646 JUMP JUMPDEST DUP2 EQ PUSH2 0x3667 JUMPI PUSH1 0x0 DUP1 REVERT JUMPDEST POP JUMP JUMPDEST PUSH1 0x0 DUP2 CALLDATALOAD SWAP1 POP PUSH2 0x3679 DUP2 PUSH2 0x3653 JUMP JUMPDEST SWAP3 SWAP2 POP POP JUMP JUMPDEST PUSH1 0x0 PUSH1 0x20 DUP3 DUP5 SUB SLT ISZERO PUSH2 0x3695 JUMPI PUSH2 0x3694 PUSH2 0x2000 JUMP JUMPDEST JUMPDEST PUSH1 0x0 PUSH2 0x36A3 DUP5 DUP3 DUP6 ADD PUSH2 0x366A JUMP JUMPDEST SWAP2 POP POP SWAP3 SWAP2 POP POP JUMP JUMPDEST PUSH32 0x416E73776572206973206F7574206F662072616E676500000000000000000000 PUSH1 0x0 DUP3 ADD MSTORE POP JUMP JUMPDEST PUSH1 0x0 PUSH2 0x36E2 PUSH1 0x16 DUP4 PUSH2 0x22AB JUMP JUMPDEST SWAP2 POP PUSH2 0x36ED DUP3 PUSH2 0x36AC JUMP JUMPDEST PUSH1 0x20 DUP3 ADD SWAP1 POP SWAP2 SWAP1 POP JUMP JUMPDEST PUSH1 0x0 PUSH1 0x20 DUP3 ADD SWAP1 POP DUP2 DUP2 SUB PUSH1 0x0 DUP4 ADD MSTORE PUSH2 0x3711 DUP2 PUSH2 0x36D5 JUMP JUMPDEST SWAP1 POP SWAP2 SWAP1 POP JUMP JUMPDEST PUSH32 0x416E737765722063616E6E6F7420626520656D70747900000000000000000000 PUSH1 0x0 DUP3 ADD MSTORE POP JUMP JUMPDEST PUSH1 0x0 PUSH2 0x374E PUSH1 0x16 DUP4 PUSH2 0x22AB JUMP JUMPDEST SWAP2 POP PUSH2 0x3759 DUP3 PUSH2 0x3718 JUMP JUMPDEST PUSH1 0x20 DUP3 ADD SWAP1 POP SWAP2 SWAP1 POP JUMP JUMPDEST PUSH1 0x0 PUSH1 0x20 DUP3 ADD SWAP1 POP DUP2 DUP2 SUB PUSH1 0x0 DUP4 ADD MSTORE PUSH2 0x377D DUP2 PUSH2 0x3741 JUMP JUMPDEST SWAP1 POP SWAP2 SWAP1 POP JUMP JUMPDEST PUSH32 0x5175697A20646F6573206E6F7420657869737400000000000000000000000000 PUSH1 0x0 DUP3 ADD MSTORE POP JUMP JUMPDEST PUSH1 0x0 PUSH2 0x37BA PUSH1 0x13 DUP4 PUSH2 0x22AB JUMP JUMPDEST SWAP2 POP PUSH2 0x37C5 DUP3 PUSH2 0x3784 JUMP JUMPDEST PUSH1 0x20 DUP3 ADD SWAP1 POP SWAP2 SWAP1 POP JUMP JUMPDEST PUSH1 0x0 PUSH1 0x20 DUP3 ADD SWAP1 POP DUP2 DUP2 SUB PUSH1 0x0 DUP4 ADD MSTORE PUSH2 0x37E9 DUP2 PUSH2 0x37AD JUMP JUMPDEST SWAP1 POP SWAP2 SWAP1 POP JUMP JUMPDEST PUSH32 0x436F727265637420416E73776572732063616E6E6F74206265207375626D6974 PUSH1 0x0 DUP3 ADD MSTORE PUSH32 0x746564206265666F726520656E642074696D6500000000000000000000000000 PUSH1 0x20 DUP3 ADD MSTORE POP JUMP JUMPDEST PUSH1 0x0 PUSH2 0x384C PUSH1 0x33 DUP4 PUSH2 0x22AB JUMP JUMPDEST SWAP2 POP PUSH2 0x3857 DUP3 PUSH2 0x37F0 JUMP JUMPDEST PUSH1 0x40 DUP3 ADD SWAP1 POP SWAP2 SWAP1 POP JUMP JUMPDEST PUSH1 0x0 PUSH1 0x20 DUP3 ADD SWAP1 POP DUP2 DUP2 SUB PUSH1 0x0 DUP4 ADD MSTORE PUSH2 0x387B DUP2 PUSH2 0x383F JUMP JUMPDEST SWAP1 POP SWAP2 SWAP1 POP JUMP JUMPDEST PUSH32 0x4F6E6C79207175697A206F776E65722063616E207375626D697420636F727265 PUSH1 0x0 DUP3 ADD MSTORE PUSH32 0x637420616E737765727300000000000000000000000000000000000000000000 PUSH1 0x20 DUP3 ADD MSTORE POP JUMP JUMPDEST PUSH1 0x0 PUSH2 0x38DE PUSH1 0x2A DUP4 PUSH2 0x22AB JUMP JUMPDEST SWAP2 POP PUSH2 0x38E9 DUP3 PUSH2 0x3882 JUMP JUMPDEST PUSH1 0x40 DUP3 ADD SWAP1 POP SWAP2 SWAP1 POP JUMP JUMPDEST PUSH1 0x0 PUSH1 0x20 DUP3 ADD SWAP1 POP DUP2 DUP2 SUB PUSH1 0x0 DUP4 ADD MSTORE PUSH2 0x390D DUP2 PUSH2 0x38D1 JUMP JUMPDEST SWAP1 POP SWAP2 SWAP1 POP JUMP INVALID LOG2 PUSH5 0x6970667358 0x22 SLT KECCAK256 0xE3 DUP8 SWAP14 PUSH10 0xDCF0CD567286030F11E0 0xEE ISZERO 0xF8 0xDB SWAP16 0xA8 0xC8 0xC0 PUSH23 0xFF1E8F204BC123FB4C64736F6C634300080B0033000000 "
		},
		"gasEstimates": {
			"creation": {
				"codeDepositCost": "2933200",
				"executionCost": "27482",
				"totalCost": "2960682"
			},
			"external": {
				"createQuiz((string,string,address,uint256,uint256,uint256,string,string))": "infinite",
				"getPendingQuizzes()": "infinite",
				"getQuizzesBy(address)": "infinite",
				"quizzes(uint256)": "infinite",
				"submitCorrectAnswers(uint256,uint8[1])": "infinite",
				"submitPlayerAnswer(uint256,uint8[1])": "infinite",
				"submitQuestions(uint256,(string,string[4])[1])": "infinite",
				"submittedAnswers(uint256,address)": "infinite",
				"updateQuiz(uint256,string,address)": "infinite"
			}
		},
		"methodIdentifiers": {
			"createQuiz((string,string,address,uint256,uint256,uint256,string,string))": "3bce9437",
			"getPendingQuizzes()": "17079261",
			"getQuizzesBy(address)": "5d9c61c2",
			"quizzes(uint256)": "88409afa",
			"submitCorrectAnswers(uint256,uint8[1])": "e2cce1c6",
			"submitPlayerAnswer(uint256,uint8[1])": "b6c3c9b9",
			"submitQuestions(uint256,(string,string[4])[1])": "224164c3",
			"submittedAnswers(uint256,address)": "97d62620",
			"updateQuiz(uint256,string,address)": "83421966"
		}
	},
	"abi": [
		{
			"inputs": [],
			"stateMutability": "nonpayable",
			"type": "constructor"
		},
		{
			"anonymous": false,
			"inputs": [
				{
					"indexed": false,
					"internalType": "uint256",
					"name": "quizId",
					"type": "uint256"
				},
				{
					"indexed": false,
					"internalType": "string",
					"name": "name",
					"type": "string"
				},
				{
					"indexed": false,
					"internalType": "string",
					"name": "description",
					"type": "string"
				},
				{
					"indexed": false,
					"internalType": "uint256",
					"name": "prizeMoney",
					"type": "uint256"
				},
				{
					"indexed": false,
					"internalType": "uint256",
					"name": "startTime",
					"type": "uint256"
				},
				{
					"indexed": false,
					"internalType": "uint256",
					"name": "duration",
					"type": "uint256"
				}
			],
			"name": "QuizCreated",
			"type": "event"
		},
		{
			"anonymous": false,
			"inputs": [
				{
					"indexed": false,
					"internalType": "uint256",
					"name": "quizId",
					"type": "uint256"
				},
				{
					"indexed": false,
					"internalType": "string",
					"name": "name",
					"type": "string"
				},
				{
					"indexed": false,
					"internalType": "string",
					"name": "description",
					"type": "string"
				},
				{
					"indexed": false,
					"internalType": "uint256",
					"name": "prizeMoney",
					"type": "uint256"
				},
				{
					"indexed": false,
					"internalType": "uint256",
					"name": "startTime",
					"type": "uint256"
				},
				{
					"indexed": false,
					"internalType": "uint256",
					"name": "duration",
					"type": "uint256"
				},
				{
					"indexed": false,
					"internalType": "address[]",
					"name": "winners",
					"type": "address[]"
				},
				{
					"indexed": false,
					"internalType": "uint8[1][4]",
					"name": "answers",
					"type": "uint8[1][4]"
				}
			],
			"name": "QuizEnded",
			"type": "event"
		},
		{
			"anonymous": false,
			"inputs": [
				{
					"indexed": false,
					"internalType": "uint256",
					"name": "quizId",
					"type": "uint256"
				},
				{
					"components": [
						{
							"internalType": "string",
							"name": "question",
							"type": "string"
						},
						{
							"internalType": "string[4]",
							"name": "options",
							"type": "string[4]"
						}
					],
					"indexed": false,
					"internalType": "struct QuizContract.Question[1]",
					"name": "questions",
					"type": "tuple[1]"
				}
			],
			"name": "QuizStarted",
			"type": "event"
		},
		{
			"anonymous": false,
			"inputs": [
				{
					"indexed": false,
					"internalType": "uint256",
					"name": "quizId",
					"type": "uint256"
				},
				{
					"indexed": false,
					"internalType": "string",
					"name": "name",
					"type": "string"
				},
				{
					"indexed": false,
					"internalType": "string",
					"name": "description",
					"type": "string"
				},
				{
					"indexed": false,
					"internalType": "uint256",
					"name": "prizeMoney",
					"type": "uint256"
				},
				{
					"indexed": false,
					"internalType": "uint256",
					"name": "startTime",
					"type": "uint256"
				},
				{
					"indexed": false,
					"internalType": "uint256",
					"name": "duration",
					"type": "uint256"
				}
			],
			"name": "QuizUpdated",
			"type": "event"
		},
		{
			"inputs": [
				{
					"components": [
						{
							"internalType": "string",
							"name": "quizName",
							"type": "string"
						},
						{
							"internalType": "string",
							"name": "description",
							"type": "string"
						},
						{
							"internalType": "address",
							"name": "quizOwner",
							"type": "address"
						},
						{
							"internalType": "uint256",
							"name": "prizeMoney",
							"type": "uint256"
						},
						{
							"internalType": "uint256",
							"name": "startTime",
							"type": "uint256"
						},
						{
							"internalType": "uint256",
							"name": "duration",
							"type": "uint256"
						},
						{
							"internalType": "string",
							"name": "questionHash",
							"type": "string"
						},
						{
							"internalType": "string",
							"name": "answerHash",
							"type": "string"
						}
					],
					"internalType": "struct QuizContract.Quiz",
					"name": "_quiz",
					"type": "tuple"
				}
			],
			"name": "createQuiz",
			"outputs": [
				{
					"internalType": "uint256",
					"name": "",
					"type": "uint256"
				}
			],
			"stateMutability": "payable",
			"type": "function"
		},
		{
			"inputs": [],
			"name": "getPendingQuizzes",
			"outputs": [
				{
					"components": [
						{
							"internalType": "string",
							"name": "quizName",
							"type": "string"
						},
						{
							"internalType": "string",
							"name": "description",
							"type": "string"
						},
						{
							"internalType": "address",
							"name": "quizOwner",
							"type": "address"
						},
						{
							"internalType": "uint256",
							"name": "prizeMoney",
							"type": "uint256"
						},
						{
							"internalType": "uint256",
							"name": "startTime",
							"type": "uint256"
						},
						{
							"internalType": "uint256",
							"name": "duration",
							"type": "uint256"
						},
						{
							"internalType": "string",
							"name": "questionHash",
							"type": "string"
						},
						{
							"internalType": "string",
							"name": "answerHash",
							"type": "string"
						}
					],
					"internalType": "struct QuizContract.Quiz[]",
					"name": "pendingQuizzes",
					"type": "tuple[]"
				}
			],
			"stateMutability": "view",
			"type": "function"
		},
		{
			"inputs": [
				{
					"internalType": "address",
					"name": "user",
					"type": "address"
				}
			],
			"name": "getQuizzesBy",
			"outputs": [
				{
					"components": [
						{
							"internalType": "string",
							"name": "quizName",
							"type": "string"
						},
						{
							"internalType": "string",
							"name": "description",
							"type": "string"
						},
						{
							"internalType": "address",
							"name": "quizOwner",
							"type": "address"
						},
						{
							"internalType": "uint256",
							"name": "prizeMoney",
							"type": "uint256"
						},
						{
							"internalType": "uint256",
							"name": "startTime",
							"type": "uint256"
						},
						{
							"internalType": "uint256",
							"name": "duration",
							"type": "uint256"
						},
						{
							"internalType": "string",
							"name": "questionHash",
							"type": "string"
						},
						{
							"internalType": "string",
							"name": "answerHash",
							"type": "string"
						}
					],
					"internalType": "struct QuizContract.Quiz[]",
					"name": "quizzesByUser",
					"type": "tuple[]"
				}
			],
			"stateMutability": "view",
			"type": "function"
		},
		{
			"inputs": [
				{
					"internalType": "uint256",
					"name": "",
					"type": "uint256"
				}
			],
			"name": "quizzes",
			"outputs": [
				{
					"internalType": "string",
					"name": "quizName",
					"type": "string"
				},
				{
					"internalType": "string",
					"name": "description",
					"type": "string"
				},
				{
					"internalType": "address",
					"name": "quizOwner",
					"type": "address"
				},
				{
					"internalType": "uint256",
					"name": "prizeMoney",
					"type": "uint256"
				},
				{
					"internalType": "uint256",
					"name": "startTime",
					"type": "uint256"
				},
				{
					"internalType": "uint256",
					"name": "duration",
					"type": "uint256"
				},
				{
					"internalType": "string",
					"name": "questionHash",
					"type": "string"
				},
				{
					"internalType": "string",
					"name": "answerHash",
					"type": "string"
				}
			],
			"stateMutability": "view",
			"type": "function"
		},
		{
			"inputs": [
				{
					"internalType": "uint256",
					"name": "_quizId",
					"type": "uint256"
				},
				{
					"internalType": "uint8[1]",
					"name": "_quizAnswers",
					"type": "uint8[1]"
				}
			],
			"name": "submitCorrectAnswers",
			"outputs": [],
			"stateMutability": "nonpayable",
			"type": "function"
		},
		{
			"inputs": [
				{
					"internalType": "uint256",
					"name": "_quizId",
					"type": "uint256"
				},
				{
					"internalType": "uint8[1]",
					"name": "_answers",
					"type": "uint8[1]"
				}
			],
			"name": "submitPlayerAnswer",
			"outputs": [],
			"stateMutability": "nonpayable",
			"type": "function"
		},
		{
			"inputs": [
				{
					"internalType": "uint256",
					"name": "_quizId",
					"type": "uint256"
				},
				{
					"components": [
						{
							"internalType": "string",
							"name": "question",
							"type": "string"
						},
						{
							"internalType": "string[4]",
							"name": "options",
							"type": "string[4]"
						}
					],
					"internalType": "struct QuizContract.Question[1]",
					"name": "_questions",
					"type": "tuple[1]"
				}
			],
			"name": "submitQuestions",
			"outputs": [],
			"stateMutability": "nonpayable",
			"type": "function"
		},
		{
			"inputs": [
				{
					"internalType": "uint256",
					"name": "",
					"type": "uint256"
				},
				{
					"internalType": "address",
					"name": "",
					"type": "address"
				}
			],
			"name": "submittedAnswers",
			"outputs": [
				{
					"internalType": "uint256",
					"name": "submissionTime",
					"type": "uint256"
				},
				{
					"internalType": "address",
					"name": "submissionAddress",
					"type": "address"
				}
			],
			"stateMutability": "view",
			"type": "function"
		},
		{
			"inputs": [
				{
					"internalType": "uint256",
					"name": "_quizId",
					"type": "uint256"
				},
				{
					"internalType": "string",
					"name": "_description",
					"type": "string"
				},
				{
					"internalType": "address",
					"name": "_quizOwner",
					"type": "address"
				}
			],
			"name": "updateQuiz",
			"outputs": [],
			"stateMutability": "nonpayable",
			"type": "function"
		}
	]
}