{
  "contractName": "QuizContract",
  "abi": [
    {
      "inputs": [],
      "stateMutability": "nonpayable",
      "type": "constructor"
    },
    {
      "anonymous": false,
      "inputs": [
        {
          "indexed": false,
          "internalType": "uint256",
          "name": "quizId",
          "type": "uint256"
        },
        {
          "components": [
            {
              "internalType": "uint256",
              "name": "quizId",
              "type": "uint256"
            },
            {
              "internalType": "string",
              "name": "quizName",
              "type": "string"
            },
            {
              "internalType": "string",
              "name": "description",
              "type": "string"
            },
            {
              "internalType": "address",
              "name": "quizOwner",
              "type": "address"
            },
            {
              "internalType": "uint256",
              "name": "prizeMoney",
              "type": "uint256"
            },
            {
              "internalType": "uint256",
              "name": "startTime",
              "type": "uint256"
            },
            {
              "internalType": "uint256",
              "name": "duration",
              "type": "uint256"
            },
            {
              "internalType": "bytes32",
              "name": "questionHash",
              "type": "bytes32"
            },
            {
              "internalType": "bytes32",
              "name": "answerHash",
              "type": "bytes32"
            },
            {
              "internalType": "bool",
              "name": "isRunning",
              "type": "bool"
            }
          ],
          "indexed": false,
          "internalType": "struct QuizContract.Quiz",
          "name": "quiz",
          "type": "tuple"
        },
        {
          "indexed": false,
          "internalType": "address[]",
          "name": "winners",
          "type": "address[]"
        },
        {
          "indexed": false,
          "internalType": "uint8[1]",
          "name": "answers",
          "type": "uint8[1]"
        }
      ],
      "name": "QuizCompleted",
      "type": "event"
    },
    {
      "anonymous": false,
      "inputs": [
        {
          "indexed": false,
          "internalType": "uint256",
          "name": "quizId",
          "type": "uint256"
        },
        {
          "components": [
            {
              "internalType": "uint256",
              "name": "quizId",
              "type": "uint256"
            },
            {
              "internalType": "string",
              "name": "quizName",
              "type": "string"
            },
            {
              "internalType": "string",
              "name": "description",
              "type": "string"
            },
            {
              "internalType": "address",
              "name": "quizOwner",
              "type": "address"
            },
            {
              "internalType": "uint256",
              "name": "prizeMoney",
              "type": "uint256"
            },
            {
              "internalType": "uint256",
              "name": "startTime",
              "type": "uint256"
            },
            {
              "internalType": "uint256",
              "name": "duration",
              "type": "uint256"
            },
            {
              "internalType": "bytes32",
              "name": "questionHash",
              "type": "bytes32"
            },
            {
              "internalType": "bytes32",
              "name": "answerHash",
              "type": "bytes32"
            },
            {
              "internalType": "bool",
              "name": "isRunning",
              "type": "bool"
            }
          ],
          "indexed": false,
          "internalType": "struct QuizContract.Quiz",
          "name": "quiz",
          "type": "tuple"
        }
      ],
      "name": "QuizCreated",
      "type": "event"
    },
    {
      "anonymous": false,
      "inputs": [
        {
          "indexed": false,
          "internalType": "uint256",
          "name": "quizId",
          "type": "uint256"
        },
        {
          "indexed": false,
          "internalType": "string[1]",
          "name": "questions",
          "type": "string[1]"
        },
        {
          "indexed": false,
          "internalType": "string[1][1]",
          "name": "options",
          "type": "string[1][1]"
        }
      ],
      "name": "QuizStarted",
      "type": "event"
    },
    {
      "anonymous": false,
      "inputs": [
        {
          "indexed": false,
          "internalType": "uint256",
          "name": "quizId",
          "type": "uint256"
        },
        {
          "components": [
            {
              "internalType": "uint256",
              "name": "quizId",
              "type": "uint256"
            },
            {
              "internalType": "string",
              "name": "quizName",
              "type": "string"
            },
            {
              "internalType": "string",
              "name": "description",
              "type": "string"
            },
            {
              "internalType": "address",
              "name": "quizOwner",
              "type": "address"
            },
            {
              "internalType": "uint256",
              "name": "prizeMoney",
              "type": "uint256"
            },
            {
              "internalType": "uint256",
              "name": "startTime",
              "type": "uint256"
            },
            {
              "internalType": "uint256",
              "name": "duration",
              "type": "uint256"
            },
            {
              "internalType": "bytes32",
              "name": "questionHash",
              "type": "bytes32"
            },
            {
              "internalType": "bytes32",
              "name": "answerHash",
              "type": "bytes32"
            },
            {
              "internalType": "bool",
              "name": "isRunning",
              "type": "bool"
            }
          ],
          "indexed": false,
          "internalType": "struct QuizContract.Quiz",
          "name": "quiz",
          "type": "tuple"
        }
      ],
      "name": "QuizUpdated",
      "type": "event"
    },
    {
      "inputs": [
        {
          "internalType": "uint256",
          "name": "",
          "type": "uint256"
        },
        {
          "internalType": "address",
          "name": "",
          "type": "address"
        }
      ],
      "name": "isSubmited",
      "outputs": [
        {
          "internalType": "bool",
          "name": "",
          "type": "bool"
        }
      ],
      "stateMutability": "view",
      "type": "function"
    },
    {
      "inputs": [
        {
          "internalType": "uint256",
          "name": "",
          "type": "uint256"
        }
      ],
      "name": "quizzes",
      "outputs": [
        {
          "internalType": "uint256",
          "name": "quizId",
          "type": "uint256"
        },
        {
          "internalType": "string",
          "name": "quizName",
          "type": "string"
        },
        {
          "internalType": "string",
          "name": "description",
          "type": "string"
        },
        {
          "internalType": "address",
          "name": "quizOwner",
          "type": "address"
        },
        {
          "internalType": "uint256",
          "name": "prizeMoney",
          "type": "uint256"
        },
        {
          "internalType": "uint256",
          "name": "startTime",
          "type": "uint256"
        },
        {
          "internalType": "uint256",
          "name": "duration",
          "type": "uint256"
        },
        {
          "internalType": "bytes32",
          "name": "questionHash",
          "type": "bytes32"
        },
        {
          "internalType": "bytes32",
          "name": "answerHash",
          "type": "bytes32"
        },
        {
          "internalType": "bool",
          "name": "isRunning",
          "type": "bool"
        }
      ],
      "stateMutability": "view",
      "type": "function"
    },
    {
      "inputs": [
        {
          "internalType": "uint256",
          "name": "",
          "type": "uint256"
        },
        {
          "internalType": "uint256",
          "name": "",
          "type": "uint256"
        }
      ],
      "name": "submittedAnswers",
      "outputs": [
        {
          "internalType": "uint256",
          "name": "submissionTime",
          "type": "uint256"
        },
        {
          "internalType": "address",
          "name": "submissionAddress",
          "type": "address"
        }
      ],
      "stateMutability": "view",
      "type": "function"
    },
    {
      "inputs": [],
      "name": "getPendingQuizzes",
      "outputs": [
        {
          "components": [
            {
              "internalType": "uint256",
              "name": "quizId",
              "type": "uint256"
            },
            {
              "internalType": "string",
              "name": "quizName",
              "type": "string"
            },
            {
              "internalType": "string",
              "name": "description",
              "type": "string"
            },
            {
              "internalType": "address",
              "name": "quizOwner",
              "type": "address"
            },
            {
              "internalType": "uint256",
              "name": "prizeMoney",
              "type": "uint256"
            },
            {
              "internalType": "uint256",
              "name": "startTime",
              "type": "uint256"
            },
            {
              "internalType": "uint256",
              "name": "duration",
              "type": "uint256"
            },
            {
              "internalType": "bytes32",
              "name": "questionHash",
              "type": "bytes32"
            },
            {
              "internalType": "bytes32",
              "name": "answerHash",
              "type": "bytes32"
            },
            {
              "internalType": "bool",
              "name": "isRunning",
              "type": "bool"
            }
          ],
          "internalType": "struct QuizContract.Quiz[]",
          "name": "pendingQuizzes",
          "type": "tuple[]"
        }
      ],
      "stateMutability": "view",
      "type": "function"
    },
    {
      "inputs": [
        {
          "internalType": "address",
          "name": "user",
          "type": "address"
        }
      ],
      "name": "getQuizzesBy",
      "outputs": [
        {
          "components": [
            {
              "internalType": "uint256",
              "name": "quizId",
              "type": "uint256"
            },
            {
              "internalType": "string",
              "name": "quizName",
              "type": "string"
            },
            {
              "internalType": "string",
              "name": "description",
              "type": "string"
            },
            {
              "internalType": "address",
              "name": "quizOwner",
              "type": "address"
            },
            {
              "internalType": "uint256",
              "name": "prizeMoney",
              "type": "uint256"
            },
            {
              "internalType": "uint256",
              "name": "startTime",
              "type": "uint256"
            },
            {
              "internalType": "uint256",
              "name": "duration",
              "type": "uint256"
            },
            {
              "internalType": "bytes32",
              "name": "questionHash",
              "type": "bytes32"
            },
            {
              "internalType": "bytes32",
              "name": "answerHash",
              "type": "bytes32"
            },
            {
              "internalType": "bool",
              "name": "isRunning",
              "type": "bool"
            }
          ],
          "internalType": "struct QuizContract.Quiz[]",
          "name": "quizzesByUser",
          "type": "tuple[]"
        }
      ],
      "stateMutability": "view",
      "type": "function"
    },
    {
      "inputs": [
        {
          "internalType": "string",
          "name": "quizName",
          "type": "string"
        },
        {
          "internalType": "string",
          "name": "description",
          "type": "string"
        },
        {
          "internalType": "uint256",
          "name": "prizeMoney",
          "type": "uint256"
        },
        {
          "internalType": "uint256",
          "name": "startTime",
          "type": "uint256"
        },
        {
          "internalType": "uint256",
          "name": "duration",
          "type": "uint256"
        },
        {
          "internalType": "bytes32",
          "name": "questionHash",
          "type": "bytes32"
        },
        {
          "internalType": "bytes32",
          "name": "answerHash",
          "type": "bytes32"
        }
      ],
      "name": "createQuiz",
      "outputs": [
        {
          "internalType": "uint256",
          "name": "",
          "type": "uint256"
        }
      ],
      "stateMutability": "payable",
      "type": "function"
    },
    {
      "inputs": [
        {
          "internalType": "uint256",
          "name": "_quizId",
          "type": "uint256"
        },
        {
          "internalType": "string",
          "name": "_description",
          "type": "string"
        },
        {
          "internalType": "address",
          "name": "_quizOwner",
          "type": "address"
        },
        {
          "internalType": "bytes32",
          "name": "_questionHash",
          "type": "bytes32"
        },
        {
          "internalType": "bytes32",
          "name": "_answerHash",
          "type": "bytes32"
        }
      ],
      "name": "updateQuiz",
      "outputs": [],
      "stateMutability": "nonpayable",
      "type": "function"
    },
    {
      "inputs": [
        {
          "internalType": "uint256",
          "name": "_quizId",
          "type": "uint256"
        },
        {
          "internalType": "string[1]",
          "name": "_questions",
          "type": "string[1]"
        },
        {
          "internalType": "string[1][1]",
          "name": "_options",
          "type": "string[1][1]"
        },
        {
          "internalType": "bytes32",
          "name": "_hashSalt",
          "type": "bytes32"
        }
      ],
      "name": "submitQuestions",
      "outputs": [],
      "stateMutability": "nonpayable",
      "type": "function"
    },
    {
      "inputs": [
        {
          "internalType": "uint256",
          "name": "_quizId",
          "type": "uint256"
        },
        {
          "internalType": "uint8[1]",
          "name": "_quizAnswers",
          "type": "uint8[1]"
        },
        {
          "internalType": "bytes32",
          "name": "_hashSalt",
          "type": "bytes32"
        }
      ],
      "name": "submitCorrectAnswers",
      "outputs": [],
      "stateMutability": "nonpayable",
      "type": "function"
    },
    {
      "inputs": [
        {
          "internalType": "uint256",
          "name": "_quizId",
          "type": "uint256"
        },
        {
          "internalType": "uint8[1]",
          "name": "_answers",
          "type": "uint8[1]"
        }
      ],
      "name": "submitPlayerAnswer",
      "outputs": [],
      "stateMutability": "nonpayable",
      "type": "function"
    }
  ],
  "bytecode": "0x608060405234801561001057600080fd5b50336000806101000a81548173ffffffffffffffffffffffffffffffffffffffff021916908373ffffffffffffffffffffffffffffffffffffffff1602179055506153f6806100606000396000f3fe6080604052600436106100915760003560e01c80637de75686116100595780637de756861461019457806388409afa146101bd578063b6c3c9b914610203578063cf1da55c1461022c578063f6de0db31461026a57610091565b80630caf673a1461009657806317079261146100bf5780632e730952146100ea5780632fbddbb2146101275780635d9c61c214610157575b600080fd5b3480156100a257600080fd5b506100bd60048036038101906100b89190612667565b610293565b005b3480156100cb57600080fd5b506100d461096c565b6040516100e19190612970565b60405180910390f35b3480156100f657600080fd5b50610111600480360381019061010c91906129be565b610d70565b60405161011e9190612a0d565b60405180910390f35b610141600480360381019061013c9190612a88565b610d9f565b60405161014e9190612b79565b60405180910390f35b34801561016357600080fd5b5061017e60048036038101906101799190612b94565b611163565b60405161018b9190612970565b60405180910390f35b3480156101a057600080fd5b506101bb60048036038101906101b69190612bc1565b611537565b005b3480156101c957600080fd5b506101e460048036038101906101df9190612c5b565b6117a0565b6040516101fa9a99989796959493929190612cf0565b60405180910390f35b34801561020f57600080fd5b5061022a60048036038101906102259190612d9a565b611941565b005b34801561023857600080fd5b50610253600480360381019061024e9190612dda565b611d6c565b604051610261929190612e1a565b60405180910390f35b34801561027657600080fd5b50610291600480360381019061028c9190612e87565b611dcd565b005b8260008054906101000a900473ffffffffffffffffffffffffffffffffffffffff1673ffffffffffffffffffffffffffffffffffffffff163373ffffffffffffffffffffffffffffffffffffffff16148061035e5750600181815481106102fd576102fc612f26565b5b90600052602060002090600a020160030160009054906101000a900473ffffffffffffffffffffffffffffffffffffffff1673ffffffffffffffffffffffffffffffffffffffff163373ffffffffffffffffffffffffffffffffffffffff16145b61039d576040517f08c379a000000000000000000000000000000000000000000000000000000000815260040161039490612fc7565b60405180910390fd5b60018054905084106103e4576040517f08c379a00000000000000000000000000000000000000000000000000000000081526004016103db90613033565b60405180910390fd5b60011515600185815481106103fc576103fb612f26565b5b90600052602060002090600a020160090160009054906101000a900460ff1615151461045d576040517f08c379a00000000000000000000000000000000000000000000000000000000081526004016104549061309f565b60405180910390fd5b6001848154811061047157610470612f26565b5b90600052602060002090600a0201600601546001858154811061049757610496612f26565b5b90600052602060002090600a0201600501546104b391906130ee565b42116104f4576040517f08c379a00000000000000000000000000000000000000000000000000000000081526004016104eb906131b6565b60405180910390fd5b6001848154811061050857610507612f26565b5b90600052602060002090600a02016008015461052484846122d4565b14610564576040517f08c379a000000000000000000000000000000000000000000000000000000000815260040161055b90613222565b60405180910390fd5b6000805b60026000878152602001908152602001600020805490508110156105ec576105c56002600088815260200190815260200160002082815481106105ae576105ad612f26565b5b906000526020600020906003020160000186612307565b156105d95781806105d590613242565b9250505b80806105e490613242565b915050610568565b5060008167ffffffffffffffff8111156106095761060861328b565b5b6040519080825280602002602001820160405280156106375781602001602082028036833780820191505090505b5090506000826001888154811061065157610650612f26565b5b90600052602060002090600a02016004015461066d91906132e9565b90506000838261067d919061331a565b6001898154811061069157610690612f26565b5b90600052602060002090600a0201600401546106ad9190613374565b90506000805b600260008b81526020019081526020016000208054905081101561087657610710600260008c815260200190815260200160002082815481106106f9576106f8612f26565b5b90600052602060002090600302016000018a612307565b1561086357600260008b8152602001908152602001600020818154811061073a57610739612f26565b5b906000526020600020906003020160020160009054906101000a900473ffffffffffffffffffffffffffffffffffffffff1685838061077890613242565b94508151811061078b5761078a612f26565b5b602002602001019073ffffffffffffffffffffffffffffffffffffffff16908173ffffffffffffffffffffffffffffffffffffffff1681525050600260008b815260200190815260200160002081815481106107ea576107e9612f26565b5b906000526020600020906003020160020160009054906101000a900473ffffffffffffffffffffffffffffffffffffffff1673ffffffffffffffffffffffffffffffffffffffff166108fc859081150290604051600060405180830381858888f19350505050158015610861573d6000803e3d6000fd5b505b808061086e90613242565b9150506106b3565b506001898154811061088b5761088a612f26565b5b90600052602060002090600a020160030160009054906101000a900473ffffffffffffffffffffffffffffffffffffffff1673ffffffffffffffffffffffffffffffffffffffff166108fc839081150290604051600060405180830381858888f19350505050158015610902573d6000803e3d6000fd5b507f53fb16f62e54f4596c7684a225d64c2ba05e4ed0ecc04634c3ac2c562086c5618960018b8154811061093957610938612f26565b5b90600052602060002090600a0201868b604051610959949392919061383d565b60405180910390a1505050505050505050565b606060004290506000805b600180549050811015610a3557826001828154811061099957610998612f26565b5b90600052602060002090600a02016005015411158015610a0e575082600182815481106109c9576109c8612f26565b5b90600052602060002090600a020160060154600183815481106109ef576109ee612f26565b5b90600052602060002090600a020160050154610a0b91906130ee565b10155b15610a22578180610a1e90613242565b9250505b8080610a2d90613242565b915050610977565b508067ffffffffffffffff811115610a5057610a4f61328b565b5b604051908082528060200260200182016040528015610a8957816020015b610a76612396565b815260200190600190039081610a6e5790505b5092506000805b600180549050811015610d69578360018281548110610ab257610ab1612f26565b5b90600052602060002090600a02016005015411158015610b2757508360018281548110610ae257610ae1612f26565b5b90600052602060002090600a02016006015460018381548110610b0857610b07612f26565b5b90600052602060002090600a020160050154610b2491906130ee565b10155b15610d565760018181548110610b4057610b3f612f26565b5b90600052602060002090600a02016040518061014001604052908160008201548152602001600182018054610b7490613408565b80601f0160208091040260200160405190810160405280929190818152602001828054610ba090613408565b8015610bed5780601f10610bc257610100808354040283529160200191610bed565b820191906000526020600020905b815481529060010190602001808311610bd057829003601f168201915b50505050508152602001600282018054610c0690613408565b80601f0160208091040260200160405190810160405280929190818152602001828054610c3290613408565b8015610c7f5780601f10610c5457610100808354040283529160200191610c7f565b820191906000526020600020905b815481529060010190602001808311610c6257829003601f168201915b505050505081526020016003820160009054906101000a900473ffffffffffffffffffffffffffffffffffffffff1673ffffffffffffffffffffffffffffffffffffffff1673ffffffffffffffffffffffffffffffffffffffff16815260200160048201548152602001600582015481526020016006820154815260200160078201548152602001600882015481526020016009820160009054906101000a900460ff161515151581525050858380610d3790613242565b945081518110610d4a57610d49612f26565b5b60200260200101819052505b8080610d6190613242565b915050610a90565b5050505090565b60036020528160005260406000206020528060005260406000206000915091509054906101000a900460ff1681565b6000428511610de3576040517f08c379a0000000000000000000000000000000000000000000000000000000008152600401610dda90613902565b60405180910390fd5b848486610df091906130ee565b11610e30576040517f08c379a0000000000000000000000000000000000000000000000000000000008152600401610e2790613994565b60405180910390fd5b60008a8a90501415610e77576040517f08c379a0000000000000000000000000000000000000000000000000000000008152600401610e6e90613a00565b60405180910390fd5b60008611610eba576040517f08c379a0000000000000000000000000000000000000000000000000000000008152600401610eb190613a6c565b60405180910390fd5b348614610efc576040517f08c379a0000000000000000000000000000000000000000000000000000000008152600401610ef390613afe565b60405180910390fd5b600060405180610140016040528060018054905081526020018c8c8080601f016020809104026020016040519081016040528093929190818152602001838380828437600081840152601f19601f8201169050808301925050505050505081526020018a8a8080601f016020809104026020016040519081016040528093929190818152602001838380828437600081840152601f19601f8201169050808301925050505050505081526020013373ffffffffffffffffffffffffffffffffffffffff16815260200188815260200187815260200186815260200185815260200184815260200160001515815250905060018190806001815401808255809150506001900390600052602060002090600a020160009091909190915060008201518160000155602082015181600101908051906020019061103e929190612407565b50604082015181600201908051906020019061105b929190612407565b5060608201518160030160006101000a81548173ffffffffffffffffffffffffffffffffffffffff021916908373ffffffffffffffffffffffffffffffffffffffff1602179055506080820151816004015560a0820151816005015560c0820151816006015560e0820151816007015561010082015181600801556101208201518160090160006101000a81548160ff02191690831515021790555050507ffd8ebe1156c53cd42cc839c579227faeaba4fe87e6df3c95f6c2cbc5c60eafca6001808054905061112b9190613374565b8260405161113a929190613bff565b60405180910390a1600180805490506111539190613374565b9150509998505050505050505050565b60606000805b600180549050811015611211578373ffffffffffffffffffffffffffffffffffffffff16600182815481106111a1576111a0612f26565b5b90600052602060002090600a020160030160009054906101000a900473ffffffffffffffffffffffffffffffffffffffff1673ffffffffffffffffffffffffffffffffffffffff1614156111fe5781806111fa90613242565b9250505b808061120990613242565b915050611169565b508067ffffffffffffffff81111561122c5761122b61328b565b5b60405190808252806020026020018201604052801561126557816020015b611252612396565b81526020019060019003908161124a5790505b5091506000805b60018054905081101561152f578473ffffffffffffffffffffffffffffffffffffffff16600182815481106112a4576112a3612f26565b5b90600052602060002090600a020160030160009054906101000a900473ffffffffffffffffffffffffffffffffffffffff1673ffffffffffffffffffffffffffffffffffffffff16141561151c576001818154811061130657611305612f26565b5b90600052602060002090600a0201604051806101400160405290816000820154815260200160018201805461133a90613408565b80601f016020809104026020016040519081016040528092919081815260200182805461136690613408565b80156113b35780601f10611388576101008083540402835291602001916113b3565b820191906000526020600020905b81548152906001019060200180831161139657829003601f168201915b505050505081526020016002820180546113cc90613408565b80601f01602080910402602001604051908101604052809291908181526020018280546113f890613408565b80156114455780601f1061141a57610100808354040283529160200191611445565b820191906000526020600020905b81548152906001019060200180831161142857829003601f168201915b505050505081526020016003820160009054906101000a900473ffffffffffffffffffffffffffffffffffffffff1673ffffffffffffffffffffffffffffffffffffffff1673ffffffffffffffffffffffffffffffffffffffff16815260200160048201548152602001600582015481526020016006820154815260200160078201548152602001600882015481526020016009820160009054906101000a900460ff1615151515815250508483806114fd90613242565b9450815181106115105761150f612f26565b5b60200260200101819052505b808061152790613242565b91505061126c565b505050919050565b856001805490501161157e576040517f08c379a000000000000000000000000000000000000000000000000000000000815260040161157590613c7b565b60405180910390fd5b3373ffffffffffffffffffffffffffffffffffffffff16600187815481106115a9576115a8612f26565b5b90600052602060002090600a020160030160009054906101000a900473ffffffffffffffffffffffffffffffffffffffff1673ffffffffffffffffffffffffffffffffffffffff1614611631576040517f08c379a000000000000000000000000000000000000000000000000000000000815260040161162890613d0d565b60405180910390fd5b426001878154811061164657611645612f26565b5b90600052602060002090600a02016005015411611698576040517f08c379a000000000000000000000000000000000000000000000000000000000815260040161168f90613d9f565b60405180910390fd5b600073ffffffffffffffffffffffffffffffffffffffff168373ffffffffffffffffffffffffffffffffffffffff161415611708576040517f08c379a00000000000000000000000000000000000000000000000000000000081526004016116ff90613e0b565b60405180910390fd5b60006001878154811061171e5761171d612f26565b5b90600052602060002090600a02019050858582600201919061174192919061248d565b50838160030160006101000a81548173ffffffffffffffffffffffffffffffffffffffff021916908373ffffffffffffffffffffffffffffffffffffffff16021790555082816007018190555081816008018190555050505050505050565b600181815481106117b057600080fd5b90600052602060002090600a02016000915090508060000154908060010180546117d990613408565b80601f016020809104026020016040519081016040528092919081815260200182805461180590613408565b80156118525780601f1061182757610100808354040283529160200191611852565b820191906000526020600020905b81548152906001019060200180831161183557829003601f168201915b50505050509080600201805461186790613408565b80601f016020809104026020016040519081016040528092919081815260200182805461189390613408565b80156118e05780601f106118b5576101008083540402835291602001916118e0565b820191906000526020600020905b8154815290600101906020018083116118c357829003601f168201915b5050505050908060030160009054906101000a900473ffffffffffffffffffffffffffffffffffffffff16908060040154908060050154908060060154908060070154908060080154908060090160009054906101000a900460ff1690508a565b600115156001838154811061195957611958612f26565b5b90600052602060002090600a020160090160009054906101000a900460ff161515146119ba576040517f08c379a00000000000000000000000000000000000000000000000000000000081526004016119b190613e77565b60405180910390fd5b42600183815481106119cf576119ce612f26565b5b90600052602060002090600a020160060154600184815481106119f5576119f4612f26565b5b90600052602060002090600a020160050154611a1191906130ee565b1015611a52576040517f08c379a0000000000000000000000000000000000000000000000000000000008152600401611a4990613ee3565b60405180910390fd5b600015156003600084815260200190815260200160002060003373ffffffffffffffffffffffffffffffffffffffff1673ffffffffffffffffffffffffffffffffffffffff16815260200190815260200160002060009054906101000a900460ff16151514611af6576040517f08c379a0000000000000000000000000000000000000000000000000000000008152600401611aed90613f75565b60405180910390fd5b60005b6001811015611bef57600160ff16828260018110611b1a57611b19612f26565b5b602002016020810190611b2d9190613f95565b60ff1610611b70576040517f08c379a0000000000000000000000000000000000000000000000000000000008152600401611b679061400e565b60405180910390fd5b6000828260018110611b8557611b84612f26565b5b602002016020810190611b989190613f95565b60ff161415611bdc576040517f08c379a0000000000000000000000000000000000000000000000000000000008152600401611bd39061407a565b60405180910390fd5b8080611be790613242565b915050611af9565b5060016003600084815260200190815260200160002060003373ffffffffffffffffffffffffffffffffffffffff1673ffffffffffffffffffffffffffffffffffffffff16815260200190815260200160002060006101000a81548160ff021916908315150217905550600260008381526020019081526020016000206040518060600160405280836001806020026040519081016040528092919082600160200280828437600081840152601f19601f82011690508083019250505050505081526020014281526020013373ffffffffffffffffffffffffffffffffffffffff168152509080600181540180825580915050600190039060005260206000209060030201600090919091909150600082015181600001906001611d14929190612513565b506020820151816001015560408201518160020160006101000a81548173ffffffffffffffffffffffffffffffffffffffff021916908373ffffffffffffffffffffffffffffffffffffffff16021790555050505050565b60026020528160005260406000208181548110611d8857600080fd5b9060005260206000209060030201600091509150508060010154908060020160009054906101000a900473ffffffffffffffffffffffffffffffffffffffff16905082565b8360008054906101000a900473ffffffffffffffffffffffffffffffffffffffff1673ffffffffffffffffffffffffffffffffffffffff163373ffffffffffffffffffffffffffffffffffffffff161480611e98575060018181548110611e3757611e36612f26565b5b90600052602060002090600a020160030160009054906101000a900473ffffffffffffffffffffffffffffffffffffffff1673ffffffffffffffffffffffffffffffffffffffff163373ffffffffffffffffffffffffffffffffffffffff16145b611ed7576040517f08c379a0000000000000000000000000000000000000000000000000000000008152600401611ece90612fc7565b60405180910390fd5b8460005a90506000151560018881548110611ef557611ef4612f26565b5b90600052602060002090600a020160090160009054906101000a900460ff16151514611f56576040517f08c379a0000000000000000000000000000000000000000000000000000000008152600401611f4d906140e6565b60405180910390fd5b60005b60018110156120ab576000878260018110611f7757611f76612f26565b5b602002810190611f879190614115565b90501415611fca576040517f08c379a0000000000000000000000000000000000000000000000000000000008152600401611fc1906141c4565b60405180910390fd5b60005b868260018110611fe057611fdf612f26565b5b602002810190611ff091906141e4565b50600181101561209757600087836001811061200f5761200e612f26565b5b60200281019061201f91906141e4565b826001811061203157612030612f26565b5b6020028101906120419190614115565b90501415612084576040517f08c379a000000000000000000000000000000000000000000000000000000000815260040161207b90614258565b60405180910390fd5b808061208f90613242565b915050611fcd565b5080806120a390613242565b915050611f59565b50600187815481106120c0576120bf612f26565b5b90600052602060002090600a0201600701546120dd878787612360565b1461211d576040517f08c379a0000000000000000000000000000000000000000000000000000000008152600401612114906142c4565b60405180910390fd5b426001888154811061213257612131612f26565b5b90600052602060002090600a020160050181905550600180888154811061215c5761215b612f26565b5b90600052602060002090600a020160090160006101000a81548160ff0219169083151502179055507f96f7782b6a8eb879d55058563bcf50ca1b5eb1bf224da434eff2c67811e31c078787876040516121b7939291906145c4565b60405180910390a160008054906101000a900473ffffffffffffffffffffffffffffffffffffffff1673ffffffffffffffffffffffffffffffffffffffff163373ffffffffffffffffffffffffffffffffffffffff161461221857506122cc565b60006175305a836122299190613374565b61223391906130ee565b905060003a82612243919061331a565b90503373ffffffffffffffffffffffffffffffffffffffff166108fc829081150290604051600060405180830381858888f1935050505015801561228b573d6000803e3d6000fd5b5080600185815481106122a1576122a0612f26565b5b90600052602060002090600a020160040160008282546122c19190613374565b925050819055505050505b505050505050565b600082826040516020016122e9929190614609565b60405160208183030381529060405280519060200120905092915050565b60008160405160200161231a9190614632565b60405160208183030381529060405280519060200120836040516020016123419190615360565b6040516020818303038152906040528051906020012014905092915050565b60008383836040516020016123779392919061537b565b6040516020818303038152906040528051906020012090509392505050565b604051806101400160405280600081526020016060815260200160608152602001600073ffffffffffffffffffffffffffffffffffffffff16815260200160008152602001600081526020016000815260200160008019168152602001600080191681526020016000151581525090565b82805461241390613408565b90600052602060002090601f016020900481019282612435576000855561247c565b82601f1061244e57805160ff191683800117855561247c565b8280016001018555821561247c579182015b8281111561247b578251825591602001919060010190612460565b5b50905061248991906125ad565b5090565b82805461249990613408565b90600052602060002090601f0160209004810192826124bb5760008555612502565b82601f106124d457803560ff1916838001178555612502565b82800160010185558215612502579182015b828111156125015782358255916020019190600101906124e6565b5b50905061250f91906125ad565b5090565b826001601f0160209004810192821561259c5791602002820160005b8382111561256d57835183826101000a81548160ff021916908360ff160217905550926020019260010160208160000104928301926001030261252f565b801561259a5782816101000a81549060ff021916905560010160208160000104928301926001030261256d565b505b5090506125a991906125ad565b5090565b5b808211156125c65760008160009055506001016125ae565b5090565b600080fd5b600080fd5b6000819050919050565b6125e7816125d4565b81146125f257600080fd5b50565b600081359050612604816125de565b92915050565b600080fd5b60008190508260206001028201111561262b5761262a61260a565b5b92915050565b6000819050919050565b61264481612631565b811461264f57600080fd5b50565b6000813590506126618161263b565b92915050565b6000806000606084860312156126805761267f6125ca565b5b600061268e868287016125f5565b935050602061269f8682870161260f565b92505060406126b086828701612652565b9150509250925092565b600081519050919050565b600082825260208201905092915050565b6000819050602082019050919050565b6126ef816125d4565b82525050565b600081519050919050565b600082825260208201905092915050565b60005b8381101561272f578082015181840152602081019050612714565b8381111561273e576000848401525b50505050565b6000601f19601f8301169050919050565b6000612760826126f5565b61276a8185612700565b935061277a818560208601612711565b61278381612744565b840191505092915050565b600073ffffffffffffffffffffffffffffffffffffffff82169050919050565b60006127b98261278e565b9050919050565b6127c9816127ae565b82525050565b6127d881612631565b82525050565b60008115159050919050565b6127f3816127de565b82525050565b60006101408301600083015161281260008601826126e6565b506020830151848203602086015261282a8282612755565b915050604083015184820360408601526128448282612755565b915050606083015161285960608601826127c0565b50608083015161286c60808601826126e6565b5060a083015161287f60a08601826126e6565b5060c083015161289260c08601826126e6565b5060e08301516128a560e08601826127cf565b506101008301516128ba6101008601826127cf565b506101208301516128cf6101208601826127ea565b508091505092915050565b60006128e683836127f9565b905092915050565b6000602082019050919050565b6000612906826126ba565b61291081856126c5565b935083602082028501612922856126d6565b8060005b8581101561295e578484038952815161293f85826128da565b945061294a836128ee565b925060208a01995050600181019050612926565b50829750879550505050505092915050565b6000602082019050818103600083015261298a81846128fb565b905092915050565b61299b816127ae565b81146129a657600080fd5b50565b6000813590506129b881612992565b92915050565b600080604083850312156129d5576129d46125ca565b5b60006129e3858286016125f5565b92505060206129f4858286016129a9565b9150509250929050565b612a07816127de565b82525050565b6000602082019050612a2260008301846129fe565b92915050565b600080fd5b600080fd5b60008083601f840112612a4857612a47612a28565b5b8235905067ffffffffffffffff811115612a6557612a64612a2d565b5b602083019150836001820283011115612a8157612a8061260a565b5b9250929050565b600080600080600080600080600060e08a8c031215612aaa57612aa96125ca565b5b60008a013567ffffffffffffffff811115612ac857612ac76125cf565b5b612ad48c828d01612a32565b995099505060208a013567ffffffffffffffff811115612af757612af66125cf565b5b612b038c828d01612a32565b97509750506040612b168c828d016125f5565b9550506060612b278c828d016125f5565b9450506080612b388c828d016125f5565b93505060a0612b498c828d01612652565b92505060c0612b5a8c828d01612652565b9150509295985092959850929598565b612b73816125d4565b82525050565b6000602082019050612b8e6000830184612b6a565b92915050565b600060208284031215612baa57612ba96125ca565b5b6000612bb8848285016129a9565b91505092915050565b60008060008060008060a08789031215612bde57612bdd6125ca565b5b6000612bec89828a016125f5565b965050602087013567ffffffffffffffff811115612c0d57612c0c6125cf565b5b612c1989828a01612a32565b95509550506040612c2c89828a016129a9565b9350506060612c3d89828a01612652565b9250506080612c4e89828a01612652565b9150509295509295509295565b600060208284031215612c7157612c706125ca565b5b6000612c7f848285016125f5565b91505092915050565b600082825260208201905092915050565b6000612ca4826126f5565b612cae8185612c88565b9350612cbe818560208601612711565b612cc781612744565b840191505092915050565b612cdb816127ae565b82525050565b612cea81612631565b82525050565b600061014082019050612d06600083018d612b6a565b8181036020830152612d18818c612c99565b90508181036040830152612d2c818b612c99565b9050612d3b606083018a612cd2565b612d486080830189612b6a565b612d5560a0830188612b6a565b612d6260c0830187612b6a565b612d6f60e0830186612ce1565b612d7d610100830185612ce1565b612d8b6101208301846129fe565b9b9a5050505050505050505050565b60008060408385031215612db157612db06125ca565b5b6000612dbf858286016125f5565b9250506020612dd08582860161260f565b9150509250929050565b60008060408385031215612df157612df06125ca565b5b6000612dff858286016125f5565b9250506020612e10858286016125f5565b9150509250929050565b6000604082019050612e2f6000830185612b6a565b612e3c6020830184612cd2565b9392505050565b600081905082602060010282011115612e5f57612e5e61260a565b5b92915050565b600081905082602060010282011115612e8157612e8061260a565b5b92915050565b60008060008060808587031215612ea157612ea06125ca565b5b6000612eaf878288016125f5565b945050602085013567ffffffffffffffff811115612ed057612ecf6125cf565b5b612edc87828801612e43565b935050604085013567ffffffffffffffff811115612efd57612efc6125cf565b5b612f0987828801612e65565b9250506060612f1a87828801612652565b91505092959194509250565b7f4e487b7100000000000000000000000000000000000000000000000000000000600052603260045260246000fd5b7f4f6e6c79206f776e6572206f7220746865207175697a2063726561746f72206360008201527f616e207375626d6974207175657374696f6e7300000000000000000000000000602082015250565b6000612fb1603383612c88565b9150612fbc82612f55565b604082019050919050565b60006020820190508181036000830152612fe081612fa4565b9050919050565b7f5175697a20646f6573206e6f7420657869737400000000000000000000000000600082015250565b600061301d601383612c88565b915061302882612fe7565b602082019050919050565b6000602082019050818103600083015261304c81613010565b9050919050565b7f5175697a20686173206e6f742073746172746564000000000000000000000000600082015250565b6000613089601483612c88565b915061309482613053565b602082019050919050565b600060208201905081810360008301526130b88161307c565b9050919050565b7f4e487b7100000000000000000000000000000000000000000000000000000000600052601160045260246000fd5b60006130f9826125d4565b9150613104836125d4565b9250827fffffffffffffffffffffffffffffffffffffffffffffffffffffffffffffffff03821115613139576131386130bf565b5b828201905092915050565b7f436f727265637420416e73776572732063616e6e6f74206265207375626d697460008201527f746564206265666f726520656e642074696d6500000000000000000000000000602082015250565b60006131a0603383612c88565b91506131ab82613144565b604082019050919050565b600060208201905081810360008301526131cf81613193565b9050919050565b7f436f727265637420616e737765727320617265206e6f742076616c6964000000600082015250565b600061320c601d83612c88565b9150613217826131d6565b602082019050919050565b6000602082019050818103600083015261323b816131ff565b9050919050565b600061324d826125d4565b91507fffffffffffffffffffffffffffffffffffffffffffffffffffffffffffffffff8214156132805761327f6130bf565b5b600182019050919050565b7f4e487b7100000000000000000000000000000000000000000000000000000000600052604160045260246000fd5b7f4e487b7100000000000000000000000000000000000000000000000000000000600052601260045260246000fd5b60006132f4826125d4565b91506132ff836125d4565b92508261330f5761330e6132ba565b5b828204905092915050565b6000613325826125d4565b9150613330836125d4565b9250817fffffffffffffffffffffffffffffffffffffffffffffffffffffffffffffffff0483118215151615613369576133686130bf565b5b828202905092915050565b600061337f826125d4565b915061338a836125d4565b92508282101561339d5761339c6130bf565b5b828203905092915050565b60008160001c9050919050565b6000819050919050565b60006133d26133cd836133a8565b6133b5565b9050919050565b7f4e487b7100000000000000000000000000000000000000000000000000000000600052602260045260246000fd5b6000600282049050600182168061342057607f821691505b60208210811415613434576134336133d9565b5b50919050565b60008190508160005260206000209050919050565b6000815461345c81613408565b6134668186612700565b945060018216600081146134815760018114613493576134c6565b60ff19831686526020860193506134c6565b61349c8561343a565b60005b838110156134be5781548189015260018201915060208101905061349f565b808801955050505b50505092915050565b600073ffffffffffffffffffffffffffffffffffffffff82169050919050565b60006135026134fd836133a8565b6134cf565b9050919050565b6000819050919050565b6000613526613521836133a8565b613509565b9050919050565b600060ff82169050919050565b600061354d613548836133a8565b61352d565b9050919050565b60006101408301600080840154905061356c816133bf565b61357960008701826126e6565b50600184018583036020870152613590838261344f565b9250506002840185830360408701526135a9838261344f565b925050600384015490506135bc816134ef565b6135c960608701826127c0565b50600484015490506135da816133bf565b6135e760808701826126e6565b50600584015490506135f8816133bf565b61360560a08701826126e6565b5060068401549050613616816133bf565b61362360c08701826126e6565b506007840154905061363481613513565b61364160e08701826127cf565b506008840154905061365281613513565b6136606101008701826127cf565b50600984015490506136718161353a565b61367f6101208701826127ea565b50819250505092915050565b600081519050919050565b600082825260208201905092915050565b6000819050602082019050919050565b60006136c383836127c0565b60208301905092915050565b6000602082019050919050565b60006136e78261368b565b6136f18185613696565b93506136fc836136a7565b8060005b8381101561372d57815161371488826136b7565b975061371f836136cf565b925050600181019050613700565b5085935050505092915050565b600060019050919050565b600081905092915050565b6000819050919050565b600060ff82169050919050565b6137708161375a565b82525050565b60006137828383613767565b60208301905092915050565b6137978161375a565b81146137a257600080fd5b50565b6000813590506137b48161378e565b92915050565b60006137c960208401846137a5565b905092915050565b6000602082019050919050565b6137e78161373a565b6137f18184613745565b92506137fc82613750565b8060005b838110156138355761381282846137ba565b61381c8782613776565b9650613827836137d1565b925050600181019050613800565b505050505050565b60006080820190506138526000830187612b6a565b81810360208301526138648186613554565b9050818103604083015261387881856136dc565b905061388760608301846137de565b95945050505050565b7f5175697a2063616e6e6f74206265206372656174656420696e2074686520706160008201527f7374000000000000000000000000000000000000000000000000000000000000602082015250565b60006138ec602283612c88565b91506138f782613890565b604082019050919050565b6000602082019050818103600083015261391b816138df565b9050919050565b7f5175697a2063616e6e6f742062652063726561746564207769746820656e642060008201527f74696d65206265666f72652073746172742074696d6500000000000000000000602082015250565b600061397e603683612c88565b915061398982613922565b604082019050919050565b600060208201905081810360008301526139ad81613971565b9050919050565b7f5175697a206e616d652063616e6e6f7420626520656d70747900000000000000600082015250565b60006139ea601983612c88565b91506139f5826139b4565b602082019050919050565b60006020820190508181036000830152613a19816139dd565b9050919050565b7f5072697a65206d6f6e65792063616e6e6f74206265207a65726f000000000000600082015250565b6000613a56601a83612c88565b9150613a6182613a20565b602082019050919050565b60006020820190508181036000830152613a8581613a49565b9050919050565b7f5072697a65206d6f6e6579206d757374206d617463682074686520616d6f756e60008201527f742073656e740000000000000000000000000000000000000000000000000000602082015250565b6000613ae8602683612c88565b9150613af382613a8c565b604082019050919050565b60006020820190508181036000830152613b1781613adb565b9050919050565b600061014083016000830151613b3760008601826126e6565b5060208301518482036020860152613b4f8282612755565b91505060408301518482036040860152613b698282612755565b9150506060830151613b7e60608601826127c0565b506080830151613b9160808601826126e6565b5060a0830151613ba460a08601826126e6565b5060c0830151613bb760c08601826126e6565b5060e0830151613bca60e08601826127cf565b50610100830151613bdf6101008601826127cf565b50610120830151613bf46101208601826127ea565b508091505092915050565b6000604082019050613c146000830185612b6a565b8181036020830152613c268184613b1e565b90509392505050565b7f5175697a20496420646f6573206e6f7420657869737473000000000000000000600082015250565b6000613c65601783612c88565b9150613c7082613c2f565b602082019050919050565b60006020820190508181036000830152613c9481613c58565b9050919050565b7f4f6e6c79205175697a204f776e65722063616e2075706461746520746865207160008201527f75697a0000000000000000000000000000000000000000000000000000000000602082015250565b6000613cf7602383612c88565b9150613d0282613c9b565b604082019050919050565b60006020820190508181036000830152613d2681613cea565b9050919050565b7f5175697a2063616e2062652075706461746564206265666f726520737461727460008201527f206f6620746865207175697a0000000000000000000000000000000000000000602082015250565b6000613d89602c83612c88565b9150613d9482613d2d565b604082019050919050565b60006020820190508181036000830152613db881613d7c565b9050919050565b7f5175697a206f776e65722063616e6e6f7420626520656d707479000000000000600082015250565b6000613df5601a83612c88565b9150613e0082613dbf565b602082019050919050565b60006020820190508181036000830152613e2481613de8565b9050919050565b7f5175697a20686173206e6f742073746172746564207965740000000000000000600082015250565b6000613e61601883612c88565b9150613e6c82613e2b565b602082019050919050565b60006020820190508181036000830152613e9081613e54565b9050919050565b7f5175697a2068617320656e646564000000000000000000000000000000000000600082015250565b6000613ecd600e83612c88565b9150613ed882613e97565b602082019050919050565b60006020820190508181036000830152613efc81613ec0565b9050919050565b7f596f75206861766520616c7265616479207375626d697474656420746865206160008201527f6e73776572730000000000000000000000000000000000000000000000000000602082015250565b6000613f5f602683612c88565b9150613f6a82613f03565b604082019050919050565b60006020820190508181036000830152613f8e81613f52565b9050919050565b600060208284031215613fab57613faa6125ca565b5b6000613fb9848285016137a5565b91505092915050565b7f416e73776572206973206f7574206f662072616e676500000000000000000000600082015250565b6000613ff8601683612c88565b915061400382613fc2565b602082019050919050565b6000602082019050818103600083015261402781613feb565b9050919050565b7f416e737765722063616e6e6f7420626520656d70747900000000000000000000600082015250565b6000614064601683612c88565b915061406f8261402e565b602082019050919050565b6000602082019050818103600083015261409381614057565b9050919050565b7f5175697a2068617320616c726561647920737461727465640000000000000000600082015250565b60006140d0601883612c88565b91506140db8261409a565b602082019050919050565b600060208201905081810360008301526140ff816140c3565b9050919050565b600080fd5b600080fd5b600080fd5b6000808335600160200384360303811261413257614131614106565b5b80840192508235915067ffffffffffffffff8211156141545761415361410b565b5b6020830192506001820236038313156141705761416f614110565b5b509250929050565b7f5175657374696f6e2063616e6e6f7420626520656d7074790000000000000000600082015250565b60006141ae601883612c88565b91506141b982614178565b602082019050919050565b600060208201905081810360008301526141dd816141a1565b9050919050565b600082356001602003833603038112614200576141ff614106565b5b80830191505092915050565b7f4f7074696f6e2063616e6e6f7420626520656d70747900000000000000000000600082015250565b6000614242601683612c88565b915061424d8261420c565b602082019050919050565b6000602082019050818103600083015261427181614235565b9050919050565b7f5175657374696f6e7320617265206e6f742076616c6964000000000000000000600082015250565b60006142ae601783612c88565b91506142b982614278565b602082019050919050565b600060208201905081810360008301526142dd816142a1565b9050919050565b600060019050919050565b600081905092915050565b6000819050919050565b82818337600083830152505050565b600061431f8385612700565b935061432c838584614304565b61433583612744565b840190509392505050565b600061434d848484614313565b90509392505050565b600080fd5b600080fd5b600080fd5b6000808335600160200384360303811261438257614381614360565b5b83810192508235915060208301925067ffffffffffffffff8211156143aa576143a9614356565b5b6001820236038413156143c0576143bf61435b565b5b509250929050565b6000602082019050919050565b60006143e0826142e4565b6143ea81856142ef565b9350836020820285016143fc856142fa565b8060005b858110156144425784840389526144178284614365565b614422868284614340565b955061442d846143c8565b935060208b019a505050600181019050614400565b50829750879550505050505092915050565b600060019050919050565b600081905092915050565b6000819050919050565b600081905092915050565b600061448a826142e4565b6144948185614474565b9350836020820285016144a6856142fa565b8060005b858110156144ec5784840389526144c18284614365565b6144cc868284614340565b95506144d7846143c8565b935060208b019a5050506001810190506144aa565b50829750879550505050505092915050565b600061450a838361447f565b905092915050565b60008235600160200383360303811261452e5761452d614360565b5b82810191505092915050565b6000602082019050919050565b600061455282614454565b61455c818561445f565b93508360208202850161456e8561446a565b8060005b858110156145b25784840389526145898284614512565b61459385826144fe565b945061459e8361453a565b925060208a01995050600181019050614572565b50829750879550505050505092915050565b60006060820190506145d96000830186612b6a565b81810360208301526145eb81856143d5565b905081810360408301526145ff8184614547565b9050949350505050565b600060408201905061461e60008301856137de565b61462b6020830184612ce1565b9392505050565b600060208201905061464760008301846137de565b92915050565b600060019050919050565b6000819050919050565b600060ff82169050919050565b600061468261467d836133a8565b614662565b9050919050565b60008160081c9050919050565b60006146a96146a483614689565b614662565b9050919050565b60008160101c9050919050565b60006146d06146cb836146b0565b614662565b9050919050565b60008160181c9050919050565b60006146f76146f2836146d7565b614662565b9050919050565b60008160201c9050919050565b600061471e614719836146fe565b614662565b9050919050565b60008160281c9050919050565b600061474561474083614725565b614662565b9050919050565b60008160301c9050919050565b600061476c6147678361474c565b614662565b9050919050565b60008160381c9050919050565b600061479361478e83614773565b614662565b9050919050565b60008160401c9050919050565b60006147ba6147b58361479a565b614662565b9050919050565b60008160481c9050919050565b60006147e16147dc836147c1565b614662565b9050919050565b60008160501c9050919050565b6000614808614803836147e8565b614662565b9050919050565b60008160581c9050919050565b600061482f61482a8361480f565b614662565b9050919050565b60008160601c9050919050565b600061485661485183614836565b614662565b9050919050565b60008160681c9050919050565b600061487d6148788361485d565b614662565b9050919050565b60008160701c9050919050565b60006148a461489f83614884565b614662565b9050919050565b60008160781c9050919050565b60006148cb6148c6836148ab565b614662565b9050919050565b60008160801c9050919050565b60006148f26148ed836148d2565b614662565b9050919050565b60008160881c9050919050565b6000614919614914836148f9565b614662565b9050919050565b60008160901c9050919050565b600061494061493b83614920565b614662565b9050919050565b60008160981c9050919050565b600061496761496283614947565b614662565b9050919050565b60008160a01c9050919050565b600061498e6149898361496e565b614662565b9050919050565b60008160a81c9050919050565b60006149b56149b083614995565b614662565b9050919050565b60008160b01c9050919050565b60006149dc6149d7836149bc565b614662565b9050919050565b60008160b81c9050919050565b6000614a036149fe836149e3565b614662565b9050919050565b60008160c01c9050919050565b6000614a2a614a2583614a0a565b614662565b9050919050565b60008160c81c9050919050565b6000614a51614a4c83614a31565b614662565b9050919050565b60008160d01c9050919050565b6000614a78614a7383614a58565b614662565b9050919050565b60008160d81c9050919050565b6000614a9f614a9a83614a7f565b614662565b9050919050565b60008160e01c9050919050565b6000614ac6614ac183614aa6565b614662565b9050919050565b60008160e81c9050919050565b6000614aed614ae883614acd565b614662565b9050919050565b60008160f01c9050919050565b6000614b14614b0f83614af4565b614662565b9050919050565b60008160f81c9050919050565b6000614b3b614b3683614b1b565b614662565b9050919050565b614b4b8161464d565b614b558184613745565b925082614b6183614658565b60008015614e8d575b83600160200382011015614e8c578154614b8c87614b878361466f565b613767565b602087019650614ba487614b9f83614696565b613767565b602087019650614bbc87614bb7836146bd565b613767565b602087019650614bd487614bcf836146e4565b613767565b602087019650614bec87614be78361470b565b613767565b602087019650614c0487614bff83614732565b613767565b602087019650614c1c87614c1783614759565b613767565b602087019650614c3487614c2f83614780565b613767565b602087019650614c4c87614c47836147a7565b613767565b602087019650614c6487614c5f836147ce565b613767565b602087019650614c7c87614c77836147f5565b613767565b602087019650614c9487614c8f8361481c565b613767565b602087019650614cac87614ca783614843565b613767565b602087019650614cc487614cbf8361486a565b613767565b602087019650614cdc87614cd783614891565b613767565b602087019650614cf487614cef836148b8565b613767565b602087019650614d0c87614d07836148df565b613767565b602087019650614d2487614d1f83614906565b613767565b602087019650614d3c87614d378361492d565b613767565b602087019650614d5487614d4f83614954565b613767565b602087019650614d6c87614d678361497b565b613767565b602087019650614d8487614d7f836149a2565b613767565b602087019650614d9c87614d97836149c9565b613767565b602087019650614db487614daf836149f0565b613767565b602087019650614dcc87614dc783614a17565b613767565b602087019650614de487614ddf83614a3e565b613767565b602087019650614dfc87614df783614a65565b613767565b602087019650614e1487614e0f83614a8c565b613767565b602087019650614e2c87614e2783614ab3565b613767565b602087019650614e4487614e3f83614ada565b613767565b602087019650614e5c87614e5783614b01565b613767565b602087019650614e7487614e6f83614b28565b613767565b60208701965060018301925050602081019050614b6a565b5b600115615358578154600115614ebc57614eaf87614eaa8361466f565b613767565b6020870196506001820191505b600015614ee257614ed587614ed083614696565b613767565b6020870196506001820191505b600015614f0857614efb87614ef6836146bd565b613767565b6020870196506001820191505b600015614f2e57614f2187614f1c836146e4565b613767565b6020870196506001820191505b600015614f5457614f4787614f428361470b565b613767565b6020870196506001820191505b600015614f7a57614f6d87614f6883614732565b613767565b6020870196506001820191505b600015614fa057614f9387614f8e83614759565b613767565b6020870196506001820191505b600015614fc657614fb987614fb483614780565b613767565b6020870196506001820191505b600015614fec57614fdf87614fda836147a7565b613767565b6020870196506001820191505b6000156150125761500587615000836147ce565b613767565b6020870196506001820191505b6000156150385761502b87615026836147f5565b613767565b6020870196506001820191505b60001561505e576150518761504c8361481c565b613767565b6020870196506001820191505b600015615084576150778761507283614843565b613767565b6020870196506001820191505b6000156150aa5761509d876150988361486a565b613767565b6020870196506001820191505b6000156150d0576150c3876150be83614891565b613767565b6020870196506001820191505b6000156150f6576150e9876150e4836148b8565b613767565b6020870196506001820191505b60001561511c5761510f8761510a836148df565b613767565b6020870196506001820191505b600015615142576151358761513083614906565b613767565b6020870196506001820191505b6000156151685761515b876151568361492d565b613767565b6020870196506001820191505b60001561518e576151818761517c83614954565b613767565b6020870196506001820191505b6000156151b4576151a7876151a28361497b565b613767565b6020870196506001820191505b6000156151da576151cd876151c8836149a2565b613767565b6020870196506001820191505b600015615200576151f3876151ee836149c9565b613767565b6020870196506001820191505b6000156152265761521987615214836149f0565b613767565b6020870196506001820191505b60001561524c5761523f8761523a83614a17565b613767565b6020870196506001820191505b600015615272576152658761526083614a3e565b613767565b6020870196506001820191505b6000156152985761528b8761528683614a65565b613767565b6020870196506001820191505b6000156152be576152b1876152ac83614a8c565b613767565b6020870196506001820191505b6000156152e4576152d7876152d283614ab3565b613767565b6020870196506001820191505b60001561530a576152fd876152f883614ada565b613767565b6020870196506001820191505b600015615330576153238761531e83614b01565b613767565b6020870196506001820191505b600015615356576153498761534483614b28565b613767565b6020870196506001820191505b505b505050505050565b60006020820190506153756000830184614b42565b92915050565b6000606082019050818103600083015261539581866143d5565b905081810360208301526153a98185614547565b90506153b86040830184612ce1565b94935050505056fea264697066735822122015ff476950eb023f10ed2602544647872429c4e38a2d8506a50bcc593cec112564736f6c634300080a0033",
  "immutableReferences": {},
  "source": "// SPDX-License-Identifier: MIT\r\npragma solidity >=0.8.10;\r\n\r\ncontract QuizContract {\r\n    uint8 constant noOfQuestions = 1;\r\n    uint8 constant noOfOptions = 1;\r\n\r\n    event QuizCreated(uint256 quizId, Quiz quiz);\r\n\r\n    event QuizUpdated(uint256 quizId, Quiz quiz);\r\n\r\n    event QuizStarted(\r\n        uint256 quizId,\r\n        string[noOfQuestions] questions,\r\n        string[noOfQuestions][noOfOptions] options\r\n    );\r\n\r\n    event QuizCompleted(\r\n        uint256 quizId,\r\n        Quiz quiz,\r\n        address[] winners,\r\n        uint8[noOfQuestions] answers\r\n    );\r\n\r\n    struct Answers {\r\n        uint8[noOfQuestions] selectedOptions;\r\n        uint256 submissionTime;\r\n        address submissionAddress;\r\n    }\r\n\r\n    struct Quiz {\r\n        uint256 quizId;\r\n        string quizName;\r\n        string description;\r\n        address quizOwner;\r\n        uint256 prizeMoney; //wei\r\n        uint256 startTime;\r\n        uint256 duration; //seconds\r\n        bytes32 questionHash;\r\n        bytes32 answerHash;\r\n        bool isRunning;\r\n    }\r\n\r\n    address owner;\r\n    Quiz[] public quizzes;\r\n    mapping(uint256 => Answers[]) public submittedAnswers;\r\n    mapping(uint256 => mapping(address => bool)) public isSubmited;\r\n\r\n    constructor() {\r\n        owner = msg.sender;\r\n    }\r\n\r\n    modifier onlyOwners(uint256 _quizId) {\r\n        require(\r\n            msg.sender == owner || msg.sender == quizzes[_quizId].quizOwner,\r\n            \"Only owner or the quiz creator can submit questions\"\r\n        );\r\n        _;\r\n    }\r\n\r\n    modifier refundGas(uint256 _quizId) {\r\n        uint256 gasAtStart = gasleft();\r\n        _;\r\n        if (msg.sender != owner) return;\r\n        uint256 gasSpent = gasAtStart - gasleft() + 30000;\r\n        uint256 gasCost = gasSpent * tx.gasprice;\r\n        payable(msg.sender).transfer(gasCost);\r\n        quizzes[_quizId].prizeMoney -= gasCost;\r\n    }\r\n\r\n    function hashQuestions(\r\n        string[noOfQuestions] calldata _questions,\r\n        string[noOfQuestions][noOfOptions] calldata _options,\r\n        bytes32 _hashSalt \r\n    ) internal pure returns (bytes32) {\r\n        return keccak256(abi.encode(_questions, _options, _hashSalt));\r\n    }\r\n\r\n    function hashAnswers(\r\n        uint8[noOfQuestions] calldata _answers,\r\n        bytes32 _hashSalt\r\n    ) internal pure returns (bytes32) {\r\n        return keccak256(abi.encode(_answers, _hashSalt));\r\n    }\r\n\r\n    function equalAnswers(\r\n        uint8[noOfQuestions] storage correctOptions,\r\n        uint8[noOfQuestions] calldata optionsB\r\n    ) internal pure returns (bool) {\r\n        return\r\n            keccak256(abi.encode(correctOptions)) ==\r\n            keccak256(abi.encode(optionsB));\r\n    }\r\n\r\n    function getPendingQuizzes()\r\n        public\r\n        view\r\n        returns (Quiz[] memory pendingQuizzes)\r\n    {\r\n        uint256 present = block.timestamp;\r\n        uint256 noOfQuizzes = 0;\r\n        for (uint256 i = 0; i < quizzes.length; i++) {\r\n            if (\r\n                quizzes[i].startTime <= present &&\r\n                (quizzes[i].startTime + quizzes[i].duration) >= present\r\n            ) {\r\n                noOfQuizzes++;\r\n            }\r\n        }\r\n        pendingQuizzes = new Quiz[](noOfQuizzes);\r\n        uint256 j = 0;\r\n        for (uint256 i = 0; i < quizzes.length; i++) {\r\n            if (\r\n                quizzes[i].startTime <= present &&\r\n                (quizzes[i].startTime + quizzes[i].duration) >= present\r\n            ) {\r\n                pendingQuizzes[j++] = quizzes[i];\r\n            }\r\n        }\r\n        return pendingQuizzes;\r\n    }\r\n\r\n    function getQuizzesBy(address user)\r\n        external\r\n        view\r\n        returns (Quiz[] memory quizzesByUser)\r\n    {\r\n        uint256 noOfQuizzes = 0;\r\n        for (uint256 i = 0; i < quizzes.length; i++) {\r\n            if (quizzes[i].quizOwner == user) {\r\n                noOfQuizzes++;\r\n            }\r\n        }\r\n        quizzesByUser = new Quiz[](noOfQuizzes);\r\n        uint256 j = 0;\r\n        for (uint256 i = 0; i < quizzes.length; i++) {\r\n            if (quizzes[i].quizOwner == user) {\r\n                quizzesByUser[j++] = quizzes[i];\r\n            }\r\n        }\r\n        return quizzesByUser;\r\n    }\r\n\r\n    function createQuiz(\r\n        string calldata quizName,\r\n        string calldata description,\r\n        uint256 prizeMoney, //wei\r\n        uint256 startTime,\r\n        uint256 duration, //seconds\r\n        bytes32 questionHash,\r\n        bytes32 answerHash\r\n    ) external payable returns (uint256) {\r\n        require(\r\n            startTime > block.timestamp,\r\n            \"Quiz cannot be created in the past\"\r\n        );\r\n        require(\r\n            startTime + duration > startTime,\r\n            \"Quiz cannot be created with end time before start time\"\r\n        );\r\n        require(bytes(quizName).length != 0, \"Quiz name cannot be empty\");\r\n        require(prizeMoney > 0, \"Prize money cannot be zero\");\r\n        require(\r\n            prizeMoney == msg.value,\r\n            \"Prize money must match the amount sent\"\r\n        );\r\n\r\n        Quiz memory _newQuiz = Quiz(\r\n            quizzes.length,\r\n            quizName,\r\n            description,\r\n            msg.sender,\r\n            prizeMoney,\r\n            startTime,\r\n            duration,\r\n            questionHash,\r\n            answerHash,\r\n            false\r\n        );\r\n        quizzes.push(_newQuiz);\r\n        emit QuizCreated(quizzes.length - 1, _newQuiz);\r\n\r\n        return quizzes.length - 1;\r\n    }\r\n\r\n    function updateQuiz(\r\n        uint256 _quizId,\r\n        string calldata _description,\r\n        address _quizOwner,\r\n        bytes32 _questionHash,\r\n        bytes32 _answerHash\r\n    ) external {\r\n        require(quizzes.length > _quizId, \"Quiz Id does not exists\");\r\n        require(\r\n            quizzes[_quizId].quizOwner == msg.sender,\r\n            \"Only Quiz Owner can update the quiz\"\r\n        );\r\n        require(\r\n            quizzes[_quizId].startTime > block.timestamp,\r\n            \"Quiz can be updated before start of the quiz\"\r\n        );\r\n\r\n        require(_quizOwner != address(0), \"Quiz owner cannot be empty\");\r\n\r\n        Quiz storage _quiz = quizzes[_quizId];\r\n        _quiz.description = _description;\r\n        _quiz.quizOwner = _quizOwner;\r\n        _quiz.questionHash = _questionHash;\r\n        _quiz.answerHash = _answerHash;\r\n    }\r\n\r\n    function submitQuestions(\r\n        uint256 _quizId,\r\n        string[noOfQuestions] calldata _questions,\r\n        string[noOfQuestions][noOfOptions] calldata _options,\r\n        bytes32 _hashSalt\r\n    ) external onlyOwners(_quizId) refundGas(_quizId) {\r\n        require(\r\n            quizzes[_quizId].isRunning == false,\r\n            \"Quiz has already started\"\r\n        );\r\n        for (uint256 i = 0; i < _questions.length; i++) {\r\n            require(\r\n                bytes(_questions[i]).length != 0,\r\n                \"Question cannot be empty\"\r\n            );\r\n            for (uint256 j = 0; j < _options[i].length; j++) {\r\n                require(\r\n                    bytes(_options[i][j]).length != 0,\r\n                    \"Option cannot be empty\"\r\n                );\r\n            }\r\n        }\r\n        require(\r\n            hashQuestions(_questions, _options, _hashSalt) ==\r\n                quizzes[_quizId].questionHash,\r\n            \"Questions are not valid\"\r\n        );\r\n\r\n        quizzes[_quizId].startTime = block.timestamp;\r\n        quizzes[_quizId].isRunning = true;\r\n        emit QuizStarted(_quizId, _questions, _options);\r\n    }\r\n\r\n    function submitCorrectAnswers(\r\n        uint256 _quizId,\r\n        uint8[noOfQuestions] calldata _quizAnswers,\r\n        bytes32 _hashSalt\r\n    ) external onlyOwners(_quizId) {\r\n        require(_quizId < quizzes.length, \"Quiz does not exist\");\r\n        require(quizzes[_quizId].isRunning == true, \"Quiz has not started\");\r\n        require(\r\n            block.timestamp >\r\n                quizzes[_quizId].startTime + quizzes[_quizId].duration,\r\n            \"Correct Answers cannot be submitted before end time\"\r\n        );\r\n        require(\r\n            hashAnswers(_quizAnswers, _hashSalt) == quizzes[_quizId].answerHash,\r\n            \"Correct answers are not valid\"\r\n        );\r\n\r\n        uint256 totalWinners = 0;\r\n        for (uint256 i = 0; i < submittedAnswers[_quizId].length; i++) {\r\n            if (\r\n                equalAnswers(\r\n                    submittedAnswers[_quizId][i].selectedOptions,\r\n                    _quizAnswers\r\n                )\r\n            ) {\r\n                totalWinners++;\r\n            }\r\n        }\r\n        address[] memory winners = new address[](totalWinners);\r\n        uint256 prizeMoneyPerWinner = quizzes[_quizId].prizeMoney /\r\n            totalWinners;\r\n        uint256 prizeMoneyLeft = quizzes[_quizId].prizeMoney -\r\n            prizeMoneyPerWinner *\r\n            totalWinners;\r\n        uint256 j = 0;\r\n        for (uint256 i = 0; i < submittedAnswers[_quizId].length; i++) {\r\n            if (\r\n                equalAnswers(\r\n                    submittedAnswers[_quizId][i].selectedOptions,\r\n                    _quizAnswers\r\n                )\r\n            ) {\r\n                winners[j++] = submittedAnswers[_quizId][i].submissionAddress;\r\n                payable(submittedAnswers[_quizId][i].submissionAddress)\r\n                    .transfer(prizeMoneyPerWinner);\r\n            }\r\n        }\r\n        payable(quizzes[_quizId].quizOwner).transfer(prizeMoneyLeft);\r\n\r\n        emit QuizCompleted(_quizId, quizzes[_quizId], winners, _quizAnswers);\r\n    }\r\n\r\n    function submitPlayerAnswer(\r\n        uint256 _quizId,\r\n        uint8[noOfQuestions] calldata _answers\r\n    ) external {\r\n        require(quizzes[_quizId].isRunning == true, \"Quiz has not started yet\");\r\n        require(\r\n            quizzes[_quizId].startTime + quizzes[_quizId].duration >=\r\n                block.timestamp,\r\n            \"Quiz has ended\"\r\n        );\r\n        require(\r\n            isSubmited[_quizId][msg.sender] == false,\r\n            \"You have already submitted the answers\"\r\n        );\r\n\r\n        for (uint256 i = 0; i < _answers.length; i++) {\r\n            require(_answers[i] < noOfOptions, \"Answer is out of range\");\r\n            require(_answers[i] != 0, \"Answer cannot be empty\");\r\n        }\r\n\r\n        isSubmited[_quizId][msg.sender] = true;\r\n        submittedAnswers[_quizId].push(\r\n            Answers(_answers, block.timestamp, msg.sender)\r\n        );\r\n    }\r\n}\r\n",
  "sourcePath": "/app/contracts/QuizContract.sol",
  "compiler": {
    "name": "solc",
    "version": "0.8.10+commit.fc410830.Emscripten.clang"
  },
  "schemaVersion": "3.4.4",
  "updatedAt": "2022-01-11T08:05:12.965Z",
  "devdoc": {
    "kind": "dev",
    "methods": {},
    "version": 1
  },
  "userdoc": {
    "kind": "user",
    "methods": {},
    "version": 1
  }
}