{
  "contractName": "QuizContract",
  "abi": [
    {
      "inputs": [],
      "stateMutability": "nonpayable",
      "type": "constructor"
    },
    {
      "anonymous": false,
      "inputs": [
        {
          "indexed": false,
          "internalType": "uint256",
          "name": "quizId",
          "type": "uint256"
        },
        {
          "components": [
            {
              "internalType": "uint256",
              "name": "quizId",
              "type": "uint256"
            },
            {
              "internalType": "string",
              "name": "quizName",
              "type": "string"
            },
            {
              "internalType": "string",
              "name": "description",
              "type": "string"
            },
            {
              "internalType": "address",
              "name": "quizOwner",
              "type": "address"
            },
            {
              "internalType": "uint256",
              "name": "prizeMoney",
              "type": "uint256"
            },
            {
              "internalType": "uint256",
              "name": "startTime",
              "type": "uint256"
            },
            {
              "internalType": "uint256",
              "name": "duration",
              "type": "uint256"
            },
            {
              "internalType": "bytes32",
              "name": "questionHash",
              "type": "bytes32"
            },
            {
              "internalType": "bytes32",
              "name": "answerHash",
              "type": "bytes32"
            },
            {
              "internalType": "bool",
              "name": "isRunning",
              "type": "bool"
            }
          ],
          "indexed": false,
          "internalType": "struct QuizContract.Quiz",
          "name": "quiz",
          "type": "tuple"
        },
        {
          "indexed": false,
          "internalType": "address[]",
          "name": "winners",
          "type": "address[]"
        },
        {
          "indexed": false,
          "internalType": "uint8[1]",
          "name": "answers",
          "type": "uint8[1]"
        }
      ],
      "name": "QuizCompleted",
      "type": "event"
    },
    {
      "anonymous": false,
      "inputs": [
        {
          "indexed": false,
          "internalType": "uint256",
          "name": "quizId",
          "type": "uint256"
        },
        {
          "components": [
            {
              "internalType": "uint256",
              "name": "quizId",
              "type": "uint256"
            },
            {
              "internalType": "string",
              "name": "quizName",
              "type": "string"
            },
            {
              "internalType": "string",
              "name": "description",
              "type": "string"
            },
            {
              "internalType": "address",
              "name": "quizOwner",
              "type": "address"
            },
            {
              "internalType": "uint256",
              "name": "prizeMoney",
              "type": "uint256"
            },
            {
              "internalType": "uint256",
              "name": "startTime",
              "type": "uint256"
            },
            {
              "internalType": "uint256",
              "name": "duration",
              "type": "uint256"
            },
            {
              "internalType": "bytes32",
              "name": "questionHash",
              "type": "bytes32"
            },
            {
              "internalType": "bytes32",
              "name": "answerHash",
              "type": "bytes32"
            },
            {
              "internalType": "bool",
              "name": "isRunning",
              "type": "bool"
            }
          ],
          "indexed": false,
          "internalType": "struct QuizContract.Quiz",
          "name": "quiz",
          "type": "tuple"
        }
      ],
      "name": "QuizCreated",
      "type": "event"
    },
    {
      "anonymous": false,
      "inputs": [
        {
          "indexed": false,
          "internalType": "uint256",
          "name": "quizId",
          "type": "uint256"
        },
        {
          "indexed": false,
          "internalType": "string[1]",
          "name": "questions",
          "type": "string[1]"
        },
        {
          "indexed": false,
          "internalType": "string[1][1]",
          "name": "options",
          "type": "string[1][1]"
        }
      ],
      "name": "QuizStarted",
      "type": "event"
    },
    {
      "anonymous": false,
      "inputs": [
        {
          "indexed": false,
          "internalType": "uint256",
          "name": "quizId",
          "type": "uint256"
        },
        {
          "components": [
            {
              "internalType": "uint256",
              "name": "quizId",
              "type": "uint256"
            },
            {
              "internalType": "string",
              "name": "quizName",
              "type": "string"
            },
            {
              "internalType": "string",
              "name": "description",
              "type": "string"
            },
            {
              "internalType": "address",
              "name": "quizOwner",
              "type": "address"
            },
            {
              "internalType": "uint256",
              "name": "prizeMoney",
              "type": "uint256"
            },
            {
              "internalType": "uint256",
              "name": "startTime",
              "type": "uint256"
            },
            {
              "internalType": "uint256",
              "name": "duration",
              "type": "uint256"
            },
            {
              "internalType": "bytes32",
              "name": "questionHash",
              "type": "bytes32"
            },
            {
              "internalType": "bytes32",
              "name": "answerHash",
              "type": "bytes32"
            },
            {
              "internalType": "bool",
              "name": "isRunning",
              "type": "bool"
            }
          ],
          "indexed": false,
          "internalType": "struct QuizContract.Quiz",
          "name": "quiz",
          "type": "tuple"
        }
      ],
      "name": "QuizUpdated",
      "type": "event"
    },
    {
      "inputs": [
        {
          "internalType": "uint256",
          "name": "",
          "type": "uint256"
        },
        {
          "internalType": "address",
          "name": "",
          "type": "address"
        }
      ],
      "name": "isSubmited",
      "outputs": [
        {
          "internalType": "bool",
          "name": "",
          "type": "bool"
        }
      ],
      "stateMutability": "view",
      "type": "function",
      "constant": true
    },
    {
      "inputs": [
        {
          "internalType": "uint256",
          "name": "",
          "type": "uint256"
        }
      ],
      "name": "quizzes",
      "outputs": [
        {
          "internalType": "uint256",
          "name": "quizId",
          "type": "uint256"
        },
        {
          "internalType": "string",
          "name": "quizName",
          "type": "string"
        },
        {
          "internalType": "string",
          "name": "description",
          "type": "string"
        },
        {
          "internalType": "address",
          "name": "quizOwner",
          "type": "address"
        },
        {
          "internalType": "uint256",
          "name": "prizeMoney",
          "type": "uint256"
        },
        {
          "internalType": "uint256",
          "name": "startTime",
          "type": "uint256"
        },
        {
          "internalType": "uint256",
          "name": "duration",
          "type": "uint256"
        },
        {
          "internalType": "bytes32",
          "name": "questionHash",
          "type": "bytes32"
        },
        {
          "internalType": "bytes32",
          "name": "answerHash",
          "type": "bytes32"
        },
        {
          "internalType": "bool",
          "name": "isRunning",
          "type": "bool"
        }
      ],
      "stateMutability": "view",
      "type": "function",
      "constant": true
    },
    {
      "inputs": [
        {
          "internalType": "uint256",
          "name": "",
          "type": "uint256"
        },
        {
          "internalType": "uint256",
          "name": "",
          "type": "uint256"
        }
      ],
      "name": "submittedAnswers",
      "outputs": [
        {
          "internalType": "uint256",
          "name": "submissionTime",
          "type": "uint256"
        },
        {
          "internalType": "address",
          "name": "submissionAddress",
          "type": "address"
        }
      ],
      "stateMutability": "view",
      "type": "function",
      "constant": true
    },
    {
      "inputs": [],
      "name": "getPendingQuizzes",
      "outputs": [
        {
          "components": [
            {
              "internalType": "uint256",
              "name": "quizId",
              "type": "uint256"
            },
            {
              "internalType": "string",
              "name": "quizName",
              "type": "string"
            },
            {
              "internalType": "string",
              "name": "description",
              "type": "string"
            },
            {
              "internalType": "address",
              "name": "quizOwner",
              "type": "address"
            },
            {
              "internalType": "uint256",
              "name": "prizeMoney",
              "type": "uint256"
            },
            {
              "internalType": "uint256",
              "name": "startTime",
              "type": "uint256"
            },
            {
              "internalType": "uint256",
              "name": "duration",
              "type": "uint256"
            },
            {
              "internalType": "bytes32",
              "name": "questionHash",
              "type": "bytes32"
            },
            {
              "internalType": "bytes32",
              "name": "answerHash",
              "type": "bytes32"
            },
            {
              "internalType": "bool",
              "name": "isRunning",
              "type": "bool"
            }
          ],
          "internalType": "struct QuizContract.Quiz[]",
          "name": "pendingQuizzes",
          "type": "tuple[]"
        }
      ],
      "stateMutability": "view",
      "type": "function",
      "constant": true
    },
    {
      "inputs": [
        {
          "internalType": "address",
          "name": "user",
          "type": "address"
        }
      ],
      "name": "getQuizzesBy",
      "outputs": [
        {
          "components": [
            {
              "internalType": "uint256",
              "name": "quizId",
              "type": "uint256"
            },
            {
              "internalType": "string",
              "name": "quizName",
              "type": "string"
            },
            {
              "internalType": "string",
              "name": "description",
              "type": "string"
            },
            {
              "internalType": "address",
              "name": "quizOwner",
              "type": "address"
            },
            {
              "internalType": "uint256",
              "name": "prizeMoney",
              "type": "uint256"
            },
            {
              "internalType": "uint256",
              "name": "startTime",
              "type": "uint256"
            },
            {
              "internalType": "uint256",
              "name": "duration",
              "type": "uint256"
            },
            {
              "internalType": "bytes32",
              "name": "questionHash",
              "type": "bytes32"
            },
            {
              "internalType": "bytes32",
              "name": "answerHash",
              "type": "bytes32"
            },
            {
              "internalType": "bool",
              "name": "isRunning",
              "type": "bool"
            }
          ],
          "internalType": "struct QuizContract.Quiz[]",
          "name": "quizzesByUser",
          "type": "tuple[]"
        }
      ],
      "stateMutability": "view",
      "type": "function",
      "constant": true
    },
    {
      "inputs": [
        {
          "internalType": "string",
          "name": "quizName",
          "type": "string"
        },
        {
          "internalType": "string",
          "name": "description",
          "type": "string"
        },
        {
          "internalType": "uint256",
          "name": "prizeMoney",
          "type": "uint256"
        },
        {
          "internalType": "uint256",
          "name": "startTime",
          "type": "uint256"
        },
        {
          "internalType": "uint256",
          "name": "duration",
          "type": "uint256"
        },
        {
          "internalType": "bytes32",
          "name": "questionHash",
          "type": "bytes32"
        },
        {
          "internalType": "bytes32",
          "name": "answerHash",
          "type": "bytes32"
        }
      ],
      "name": "createQuiz",
      "outputs": [
        {
          "internalType": "uint256",
          "name": "",
          "type": "uint256"
        }
      ],
      "stateMutability": "payable",
      "type": "function",
      "payable": true
    },
    {
      "inputs": [
        {
          "internalType": "uint256",
          "name": "_quizId",
          "type": "uint256"
        },
        {
          "internalType": "string",
          "name": "_description",
          "type": "string"
        },
        {
          "internalType": "address",
          "name": "_quizOwner",
          "type": "address"
        },
        {
          "internalType": "bytes32",
          "name": "_questionHash",
          "type": "bytes32"
        },
        {
          "internalType": "bytes32",
          "name": "_answerHash",
          "type": "bytes32"
        }
      ],
      "name": "updateQuiz",
      "outputs": [],
      "stateMutability": "nonpayable",
      "type": "function"
    },
    {
      "inputs": [
        {
          "internalType": "uint256",
          "name": "_quizId",
          "type": "uint256"
        },
        {
          "internalType": "string[1]",
          "name": "_questions",
          "type": "string[1]"
        },
        {
          "internalType": "string[1][1]",
          "name": "_options",
          "type": "string[1][1]"
        },
        {
          "internalType": "bytes32",
          "name": "_hashSalt",
          "type": "bytes32"
        }
      ],
      "name": "submitQuestions",
      "outputs": [],
      "stateMutability": "nonpayable",
      "type": "function"
    },
    {
      "inputs": [
        {
          "internalType": "uint256",
          "name": "_quizId",
          "type": "uint256"
        },
        {
          "internalType": "uint8[1]",
          "name": "_quizAnswers",
          "type": "uint8[1]"
        },
        {
          "internalType": "bytes32",
          "name": "_hashSalt",
          "type": "bytes32"
        }
      ],
      "name": "submitCorrectAnswers",
      "outputs": [],
      "stateMutability": "nonpayable",
      "type": "function"
    },
    {
      "inputs": [
        {
          "internalType": "uint256",
          "name": "_quizId",
          "type": "uint256"
        },
        {
          "internalType": "uint8[1]",
          "name": "_answers",
          "type": "uint8[1]"
        }
      ],
      "name": "submitPlayerAnswer",
      "outputs": [],
      "stateMutability": "nonpayable",
      "type": "function"
    }
  ],
  "bytecode": "0x608060405234801561001057600080fd5b50336000806101000a81548173ffffffffffffffffffffffffffffffffffffffff021916908373ffffffffffffffffffffffffffffffffffffffff160217905550615402806100606000396000f3fe6080604052600436106100915760003560e01c80637de75686116100595780637de756861461019457806388409afa146101bd578063b6c3c9b914610203578063cf1da55c1461022c578063f6de0db31461026a57610091565b80630caf673a1461009657806317079261146100bf5780632e730952146100ea5780632fbddbb2146101275780635d9c61c214610157575b600080fd5b3480156100a257600080fd5b506100bd60048036038101906100b89190612673565b610293565b005b3480156100cb57600080fd5b506100d4610a8c565b6040516100e1919061297c565b60405180910390f35b3480156100f657600080fd5b50610111600480360381019061010c91906129ca565b610e90565b60405161011e9190612a19565b60405180910390f35b610141600480360381019061013c9190612a94565b610ebf565b60405161014e9190612b85565b60405180910390f35b34801561016357600080fd5b5061017e60048036038101906101799190612ba0565b611283565b60405161018b919061297c565b60405180910390f35b3480156101a057600080fd5b506101bb60048036038101906101b69190612bcd565b611657565b005b3480156101c957600080fd5b506101e460048036038101906101df9190612c67565b6118c0565b6040516101fa9a99989796959493929190612cfc565b60405180910390f35b34801561020f57600080fd5b5061022a60048036038101906102259190612da6565b611a61565b005b34801561023857600080fd5b50610253600480360381019061024e9190612de6565b611e8c565b604051610261929190612e26565b60405180910390f35b34801561027657600080fd5b50610291600480360381019061028c9190612e93565b611eed565b005b8260008054906101000a900473ffffffffffffffffffffffffffffffffffffffff1673ffffffffffffffffffffffffffffffffffffffff163373ffffffffffffffffffffffffffffffffffffffff16148061035e5750600181815481106102fd576102fc612f32565b5b90600052602060002090600a020160030160009054906101000a900473ffffffffffffffffffffffffffffffffffffffff1673ffffffffffffffffffffffffffffffffffffffff163373ffffffffffffffffffffffffffffffffffffffff16145b61039d576040517f08c379a000000000000000000000000000000000000000000000000000000000815260040161039490612fd3565b60405180910390fd5b60018054905084106103e4576040517f08c379a00000000000000000000000000000000000000000000000000000000081526004016103db9061303f565b60405180910390fd5b60011515600185815481106103fc576103fb612f32565b5b90600052602060002090600a020160090160009054906101000a900460ff1615151461045d576040517f08c379a0000000000000000000000000000000000000000000000000000000008152600401610454906130ab565b60405180910390fd5b6001848154811061047157610470612f32565b5b90600052602060002090600a0201600601546001858154811061049757610496612f32565b5b90600052602060002090600a0201600501546104b391906130fa565b42116104f4576040517f08c379a00000000000000000000000000000000000000000000000000000000081526004016104eb906131c2565b60405180910390fd5b6001848154811061050857610507612f32565b5b90600052602060002090600a02016008015461052484846122e0565b14610564576040517f08c379a000000000000000000000000000000000000000000000000000000000815260040161055b9061322e565b60405180910390fd5b6000805b60026000878152602001908152602001600020805490508110156105ec576105c56002600088815260200190815260200160002082815481106105ae576105ad612f32565b5b906000526020600020906003020160000186612313565b156105d95781806105d59061324e565b9250505b80806105e49061324e565b915050610568565b5060008167ffffffffffffffff81111561060957610608613297565b5b6040519080825280602002602001820160405280156106375781602001602082028036833780820191505090505b5090506000821415610759576001868154811061065757610656612f32565b5b90600052602060002090600a020160030160009054906101000a900473ffffffffffffffffffffffffffffffffffffffff1673ffffffffffffffffffffffffffffffffffffffff166108fc600188815481106106b6576106b5612f32565b5b90600052602060002090600a0201600401549081150290604051600060405180830381858888f193505050501580156106f3573d6000803e3d6000fd5b507f53fb16f62e54f4596c7684a225d64c2ba05e4ed0ecc04634c3ac2c562086c561866001888154811061072a57610729612f32565b5b90600052602060002090600a0201838860405161074a949392919061375b565b60405180910390a15050610a86565b600082600188815481106107705761076f612f32565b5b90600052602060002090600a02016004015461078c91906137dd565b90506000838261079c919061380e565b600189815481106107b0576107af612f32565b5b90600052602060002090600a0201600401546107cc9190613868565b90506000805b600260008b8152602001908152602001600020805490508110156109955761082f600260008c8152602001908152602001600020828154811061081857610817612f32565b5b90600052602060002090600302016000018a612313565b1561098257600260008b8152602001908152602001600020818154811061085957610858612f32565b5b906000526020600020906003020160020160009054906101000a900473ffffffffffffffffffffffffffffffffffffffff168583806108979061324e565b9450815181106108aa576108a9612f32565b5b602002602001019073ffffffffffffffffffffffffffffffffffffffff16908173ffffffffffffffffffffffffffffffffffffffff1681525050600260008b8152602001908152602001600020818154811061090957610908612f32565b5b906000526020600020906003020160020160009054906101000a900473ffffffffffffffffffffffffffffffffffffffff1673ffffffffffffffffffffffffffffffffffffffff166108fc859081150290604051600060405180830381858888f19350505050158015610980573d6000803e3d6000fd5b505b808061098d9061324e565b9150506107d2565b50600189815481106109aa576109a9612f32565b5b90600052602060002090600a020160030160009054906101000a900473ffffffffffffffffffffffffffffffffffffffff1673ffffffffffffffffffffffffffffffffffffffff166108fc839081150290604051600060405180830381858888f19350505050158015610a21573d6000803e3d6000fd5b507f53fb16f62e54f4596c7684a225d64c2ba05e4ed0ecc04634c3ac2c562086c5618960018b81548110610a5857610a57612f32565b5b90600052602060002090600a0201868b604051610a78949392919061375b565b60405180910390a150505050505b50505050565b606060004290506000805b600180549050811015610b55578260018281548110610ab957610ab8612f32565b5b90600052602060002090600a02016005015411158015610b2e57508260018281548110610ae957610ae8612f32565b5b90600052602060002090600a02016006015460018381548110610b0f57610b0e612f32565b5b90600052602060002090600a020160050154610b2b91906130fa565b10155b15610b42578180610b3e9061324e565b9250505b8080610b4d9061324e565b915050610a97565b508067ffffffffffffffff811115610b7057610b6f613297565b5b604051908082528060200260200182016040528015610ba957816020015b610b966123a2565b815260200190600190039081610b8e5790505b5092506000805b600180549050811015610e89578360018281548110610bd257610bd1612f32565b5b90600052602060002090600a02016005015411158015610c4757508360018281548110610c0257610c01612f32565b5b90600052602060002090600a02016006015460018381548110610c2857610c27612f32565b5b90600052602060002090600a020160050154610c4491906130fa565b10155b15610e765760018181548110610c6057610c5f612f32565b5b90600052602060002090600a02016040518061014001604052908160008201548152602001600182018054610c9490613326565b80601f0160208091040260200160405190810160405280929190818152602001828054610cc090613326565b8015610d0d5780601f10610ce257610100808354040283529160200191610d0d565b820191906000526020600020905b815481529060010190602001808311610cf057829003601f168201915b50505050508152602001600282018054610d2690613326565b80601f0160208091040260200160405190810160405280929190818152602001828054610d5290613326565b8015610d9f5780601f10610d7457610100808354040283529160200191610d9f565b820191906000526020600020905b815481529060010190602001808311610d8257829003601f168201915b505050505081526020016003820160009054906101000a900473ffffffffffffffffffffffffffffffffffffffff1673ffffffffffffffffffffffffffffffffffffffff1673ffffffffffffffffffffffffffffffffffffffff16815260200160048201548152602001600582015481526020016006820154815260200160078201548152602001600882015481526020016009820160009054906101000a900460ff161515151581525050858380610e579061324e565b945081518110610e6a57610e69612f32565b5b60200260200101819052505b8080610e819061324e565b915050610bb0565b5050505090565b60036020528160005260406000206020528060005260406000206000915091509054906101000a900460ff1681565b6000428511610f03576040517f08c379a0000000000000000000000000000000000000000000000000000000008152600401610efa9061390e565b60405180910390fd5b848486610f1091906130fa565b11610f50576040517f08c379a0000000000000000000000000000000000000000000000000000000008152600401610f47906139a0565b60405180910390fd5b60008a8a90501415610f97576040517f08c379a0000000000000000000000000000000000000000000000000000000008152600401610f8e90613a0c565b60405180910390fd5b60008611610fda576040517f08c379a0000000000000000000000000000000000000000000000000000000008152600401610fd190613a78565b60405180910390fd5b34861461101c576040517f08c379a000000000000000000000000000000000000000000000000000000000815260040161101390613b0a565b60405180910390fd5b600060405180610140016040528060018054905081526020018c8c8080601f016020809104026020016040519081016040528093929190818152602001838380828437600081840152601f19601f8201169050808301925050505050505081526020018a8a8080601f016020809104026020016040519081016040528093929190818152602001838380828437600081840152601f19601f8201169050808301925050505050505081526020013373ffffffffffffffffffffffffffffffffffffffff16815260200188815260200187815260200186815260200185815260200184815260200160001515815250905060018190806001815401808255809150506001900390600052602060002090600a020160009091909190915060008201518160000155602082015181600101908051906020019061115e929190612413565b50604082015181600201908051906020019061117b929190612413565b5060608201518160030160006101000a81548173ffffffffffffffffffffffffffffffffffffffff021916908373ffffffffffffffffffffffffffffffffffffffff1602179055506080820151816004015560a0820151816005015560c0820151816006015560e0820151816007015561010082015181600801556101208201518160090160006101000a81548160ff02191690831515021790555050507ffd8ebe1156c53cd42cc839c579227faeaba4fe87e6df3c95f6c2cbc5c60eafca6001808054905061124b9190613868565b8260405161125a929190613c0b565b60405180910390a1600180805490506112739190613868565b9150509998505050505050505050565b60606000805b600180549050811015611331578373ffffffffffffffffffffffffffffffffffffffff16600182815481106112c1576112c0612f32565b5b90600052602060002090600a020160030160009054906101000a900473ffffffffffffffffffffffffffffffffffffffff1673ffffffffffffffffffffffffffffffffffffffff16141561131e57818061131a9061324e565b9250505b80806113299061324e565b915050611289565b508067ffffffffffffffff81111561134c5761134b613297565b5b60405190808252806020026020018201604052801561138557816020015b6113726123a2565b81526020019060019003908161136a5790505b5091506000805b60018054905081101561164f578473ffffffffffffffffffffffffffffffffffffffff16600182815481106113c4576113c3612f32565b5b90600052602060002090600a020160030160009054906101000a900473ffffffffffffffffffffffffffffffffffffffff1673ffffffffffffffffffffffffffffffffffffffff16141561163c576001818154811061142657611425612f32565b5b90600052602060002090600a0201604051806101400160405290816000820154815260200160018201805461145a90613326565b80601f016020809104026020016040519081016040528092919081815260200182805461148690613326565b80156114d35780601f106114a8576101008083540402835291602001916114d3565b820191906000526020600020905b8154815290600101906020018083116114b657829003601f168201915b505050505081526020016002820180546114ec90613326565b80601f016020809104026020016040519081016040528092919081815260200182805461151890613326565b80156115655780601f1061153a57610100808354040283529160200191611565565b820191906000526020600020905b81548152906001019060200180831161154857829003601f168201915b505050505081526020016003820160009054906101000a900473ffffffffffffffffffffffffffffffffffffffff1673ffffffffffffffffffffffffffffffffffffffff1673ffffffffffffffffffffffffffffffffffffffff16815260200160048201548152602001600582015481526020016006820154815260200160078201548152602001600882015481526020016009820160009054906101000a900460ff16151515158152505084838061161d9061324e565b9450815181106116305761162f612f32565b5b60200260200101819052505b80806116479061324e565b91505061138c565b505050919050565b856001805490501161169e576040517f08c379a000000000000000000000000000000000000000000000000000000000815260040161169590613c87565b60405180910390fd5b3373ffffffffffffffffffffffffffffffffffffffff16600187815481106116c9576116c8612f32565b5b90600052602060002090600a020160030160009054906101000a900473ffffffffffffffffffffffffffffffffffffffff1673ffffffffffffffffffffffffffffffffffffffff1614611751576040517f08c379a000000000000000000000000000000000000000000000000000000000815260040161174890613d19565b60405180910390fd5b426001878154811061176657611765612f32565b5b90600052602060002090600a020160050154116117b8576040517f08c379a00000000000000000000000000000000000000000000000000000000081526004016117af90613dab565b60405180910390fd5b600073ffffffffffffffffffffffffffffffffffffffff168373ffffffffffffffffffffffffffffffffffffffff161415611828576040517f08c379a000000000000000000000000000000000000000000000000000000000815260040161181f90613e17565b60405180910390fd5b60006001878154811061183e5761183d612f32565b5b90600052602060002090600a020190508585826002019190611861929190612499565b50838160030160006101000a81548173ffffffffffffffffffffffffffffffffffffffff021916908373ffffffffffffffffffffffffffffffffffffffff16021790555082816007018190555081816008018190555050505050505050565b600181815481106118d057600080fd5b90600052602060002090600a02016000915090508060000154908060010180546118f990613326565b80601f016020809104026020016040519081016040528092919081815260200182805461192590613326565b80156119725780601f1061194757610100808354040283529160200191611972565b820191906000526020600020905b81548152906001019060200180831161195557829003601f168201915b50505050509080600201805461198790613326565b80601f01602080910402602001604051908101604052809291908181526020018280546119b390613326565b8015611a005780601f106119d557610100808354040283529160200191611a00565b820191906000526020600020905b8154815290600101906020018083116119e357829003601f168201915b5050505050908060030160009054906101000a900473ffffffffffffffffffffffffffffffffffffffff16908060040154908060050154908060060154908060070154908060080154908060090160009054906101000a900460ff1690508a565b6001151560018381548110611a7957611a78612f32565b5b90600052602060002090600a020160090160009054906101000a900460ff16151514611ada576040517f08c379a0000000000000000000000000000000000000000000000000000000008152600401611ad190613e83565b60405180910390fd5b4260018381548110611aef57611aee612f32565b5b90600052602060002090600a02016006015460018481548110611b1557611b14612f32565b5b90600052602060002090600a020160050154611b3191906130fa565b1015611b72576040517f08c379a0000000000000000000000000000000000000000000000000000000008152600401611b6990613eef565b60405180910390fd5b600015156003600084815260200190815260200160002060003373ffffffffffffffffffffffffffffffffffffffff1673ffffffffffffffffffffffffffffffffffffffff16815260200190815260200160002060009054906101000a900460ff16151514611c16576040517f08c379a0000000000000000000000000000000000000000000000000000000008152600401611c0d90613f81565b60405180910390fd5b60005b6001811015611d0f57600160ff16828260018110611c3a57611c39612f32565b5b602002016020810190611c4d9190613fa1565b60ff1610611c90576040517f08c379a0000000000000000000000000000000000000000000000000000000008152600401611c879061401a565b60405180910390fd5b6000828260018110611ca557611ca4612f32565b5b602002016020810190611cb89190613fa1565b60ff161415611cfc576040517f08c379a0000000000000000000000000000000000000000000000000000000008152600401611cf390614086565b60405180910390fd5b8080611d079061324e565b915050611c19565b5060016003600084815260200190815260200160002060003373ffffffffffffffffffffffffffffffffffffffff1673ffffffffffffffffffffffffffffffffffffffff16815260200190815260200160002060006101000a81548160ff021916908315150217905550600260008381526020019081526020016000206040518060600160405280836001806020026040519081016040528092919082600160200280828437600081840152601f19601f82011690508083019250505050505081526020014281526020013373ffffffffffffffffffffffffffffffffffffffff168152509080600181540180825580915050600190039060005260206000209060030201600090919091909150600082015181600001906001611e3492919061251f565b506020820151816001015560408201518160020160006101000a81548173ffffffffffffffffffffffffffffffffffffffff021916908373ffffffffffffffffffffffffffffffffffffffff16021790555050505050565b60026020528160005260406000208181548110611ea857600080fd5b9060005260206000209060030201600091509150508060010154908060020160009054906101000a900473ffffffffffffffffffffffffffffffffffffffff16905082565b8360008054906101000a900473ffffffffffffffffffffffffffffffffffffffff1673ffffffffffffffffffffffffffffffffffffffff163373ffffffffffffffffffffffffffffffffffffffff161480611fb8575060018181548110611f5757611f56612f32565b5b90600052602060002090600a020160030160009054906101000a900473ffffffffffffffffffffffffffffffffffffffff1673ffffffffffffffffffffffffffffffffffffffff163373ffffffffffffffffffffffffffffffffffffffff16145b611ff7576040517f08c379a0000000000000000000000000000000000000000000000000000000008152600401611fee90612fd3565b60405180910390fd5b600015156001868154811061200f5761200e612f32565b5b90600052602060002090600a020160090160009054906101000a900460ff16151514612070576040517f08c379a0000000000000000000000000000000000000000000000000000000008152600401612067906140f2565b60405180910390fd5b60005b60018110156121c557600085826001811061209157612090612f32565b5b6020028101906120a19190614121565b905014156120e4576040517f08c379a00000000000000000000000000000000000000000000000000000000081526004016120db906141d0565b60405180910390fd5b60005b8482600181106120fa576120f9612f32565b5b60200281019061210a91906141f0565b5060018110156121b157600085836001811061212957612128612f32565b5b60200281019061213991906141f0565b826001811061214b5761214a612f32565b5b60200281019061215b9190614121565b9050141561219e576040517f08c379a000000000000000000000000000000000000000000000000000000000815260040161219590614264565b60405180910390fd5b80806121a99061324e565b9150506120e7565b5080806121bd9061324e565b915050612073565b50600185815481106121da576121d9612f32565b5b90600052602060002090600a0201600701546121f785858561236c565b14612237576040517f08c379a000000000000000000000000000000000000000000000000000000000815260040161222e906142d0565b60405180910390fd5b426001868154811061224c5761224b612f32565b5b90600052602060002090600a020160050181905550600180868154811061227657612275612f32565b5b90600052602060002090600a020160090160006101000a81548160ff0219169083151502179055507f96f7782b6a8eb879d55058563bcf50ca1b5eb1bf224da434eff2c67811e31c078585856040516122d1939291906145d0565b60405180910390a15050505050565b600082826040516020016122f5929190614615565b60405160208183030381529060405280519060200120905092915050565b600081604051602001612326919061463e565b604051602081830303815290604052805190602001208360405160200161234d919061536c565b6040516020818303038152906040528051906020012014905092915050565b600083838360405160200161238393929190615387565b6040516020818303038152906040528051906020012090509392505050565b604051806101400160405280600081526020016060815260200160608152602001600073ffffffffffffffffffffffffffffffffffffffff16815260200160008152602001600081526020016000815260200160008019168152602001600080191681526020016000151581525090565b82805461241f90613326565b90600052602060002090601f0160209004810192826124415760008555612488565b82601f1061245a57805160ff1916838001178555612488565b82800160010185558215612488579182015b8281111561248757825182559160200191906001019061246c565b5b50905061249591906125b9565b5090565b8280546124a590613326565b90600052602060002090601f0160209004810192826124c7576000855561250e565b82601f106124e057803560ff191683800117855561250e565b8280016001018555821561250e579182015b8281111561250d5782358255916020019190600101906124f2565b5b50905061251b91906125b9565b5090565b826001601f016020900481019282156125a85791602002820160005b8382111561257957835183826101000a81548160ff021916908360ff160217905550926020019260010160208160000104928301926001030261253b565b80156125a65782816101000a81549060ff0219169055600101602081600001049283019260010302612579565b505b5090506125b591906125b9565b5090565b5b808211156125d25760008160009055506001016125ba565b5090565b600080fd5b600080fd5b6000819050919050565b6125f3816125e0565b81146125fe57600080fd5b50565b600081359050612610816125ea565b92915050565b600080fd5b60008190508260206001028201111561263757612636612616565b5b92915050565b6000819050919050565b6126508161263d565b811461265b57600080fd5b50565b60008135905061266d81612647565b92915050565b60008060006060848603121561268c5761268b6125d6565b5b600061269a86828701612601565b93505060206126ab8682870161261b565b92505060406126bc8682870161265e565b9150509250925092565b600081519050919050565b600082825260208201905092915050565b6000819050602082019050919050565b6126fb816125e0565b82525050565b600081519050919050565b600082825260208201905092915050565b60005b8381101561273b578082015181840152602081019050612720565b8381111561274a576000848401525b50505050565b6000601f19601f8301169050919050565b600061276c82612701565b612776818561270c565b935061278681856020860161271d565b61278f81612750565b840191505092915050565b600073ffffffffffffffffffffffffffffffffffffffff82169050919050565b60006127c58261279a565b9050919050565b6127d5816127ba565b82525050565b6127e48161263d565b82525050565b60008115159050919050565b6127ff816127ea565b82525050565b60006101408301600083015161281e60008601826126f2565b50602083015184820360208601526128368282612761565b915050604083015184820360408601526128508282612761565b915050606083015161286560608601826127cc565b50608083015161287860808601826126f2565b5060a083015161288b60a08601826126f2565b5060c083015161289e60c08601826126f2565b5060e08301516128b160e08601826127db565b506101008301516128c66101008601826127db565b506101208301516128db6101208601826127f6565b508091505092915050565b60006128f28383612805565b905092915050565b6000602082019050919050565b6000612912826126c6565b61291c81856126d1565b93508360208202850161292e856126e2565b8060005b8581101561296a578484038952815161294b85826128e6565b9450612956836128fa565b925060208a01995050600181019050612932565b50829750879550505050505092915050565b600060208201905081810360008301526129968184612907565b905092915050565b6129a7816127ba565b81146129b257600080fd5b50565b6000813590506129c48161299e565b92915050565b600080604083850312156129e1576129e06125d6565b5b60006129ef85828601612601565b9250506020612a00858286016129b5565b9150509250929050565b612a13816127ea565b82525050565b6000602082019050612a2e6000830184612a0a565b92915050565b600080fd5b600080fd5b60008083601f840112612a5457612a53612a34565b5b8235905067ffffffffffffffff811115612a7157612a70612a39565b5b602083019150836001820283011115612a8d57612a8c612616565b5b9250929050565b600080600080600080600080600060e08a8c031215612ab657612ab56125d6565b5b60008a013567ffffffffffffffff811115612ad457612ad36125db565b5b612ae08c828d01612a3e565b995099505060208a013567ffffffffffffffff811115612b0357612b026125db565b5b612b0f8c828d01612a3e565b97509750506040612b228c828d01612601565b9550506060612b338c828d01612601565b9450506080612b448c828d01612601565b93505060a0612b558c828d0161265e565b92505060c0612b668c828d0161265e565b9150509295985092959850929598565b612b7f816125e0565b82525050565b6000602082019050612b9a6000830184612b76565b92915050565b600060208284031215612bb657612bb56125d6565b5b6000612bc4848285016129b5565b91505092915050565b60008060008060008060a08789031215612bea57612be96125d6565b5b6000612bf889828a01612601565b965050602087013567ffffffffffffffff811115612c1957612c186125db565b5b612c2589828a01612a3e565b95509550506040612c3889828a016129b5565b9350506060612c4989828a0161265e565b9250506080612c5a89828a0161265e565b9150509295509295509295565b600060208284031215612c7d57612c7c6125d6565b5b6000612c8b84828501612601565b91505092915050565b600082825260208201905092915050565b6000612cb082612701565b612cba8185612c94565b9350612cca81856020860161271d565b612cd381612750565b840191505092915050565b612ce7816127ba565b82525050565b612cf68161263d565b82525050565b600061014082019050612d12600083018d612b76565b8181036020830152612d24818c612ca5565b90508181036040830152612d38818b612ca5565b9050612d47606083018a612cde565b612d546080830189612b76565b612d6160a0830188612b76565b612d6e60c0830187612b76565b612d7b60e0830186612ced565b612d89610100830185612ced565b612d97610120830184612a0a565b9b9a5050505050505050505050565b60008060408385031215612dbd57612dbc6125d6565b5b6000612dcb85828601612601565b9250506020612ddc8582860161261b565b9150509250929050565b60008060408385031215612dfd57612dfc6125d6565b5b6000612e0b85828601612601565b9250506020612e1c85828601612601565b9150509250929050565b6000604082019050612e3b6000830185612b76565b612e486020830184612cde565b9392505050565b600081905082602060010282011115612e6b57612e6a612616565b5b92915050565b600081905082602060010282011115612e8d57612e8c612616565b5b92915050565b60008060008060808587031215612ead57612eac6125d6565b5b6000612ebb87828801612601565b945050602085013567ffffffffffffffff811115612edc57612edb6125db565b5b612ee887828801612e4f565b935050604085013567ffffffffffffffff811115612f0957612f086125db565b5b612f1587828801612e71565b9250506060612f268782880161265e565b91505092959194509250565b7f4e487b7100000000000000000000000000000000000000000000000000000000600052603260045260246000fd5b7f4f6e6c79206f776e6572206f7220746865207175697a2063726561746f72206360008201527f616e207375626d6974207175657374696f6e7300000000000000000000000000602082015250565b6000612fbd603383612c94565b9150612fc882612f61565b604082019050919050565b60006020820190508181036000830152612fec81612fb0565b9050919050565b7f5175697a20646f6573206e6f7420657869737400000000000000000000000000600082015250565b6000613029601383612c94565b915061303482612ff3565b602082019050919050565b600060208201905081810360008301526130588161301c565b9050919050565b7f5175697a20686173206e6f742073746172746564000000000000000000000000600082015250565b6000613095601483612c94565b91506130a08261305f565b602082019050919050565b600060208201905081810360008301526130c481613088565b9050919050565b7f4e487b7100000000000000000000000000000000000000000000000000000000600052601160045260246000fd5b6000613105826125e0565b9150613110836125e0565b9250827fffffffffffffffffffffffffffffffffffffffffffffffffffffffffffffffff03821115613145576131446130cb565b5b828201905092915050565b7f436f727265637420416e73776572732063616e6e6f74206265207375626d697460008201527f746564206265666f726520656e642074696d6500000000000000000000000000602082015250565b60006131ac603383612c94565b91506131b782613150565b604082019050919050565b600060208201905081810360008301526131db8161319f565b9050919050565b7f436f727265637420616e737765727320617265206e6f742076616c6964000000600082015250565b6000613218601d83612c94565b9150613223826131e2565b602082019050919050565b600060208201905081810360008301526132478161320b565b9050919050565b6000613259826125e0565b91507fffffffffffffffffffffffffffffffffffffffffffffffffffffffffffffffff82141561328c5761328b6130cb565b5b600182019050919050565b7f4e487b7100000000000000000000000000000000000000000000000000000000600052604160045260246000fd5b60008160001c9050919050565b6000819050919050565b60006132f06132eb836132c6565b6132d3565b9050919050565b7f4e487b7100000000000000000000000000000000000000000000000000000000600052602260045260246000fd5b6000600282049050600182168061333e57607f821691505b60208210811415613352576133516132f7565b5b50919050565b60008190508160005260206000209050919050565b6000815461337a81613326565b613384818661270c565b9450600182166000811461339f57600181146133b1576133e4565b60ff19831686526020860193506133e4565b6133ba85613358565b60005b838110156133dc578154818901526001820191506020810190506133bd565b808801955050505b50505092915050565b600073ffffffffffffffffffffffffffffffffffffffff82169050919050565b600061342061341b836132c6565b6133ed565b9050919050565b6000819050919050565b600061344461343f836132c6565b613427565b9050919050565b600060ff82169050919050565b600061346b613466836132c6565b61344b565b9050919050565b60006101408301600080840154905061348a816132dd565b61349760008701826126f2565b506001840185830360208701526134ae838261336d565b9250506002840185830360408701526134c7838261336d565b925050600384015490506134da8161340d565b6134e760608701826127cc565b50600484015490506134f8816132dd565b61350560808701826126f2565b5060058401549050613516816132dd565b61352360a08701826126f2565b5060068401549050613534816132dd565b61354160c08701826126f2565b506007840154905061355281613431565b61355f60e08701826127db565b506008840154905061357081613431565b61357e6101008701826127db565b506009840154905061358f81613458565b61359d6101208701826127f6565b50819250505092915050565b600081519050919050565b600082825260208201905092915050565b6000819050602082019050919050565b60006135e183836127cc565b60208301905092915050565b6000602082019050919050565b6000613605826135a9565b61360f81856135b4565b935061361a836135c5565b8060005b8381101561364b57815161363288826135d5565b975061363d836135ed565b92505060018101905061361e565b5085935050505092915050565b600060019050919050565b600081905092915050565b6000819050919050565b600060ff82169050919050565b61368e81613678565b82525050565b60006136a08383613685565b60208301905092915050565b6136b581613678565b81146136c057600080fd5b50565b6000813590506136d2816136ac565b92915050565b60006136e760208401846136c3565b905092915050565b6000602082019050919050565b61370581613658565b61370f8184613663565b925061371a8261366e565b8060005b838110156137535761373082846136d8565b61373a8782613694565b9650613745836136ef565b92505060018101905061371e565b505050505050565b60006080820190506137706000830187612b76565b81810360208301526137828186613472565b9050818103604083015261379681856135fa565b90506137a560608301846136fc565b95945050505050565b7f4e487b7100000000000000000000000000000000000000000000000000000000600052601260045260246000fd5b60006137e8826125e0565b91506137f3836125e0565b925082613803576138026137ae565b5b828204905092915050565b6000613819826125e0565b9150613824836125e0565b9250817fffffffffffffffffffffffffffffffffffffffffffffffffffffffffffffffff048311821515161561385d5761385c6130cb565b5b828202905092915050565b6000613873826125e0565b915061387e836125e0565b925082821015613891576138906130cb565b5b828203905092915050565b7f5175697a2063616e6e6f74206265206372656174656420696e2074686520706160008201527f7374000000000000000000000000000000000000000000000000000000000000602082015250565b60006138f8602283612c94565b91506139038261389c565b604082019050919050565b60006020820190508181036000830152613927816138eb565b9050919050565b7f5175697a2063616e6e6f742062652063726561746564207769746820656e642060008201527f74696d65206265666f72652073746172742074696d6500000000000000000000602082015250565b600061398a603683612c94565b91506139958261392e565b604082019050919050565b600060208201905081810360008301526139b98161397d565b9050919050565b7f5175697a206e616d652063616e6e6f7420626520656d70747900000000000000600082015250565b60006139f6601983612c94565b9150613a01826139c0565b602082019050919050565b60006020820190508181036000830152613a25816139e9565b9050919050565b7f5072697a65206d6f6e65792063616e6e6f74206265207a65726f000000000000600082015250565b6000613a62601a83612c94565b9150613a6d82613a2c565b602082019050919050565b60006020820190508181036000830152613a9181613a55565b9050919050565b7f5072697a65206d6f6e6579206d757374206d617463682074686520616d6f756e60008201527f742073656e740000000000000000000000000000000000000000000000000000602082015250565b6000613af4602683612c94565b9150613aff82613a98565b604082019050919050565b60006020820190508181036000830152613b2381613ae7565b9050919050565b600061014083016000830151613b4360008601826126f2565b5060208301518482036020860152613b5b8282612761565b91505060408301518482036040860152613b758282612761565b9150506060830151613b8a60608601826127cc565b506080830151613b9d60808601826126f2565b5060a0830151613bb060a08601826126f2565b5060c0830151613bc360c08601826126f2565b5060e0830151613bd660e08601826127db565b50610100830151613beb6101008601826127db565b50610120830151613c006101208601826127f6565b508091505092915050565b6000604082019050613c206000830185612b76565b8181036020830152613c328184613b2a565b90509392505050565b7f5175697a20496420646f6573206e6f7420657869737473000000000000000000600082015250565b6000613c71601783612c94565b9150613c7c82613c3b565b602082019050919050565b60006020820190508181036000830152613ca081613c64565b9050919050565b7f4f6e6c79205175697a204f776e65722063616e2075706461746520746865207160008201527f75697a0000000000000000000000000000000000000000000000000000000000602082015250565b6000613d03602383612c94565b9150613d0e82613ca7565b604082019050919050565b60006020820190508181036000830152613d3281613cf6565b9050919050565b7f5175697a2063616e2062652075706461746564206265666f726520737461727460008201527f206f6620746865207175697a0000000000000000000000000000000000000000602082015250565b6000613d95602c83612c94565b9150613da082613d39565b604082019050919050565b60006020820190508181036000830152613dc481613d88565b9050919050565b7f5175697a206f776e65722063616e6e6f7420626520656d707479000000000000600082015250565b6000613e01601a83612c94565b9150613e0c82613dcb565b602082019050919050565b60006020820190508181036000830152613e3081613df4565b9050919050565b7f5175697a20686173206e6f742073746172746564207965740000000000000000600082015250565b6000613e6d601883612c94565b9150613e7882613e37565b602082019050919050565b60006020820190508181036000830152613e9c81613e60565b9050919050565b7f5175697a2068617320656e646564000000000000000000000000000000000000600082015250565b6000613ed9600e83612c94565b9150613ee482613ea3565b602082019050919050565b60006020820190508181036000830152613f0881613ecc565b9050919050565b7f596f75206861766520616c7265616479207375626d697474656420746865206160008201527f6e73776572730000000000000000000000000000000000000000000000000000602082015250565b6000613f6b602683612c94565b9150613f7682613f0f565b604082019050919050565b60006020820190508181036000830152613f9a81613f5e565b9050919050565b600060208284031215613fb757613fb66125d6565b5b6000613fc5848285016136c3565b91505092915050565b7f416e73776572206973206f7574206f662072616e676500000000000000000000600082015250565b6000614004601683612c94565b915061400f82613fce565b602082019050919050565b6000602082019050818103600083015261403381613ff7565b9050919050565b7f416e737765722063616e6e6f7420626520656d70747900000000000000000000600082015250565b6000614070601683612c94565b915061407b8261403a565b602082019050919050565b6000602082019050818103600083015261409f81614063565b9050919050565b7f5175697a2068617320616c726561647920737461727465640000000000000000600082015250565b60006140dc601883612c94565b91506140e7826140a6565b602082019050919050565b6000602082019050818103600083015261410b816140cf565b9050919050565b600080fd5b600080fd5b600080fd5b6000808335600160200384360303811261413e5761413d614112565b5b80840192508235915067ffffffffffffffff8211156141605761415f614117565b5b60208301925060018202360383131561417c5761417b61411c565b5b509250929050565b7f5175657374696f6e2063616e6e6f7420626520656d7074790000000000000000600082015250565b60006141ba601883612c94565b91506141c582614184565b602082019050919050565b600060208201905081810360008301526141e9816141ad565b9050919050565b60008235600160200383360303811261420c5761420b614112565b5b80830191505092915050565b7f4f7074696f6e2063616e6e6f7420626520656d70747900000000000000000000600082015250565b600061424e601683612c94565b915061425982614218565b602082019050919050565b6000602082019050818103600083015261427d81614241565b9050919050565b7f5175657374696f6e7320617265206e6f742076616c6964000000000000000000600082015250565b60006142ba601783612c94565b91506142c582614284565b602082019050919050565b600060208201905081810360008301526142e9816142ad565b9050919050565b600060019050919050565b600081905092915050565b6000819050919050565b82818337600083830152505050565b600061432b838561270c565b9350614338838584614310565b61434183612750565b840190509392505050565b600061435984848461431f565b90509392505050565b600080fd5b600080fd5b600080fd5b6000808335600160200384360303811261438e5761438d61436c565b5b83810192508235915060208301925067ffffffffffffffff8211156143b6576143b5614362565b5b6001820236038413156143cc576143cb614367565b5b509250929050565b6000602082019050919050565b60006143ec826142f0565b6143f681856142fb565b93508360208202850161440885614306565b8060005b8581101561444e5784840389526144238284614371565b61442e86828461434c565b9550614439846143d4565b935060208b019a50505060018101905061440c565b50829750879550505050505092915050565b600060019050919050565b600081905092915050565b6000819050919050565b600081905092915050565b6000614496826142f0565b6144a08185614480565b9350836020820285016144b285614306565b8060005b858110156144f85784840389526144cd8284614371565b6144d886828461434c565b95506144e3846143d4565b935060208b019a5050506001810190506144b6565b50829750879550505050505092915050565b6000614516838361448b565b905092915050565b60008235600160200383360303811261453a5761453961436c565b5b82810191505092915050565b6000602082019050919050565b600061455e82614460565b614568818561446b565b93508360208202850161457a85614476565b8060005b858110156145be578484038952614595828461451e565b61459f858261450a565b94506145aa83614546565b925060208a0199505060018101905061457e565b50829750879550505050505092915050565b60006060820190506145e56000830186612b76565b81810360208301526145f781856143e1565b9050818103604083015261460b8184614553565b9050949350505050565b600060408201905061462a60008301856136fc565b6146376020830184612ced565b9392505050565b600060208201905061465360008301846136fc565b92915050565b600060019050919050565b6000819050919050565b600060ff82169050919050565b600061468e614689836132c6565b61466e565b9050919050565b60008160081c9050919050565b60006146b56146b083614695565b61466e565b9050919050565b60008160101c9050919050565b60006146dc6146d7836146bc565b61466e565b9050919050565b60008160181c9050919050565b60006147036146fe836146e3565b61466e565b9050919050565b60008160201c9050919050565b600061472a6147258361470a565b61466e565b9050919050565b60008160281c9050919050565b600061475161474c83614731565b61466e565b9050919050565b60008160301c9050919050565b600061477861477383614758565b61466e565b9050919050565b60008160381c9050919050565b600061479f61479a8361477f565b61466e565b9050919050565b60008160401c9050919050565b60006147c66147c1836147a6565b61466e565b9050919050565b60008160481c9050919050565b60006147ed6147e8836147cd565b61466e565b9050919050565b60008160501c9050919050565b600061481461480f836147f4565b61466e565b9050919050565b60008160581c9050919050565b600061483b6148368361481b565b61466e565b9050919050565b60008160601c9050919050565b600061486261485d83614842565b61466e565b9050919050565b60008160681c9050919050565b600061488961488483614869565b61466e565b9050919050565b60008160701c9050919050565b60006148b06148ab83614890565b61466e565b9050919050565b60008160781c9050919050565b60006148d76148d2836148b7565b61466e565b9050919050565b60008160801c9050919050565b60006148fe6148f9836148de565b61466e565b9050919050565b60008160881c9050919050565b600061492561492083614905565b61466e565b9050919050565b60008160901c9050919050565b600061494c6149478361492c565b61466e565b9050919050565b60008160981c9050919050565b600061497361496e83614953565b61466e565b9050919050565b60008160a01c9050919050565b600061499a6149958361497a565b61466e565b9050919050565b60008160a81c9050919050565b60006149c16149bc836149a1565b61466e565b9050919050565b60008160b01c9050919050565b60006149e86149e3836149c8565b61466e565b9050919050565b60008160b81c9050919050565b6000614a0f614a0a836149ef565b61466e565b9050919050565b60008160c01c9050919050565b6000614a36614a3183614a16565b61466e565b9050919050565b60008160c81c9050919050565b6000614a5d614a5883614a3d565b61466e565b9050919050565b60008160d01c9050919050565b6000614a84614a7f83614a64565b61466e565b9050919050565b60008160d81c9050919050565b6000614aab614aa683614a8b565b61466e565b9050919050565b60008160e01c9050919050565b6000614ad2614acd83614ab2565b61466e565b9050919050565b60008160e81c9050919050565b6000614af9614af483614ad9565b61466e565b9050919050565b60008160f01c9050919050565b6000614b20614b1b83614b00565b61466e565b9050919050565b60008160f81c9050919050565b6000614b47614b4283614b27565b61466e565b9050919050565b614b5781614659565b614b618184613663565b925082614b6d83614664565b60008015614e99575b83600160200382011015614e98578154614b9887614b938361467b565b613685565b602087019650614bb087614bab836146a2565b613685565b602087019650614bc887614bc3836146c9565b613685565b602087019650614be087614bdb836146f0565b613685565b602087019650614bf887614bf383614717565b613685565b602087019650614c1087614c0b8361473e565b613685565b602087019650614c2887614c2383614765565b613685565b602087019650614c4087614c3b8361478c565b613685565b602087019650614c5887614c53836147b3565b613685565b602087019650614c7087614c6b836147da565b613685565b602087019650614c8887614c8383614801565b613685565b602087019650614ca087614c9b83614828565b613685565b602087019650614cb887614cb38361484f565b613685565b602087019650614cd087614ccb83614876565b613685565b602087019650614ce887614ce38361489d565b613685565b602087019650614d0087614cfb836148c4565b613685565b602087019650614d1887614d13836148eb565b613685565b602087019650614d3087614d2b83614912565b613685565b602087019650614d4887614d4383614939565b613685565b602087019650614d6087614d5b83614960565b613685565b602087019650614d7887614d7383614987565b613685565b602087019650614d9087614d8b836149ae565b613685565b602087019650614da887614da3836149d5565b613685565b602087019650614dc087614dbb836149fc565b613685565b602087019650614dd887614dd383614a23565b613685565b602087019650614df087614deb83614a4a565b613685565b602087019650614e0887614e0383614a71565b613685565b602087019650614e2087614e1b83614a98565b613685565b602087019650614e3887614e3383614abf565b613685565b602087019650614e5087614e4b83614ae6565b613685565b602087019650614e6887614e6383614b0d565b613685565b602087019650614e8087614e7b83614b34565b613685565b60208701965060018301925050602081019050614b76565b5b600115615364578154600115614ec857614ebb87614eb68361467b565b613685565b6020870196506001820191505b600015614eee57614ee187614edc836146a2565b613685565b6020870196506001820191505b600015614f1457614f0787614f02836146c9565b613685565b6020870196506001820191505b600015614f3a57614f2d87614f28836146f0565b613685565b6020870196506001820191505b600015614f6057614f5387614f4e83614717565b613685565b6020870196506001820191505b600015614f8657614f7987614f748361473e565b613685565b6020870196506001820191505b600015614fac57614f9f87614f9a83614765565b613685565b6020870196506001820191505b600015614fd257614fc587614fc08361478c565b613685565b6020870196506001820191505b600015614ff857614feb87614fe6836147b3565b613685565b6020870196506001820191505b60001561501e576150118761500c836147da565b613685565b6020870196506001820191505b600015615044576150378761503283614801565b613685565b6020870196506001820191505b60001561506a5761505d8761505883614828565b613685565b6020870196506001820191505b600015615090576150838761507e8361484f565b613685565b6020870196506001820191505b6000156150b6576150a9876150a483614876565b613685565b6020870196506001820191505b6000156150dc576150cf876150ca8361489d565b613685565b6020870196506001820191505b600015615102576150f5876150f0836148c4565b613685565b6020870196506001820191505b6000156151285761511b87615116836148eb565b613685565b6020870196506001820191505b60001561514e576151418761513c83614912565b613685565b6020870196506001820191505b600015615174576151678761516283614939565b613685565b6020870196506001820191505b60001561519a5761518d8761518883614960565b613685565b6020870196506001820191505b6000156151c0576151b3876151ae83614987565b613685565b6020870196506001820191505b6000156151e6576151d9876151d4836149ae565b613685565b6020870196506001820191505b60001561520c576151ff876151fa836149d5565b613685565b6020870196506001820191505b6000156152325761522587615220836149fc565b613685565b6020870196506001820191505b6000156152585761524b8761524683614a23565b613685565b6020870196506001820191505b60001561527e576152718761526c83614a4a565b613685565b6020870196506001820191505b6000156152a4576152978761529283614a71565b613685565b6020870196506001820191505b6000156152ca576152bd876152b883614a98565b613685565b6020870196506001820191505b6000156152f0576152e3876152de83614abf565b613685565b6020870196506001820191505b600015615316576153098761530483614ae6565b613685565b6020870196506001820191505b60001561533c5761532f8761532a83614b0d565b613685565b6020870196506001820191505b600015615362576153558761535083614b34565b613685565b6020870196506001820191505b505b505050505050565b60006020820190506153816000830184614b4e565b92915050565b600060608201905081810360008301526153a181866143e1565b905081810360208301526153b58185614553565b90506153c46040830184612ced565b94935050505056fea264697066735822122091cf17a61c3e31376fa164bf061dde54fc085067c5c86e020098cfbf139602a264736f6c634300080a0033",
  "immutableReferences": {},
  "source": "// SPDX-License-Identifier: MIT\r\npragma solidity >=0.8.10;\r\n\r\ncontract QuizContract {\r\n    uint8 constant noOfQuestions = 1;\r\n    uint8 constant noOfOptions = 1;\r\n\r\n    event QuizCreated(uint256 quizId, Quiz quiz);\r\n\r\n    event QuizUpdated(uint256 quizId, Quiz quiz);\r\n\r\n    event QuizStarted(\r\n        uint256 quizId,\r\n        string[noOfQuestions] questions,\r\n        string[noOfQuestions][noOfOptions] options\r\n    );\r\n\r\n    event QuizCompleted(\r\n        uint256 quizId,\r\n        Quiz quiz,\r\n        address[] winners,\r\n        uint8[noOfQuestions] answers\r\n    );\r\n\r\n    struct Answers {\r\n        uint8[noOfQuestions] selectedOptions;\r\n        uint256 submissionTime;\r\n        address submissionAddress;\r\n    }\r\n\r\n    struct Quiz {\r\n        uint256 quizId;\r\n        string quizName;\r\n        string description;\r\n        address quizOwner;\r\n        uint256 prizeMoney; //wei\r\n        uint256 startTime;\r\n        uint256 duration; //seconds\r\n        bytes32 questionHash;\r\n        bytes32 answerHash;\r\n        bool isRunning;\r\n    }\r\n\r\n    address owner;\r\n    Quiz[] public quizzes;\r\n    mapping(uint256 => Answers[]) public submittedAnswers;\r\n    mapping(uint256 => mapping(address => bool)) public isSubmited;\r\n\r\n    constructor() {\r\n        owner = msg.sender;\r\n    }\r\n\r\n    modifier onlyOwners(uint256 _quizId) {\r\n        require(\r\n            msg.sender == owner || msg.sender == quizzes[_quizId].quizOwner,\r\n            \"Only owner or the quiz creator can submit questions\"\r\n        );\r\n        _;\r\n    }\r\n\r\n    modifier refundGas(uint256 _quizId) {\r\n        uint256 gasAtStart = gasleft();\r\n        _;\r\n        if (msg.sender != owner) return;\r\n        uint256 gasSpent = gasAtStart - gasleft() + 30000;\r\n        uint256 gasCost = gasSpent * tx.gasprice;\r\n        payable(msg.sender).transfer(gasCost);\r\n        quizzes[_quizId].prizeMoney -= gasCost;\r\n    }\r\n\r\n    function hashQuestions(\r\n        string[noOfQuestions] calldata _questions,\r\n        string[noOfQuestions][noOfOptions] calldata _options,\r\n        bytes32 _hashSalt\r\n    ) internal pure returns (bytes32) {\r\n        return keccak256(abi.encode(_questions, _options, _hashSalt));\r\n    }\r\n\r\n    function hashAnswers(\r\n        uint8[noOfQuestions] calldata _answers,\r\n        bytes32 _hashSalt\r\n    ) internal pure returns (bytes32) {\r\n        return keccak256(abi.encode(_answers, _hashSalt));\r\n    }\r\n\r\n    function equalAnswers(\r\n        uint8[noOfQuestions] storage correctOptions,\r\n        uint8[noOfQuestions] calldata optionsB\r\n    ) internal pure returns (bool) {\r\n        return\r\n            keccak256(abi.encode(correctOptions)) ==\r\n            keccak256(abi.encode(optionsB));\r\n    }\r\n\r\n    function getPendingQuizzes()\r\n        public\r\n        view\r\n        returns (Quiz[] memory pendingQuizzes)\r\n    {\r\n        uint256 present = block.timestamp;\r\n        uint256 noOfQuizzes = 0;\r\n        for (uint256 i = 0; i < quizzes.length; i++) {\r\n            if (\r\n                quizzes[i].startTime <= present &&\r\n                (quizzes[i].startTime + quizzes[i].duration) >= present\r\n            ) {\r\n                noOfQuizzes++;\r\n            }\r\n        }\r\n        pendingQuizzes = new Quiz[](noOfQuizzes);\r\n        uint256 j = 0;\r\n        for (uint256 i = 0; i < quizzes.length; i++) {\r\n            if (\r\n                quizzes[i].startTime <= present &&\r\n                (quizzes[i].startTime + quizzes[i].duration) >= present\r\n            ) {\r\n                pendingQuizzes[j++] = quizzes[i];\r\n            }\r\n        }\r\n        return pendingQuizzes;\r\n    }\r\n\r\n    function getQuizzesBy(address user)\r\n        external\r\n        view\r\n        returns (Quiz[] memory quizzesByUser)\r\n    {\r\n        uint256 noOfQuizzes = 0;\r\n        for (uint256 i = 0; i < quizzes.length; i++) {\r\n            if (quizzes[i].quizOwner == user) {\r\n                noOfQuizzes++;\r\n            }\r\n        }\r\n        quizzesByUser = new Quiz[](noOfQuizzes);\r\n        uint256 j = 0;\r\n        for (uint256 i = 0; i < quizzes.length; i++) {\r\n            if (quizzes[i].quizOwner == user) {\r\n                quizzesByUser[j++] = quizzes[i];\r\n            }\r\n        }\r\n        return quizzesByUser;\r\n    }\r\n\r\n    function createQuiz(\r\n        string calldata quizName,\r\n        string calldata description,\r\n        uint256 prizeMoney, //wei\r\n        uint256 startTime,\r\n        uint256 duration, //seconds\r\n        bytes32 questionHash,\r\n        bytes32 answerHash\r\n    ) external payable returns (uint256) {\r\n        require(\r\n            startTime > block.timestamp,\r\n            \"Quiz cannot be created in the past\"\r\n        );\r\n        require(\r\n            startTime + duration > startTime,\r\n            \"Quiz cannot be created with end time before start time\"\r\n        );\r\n        require(bytes(quizName).length != 0, \"Quiz name cannot be empty\");\r\n        require(prizeMoney > 0, \"Prize money cannot be zero\");\r\n        require(\r\n            prizeMoney == msg.value,\r\n            \"Prize money must match the amount sent\"\r\n        );\r\n\r\n        Quiz memory _newQuiz = Quiz(\r\n            quizzes.length,\r\n            quizName,\r\n            description,\r\n            msg.sender,\r\n            prizeMoney,\r\n            startTime,\r\n            duration,\r\n            questionHash,\r\n            answerHash,\r\n            false\r\n        );\r\n        quizzes.push(_newQuiz);\r\n        emit QuizCreated(quizzes.length - 1, _newQuiz);\r\n\r\n        return quizzes.length - 1;\r\n    }\r\n\r\n    function updateQuiz(\r\n        uint256 _quizId,\r\n        string calldata _description,\r\n        address _quizOwner,\r\n        bytes32 _questionHash,\r\n        bytes32 _answerHash\r\n    ) external {\r\n        require(quizzes.length > _quizId, \"Quiz Id does not exists\");\r\n        require(\r\n            quizzes[_quizId].quizOwner == msg.sender,\r\n            \"Only Quiz Owner can update the quiz\"\r\n        );\r\n        require(\r\n            quizzes[_quizId].startTime > block.timestamp,\r\n            \"Quiz can be updated before start of the quiz\"\r\n        );\r\n\r\n        require(_quizOwner != address(0), \"Quiz owner cannot be empty\");\r\n\r\n        Quiz storage _quiz = quizzes[_quizId];\r\n        _quiz.description = _description;\r\n        _quiz.quizOwner = _quizOwner;\r\n        _quiz.questionHash = _questionHash;\r\n        _quiz.answerHash = _answerHash;\r\n    }\r\n\r\n    function submitQuestions(\r\n        uint256 _quizId,\r\n        string[noOfQuestions] calldata _questions,\r\n        string[noOfQuestions][noOfOptions] calldata _options,\r\n        bytes32 _hashSalt\r\n    ) external onlyOwners(_quizId) {\r\n        require(\r\n            quizzes[_quizId].isRunning == false,\r\n            \"Quiz has already started\"\r\n        );\r\n        for (uint256 i = 0; i < _questions.length; i++) {\r\n            require(\r\n                bytes(_questions[i]).length != 0,\r\n                \"Question cannot be empty\"\r\n            );\r\n            for (uint256 j = 0; j < _options[i].length; j++) {\r\n                require(\r\n                    bytes(_options[i][j]).length != 0,\r\n                    \"Option cannot be empty\"\r\n                );\r\n            }\r\n        }\r\n        require(\r\n            hashQuestions(_questions, _options, _hashSalt) ==\r\n                quizzes[_quizId].questionHash,\r\n            \"Questions are not valid\"\r\n        );\r\n\r\n        quizzes[_quizId].startTime = block.timestamp;\r\n        quizzes[_quizId].isRunning = true;\r\n        emit QuizStarted(_quizId, _questions, _options);\r\n    }\r\n\r\n    function submitCorrectAnswers(\r\n        uint256 _quizId,\r\n        uint8[noOfQuestions] calldata _quizAnswers,\r\n        bytes32 _hashSalt\r\n    ) external onlyOwners(_quizId) {\r\n        require(_quizId < quizzes.length, \"Quiz does not exist\");\r\n        require(quizzes[_quizId].isRunning == true, \"Quiz has not started\");\r\n        require(\r\n            block.timestamp >\r\n                quizzes[_quizId].startTime + quizzes[_quizId].duration,\r\n            \"Correct Answers cannot be submitted before end time\"\r\n        );\r\n        require(\r\n            hashAnswers(_quizAnswers, _hashSalt) == quizzes[_quizId].answerHash,\r\n            \"Correct answers are not valid\"\r\n        );\r\n\r\n        uint256 totalWinners = 0;\r\n        for (uint256 i = 0; i < submittedAnswers[_quizId].length; i++) {\r\n            if (\r\n                equalAnswers(\r\n                    submittedAnswers[_quizId][i].selectedOptions,\r\n                    _quizAnswers\r\n                )\r\n            ) {\r\n                totalWinners++;\r\n            }\r\n        }\r\n\r\n        address[] memory winners = new address[](totalWinners);\r\n        if (totalWinners == 0) {\r\n            payable(quizzes[_quizId].quizOwner).transfer(\r\n                quizzes[_quizId].prizeMoney\r\n            );\r\n            emit QuizCompleted(\r\n                _quizId,\r\n                quizzes[_quizId],\r\n                winners,\r\n                _quizAnswers\r\n            );\r\n            return;\r\n        }\r\n        uint256 prizeMoneyPerWinner = quizzes[_quizId].prizeMoney /\r\n            totalWinners;\r\n        uint256 prizeMoneyLeft = quizzes[_quizId].prizeMoney -\r\n            prizeMoneyPerWinner *\r\n            totalWinners;\r\n        uint256 j = 0;\r\n        for (uint256 i = 0; i < submittedAnswers[_quizId].length; i++) {\r\n            if (\r\n                equalAnswers(\r\n                    submittedAnswers[_quizId][i].selectedOptions,\r\n                    _quizAnswers\r\n                )\r\n            ) {\r\n                winners[j++] = submittedAnswers[_quizId][i].submissionAddress;\r\n                payable(submittedAnswers[_quizId][i].submissionAddress)\r\n                    .transfer(prizeMoneyPerWinner);\r\n            }\r\n        }\r\n        payable(quizzes[_quizId].quizOwner).transfer(prizeMoneyLeft);\r\n\r\n        emit QuizCompleted(_quizId, quizzes[_quizId], winners, _quizAnswers);\r\n    }\r\n\r\n    function submitPlayerAnswer(\r\n        uint256 _quizId,\r\n        uint8[noOfQuestions] calldata _answers\r\n    ) external {\r\n        require(quizzes[_quizId].isRunning == true, \"Quiz has not started yet\");\r\n        require(\r\n            quizzes[_quizId].startTime + quizzes[_quizId].duration >=\r\n                block.timestamp,\r\n            \"Quiz has ended\"\r\n        );\r\n        require(\r\n            isSubmited[_quizId][msg.sender] == false,\r\n            \"You have already submitted the answers\"\r\n        );\r\n\r\n        for (uint256 i = 0; i < _answers.length; i++) {\r\n            require(_answers[i] < noOfOptions, \"Answer is out of range\");\r\n            require(_answers[i] != 0, \"Answer cannot be empty\");\r\n        }\r\n\r\n        isSubmited[_quizId][msg.sender] = true;\r\n        submittedAnswers[_quizId].push(\r\n            Answers(_answers, block.timestamp, msg.sender)\r\n        );\r\n    }\r\n}\r\n",
  "sourcePath": "/app/contracts/QuizContract.sol",
  "compiler": {
    "name": "solc",
    "version": "0.8.10+commit.fc410830.Emscripten.clang"
  },
  "schemaVersion": "3.4.4",
  "updatedAt": "2022-01-11T11:45:18.914Z",
  "networkType": "ethereum",
  "devdoc": {
    "kind": "dev",
    "methods": {},
    "version": 1
  },
  "userdoc": {
    "kind": "user",
    "methods": {},
    "version": 1
  }
}