{
  "contractName": "QuizContract",
  "abi": [
    {
      "inputs": [],
      "stateMutability": "nonpayable",
      "type": "constructor"
    },
    {
      "anonymous": false,
      "inputs": [
        {
          "indexed": false,
          "internalType": "uint256",
          "name": "quizId",
          "type": "uint256"
        },
        {
          "components": [
            {
              "internalType": "uint256",
              "name": "quizId",
              "type": "uint256"
            },
            {
              "internalType": "string",
              "name": "quizName",
              "type": "string"
            },
            {
              "internalType": "string",
              "name": "description",
              "type": "string"
            },
            {
              "internalType": "address",
              "name": "quizOwner",
              "type": "address"
            },
            {
              "internalType": "uint256",
              "name": "prizeMoney",
              "type": "uint256"
            },
            {
              "internalType": "uint256",
              "name": "startTime",
              "type": "uint256"
            },
            {
              "internalType": "uint256",
              "name": "duration",
              "type": "uint256"
            },
            {
              "internalType": "bytes32",
              "name": "questionHash",
              "type": "bytes32"
            },
            {
              "internalType": "bytes32",
              "name": "answerHash",
              "type": "bytes32"
            },
            {
              "internalType": "bool",
              "name": "isRunning",
              "type": "bool"
            }
          ],
          "indexed": false,
          "internalType": "struct QuizContract.Quiz",
          "name": "quiz",
          "type": "tuple"
        },
        {
          "indexed": false,
          "internalType": "address[]",
          "name": "winners",
          "type": "address[]"
        },
        {
          "indexed": false,
          "internalType": "uint8[1]",
          "name": "answers",
          "type": "uint8[1]"
        }
      ],
      "name": "QuizCompleted",
      "type": "event"
    },
    {
      "anonymous": false,
      "inputs": [
        {
          "indexed": false,
          "internalType": "uint256",
          "name": "quizId",
          "type": "uint256"
        },
        {
          "components": [
            {
              "internalType": "uint256",
              "name": "quizId",
              "type": "uint256"
            },
            {
              "internalType": "string",
              "name": "quizName",
              "type": "string"
            },
            {
              "internalType": "string",
              "name": "description",
              "type": "string"
            },
            {
              "internalType": "address",
              "name": "quizOwner",
              "type": "address"
            },
            {
              "internalType": "uint256",
              "name": "prizeMoney",
              "type": "uint256"
            },
            {
              "internalType": "uint256",
              "name": "startTime",
              "type": "uint256"
            },
            {
              "internalType": "uint256",
              "name": "duration",
              "type": "uint256"
            },
            {
              "internalType": "bytes32",
              "name": "questionHash",
              "type": "bytes32"
            },
            {
              "internalType": "bytes32",
              "name": "answerHash",
              "type": "bytes32"
            },
            {
              "internalType": "bool",
              "name": "isRunning",
              "type": "bool"
            }
          ],
          "indexed": false,
          "internalType": "struct QuizContract.Quiz",
          "name": "quiz",
          "type": "tuple"
        }
      ],
      "name": "QuizCreated",
      "type": "event"
    },
    {
      "anonymous": false,
      "inputs": [
        {
          "indexed": false,
          "internalType": "uint256",
          "name": "quizId",
          "type": "uint256"
        },
        {
          "indexed": false,
          "internalType": "string[1]",
          "name": "questions",
          "type": "string[1]"
        },
        {
          "indexed": false,
          "internalType": "string[4][1]",
          "name": "options",
          "type": "string[4][1]"
        }
      ],
      "name": "QuizStarted",
      "type": "event"
    },
    {
      "anonymous": false,
      "inputs": [
        {
          "indexed": false,
          "internalType": "uint256",
          "name": "quizId",
          "type": "uint256"
        },
        {
          "components": [
            {
              "internalType": "uint256",
              "name": "quizId",
              "type": "uint256"
            },
            {
              "internalType": "string",
              "name": "quizName",
              "type": "string"
            },
            {
              "internalType": "string",
              "name": "description",
              "type": "string"
            },
            {
              "internalType": "address",
              "name": "quizOwner",
              "type": "address"
            },
            {
              "internalType": "uint256",
              "name": "prizeMoney",
              "type": "uint256"
            },
            {
              "internalType": "uint256",
              "name": "startTime",
              "type": "uint256"
            },
            {
              "internalType": "uint256",
              "name": "duration",
              "type": "uint256"
            },
            {
              "internalType": "bytes32",
              "name": "questionHash",
              "type": "bytes32"
            },
            {
              "internalType": "bytes32",
              "name": "answerHash",
              "type": "bytes32"
            },
            {
              "internalType": "bool",
              "name": "isRunning",
              "type": "bool"
            }
          ],
          "indexed": false,
          "internalType": "struct QuizContract.Quiz",
          "name": "quiz",
          "type": "tuple"
        }
      ],
      "name": "QuizUpdated",
      "type": "event"
    },
    {
      "inputs": [
        {
          "internalType": "uint256",
          "name": "",
          "type": "uint256"
        },
        {
          "internalType": "address",
          "name": "",
          "type": "address"
        }
      ],
      "name": "isSubmited",
      "outputs": [
        {
          "internalType": "bool",
          "name": "",
          "type": "bool"
        }
      ],
      "stateMutability": "view",
      "type": "function",
      "constant": true
    },
    {
      "inputs": [
        {
          "internalType": "uint256",
          "name": "",
          "type": "uint256"
        }
      ],
      "name": "quizzes",
      "outputs": [
        {
          "internalType": "uint256",
          "name": "quizId",
          "type": "uint256"
        },
        {
          "internalType": "string",
          "name": "quizName",
          "type": "string"
        },
        {
          "internalType": "string",
          "name": "description",
          "type": "string"
        },
        {
          "internalType": "address",
          "name": "quizOwner",
          "type": "address"
        },
        {
          "internalType": "uint256",
          "name": "prizeMoney",
          "type": "uint256"
        },
        {
          "internalType": "uint256",
          "name": "startTime",
          "type": "uint256"
        },
        {
          "internalType": "uint256",
          "name": "duration",
          "type": "uint256"
        },
        {
          "internalType": "bytes32",
          "name": "questionHash",
          "type": "bytes32"
        },
        {
          "internalType": "bytes32",
          "name": "answerHash",
          "type": "bytes32"
        },
        {
          "internalType": "bool",
          "name": "isRunning",
          "type": "bool"
        }
      ],
      "stateMutability": "view",
      "type": "function",
      "constant": true
    },
    {
      "inputs": [
        {
          "internalType": "uint256",
          "name": "",
          "type": "uint256"
        },
        {
          "internalType": "uint256",
          "name": "",
          "type": "uint256"
        }
      ],
      "name": "submittedAnswers",
      "outputs": [
        {
          "internalType": "uint256",
          "name": "submissionTime",
          "type": "uint256"
        },
        {
          "internalType": "address",
          "name": "submissionAddress",
          "type": "address"
        }
      ],
      "stateMutability": "view",
      "type": "function",
      "constant": true
    },
    {
      "inputs": [],
      "name": "getPendingQuizzes",
      "outputs": [
        {
          "components": [
            {
              "internalType": "uint256",
              "name": "quizId",
              "type": "uint256"
            },
            {
              "internalType": "string",
              "name": "quizName",
              "type": "string"
            },
            {
              "internalType": "string",
              "name": "description",
              "type": "string"
            },
            {
              "internalType": "address",
              "name": "quizOwner",
              "type": "address"
            },
            {
              "internalType": "uint256",
              "name": "prizeMoney",
              "type": "uint256"
            },
            {
              "internalType": "uint256",
              "name": "startTime",
              "type": "uint256"
            },
            {
              "internalType": "uint256",
              "name": "duration",
              "type": "uint256"
            },
            {
              "internalType": "bytes32",
              "name": "questionHash",
              "type": "bytes32"
            },
            {
              "internalType": "bytes32",
              "name": "answerHash",
              "type": "bytes32"
            },
            {
              "internalType": "bool",
              "name": "isRunning",
              "type": "bool"
            }
          ],
          "internalType": "struct QuizContract.Quiz[]",
          "name": "pendingQuizzes",
          "type": "tuple[]"
        }
      ],
      "stateMutability": "view",
      "type": "function",
      "constant": true
    },
    {
      "inputs": [
        {
          "internalType": "address",
          "name": "user",
          "type": "address"
        }
      ],
      "name": "getQuizzesBy",
      "outputs": [
        {
          "components": [
            {
              "internalType": "uint256",
              "name": "quizId",
              "type": "uint256"
            },
            {
              "internalType": "string",
              "name": "quizName",
              "type": "string"
            },
            {
              "internalType": "string",
              "name": "description",
              "type": "string"
            },
            {
              "internalType": "address",
              "name": "quizOwner",
              "type": "address"
            },
            {
              "internalType": "uint256",
              "name": "prizeMoney",
              "type": "uint256"
            },
            {
              "internalType": "uint256",
              "name": "startTime",
              "type": "uint256"
            },
            {
              "internalType": "uint256",
              "name": "duration",
              "type": "uint256"
            },
            {
              "internalType": "bytes32",
              "name": "questionHash",
              "type": "bytes32"
            },
            {
              "internalType": "bytes32",
              "name": "answerHash",
              "type": "bytes32"
            },
            {
              "internalType": "bool",
              "name": "isRunning",
              "type": "bool"
            }
          ],
          "internalType": "struct QuizContract.Quiz[]",
          "name": "quizzesByUser",
          "type": "tuple[]"
        }
      ],
      "stateMutability": "view",
      "type": "function",
      "constant": true
    },
    {
      "inputs": [
        {
          "internalType": "string",
          "name": "quizName",
          "type": "string"
        },
        {
          "internalType": "string",
          "name": "description",
          "type": "string"
        },
        {
          "internalType": "uint256",
          "name": "prizeMoney",
          "type": "uint256"
        },
        {
          "internalType": "uint256",
          "name": "startTime",
          "type": "uint256"
        },
        {
          "internalType": "uint256",
          "name": "duration",
          "type": "uint256"
        },
        {
          "internalType": "bytes32",
          "name": "questionHash",
          "type": "bytes32"
        },
        {
          "internalType": "bytes32",
          "name": "answerHash",
          "type": "bytes32"
        }
      ],
      "name": "createQuiz",
      "outputs": [
        {
          "internalType": "uint256",
          "name": "",
          "type": "uint256"
        }
      ],
      "stateMutability": "payable",
      "type": "function",
      "payable": true
    },
    {
      "inputs": [
        {
          "internalType": "uint256",
          "name": "_quizId",
          "type": "uint256"
        },
        {
          "internalType": "string",
          "name": "_description",
          "type": "string"
        },
        {
          "internalType": "address",
          "name": "_quizOwner",
          "type": "address"
        },
        {
          "internalType": "bytes32",
          "name": "_questionHash",
          "type": "bytes32"
        },
        {
          "internalType": "bytes32",
          "name": "_answerHash",
          "type": "bytes32"
        }
      ],
      "name": "updateQuiz",
      "outputs": [],
      "stateMutability": "nonpayable",
      "type": "function"
    },
    {
      "inputs": [
        {
          "internalType": "uint256",
          "name": "_quizId",
          "type": "uint256"
        },
        {
          "internalType": "string[1]",
          "name": "_questions",
          "type": "string[1]"
        },
        {
          "internalType": "string[4][1]",
          "name": "_options",
          "type": "string[4][1]"
        },
        {
          "internalType": "bytes32",
          "name": "_hashSalt",
          "type": "bytes32"
        }
      ],
      "name": "submitQuestions",
      "outputs": [],
      "stateMutability": "nonpayable",
      "type": "function"
    },
    {
      "inputs": [
        {
          "internalType": "uint256",
          "name": "_quizId",
          "type": "uint256"
        },
        {
          "internalType": "uint8[1]",
          "name": "_quizAnswers",
          "type": "uint8[1]"
        },
        {
          "internalType": "bytes32",
          "name": "_hashSalt",
          "type": "bytes32"
        }
      ],
      "name": "submitCorrectAnswers",
      "outputs": [],
      "stateMutability": "nonpayable",
      "type": "function"
    },
    {
      "inputs": [
        {
          "internalType": "uint256",
          "name": "_quizId",
          "type": "uint256"
        },
        {
          "internalType": "uint8[1]",
          "name": "_answers",
          "type": "uint8[1]"
        }
      ],
      "name": "submitPlayerAnswer",
      "outputs": [],
      "stateMutability": "nonpayable",
      "type": "function"
    }
  ],
  "bytecode": "0x608060405234801561001057600080fd5b50336000806101000a81548173ffffffffffffffffffffffffffffffffffffffff021916908373ffffffffffffffffffffffffffffffffffffffff16021790555061559480620000616000396000f3fe6080604052600436106100915760003560e01c80637de75686116100595780637de756861461019457806388409afa146101bd578063b6c3c9b914610203578063cf1da55c1461022c578063ebfb47ea1461026a57610091565b80630caf673a1461009657806317079261146100bf5780632e730952146100ea5780632fbddbb2146101275780635d9c61c214610157575b600080fd5b3480156100a257600080fd5b506100bd60048036038101906100b891906126a2565b610293565b005b3480156100cb57600080fd5b506100d4610a8c565b6040516100e191906129ab565b60405180910390f35b3480156100f657600080fd5b50610111600480360381019061010c91906129f9565b610e90565b60405161011e9190612a48565b60405180910390f35b610141600480360381019061013c9190612ac3565b610ebf565b60405161014e9190612bb4565b60405180910390f35b34801561016357600080fd5b5061017e60048036038101906101799190612bcf565b611279565b60405161018b91906129ab565b60405180910390f35b3480156101a057600080fd5b506101bb60048036038101906101b69190612bfc565b61164d565b005b3480156101c957600080fd5b506101e460048036038101906101df9190612c96565b6118ef565b6040516101fa9a99989796959493929190612d2b565b60405180910390f35b34801561020f57600080fd5b5061022a60048036038101906102259190612dd5565b611a90565b005b34801561023857600080fd5b50610253600480360381019061024e9190612e15565b611ebb565b604051610261929190612e55565b60405180910390f35b34801561027657600080fd5b50610291600480360381019061028c9190612ec2565b611f1c565b005b8260008054906101000a900473ffffffffffffffffffffffffffffffffffffffff1673ffffffffffffffffffffffffffffffffffffffff163373ffffffffffffffffffffffffffffffffffffffff16148061035e5750600181815481106102fd576102fc612f61565b5b90600052602060002090600a020160030160009054906101000a900473ffffffffffffffffffffffffffffffffffffffff1673ffffffffffffffffffffffffffffffffffffffff163373ffffffffffffffffffffffffffffffffffffffff16145b61039d576040517f08c379a000000000000000000000000000000000000000000000000000000000815260040161039490613002565b60405180910390fd5b60018054905084106103e4576040517f08c379a00000000000000000000000000000000000000000000000000000000081526004016103db9061306e565b60405180910390fd5b60011515600185815481106103fc576103fb612f61565b5b90600052602060002090600a020160090160009054906101000a900460ff1615151461045d576040517f08c379a0000000000000000000000000000000000000000000000000000000008152600401610454906130da565b60405180910390fd5b6001848154811061047157610470612f61565b5b90600052602060002090600a0201600601546001858154811061049757610496612f61565b5b90600052602060002090600a0201600501546104b39190613129565b42116104f4576040517f08c379a00000000000000000000000000000000000000000000000000000000081526004016104eb906131f1565b60405180910390fd5b6001848154811061050857610507612f61565b5b90600052602060002090600a020160080154610524848461230f565b14610564576040517f08c379a000000000000000000000000000000000000000000000000000000000815260040161055b9061325d565b60405180910390fd5b6000805b60026000878152602001908152602001600020805490508110156105ec576105c56002600088815260200190815260200160002082815481106105ae576105ad612f61565b5b906000526020600020906003020160000186612342565b156105d95781806105d59061327d565b9250505b80806105e49061327d565b915050610568565b5060008167ffffffffffffffff811115610609576106086132c6565b5b6040519080825280602002602001820160405280156106375781602001602082028036833780820191505090505b5090506000821415610759576001868154811061065757610656612f61565b5b90600052602060002090600a020160030160009054906101000a900473ffffffffffffffffffffffffffffffffffffffff1673ffffffffffffffffffffffffffffffffffffffff166108fc600188815481106106b6576106b5612f61565b5b90600052602060002090600a0201600401549081150290604051600060405180830381858888f193505050501580156106f3573d6000803e3d6000fd5b507f53fb16f62e54f4596c7684a225d64c2ba05e4ed0ecc04634c3ac2c562086c561866001888154811061072a57610729612f61565b5b90600052602060002090600a0201838860405161074a949392919061378a565b60405180910390a15050610a86565b600082600188815481106107705761076f612f61565b5b90600052602060002090600a02016004015461078c919061380c565b90506000838261079c919061383d565b600189815481106107b0576107af612f61565b5b90600052602060002090600a0201600401546107cc9190613897565b90506000805b600260008b8152602001908152602001600020805490508110156109955761082f600260008c8152602001908152602001600020828154811061081857610817612f61565b5b90600052602060002090600302016000018a612342565b1561098257600260008b8152602001908152602001600020818154811061085957610858612f61565b5b906000526020600020906003020160020160009054906101000a900473ffffffffffffffffffffffffffffffffffffffff168583806108979061327d565b9450815181106108aa576108a9612f61565b5b602002602001019073ffffffffffffffffffffffffffffffffffffffff16908173ffffffffffffffffffffffffffffffffffffffff1681525050600260008b8152602001908152602001600020818154811061090957610908612f61565b5b906000526020600020906003020160020160009054906101000a900473ffffffffffffffffffffffffffffffffffffffff1673ffffffffffffffffffffffffffffffffffffffff166108fc859081150290604051600060405180830381858888f19350505050158015610980573d6000803e3d6000fd5b505b808061098d9061327d565b9150506107d2565b50600189815481106109aa576109a9612f61565b5b90600052602060002090600a020160030160009054906101000a900473ffffffffffffffffffffffffffffffffffffffff1673ffffffffffffffffffffffffffffffffffffffff166108fc839081150290604051600060405180830381858888f19350505050158015610a21573d6000803e3d6000fd5b507f53fb16f62e54f4596c7684a225d64c2ba05e4ed0ecc04634c3ac2c562086c5618960018b81548110610a5857610a57612f61565b5b90600052602060002090600a0201868b604051610a78949392919061378a565b60405180910390a150505050505b50505050565b606060004290506000805b600180549050811015610b55578260018281548110610ab957610ab8612f61565b5b90600052602060002090600a02016005015411158015610b2e57508260018281548110610ae957610ae8612f61565b5b90600052602060002090600a02016006015460018381548110610b0f57610b0e612f61565b5b90600052602060002090600a020160050154610b2b9190613129565b10155b15610b42578180610b3e9061327d565b9250505b8080610b4d9061327d565b915050610a97565b508067ffffffffffffffff811115610b7057610b6f6132c6565b5b604051908082528060200260200182016040528015610ba957816020015b610b966123d1565b815260200190600190039081610b8e5790505b5092506000805b600180549050811015610e89578360018281548110610bd257610bd1612f61565b5b90600052602060002090600a02016005015411158015610c4757508360018281548110610c0257610c01612f61565b5b90600052602060002090600a02016006015460018381548110610c2857610c27612f61565b5b90600052602060002090600a020160050154610c449190613129565b10155b15610e765760018181548110610c6057610c5f612f61565b5b90600052602060002090600a02016040518061014001604052908160008201548152602001600182018054610c9490613355565b80601f0160208091040260200160405190810160405280929190818152602001828054610cc090613355565b8015610d0d5780601f10610ce257610100808354040283529160200191610d0d565b820191906000526020600020905b815481529060010190602001808311610cf057829003601f168201915b50505050508152602001600282018054610d2690613355565b80601f0160208091040260200160405190810160405280929190818152602001828054610d5290613355565b8015610d9f5780601f10610d7457610100808354040283529160200191610d9f565b820191906000526020600020905b815481529060010190602001808311610d8257829003601f168201915b505050505081526020016003820160009054906101000a900473ffffffffffffffffffffffffffffffffffffffff1673ffffffffffffffffffffffffffffffffffffffff1673ffffffffffffffffffffffffffffffffffffffff16815260200160048201548152602001600582015481526020016006820154815260200160078201548152602001600882015481526020016009820160009054906101000a900460ff161515151581525050858380610e579061327d565b945081518110610e6a57610e69612f61565b5b60200260200101819052505b8080610e819061327d565b915050610bb0565b5050505090565b60036020528160005260406000206020528060005260406000206000915091509054906101000a900460ff1681565b6000428511610f03576040517f08c379a0000000000000000000000000000000000000000000000000000000008152600401610efa9061393d565b60405180910390fd5b60008411610f46576040517f08c379a0000000000000000000000000000000000000000000000000000000008152600401610f3d906139a9565b60405180910390fd5b60008a8a90501415610f8d576040517f08c379a0000000000000000000000000000000000000000000000000000000008152600401610f8490613a15565b60405180910390fd5b60008611610fd0576040517f08c379a0000000000000000000000000000000000000000000000000000000008152600401610fc790613a81565b60405180910390fd5b348614611012576040517f08c379a000000000000000000000000000000000000000000000000000000000815260040161100990613b13565b60405180910390fd5b600060405180610140016040528060018054905081526020018c8c8080601f016020809104026020016040519081016040528093929190818152602001838380828437600081840152601f19601f8201169050808301925050505050505081526020018a8a8080601f016020809104026020016040519081016040528093929190818152602001838380828437600081840152601f19601f8201169050808301925050505050505081526020013373ffffffffffffffffffffffffffffffffffffffff16815260200188815260200187815260200186815260200185815260200184815260200160001515815250905060018190806001815401808255809150506001900390600052602060002090600a0201600090919091909150600082015181600001556020820151816001019080519060200190611154929190612442565b506040820151816002019080519060200190611171929190612442565b5060608201518160030160006101000a81548173ffffffffffffffffffffffffffffffffffffffff021916908373ffffffffffffffffffffffffffffffffffffffff1602179055506080820151816004015560a0820151816005015560c0820151816006015560e0820151816007015561010082015181600801556101208201518160090160006101000a81548160ff02191690831515021790555050507ffd8ebe1156c53cd42cc839c579227faeaba4fe87e6df3c95f6c2cbc5c60eafca600180805490506112419190613897565b82604051611250929190613c14565b60405180910390a1600180805490506112699190613897565b9150509998505050505050505050565b60606000805b600180549050811015611327578373ffffffffffffffffffffffffffffffffffffffff16600182815481106112b7576112b6612f61565b5b90600052602060002090600a020160030160009054906101000a900473ffffffffffffffffffffffffffffffffffffffff1673ffffffffffffffffffffffffffffffffffffffff1614156113145781806113109061327d565b9250505b808061131f9061327d565b91505061127f565b508067ffffffffffffffff811115611342576113416132c6565b5b60405190808252806020026020018201604052801561137b57816020015b6113686123d1565b8152602001906001900390816113605790505b5091506000805b600180549050811015611645578473ffffffffffffffffffffffffffffffffffffffff16600182815481106113ba576113b9612f61565b5b90600052602060002090600a020160030160009054906101000a900473ffffffffffffffffffffffffffffffffffffffff1673ffffffffffffffffffffffffffffffffffffffff161415611632576001818154811061141c5761141b612f61565b5b90600052602060002090600a0201604051806101400160405290816000820154815260200160018201805461145090613355565b80601f016020809104026020016040519081016040528092919081815260200182805461147c90613355565b80156114c95780601f1061149e576101008083540402835291602001916114c9565b820191906000526020600020905b8154815290600101906020018083116114ac57829003601f168201915b505050505081526020016002820180546114e290613355565b80601f016020809104026020016040519081016040528092919081815260200182805461150e90613355565b801561155b5780601f106115305761010080835404028352916020019161155b565b820191906000526020600020905b81548152906001019060200180831161153e57829003601f168201915b505050505081526020016003820160009054906101000a900473ffffffffffffffffffffffffffffffffffffffff1673ffffffffffffffffffffffffffffffffffffffff1673ffffffffffffffffffffffffffffffffffffffff16815260200160048201548152602001600582015481526020016006820154815260200160078201548152602001600882015481526020016009820160009054906101000a900460ff1615151515815250508483806116139061327d565b94508151811061162657611625612f61565b5b60200260200101819052505b808061163d9061327d565b915050611382565b505050919050565b8560018054905011611694576040517f08c379a000000000000000000000000000000000000000000000000000000000815260040161168b90613c90565b60405180910390fd5b3373ffffffffffffffffffffffffffffffffffffffff16600187815481106116bf576116be612f61565b5b90600052602060002090600a020160030160009054906101000a900473ffffffffffffffffffffffffffffffffffffffff1673ffffffffffffffffffffffffffffffffffffffff1614611747576040517f08c379a000000000000000000000000000000000000000000000000000000000815260040161173e90613d22565b60405180910390fd5b426001878154811061175c5761175b612f61565b5b90600052602060002090600a020160050154116117ae576040517f08c379a00000000000000000000000000000000000000000000000000000000081526004016117a590613db4565b60405180910390fd5b600073ffffffffffffffffffffffffffffffffffffffff168373ffffffffffffffffffffffffffffffffffffffff16141561181e576040517f08c379a000000000000000000000000000000000000000000000000000000000815260040161181590613e20565b60405180910390fd5b60006001878154811061183457611833612f61565b5b90600052602060002090600a0201905085858260020191906118579291906124c8565b50838160030160006101000a81548173ffffffffffffffffffffffffffffffffffffffff021916908373ffffffffffffffffffffffffffffffffffffffff1602179055508281600701819055508181600801819055507f8e85de71f278ba7d49e3a3274e24e5e0939628515fd2ec40d042e3fe23a9ad6387826040516118de929190613f77565b60405180910390a150505050505050565b600181815481106118ff57600080fd5b90600052602060002090600a020160009150905080600001549080600101805461192890613355565b80601f016020809104026020016040519081016040528092919081815260200182805461195490613355565b80156119a15780601f10611976576101008083540402835291602001916119a1565b820191906000526020600020905b81548152906001019060200180831161198457829003601f168201915b5050505050908060020180546119b690613355565b80601f01602080910402602001604051908101604052809291908181526020018280546119e290613355565b8015611a2f5780601f10611a0457610100808354040283529160200191611a2f565b820191906000526020600020905b815481529060010190602001808311611a1257829003601f168201915b5050505050908060030160009054906101000a900473ffffffffffffffffffffffffffffffffffffffff16908060040154908060050154908060060154908060070154908060080154908060090160009054906101000a900460ff1690508a565b6001151560018381548110611aa857611aa7612f61565b5b90600052602060002090600a020160090160009054906101000a900460ff16151514611b09576040517f08c379a0000000000000000000000000000000000000000000000000000000008152600401611b0090613ff3565b60405180910390fd5b4260018381548110611b1e57611b1d612f61565b5b90600052602060002090600a02016006015460018481548110611b4457611b43612f61565b5b90600052602060002090600a020160050154611b609190613129565b1015611ba1576040517f08c379a0000000000000000000000000000000000000000000000000000000008152600401611b989061405f565b60405180910390fd5b600015156003600084815260200190815260200160002060003373ffffffffffffffffffffffffffffffffffffffff1673ffffffffffffffffffffffffffffffffffffffff16815260200190815260200160002060009054906101000a900460ff16151514611c45576040517f08c379a0000000000000000000000000000000000000000000000000000000008152600401611c3c906140f1565b60405180910390fd5b60005b6001811015611d3e57600460ff16828260018110611c6957611c68612f61565b5b602002016020810190611c7c9190614111565b60ff1610611cbf576040517f08c379a0000000000000000000000000000000000000000000000000000000008152600401611cb69061418a565b60405180910390fd5b6000828260018110611cd457611cd3612f61565b5b602002016020810190611ce79190614111565b60ff161415611d2b576040517f08c379a0000000000000000000000000000000000000000000000000000000008152600401611d22906141f6565b60405180910390fd5b8080611d369061327d565b915050611c48565b5060016003600084815260200190815260200160002060003373ffffffffffffffffffffffffffffffffffffffff1673ffffffffffffffffffffffffffffffffffffffff16815260200190815260200160002060006101000a81548160ff021916908315150217905550600260008381526020019081526020016000206040518060600160405280836001806020026040519081016040528092919082600160200280828437600081840152601f19601f82011690508083019250505050505081526020014281526020013373ffffffffffffffffffffffffffffffffffffffff168152509080600181540180825580915050600190039060005260206000209060030201600090919091909150600082015181600001906001611e6392919061254e565b506020820151816001015560408201518160020160006101000a81548173ffffffffffffffffffffffffffffffffffffffff021916908373ffffffffffffffffffffffffffffffffffffffff16021790555050505050565b60026020528160005260406000208181548110611ed757600080fd5b9060005260206000209060030201600091509150508060010154908060020160009054906101000a900473ffffffffffffffffffffffffffffffffffffffff16905082565b8360008054906101000a900473ffffffffffffffffffffffffffffffffffffffff1673ffffffffffffffffffffffffffffffffffffffff163373ffffffffffffffffffffffffffffffffffffffff161480611fe7575060018181548110611f8657611f85612f61565b5b90600052602060002090600a020160030160009054906101000a900473ffffffffffffffffffffffffffffffffffffffff1673ffffffffffffffffffffffffffffffffffffffff163373ffffffffffffffffffffffffffffffffffffffff16145b612026576040517f08c379a000000000000000000000000000000000000000000000000000000000815260040161201d90613002565b60405180910390fd5b600015156001868154811061203e5761203d612f61565b5b90600052602060002090600a020160090160009054906101000a900460ff1615151461209f576040517f08c379a000000000000000000000000000000000000000000000000000000000815260040161209690614262565b60405180910390fd5b60005b60018110156121f45760008582600181106120c0576120bf612f61565b5b6020028101906120d09190614291565b90501415612113576040517f08c379a000000000000000000000000000000000000000000000000000000000815260040161210a90614340565b60405180910390fd5b60005b84826001811061212957612128612f61565b5b6020028101906121399190614360565b5060048110156121e057600085836001811061215857612157612f61565b5b6020028101906121689190614360565b826004811061217a57612179612f61565b5b60200281019061218a9190614291565b905014156121cd576040517f08c379a00000000000000000000000000000000000000000000000000000000081526004016121c4906143d4565b60405180910390fd5b80806121d89061327d565b915050612116565b5080806121ec9061327d565b9150506120a2565b506001858154811061220957612208612f61565b5b90600052602060002090600a02016007015461222685858561239b565b14612266576040517f08c379a000000000000000000000000000000000000000000000000000000000815260040161225d90614440565b60405180910390fd5b426001868154811061227b5761227a612f61565b5b90600052602060002090600a02016005018190555060018086815481106122a5576122a4612f61565b5b90600052602060002090600a020160090160006101000a81548160ff0219169083151502179055507f6e73af66ef58dbb602faa624a30f0199266c672ed88c9598c4550262f5bed7de85858560405161230093929190614762565b60405180910390a15050505050565b600082826040516020016123249291906147a7565b60405160208183030381529060405280519060200120905092915050565b60008160405160200161235591906147d0565b604051602081830303815290604052805190602001208360405160200161237c91906154fe565b6040516020818303038152906040528051906020012014905092915050565b60008383836040516020016123b293929190615519565b6040516020818303038152906040528051906020012090509392505050565b604051806101400160405280600081526020016060815260200160608152602001600073ffffffffffffffffffffffffffffffffffffffff16815260200160008152602001600081526020016000815260200160008019168152602001600080191681526020016000151581525090565b82805461244e90613355565b90600052602060002090601f01602090048101928261247057600085556124b7565b82601f1061248957805160ff19168380011785556124b7565b828001600101855582156124b7579182015b828111156124b657825182559160200191906001019061249b565b5b5090506124c491906125e8565b5090565b8280546124d490613355565b90600052602060002090601f0160209004810192826124f6576000855561253d565b82601f1061250f57803560ff191683800117855561253d565b8280016001018555821561253d579182015b8281111561253c578235825591602001919060010190612521565b5b50905061254a91906125e8565b5090565b826001601f016020900481019282156125d75791602002820160005b838211156125a857835183826101000a81548160ff021916908360ff160217905550926020019260010160208160000104928301926001030261256a565b80156125d55782816101000a81549060ff02191690556001016020816000010492830192600103026125a8565b505b5090506125e491906125e8565b5090565b5b808211156126015760008160009055506001016125e9565b5090565b600080fd5b600080fd5b6000819050919050565b6126228161260f565b811461262d57600080fd5b50565b60008135905061263f81612619565b92915050565b600080fd5b60008190508260206001028201111561266657612665612645565b5b92915050565b6000819050919050565b61267f8161266c565b811461268a57600080fd5b50565b60008135905061269c81612676565b92915050565b6000806000606084860312156126bb576126ba612605565b5b60006126c986828701612630565b93505060206126da8682870161264a565b92505060406126eb8682870161268d565b9150509250925092565b600081519050919050565b600082825260208201905092915050565b6000819050602082019050919050565b61272a8161260f565b82525050565b600081519050919050565b600082825260208201905092915050565b60005b8381101561276a57808201518184015260208101905061274f565b83811115612779576000848401525b50505050565b6000601f19601f8301169050919050565b600061279b82612730565b6127a5818561273b565b93506127b581856020860161274c565b6127be8161277f565b840191505092915050565b600073ffffffffffffffffffffffffffffffffffffffff82169050919050565b60006127f4826127c9565b9050919050565b612804816127e9565b82525050565b6128138161266c565b82525050565b60008115159050919050565b61282e81612819565b82525050565b60006101408301600083015161284d6000860182612721565b50602083015184820360208601526128658282612790565b9150506040830151848203604086015261287f8282612790565b915050606083015161289460608601826127fb565b5060808301516128a76080860182612721565b5060a08301516128ba60a0860182612721565b5060c08301516128cd60c0860182612721565b5060e08301516128e060e086018261280a565b506101008301516128f561010086018261280a565b5061012083015161290a610120860182612825565b508091505092915050565b60006129218383612834565b905092915050565b6000602082019050919050565b6000612941826126f5565b61294b8185612700565b93508360208202850161295d85612711565b8060005b85811015612999578484038952815161297a8582612915565b945061298583612929565b925060208a01995050600181019050612961565b50829750879550505050505092915050565b600060208201905081810360008301526129c58184612936565b905092915050565b6129d6816127e9565b81146129e157600080fd5b50565b6000813590506129f3816129cd565b92915050565b60008060408385031215612a1057612a0f612605565b5b6000612a1e85828601612630565b9250506020612a2f858286016129e4565b9150509250929050565b612a4281612819565b82525050565b6000602082019050612a5d6000830184612a39565b92915050565b600080fd5b600080fd5b60008083601f840112612a8357612a82612a63565b5b8235905067ffffffffffffffff811115612aa057612a9f612a68565b5b602083019150836001820283011115612abc57612abb612645565b5b9250929050565b600080600080600080600080600060e08a8c031215612ae557612ae4612605565b5b60008a013567ffffffffffffffff811115612b0357612b0261260a565b5b612b0f8c828d01612a6d565b995099505060208a013567ffffffffffffffff811115612b3257612b3161260a565b5b612b3e8c828d01612a6d565b97509750506040612b518c828d01612630565b9550506060612b628c828d01612630565b9450506080612b738c828d01612630565b93505060a0612b848c828d0161268d565b92505060c0612b958c828d0161268d565b9150509295985092959850929598565b612bae8161260f565b82525050565b6000602082019050612bc96000830184612ba5565b92915050565b600060208284031215612be557612be4612605565b5b6000612bf3848285016129e4565b91505092915050565b60008060008060008060a08789031215612c1957612c18612605565b5b6000612c2789828a01612630565b965050602087013567ffffffffffffffff811115612c4857612c4761260a565b5b612c5489828a01612a6d565b95509550506040612c6789828a016129e4565b9350506060612c7889828a0161268d565b9250506080612c8989828a0161268d565b9150509295509295509295565b600060208284031215612cac57612cab612605565b5b6000612cba84828501612630565b91505092915050565b600082825260208201905092915050565b6000612cdf82612730565b612ce98185612cc3565b9350612cf981856020860161274c565b612d028161277f565b840191505092915050565b612d16816127e9565b82525050565b612d258161266c565b82525050565b600061014082019050612d41600083018d612ba5565b8181036020830152612d53818c612cd4565b90508181036040830152612d67818b612cd4565b9050612d76606083018a612d0d565b612d836080830189612ba5565b612d9060a0830188612ba5565b612d9d60c0830187612ba5565b612daa60e0830186612d1c565b612db8610100830185612d1c565b612dc6610120830184612a39565b9b9a5050505050505050505050565b60008060408385031215612dec57612deb612605565b5b6000612dfa85828601612630565b9250506020612e0b8582860161264a565b9150509250929050565b60008060408385031215612e2c57612e2b612605565b5b6000612e3a85828601612630565b9250506020612e4b85828601612630565b9150509250929050565b6000604082019050612e6a6000830185612ba5565b612e776020830184612d0d565b9392505050565b600081905082602060010282011115612e9a57612e99612645565b5b92915050565b600081905082602060010282011115612ebc57612ebb612645565b5b92915050565b60008060008060808587031215612edc57612edb612605565b5b6000612eea87828801612630565b945050602085013567ffffffffffffffff811115612f0b57612f0a61260a565b5b612f1787828801612e7e565b935050604085013567ffffffffffffffff811115612f3857612f3761260a565b5b612f4487828801612ea0565b9250506060612f558782880161268d565b91505092959194509250565b7f4e487b7100000000000000000000000000000000000000000000000000000000600052603260045260246000fd5b7f4f6e6c79206f776e6572206f7220746865207175697a2063726561746f72206360008201527f616e207375626d6974207175657374696f6e7300000000000000000000000000602082015250565b6000612fec603383612cc3565b9150612ff782612f90565b604082019050919050565b6000602082019050818103600083015261301b81612fdf565b9050919050565b7f5175697a20646f6573206e6f7420657869737400000000000000000000000000600082015250565b6000613058601383612cc3565b915061306382613022565b602082019050919050565b600060208201905081810360008301526130878161304b565b9050919050565b7f5175697a20686173206e6f742073746172746564000000000000000000000000600082015250565b60006130c4601483612cc3565b91506130cf8261308e565b602082019050919050565b600060208201905081810360008301526130f3816130b7565b9050919050565b7f4e487b7100000000000000000000000000000000000000000000000000000000600052601160045260246000fd5b60006131348261260f565b915061313f8361260f565b9250827fffffffffffffffffffffffffffffffffffffffffffffffffffffffffffffffff03821115613174576131736130fa565b5b828201905092915050565b7f436f727265637420416e73776572732063616e6e6f74206265207375626d697460008201527f746564206265666f726520656e642074696d6500000000000000000000000000602082015250565b60006131db603383612cc3565b91506131e68261317f565b604082019050919050565b6000602082019050818103600083015261320a816131ce565b9050919050565b7f436f727265637420616e737765727320617265206e6f742076616c6964000000600082015250565b6000613247601d83612cc3565b915061325282613211565b602082019050919050565b600060208201905081810360008301526132768161323a565b9050919050565b60006132888261260f565b91507fffffffffffffffffffffffffffffffffffffffffffffffffffffffffffffffff8214156132bb576132ba6130fa565b5b600182019050919050565b7f4e487b7100000000000000000000000000000000000000000000000000000000600052604160045260246000fd5b60008160001c9050919050565b6000819050919050565b600061331f61331a836132f5565b613302565b9050919050565b7f4e487b7100000000000000000000000000000000000000000000000000000000600052602260045260246000fd5b6000600282049050600182168061336d57607f821691505b6020821081141561338157613380613326565b5b50919050565b60008190508160005260206000209050919050565b600081546133a981613355565b6133b3818661273b565b945060018216600081146133ce57600181146133e057613413565b60ff1983168652602086019350613413565b6133e985613387565b60005b8381101561340b578154818901526001820191506020810190506133ec565b808801955050505b50505092915050565b600073ffffffffffffffffffffffffffffffffffffffff82169050919050565b600061344f61344a836132f5565b61341c565b9050919050565b6000819050919050565b600061347361346e836132f5565b613456565b9050919050565b600060ff82169050919050565b600061349a613495836132f5565b61347a565b9050919050565b6000610140830160008084015490506134b98161330c565b6134c66000870182612721565b506001840185830360208701526134dd838261339c565b9250506002840185830360408701526134f6838261339c565b925050600384015490506135098161343c565b61351660608701826127fb565b50600484015490506135278161330c565b6135346080870182612721565b50600584015490506135458161330c565b61355260a0870182612721565b50600684015490506135638161330c565b61357060c0870182612721565b506007840154905061358181613460565b61358e60e087018261280a565b506008840154905061359f81613460565b6135ad61010087018261280a565b50600984015490506135be81613487565b6135cc610120870182612825565b50819250505092915050565b600081519050919050565b600082825260208201905092915050565b6000819050602082019050919050565b600061361083836127fb565b60208301905092915050565b6000602082019050919050565b6000613634826135d8565b61363e81856135e3565b9350613649836135f4565b8060005b8381101561367a5781516136618882613604565b975061366c8361361c565b92505060018101905061364d565b5085935050505092915050565b600060019050919050565b600081905092915050565b6000819050919050565b600060ff82169050919050565b6136bd816136a7565b82525050565b60006136cf83836136b4565b60208301905092915050565b6136e4816136a7565b81146136ef57600080fd5b50565b600081359050613701816136db565b92915050565b600061371660208401846136f2565b905092915050565b6000602082019050919050565b61373481613687565b61373e8184613692565b92506137498261369d565b8060005b838110156137825761375f8284613707565b61376987826136c3565b96506137748361371e565b92505060018101905061374d565b505050505050565b600060808201905061379f6000830187612ba5565b81810360208301526137b181866134a1565b905081810360408301526137c58185613629565b90506137d4606083018461372b565b95945050505050565b7f4e487b7100000000000000000000000000000000000000000000000000000000600052601260045260246000fd5b60006138178261260f565b91506138228361260f565b925082613832576138316137dd565b5b828204905092915050565b60006138488261260f565b91506138538361260f565b9250817fffffffffffffffffffffffffffffffffffffffffffffffffffffffffffffffff048311821515161561388c5761388b6130fa565b5b828202905092915050565b60006138a28261260f565b91506138ad8361260f565b9250828210156138c0576138bf6130fa565b5b828203905092915050565b7f5175697a2063616e6e6f74206265206372656174656420696e2074686520706160008201527f7374000000000000000000000000000000000000000000000000000000000000602082015250565b6000613927602283612cc3565b9150613932826138cb565b604082019050919050565b600060208201905081810360008301526139568161391a565b9050919050565b7f4475726174696f6e206f66207175697a2063616e6e6f74206265207a65726f00600082015250565b6000613993601f83612cc3565b915061399e8261395d565b602082019050919050565b600060208201905081810360008301526139c281613986565b9050919050565b7f5175697a206e616d652063616e6e6f7420626520656d70747900000000000000600082015250565b60006139ff601983612cc3565b9150613a0a826139c9565b602082019050919050565b60006020820190508181036000830152613a2e816139f2565b9050919050565b7f5072697a65206d6f6e65792063616e6e6f74206265207a65726f000000000000600082015250565b6000613a6b601a83612cc3565b9150613a7682613a35565b602082019050919050565b60006020820190508181036000830152613a9a81613a5e565b9050919050565b7f5072697a65206d6f6e6579206d757374206d617463682074686520616d6f756e60008201527f742073656e740000000000000000000000000000000000000000000000000000602082015250565b6000613afd602683612cc3565b9150613b0882613aa1565b604082019050919050565b60006020820190508181036000830152613b2c81613af0565b9050919050565b600061014083016000830151613b4c6000860182612721565b5060208301518482036020860152613b648282612790565b91505060408301518482036040860152613b7e8282612790565b9150506060830151613b9360608601826127fb565b506080830151613ba66080860182612721565b5060a0830151613bb960a0860182612721565b5060c0830151613bcc60c0860182612721565b5060e0830151613bdf60e086018261280a565b50610100830151613bf461010086018261280a565b50610120830151613c09610120860182612825565b508091505092915050565b6000604082019050613c296000830185612ba5565b8181036020830152613c3b8184613b33565b90509392505050565b7f5175697a20496420646f6573206e6f7420657869737473000000000000000000600082015250565b6000613c7a601783612cc3565b9150613c8582613c44565b602082019050919050565b60006020820190508181036000830152613ca981613c6d565b9050919050565b7f4f6e6c79205175697a204f776e65722063616e2075706461746520746865207160008201527f75697a0000000000000000000000000000000000000000000000000000000000602082015250565b6000613d0c602383612cc3565b9150613d1782613cb0565b604082019050919050565b60006020820190508181036000830152613d3b81613cff565b9050919050565b7f5175697a2063616e2062652075706461746564206265666f726520737461727460008201527f206f6620746865207175697a0000000000000000000000000000000000000000602082015250565b6000613d9e602c83612cc3565b9150613da982613d42565b604082019050919050565b60006020820190508181036000830152613dcd81613d91565b9050919050565b7f5175697a206f776e65722063616e6e6f7420626520656d707479000000000000600082015250565b6000613e0a601a83612cc3565b9150613e1582613dd4565b602082019050919050565b60006020820190508181036000830152613e3981613dfd565b9050919050565b600061014083016000808401549050613e588161330c565b613e656000870182612721565b50600184018583036020870152613e7c838261339c565b925050600284018583036040870152613e95838261339c565b92505060038401549050613ea88161343c565b613eb560608701826127fb565b5060048401549050613ec68161330c565b613ed36080870182612721565b5060058401549050613ee48161330c565b613ef160a0870182612721565b5060068401549050613f028161330c565b613f0f60c0870182612721565b5060078401549050613f2081613460565b613f2d60e087018261280a565b5060088401549050613f3e81613460565b613f4c61010087018261280a565b5060098401549050613f5d81613487565b613f6b610120870182612825565b50819250505092915050565b6000604082019050613f8c6000830185612ba5565b8181036020830152613f9e8184613e40565b90509392505050565b7f5175697a20686173206e6f742073746172746564207965740000000000000000600082015250565b6000613fdd601883612cc3565b9150613fe882613fa7565b602082019050919050565b6000602082019050818103600083015261400c81613fd0565b9050919050565b7f5175697a2068617320656e646564000000000000000000000000000000000000600082015250565b6000614049600e83612cc3565b915061405482614013565b602082019050919050565b600060208201905081810360008301526140788161403c565b9050919050565b7f596f75206861766520616c7265616479207375626d697474656420746865206160008201527f6e73776572730000000000000000000000000000000000000000000000000000602082015250565b60006140db602683612cc3565b91506140e68261407f565b604082019050919050565b6000602082019050818103600083015261410a816140ce565b9050919050565b60006020828403121561412757614126612605565b5b6000614135848285016136f2565b91505092915050565b7f416e73776572206973206f7574206f662072616e676500000000000000000000600082015250565b6000614174601683612cc3565b915061417f8261413e565b602082019050919050565b600060208201905081810360008301526141a381614167565b9050919050565b7f416e737765722063616e6e6f7420626520656d70747900000000000000000000600082015250565b60006141e0601683612cc3565b91506141eb826141aa565b602082019050919050565b6000602082019050818103600083015261420f816141d3565b9050919050565b7f5175697a2068617320616c726561647920737461727465640000000000000000600082015250565b600061424c601883612cc3565b915061425782614216565b602082019050919050565b6000602082019050818103600083015261427b8161423f565b9050919050565b600080fd5b600080fd5b600080fd5b600080833560016020038436030381126142ae576142ad614282565b5b80840192508235915067ffffffffffffffff8211156142d0576142cf614287565b5b6020830192506001820236038313156142ec576142eb61428c565b5b509250929050565b7f5175657374696f6e2063616e6e6f7420626520656d7074790000000000000000600082015250565b600061432a601883612cc3565b9150614335826142f4565b602082019050919050565b600060208201905081810360008301526143598161431d565b9050919050565b60008235600160800383360303811261437c5761437b614282565b5b80830191505092915050565b7f4f7074696f6e2063616e6e6f7420626520656d70747900000000000000000000600082015250565b60006143be601683612cc3565b91506143c982614388565b602082019050919050565b600060208201905081810360008301526143ed816143b1565b9050919050565b7f5175657374696f6e7320617265206e6f742076616c6964000000000000000000600082015250565b600061442a601783612cc3565b9150614435826143f4565b602082019050919050565b600060208201905081810360008301526144598161441d565b9050919050565b600060019050919050565b600081905092915050565b6000819050919050565b82818337600083830152505050565b600061449b838561273b565b93506144a8838584614480565b6144b18361277f565b840190509392505050565b60006144c984848461448f565b90509392505050565b600080fd5b600080fd5b600080fd5b600080833560016020038436030381126144fe576144fd6144dc565b5b83810192508235915060208301925067ffffffffffffffff821115614526576145256144d2565b5b60018202360384131561453c5761453b6144d7565b5b509250929050565b6000602082019050919050565b600061455c82614460565b614566818561446b565b93508360208202850161457885614476565b8060005b858110156145be57848403895261459382846144e1565b61459e8682846144bc565b95506145a984614544565b935060208b019a50505060018101905061457c565b50829750879550505050505092915050565b600060019050919050565b600081905092915050565b6000819050919050565b600060049050919050565b600081905092915050565b6000819050919050565b6000602082019050919050565b6000614628826145f0565b61463281856145fb565b93508360208202850161464485614606565b8060005b8581101561468a57848403895261465f82846144e1565b61466a8682846144bc565b955061467584614610565b935060208b019a505050600181019050614648565b50829750879550505050505092915050565b60006146a8838361461d565b905092915050565b6000823560016080038336030381126146cc576146cb6144dc565b5b82810191505092915050565b6000602082019050919050565b60006146f0826145d0565b6146fa81856145db565b93508360208202850161470c856145e6565b8060005b8581101561475057848403895261472782846146b0565b614731858261469c565b945061473c836146d8565b925060208a01995050600181019050614710565b50829750879550505050505092915050565b60006060820190506147776000830186612ba5565b81810360208301526147898185614551565b9050818103604083015261479d81846146e5565b9050949350505050565b60006040820190506147bc600083018561372b565b6147c96020830184612d1c565b9392505050565b60006020820190506147e5600083018461372b565b92915050565b600060019050919050565b6000819050919050565b600060ff82169050919050565b600061482061481b836132f5565b614800565b9050919050565b60008160081c9050919050565b600061484761484283614827565b614800565b9050919050565b60008160101c9050919050565b600061486e6148698361484e565b614800565b9050919050565b60008160181c9050919050565b600061489561489083614875565b614800565b9050919050565b60008160201c9050919050565b60006148bc6148b78361489c565b614800565b9050919050565b60008160281c9050919050565b60006148e36148de836148c3565b614800565b9050919050565b60008160301c9050919050565b600061490a614905836148ea565b614800565b9050919050565b60008160381c9050919050565b600061493161492c83614911565b614800565b9050919050565b60008160401c9050919050565b600061495861495383614938565b614800565b9050919050565b60008160481c9050919050565b600061497f61497a8361495f565b614800565b9050919050565b60008160501c9050919050565b60006149a66149a183614986565b614800565b9050919050565b60008160581c9050919050565b60006149cd6149c8836149ad565b614800565b9050919050565b60008160601c9050919050565b60006149f46149ef836149d4565b614800565b9050919050565b60008160681c9050919050565b6000614a1b614a16836149fb565b614800565b9050919050565b60008160701c9050919050565b6000614a42614a3d83614a22565b614800565b9050919050565b60008160781c9050919050565b6000614a69614a6483614a49565b614800565b9050919050565b60008160801c9050919050565b6000614a90614a8b83614a70565b614800565b9050919050565b60008160881c9050919050565b6000614ab7614ab283614a97565b614800565b9050919050565b60008160901c9050919050565b6000614ade614ad983614abe565b614800565b9050919050565b60008160981c9050919050565b6000614b05614b0083614ae5565b614800565b9050919050565b60008160a01c9050919050565b6000614b2c614b2783614b0c565b614800565b9050919050565b60008160a81c9050919050565b6000614b53614b4e83614b33565b614800565b9050919050565b60008160b01c9050919050565b6000614b7a614b7583614b5a565b614800565b9050919050565b60008160b81c9050919050565b6000614ba1614b9c83614b81565b614800565b9050919050565b60008160c01c9050919050565b6000614bc8614bc383614ba8565b614800565b9050919050565b60008160c81c9050919050565b6000614bef614bea83614bcf565b614800565b9050919050565b60008160d01c9050919050565b6000614c16614c1183614bf6565b614800565b9050919050565b60008160d81c9050919050565b6000614c3d614c3883614c1d565b614800565b9050919050565b60008160e01c9050919050565b6000614c64614c5f83614c44565b614800565b9050919050565b60008160e81c9050919050565b6000614c8b614c8683614c6b565b614800565b9050919050565b60008160f01c9050919050565b6000614cb2614cad83614c92565b614800565b9050919050565b60008160f81c9050919050565b6000614cd9614cd483614cb9565b614800565b9050919050565b614ce9816147eb565b614cf38184613692565b925082614cff836147f6565b6000801561502b575b8360016020038201101561502a578154614d2a87614d258361480d565b6136b4565b602087019650614d4287614d3d83614834565b6136b4565b602087019650614d5a87614d558361485b565b6136b4565b602087019650614d7287614d6d83614882565b6136b4565b602087019650614d8a87614d85836148a9565b6136b4565b602087019650614da287614d9d836148d0565b6136b4565b602087019650614dba87614db5836148f7565b6136b4565b602087019650614dd287614dcd8361491e565b6136b4565b602087019650614dea87614de583614945565b6136b4565b602087019650614e0287614dfd8361496c565b6136b4565b602087019650614e1a87614e1583614993565b6136b4565b602087019650614e3287614e2d836149ba565b6136b4565b602087019650614e4a87614e45836149e1565b6136b4565b602087019650614e6287614e5d83614a08565b6136b4565b602087019650614e7a87614e7583614a2f565b6136b4565b602087019650614e9287614e8d83614a56565b6136b4565b602087019650614eaa87614ea583614a7d565b6136b4565b602087019650614ec287614ebd83614aa4565b6136b4565b602087019650614eda87614ed583614acb565b6136b4565b602087019650614ef287614eed83614af2565b6136b4565b602087019650614f0a87614f0583614b19565b6136b4565b602087019650614f2287614f1d83614b40565b6136b4565b602087019650614f3a87614f3583614b67565b6136b4565b602087019650614f5287614f4d83614b8e565b6136b4565b602087019650614f6a87614f6583614bb5565b6136b4565b602087019650614f8287614f7d83614bdc565b6136b4565b602087019650614f9a87614f9583614c03565b6136b4565b602087019650614fb287614fad83614c2a565b6136b4565b602087019650614fca87614fc583614c51565b6136b4565b602087019650614fe287614fdd83614c78565b6136b4565b602087019650614ffa87614ff583614c9f565b6136b4565b6020870196506150128761500d83614cc6565b6136b4565b60208701965060018301925050602081019050614d08565b5b6001156154f657815460011561505a5761504d876150488361480d565b6136b4565b6020870196506001820191505b600015615080576150738761506e83614834565b6136b4565b6020870196506001820191505b6000156150a657615099876150948361485b565b6136b4565b6020870196506001820191505b6000156150cc576150bf876150ba83614882565b6136b4565b6020870196506001820191505b6000156150f2576150e5876150e0836148a9565b6136b4565b6020870196506001820191505b6000156151185761510b87615106836148d0565b6136b4565b6020870196506001820191505b60001561513e576151318761512c836148f7565b6136b4565b6020870196506001820191505b60001561516457615157876151528361491e565b6136b4565b6020870196506001820191505b60001561518a5761517d8761517883614945565b6136b4565b6020870196506001820191505b6000156151b0576151a38761519e8361496c565b6136b4565b6020870196506001820191505b6000156151d6576151c9876151c483614993565b6136b4565b6020870196506001820191505b6000156151fc576151ef876151ea836149ba565b6136b4565b6020870196506001820191505b6000156152225761521587615210836149e1565b6136b4565b6020870196506001820191505b6000156152485761523b8761523683614a08565b6136b4565b6020870196506001820191505b60001561526e576152618761525c83614a2f565b6136b4565b6020870196506001820191505b600015615294576152878761528283614a56565b6136b4565b6020870196506001820191505b6000156152ba576152ad876152a883614a7d565b6136b4565b6020870196506001820191505b6000156152e0576152d3876152ce83614aa4565b6136b4565b6020870196506001820191505b600015615306576152f9876152f483614acb565b6136b4565b6020870196506001820191505b60001561532c5761531f8761531a83614af2565b6136b4565b6020870196506001820191505b600015615352576153458761534083614b19565b6136b4565b6020870196506001820191505b6000156153785761536b8761536683614b40565b6136b4565b6020870196506001820191505b60001561539e576153918761538c83614b67565b6136b4565b6020870196506001820191505b6000156153c4576153b7876153b283614b8e565b6136b4565b6020870196506001820191505b6000156153ea576153dd876153d883614bb5565b6136b4565b6020870196506001820191505b60001561541057615403876153fe83614bdc565b6136b4565b6020870196506001820191505b600015615436576154298761542483614c03565b6136b4565b6020870196506001820191505b60001561545c5761544f8761544a83614c2a565b6136b4565b6020870196506001820191505b600015615482576154758761547083614c51565b6136b4565b6020870196506001820191505b6000156154a85761549b8761549683614c78565b6136b4565b6020870196506001820191505b6000156154ce576154c1876154bc83614c9f565b6136b4565b6020870196506001820191505b6000156154f4576154e7876154e283614cc6565b6136b4565b6020870196506001820191505b505b505050505050565b60006020820190506155136000830184614ce0565b92915050565b600060608201905081810360008301526155338186614551565b9050818103602083015261554781856146e5565b90506155566040830184612d1c565b94935050505056fea2646970667358221220b0ed35c361473d191eeea5bdb11cb37d4dbaa41bb6b9bbd8e1249b17f7a69e5e64736f6c634300080a0033",
  "immutableReferences": {},
  "source": "// SPDX-License-Identifier: MIT\r\npragma solidity >=0.8.10;\r\n\r\ncontract QuizContract {\r\n    uint8 constant noOfQuestions = 1;\r\n    uint8 constant noOfOptions = 4;\r\n\r\n    event QuizCreated(uint256 quizId, Quiz quiz);\r\n\r\n    event QuizUpdated(uint256 quizId, Quiz quiz);\r\n\r\n    event QuizStarted(\r\n        uint256 quizId,\r\n        string[noOfQuestions] questions,\r\n        string[noOfOptions][noOfQuestions] options\r\n    );\r\n\r\n    event QuizCompleted(\r\n        uint256 quizId,\r\n        Quiz quiz,\r\n        address[] winners,\r\n        uint8[noOfQuestions] answers\r\n    );\r\n\r\n    struct Answers {\r\n        uint8[noOfQuestions] selectedOptions;\r\n        uint256 submissionTime;\r\n        address submissionAddress;\r\n    }\r\n\r\n    struct Quiz {\r\n        uint256 quizId;\r\n        string quizName;\r\n        string description;\r\n        address quizOwner;\r\n        uint256 prizeMoney; //wei\r\n        uint256 startTime;\r\n        uint256 duration; //seconds\r\n        bytes32 questionHash;\r\n        bytes32 answerHash;\r\n        bool isRunning;\r\n    }\r\n\r\n    address owner;\r\n    Quiz[] public quizzes;\r\n    mapping(uint256 => Answers[]) public submittedAnswers;\r\n    mapping(uint256 => mapping(address => bool)) public isSubmited;\r\n\r\n    constructor() {\r\n        owner = msg.sender;\r\n    }\r\n\r\n    modifier onlyOwners(uint256 _quizId) {\r\n        require(\r\n            msg.sender == owner || msg.sender == quizzes[_quizId].quizOwner,\r\n            \"Only owner or the quiz creator can submit questions\"\r\n        );\r\n        _;\r\n    }\r\n\r\n    modifier refundGas(uint256 _quizId) {\r\n        uint256 gasAtStart = gasleft();\r\n        _;\r\n        if (msg.sender != owner) return;\r\n        uint256 gasSpent = gasAtStart - gasleft() + 30000;\r\n        uint256 gasCost = gasSpent * tx.gasprice;\r\n        payable(msg.sender).transfer(gasCost);\r\n        quizzes[_quizId].prizeMoney -= gasCost;\r\n    }\r\n\r\n    function hashQuestions(\r\n        string[noOfQuestions] calldata _questions,\r\n        string[noOfOptions][noOfQuestions] calldata _options,\r\n        bytes32 _hashSalt\r\n    ) internal pure returns (bytes32) {\r\n        return keccak256(abi.encode(_questions, _options, _hashSalt));\r\n    }\r\n\r\n    function hashAnswers(\r\n        uint8[noOfQuestions] calldata _answers,\r\n        bytes32 _hashSalt\r\n    ) internal pure returns (bytes32) {\r\n        return keccak256(abi.encode(_answers, _hashSalt));\r\n    }\r\n\r\n    function equalAnswers(\r\n        uint8[noOfQuestions] storage correctOptions,\r\n        uint8[noOfQuestions] calldata options\r\n    ) internal pure returns (bool) {\r\n        return\r\n            keccak256(abi.encode(correctOptions)) ==\r\n            keccak256(abi.encode(options));\r\n    }\r\n\r\n    function getPendingQuizzes()\r\n        public\r\n        view\r\n        returns (Quiz[] memory pendingQuizzes)\r\n    {\r\n        uint256 present = block.timestamp;\r\n        uint256 noOfQuizzes = 0;\r\n        for (uint256 i = 0; i < quizzes.length; i++) {\r\n            if (\r\n                quizzes[i].startTime <= present &&\r\n                (quizzes[i].startTime + quizzes[i].duration) >= present\r\n            ) {\r\n                noOfQuizzes++;\r\n            }\r\n        }\r\n        pendingQuizzes = new Quiz[](noOfQuizzes);\r\n        uint256 j = 0;\r\n        for (uint256 i = 0; i < quizzes.length; i++) {\r\n            if (\r\n                quizzes[i].startTime <= present &&\r\n                (quizzes[i].startTime + quizzes[i].duration) >= present\r\n            ) {\r\n                pendingQuizzes[j++] = quizzes[i];\r\n            }\r\n        }\r\n        return pendingQuizzes;\r\n    }\r\n\r\n    function getQuizzesBy(address user)\r\n        external\r\n        view\r\n        returns (Quiz[] memory quizzesByUser)\r\n    {\r\n        uint256 noOfQuizzes = 0;\r\n        for (uint256 i = 0; i < quizzes.length; i++) {\r\n            if (quizzes[i].quizOwner == user) {\r\n                noOfQuizzes++;\r\n            }\r\n        }\r\n        quizzesByUser = new Quiz[](noOfQuizzes);\r\n        uint256 j = 0;\r\n        for (uint256 i = 0; i < quizzes.length; i++) {\r\n            if (quizzes[i].quizOwner == user) {\r\n                quizzesByUser[j++] = quizzes[i];\r\n            }\r\n        }\r\n        return quizzesByUser;\r\n    }\r\n\r\n    function createQuiz(\r\n        string calldata quizName,\r\n        string calldata description,\r\n        uint256 prizeMoney, //wei\r\n        uint256 startTime,\r\n        uint256 duration, //seconds\r\n        bytes32 questionHash,\r\n        bytes32 answerHash\r\n    ) external payable returns (uint256) {\r\n        require(\r\n            startTime > block.timestamp,\r\n            \"Quiz cannot be created in the past\"\r\n        );\r\n        require(duration > 0, \"Duration of quiz cannot be zero\");\r\n        require(bytes(quizName).length != 0, \"Quiz name cannot be empty\");\r\n        require(prizeMoney > 0, \"Prize money cannot be zero\");\r\n        require(\r\n            prizeMoney == msg.value,\r\n            \"Prize money must match the amount sent\"\r\n        );\r\n\r\n        Quiz memory _newQuiz = Quiz(\r\n            quizzes.length,\r\n            quizName,\r\n            description,\r\n            msg.sender,\r\n            prizeMoney,\r\n            startTime,\r\n            duration,\r\n            questionHash,\r\n            answerHash,\r\n            false\r\n        );\r\n        quizzes.push(_newQuiz);\r\n        emit QuizCreated(quizzes.length - 1, _newQuiz);\r\n\r\n        return quizzes.length - 1;\r\n    }\r\n\r\n    function updateQuiz(\r\n        uint256 _quizId,\r\n        string calldata _description,\r\n        address _quizOwner,\r\n        bytes32 _questionHash,\r\n        bytes32 _answerHash\r\n    ) external {\r\n        require(quizzes.length > _quizId, \"Quiz Id does not exists\");\r\n        require(\r\n            quizzes[_quizId].quizOwner == msg.sender,\r\n            \"Only Quiz Owner can update the quiz\"\r\n        );\r\n        require(\r\n            quizzes[_quizId].startTime > block.timestamp,\r\n            \"Quiz can be updated before start of the quiz\"\r\n        );\r\n\r\n        require(_quizOwner != address(0), \"Quiz owner cannot be empty\");\r\n\r\n        Quiz storage _quiz = quizzes[_quizId];\r\n        _quiz.description = _description;\r\n        _quiz.quizOwner = _quizOwner;\r\n        _quiz.questionHash = _questionHash;\r\n        _quiz.answerHash = _answerHash;\r\n\r\n        emit QuizUpdated(_quizId, _quiz);\r\n    }\r\n\r\n    function submitQuestions(\r\n        uint256 _quizId,\r\n        string[noOfQuestions] calldata _questions,\r\n        string[noOfOptions][noOfQuestions] calldata _options,\r\n        bytes32 _hashSalt\r\n    ) external onlyOwners(_quizId) {\r\n        require(\r\n            quizzes[_quizId].isRunning == false,\r\n            \"Quiz has already started\"\r\n        );\r\n        for (uint256 i = 0; i < _questions.length; i++) {\r\n            require(\r\n                bytes(_questions[i]).length != 0,\r\n                \"Question cannot be empty\"\r\n            );\r\n            for (uint256 j = 0; j < _options[i].length; j++) {\r\n                require(\r\n                    bytes(_options[i][j]).length != 0,\r\n                    \"Option cannot be empty\"\r\n                );\r\n            }\r\n        }\r\n        require(\r\n            hashQuestions(_questions, _options, _hashSalt) ==\r\n                quizzes[_quizId].questionHash,\r\n            \"Questions are not valid\"\r\n        );\r\n\r\n        quizzes[_quizId].startTime = block.timestamp;\r\n        quizzes[_quizId].isRunning = true;\r\n        emit QuizStarted(_quizId, _questions, _options);\r\n    }\r\n\r\n    function submitCorrectAnswers(\r\n        uint256 _quizId,\r\n        uint8[noOfQuestions] calldata _quizAnswers,\r\n        bytes32 _hashSalt\r\n    ) external onlyOwners(_quizId) {\r\n        require(_quizId < quizzes.length, \"Quiz does not exist\");\r\n        require(quizzes[_quizId].isRunning == true, \"Quiz has not started\");\r\n        require(\r\n            block.timestamp >\r\n                quizzes[_quizId].startTime + quizzes[_quizId].duration,\r\n            \"Correct Answers cannot be submitted before end time\"\r\n        );\r\n        require(\r\n            hashAnswers(_quizAnswers, _hashSalt) == quizzes[_quizId].answerHash,\r\n            \"Correct answers are not valid\"\r\n        );\r\n\r\n        uint256 totalWinners = 0;\r\n        for (uint256 i = 0; i < submittedAnswers[_quizId].length; i++) {\r\n            if (\r\n                equalAnswers(\r\n                    submittedAnswers[_quizId][i].selectedOptions,\r\n                    _quizAnswers\r\n                )\r\n            ) {\r\n                totalWinners++;\r\n            }\r\n        }\r\n\r\n        address[] memory winners = new address[](totalWinners);\r\n        if (totalWinners == 0) {\r\n            payable(quizzes[_quizId].quizOwner).transfer(\r\n                quizzes[_quizId].prizeMoney\r\n            );\r\n            emit QuizCompleted(\r\n                _quizId,\r\n                quizzes[_quizId],\r\n                winners,\r\n                _quizAnswers\r\n            );\r\n            return;\r\n        }\r\n        uint256 prizeMoneyPerWinner = quizzes[_quizId].prizeMoney /\r\n            totalWinners;\r\n        uint256 prizeMoneyLeft = quizzes[_quizId].prizeMoney -\r\n            prizeMoneyPerWinner *\r\n            totalWinners;\r\n        uint256 j = 0;\r\n        for (uint256 i = 0; i < submittedAnswers[_quizId].length; i++) {\r\n            if (\r\n                equalAnswers(\r\n                    submittedAnswers[_quizId][i].selectedOptions,\r\n                    _quizAnswers\r\n                )\r\n            ) {\r\n                winners[j++] = submittedAnswers[_quizId][i].submissionAddress;\r\n                payable(submittedAnswers[_quizId][i].submissionAddress)\r\n                    .transfer(prizeMoneyPerWinner);\r\n            }\r\n        }\r\n        payable(quizzes[_quizId].quizOwner).transfer(prizeMoneyLeft);\r\n\r\n        emit QuizCompleted(_quizId, quizzes[_quizId], winners, _quizAnswers);\r\n    }\r\n\r\n    function submitPlayerAnswer(\r\n        uint256 _quizId,\r\n        uint8[noOfQuestions] calldata _answers\r\n    ) external {\r\n        require(quizzes[_quizId].isRunning == true, \"Quiz has not started yet\");\r\n        require(\r\n            quizzes[_quizId].startTime + quizzes[_quizId].duration >=\r\n                block.timestamp,\r\n            \"Quiz has ended\"\r\n        );\r\n        require(\r\n            isSubmited[_quizId][msg.sender] == false,\r\n            \"You have already submitted the answers\"\r\n        );\r\n\r\n        for (uint256 i = 0; i < _answers.length; i++) {\r\n            require(_answers[i] < noOfOptions, \"Answer is out of range\");\r\n            require(_answers[i] != 0, \"Answer cannot be empty\");\r\n        }\r\n\r\n        isSubmited[_quizId][msg.sender] = true;\r\n        submittedAnswers[_quizId].push(\r\n            Answers(_answers, block.timestamp, msg.sender)\r\n        );\r\n    }\r\n}\r\n",
  "sourcePath": "/app/contracts/QuizContract.sol",
  "compiler": {
    "name": "solc",
    "version": "0.8.10+commit.fc410830.Emscripten.clang"
  },
  "schemaVersion": "3.4.4",
  "updatedAt": "2022-01-23T15:27:07.051Z",
  "networkType": "ethereum",
  "devdoc": {
    "kind": "dev",
    "methods": {},
    "version": 1
  },
  "userdoc": {
    "kind": "user",
    "methods": {},
    "version": 1
  }
}