{
  "contractName": "QuizContract",
  "abi": [
    {
      "inputs": [],
      "stateMutability": "nonpayable",
      "type": "constructor"
    },
    {
      "anonymous": false,
      "inputs": [
        {
          "indexed": false,
          "internalType": "uint256",
          "name": "quizId",
          "type": "uint256"
        },
        {
          "components": [
            {
              "internalType": "uint256",
              "name": "quizId",
              "type": "uint256"
            },
            {
              "internalType": "string",
              "name": "quizName",
              "type": "string"
            },
            {
              "internalType": "string",
              "name": "description",
              "type": "string"
            },
            {
              "internalType": "address",
              "name": "quizOwner",
              "type": "address"
            },
            {
              "internalType": "uint256",
              "name": "prizeMoney",
              "type": "uint256"
            },
            {
              "internalType": "uint256",
              "name": "startTime",
              "type": "uint256"
            },
            {
              "internalType": "uint256",
              "name": "duration",
              "type": "uint256"
            },
            {
              "internalType": "bytes32",
              "name": "questionHash",
              "type": "bytes32"
            },
            {
              "internalType": "bytes32",
              "name": "answerHash",
              "type": "bytes32"
            },
            {
              "internalType": "bool",
              "name": "isRunning",
              "type": "bool"
            }
          ],
          "indexed": false,
          "internalType": "struct QuizContract.Quiz",
          "name": "quiz",
          "type": "tuple"
        },
        {
          "indexed": false,
          "internalType": "address[]",
          "name": "winners",
          "type": "address[]"
        },
        {
          "indexed": false,
          "internalType": "uint8[1]",
          "name": "answers",
          "type": "uint8[1]"
        }
      ],
      "name": "QuizCompleted",
      "type": "event"
    },
    {
      "anonymous": false,
      "inputs": [
        {
          "indexed": false,
          "internalType": "uint256",
          "name": "quizId",
          "type": "uint256"
        },
        {
          "components": [
            {
              "internalType": "uint256",
              "name": "quizId",
              "type": "uint256"
            },
            {
              "internalType": "string",
              "name": "quizName",
              "type": "string"
            },
            {
              "internalType": "string",
              "name": "description",
              "type": "string"
            },
            {
              "internalType": "address",
              "name": "quizOwner",
              "type": "address"
            },
            {
              "internalType": "uint256",
              "name": "prizeMoney",
              "type": "uint256"
            },
            {
              "internalType": "uint256",
              "name": "startTime",
              "type": "uint256"
            },
            {
              "internalType": "uint256",
              "name": "duration",
              "type": "uint256"
            },
            {
              "internalType": "bytes32",
              "name": "questionHash",
              "type": "bytes32"
            },
            {
              "internalType": "bytes32",
              "name": "answerHash",
              "type": "bytes32"
            },
            {
              "internalType": "bool",
              "name": "isRunning",
              "type": "bool"
            }
          ],
          "indexed": false,
          "internalType": "struct QuizContract.Quiz",
          "name": "quiz",
          "type": "tuple"
        }
      ],
      "name": "QuizCreated",
      "type": "event"
    },
    {
      "anonymous": false,
      "inputs": [
        {
          "indexed": false,
          "internalType": "uint256",
          "name": "quizId",
          "type": "uint256"
        },
        {
          "indexed": false,
          "internalType": "string[1]",
          "name": "questions",
          "type": "string[1]"
        },
        {
          "indexed": false,
          "internalType": "string[4][1]",
          "name": "options",
          "type": "string[4][1]"
        }
      ],
      "name": "QuizStarted",
      "type": "event"
    },
    {
      "anonymous": false,
      "inputs": [
        {
          "indexed": false,
          "internalType": "uint256",
          "name": "quizId",
          "type": "uint256"
        },
        {
          "components": [
            {
              "internalType": "uint256",
              "name": "quizId",
              "type": "uint256"
            },
            {
              "internalType": "string",
              "name": "quizName",
              "type": "string"
            },
            {
              "internalType": "string",
              "name": "description",
              "type": "string"
            },
            {
              "internalType": "address",
              "name": "quizOwner",
              "type": "address"
            },
            {
              "internalType": "uint256",
              "name": "prizeMoney",
              "type": "uint256"
            },
            {
              "internalType": "uint256",
              "name": "startTime",
              "type": "uint256"
            },
            {
              "internalType": "uint256",
              "name": "duration",
              "type": "uint256"
            },
            {
              "internalType": "bytes32",
              "name": "questionHash",
              "type": "bytes32"
            },
            {
              "internalType": "bytes32",
              "name": "answerHash",
              "type": "bytes32"
            },
            {
              "internalType": "bool",
              "name": "isRunning",
              "type": "bool"
            }
          ],
          "indexed": false,
          "internalType": "struct QuizContract.Quiz",
          "name": "quiz",
          "type": "tuple"
        }
      ],
      "name": "QuizUpdated",
      "type": "event"
    },
    {
      "inputs": [
        {
          "internalType": "uint256",
          "name": "",
          "type": "uint256"
        },
        {
          "internalType": "address",
          "name": "",
          "type": "address"
        }
      ],
      "name": "isSubmited",
      "outputs": [
        {
          "internalType": "bool",
          "name": "",
          "type": "bool"
        }
      ],
      "stateMutability": "view",
      "type": "function",
      "constant": true
    },
    {
      "inputs": [
        {
          "internalType": "uint256",
          "name": "",
          "type": "uint256"
        }
      ],
      "name": "quizzes",
      "outputs": [
        {
          "internalType": "uint256",
          "name": "quizId",
          "type": "uint256"
        },
        {
          "internalType": "string",
          "name": "quizName",
          "type": "string"
        },
        {
          "internalType": "string",
          "name": "description",
          "type": "string"
        },
        {
          "internalType": "address",
          "name": "quizOwner",
          "type": "address"
        },
        {
          "internalType": "uint256",
          "name": "prizeMoney",
          "type": "uint256"
        },
        {
          "internalType": "uint256",
          "name": "startTime",
          "type": "uint256"
        },
        {
          "internalType": "uint256",
          "name": "duration",
          "type": "uint256"
        },
        {
          "internalType": "bytes32",
          "name": "questionHash",
          "type": "bytes32"
        },
        {
          "internalType": "bytes32",
          "name": "answerHash",
          "type": "bytes32"
        },
        {
          "internalType": "bool",
          "name": "isRunning",
          "type": "bool"
        }
      ],
      "stateMutability": "view",
      "type": "function",
      "constant": true
    },
    {
      "inputs": [
        {
          "internalType": "uint256",
          "name": "",
          "type": "uint256"
        },
        {
          "internalType": "uint256",
          "name": "",
          "type": "uint256"
        }
      ],
      "name": "submittedAnswers",
      "outputs": [
        {
          "internalType": "uint256",
          "name": "submissionTime",
          "type": "uint256"
        },
        {
          "internalType": "address",
          "name": "submissionAddress",
          "type": "address"
        }
      ],
      "stateMutability": "view",
      "type": "function",
      "constant": true
    },
    {
      "inputs": [],
      "name": "getPendingQuizzes",
      "outputs": [
        {
          "components": [
            {
              "internalType": "uint256",
              "name": "quizId",
              "type": "uint256"
            },
            {
              "internalType": "string",
              "name": "quizName",
              "type": "string"
            },
            {
              "internalType": "string",
              "name": "description",
              "type": "string"
            },
            {
              "internalType": "address",
              "name": "quizOwner",
              "type": "address"
            },
            {
              "internalType": "uint256",
              "name": "prizeMoney",
              "type": "uint256"
            },
            {
              "internalType": "uint256",
              "name": "startTime",
              "type": "uint256"
            },
            {
              "internalType": "uint256",
              "name": "duration",
              "type": "uint256"
            },
            {
              "internalType": "bytes32",
              "name": "questionHash",
              "type": "bytes32"
            },
            {
              "internalType": "bytes32",
              "name": "answerHash",
              "type": "bytes32"
            },
            {
              "internalType": "bool",
              "name": "isRunning",
              "type": "bool"
            }
          ],
          "internalType": "struct QuizContract.Quiz[]",
          "name": "pendingQuizzes",
          "type": "tuple[]"
        }
      ],
      "stateMutability": "view",
      "type": "function",
      "constant": true
    },
    {
      "inputs": [
        {
          "internalType": "address",
          "name": "user",
          "type": "address"
        }
      ],
      "name": "getQuizzesBy",
      "outputs": [
        {
          "components": [
            {
              "internalType": "uint256",
              "name": "quizId",
              "type": "uint256"
            },
            {
              "internalType": "string",
              "name": "quizName",
              "type": "string"
            },
            {
              "internalType": "string",
              "name": "description",
              "type": "string"
            },
            {
              "internalType": "address",
              "name": "quizOwner",
              "type": "address"
            },
            {
              "internalType": "uint256",
              "name": "prizeMoney",
              "type": "uint256"
            },
            {
              "internalType": "uint256",
              "name": "startTime",
              "type": "uint256"
            },
            {
              "internalType": "uint256",
              "name": "duration",
              "type": "uint256"
            },
            {
              "internalType": "bytes32",
              "name": "questionHash",
              "type": "bytes32"
            },
            {
              "internalType": "bytes32",
              "name": "answerHash",
              "type": "bytes32"
            },
            {
              "internalType": "bool",
              "name": "isRunning",
              "type": "bool"
            }
          ],
          "internalType": "struct QuizContract.Quiz[]",
          "name": "quizzesByUser",
          "type": "tuple[]"
        }
      ],
      "stateMutability": "view",
      "type": "function",
      "constant": true
    },
    {
      "inputs": [
        {
          "internalType": "string",
          "name": "quizName",
          "type": "string"
        },
        {
          "internalType": "string",
          "name": "description",
          "type": "string"
        },
        {
          "internalType": "uint256",
          "name": "prizeMoney",
          "type": "uint256"
        },
        {
          "internalType": "uint256",
          "name": "startTime",
          "type": "uint256"
        },
        {
          "internalType": "uint256",
          "name": "duration",
          "type": "uint256"
        },
        {
          "internalType": "bytes32",
          "name": "questionHash",
          "type": "bytes32"
        },
        {
          "internalType": "bytes32",
          "name": "answerHash",
          "type": "bytes32"
        }
      ],
      "name": "createQuiz",
      "outputs": [
        {
          "internalType": "uint256",
          "name": "",
          "type": "uint256"
        }
      ],
      "stateMutability": "payable",
      "type": "function",
      "payable": true
    },
    {
      "inputs": [
        {
          "internalType": "uint256",
          "name": "_quizId",
          "type": "uint256"
        },
        {
          "internalType": "string",
          "name": "_description",
          "type": "string"
        },
        {
          "internalType": "address",
          "name": "_quizOwner",
          "type": "address"
        },
        {
          "internalType": "bytes32",
          "name": "_questionHash",
          "type": "bytes32"
        },
        {
          "internalType": "bytes32",
          "name": "_answerHash",
          "type": "bytes32"
        }
      ],
      "name": "updateQuiz",
      "outputs": [],
      "stateMutability": "nonpayable",
      "type": "function"
    },
    {
      "inputs": [
        {
          "internalType": "uint256",
          "name": "_quizId",
          "type": "uint256"
        },
        {
          "internalType": "string[1]",
          "name": "_questions",
          "type": "string[1]"
        },
        {
          "internalType": "string[4][1]",
          "name": "_options",
          "type": "string[4][1]"
        },
        {
          "internalType": "bytes32",
          "name": "_hashSalt",
          "type": "bytes32"
        }
      ],
      "name": "submitQuestions",
      "outputs": [],
      "stateMutability": "nonpayable",
      "type": "function"
    },
    {
      "inputs": [
        {
          "internalType": "uint256",
          "name": "_quizId",
          "type": "uint256"
        },
        {
          "internalType": "uint8[1]",
          "name": "_quizAnswers",
          "type": "uint8[1]"
        },
        {
          "internalType": "bytes32",
          "name": "_hashSalt",
          "type": "bytes32"
        }
      ],
      "name": "submitCorrectAnswers",
      "outputs": [],
      "stateMutability": "nonpayable",
      "type": "function"
    },
    {
      "inputs": [
        {
          "internalType": "uint256",
          "name": "_quizId",
          "type": "uint256"
        },
        {
          "internalType": "uint8[1]",
          "name": "_answers",
          "type": "uint8[1]"
        }
      ],
      "name": "submitPlayerAnswer",
      "outputs": [],
      "stateMutability": "nonpayable",
      "type": "function"
    }
  ],
  "bytecode": "0x608060405234801561001057600080fd5b50336000806101000a81548173ffffffffffffffffffffffffffffffffffffffff021916908373ffffffffffffffffffffffffffffffffffffffff1602179055506153f4806100606000396000f3fe6080604052600436106100915760003560e01c80637de75686116100595780637de756861461019457806388409afa146101bd578063b6c3c9b914610203578063cf1da55c1461022c578063ebfb47ea1461026a57610091565b80630caf673a1461009657806317079261146100bf5780632e730952146100ea5780632fbddbb2146101275780635d9c61c214610157575b600080fd5b3480156100a257600080fd5b506100bd60048036038101906100b89190612669565b610293565b005b3480156100cb57600080fd5b506100d4610a8c565b6040516100e19190612972565b60405180910390f35b3480156100f657600080fd5b50610111600480360381019061010c91906129c0565b610e90565b60405161011e9190612a0f565b60405180910390f35b610141600480360381019061013c9190612a8a565b610ebf565b60405161014e9190612b7b565b60405180910390f35b34801561016357600080fd5b5061017e60048036038101906101799190612b96565b611279565b60405161018b9190612972565b60405180910390f35b3480156101a057600080fd5b506101bb60048036038101906101b69190612bc3565b61164d565b005b3480156101c957600080fd5b506101e460048036038101906101df9190612c5d565b6118b6565b6040516101fa9a99989796959493929190612cf2565b60405180910390f35b34801561020f57600080fd5b5061022a60048036038101906102259190612d9c565b611a57565b005b34801561023857600080fd5b50610253600480360381019061024e9190612ddc565b611e82565b604051610261929190612e1c565b60405180910390f35b34801561027657600080fd5b50610291600480360381019061028c9190612e89565b611ee3565b005b8260008054906101000a900473ffffffffffffffffffffffffffffffffffffffff1673ffffffffffffffffffffffffffffffffffffffff163373ffffffffffffffffffffffffffffffffffffffff16148061035e5750600181815481106102fd576102fc612f28565b5b90600052602060002090600a020160030160009054906101000a900473ffffffffffffffffffffffffffffffffffffffff1673ffffffffffffffffffffffffffffffffffffffff163373ffffffffffffffffffffffffffffffffffffffff16145b61039d576040517f08c379a000000000000000000000000000000000000000000000000000000000815260040161039490612fc9565b60405180910390fd5b60018054905084106103e4576040517f08c379a00000000000000000000000000000000000000000000000000000000081526004016103db90613035565b60405180910390fd5b60011515600185815481106103fc576103fb612f28565b5b90600052602060002090600a020160090160009054906101000a900460ff1615151461045d576040517f08c379a0000000000000000000000000000000000000000000000000000000008152600401610454906130a1565b60405180910390fd5b6001848154811061047157610470612f28565b5b90600052602060002090600a0201600601546001858154811061049757610496612f28565b5b90600052602060002090600a0201600501546104b391906130f0565b42116104f4576040517f08c379a00000000000000000000000000000000000000000000000000000000081526004016104eb906131b8565b60405180910390fd5b6001848154811061050857610507612f28565b5b90600052602060002090600a02016008015461052484846122d6565b14610564576040517f08c379a000000000000000000000000000000000000000000000000000000000815260040161055b90613224565b60405180910390fd5b6000805b60026000878152602001908152602001600020805490508110156105ec576105c56002600088815260200190815260200160002082815481106105ae576105ad612f28565b5b906000526020600020906003020160000186612309565b156105d95781806105d590613244565b9250505b80806105e490613244565b915050610568565b5060008167ffffffffffffffff8111156106095761060861328d565b5b6040519080825280602002602001820160405280156106375781602001602082028036833780820191505090505b5090506000821415610759576001868154811061065757610656612f28565b5b90600052602060002090600a020160030160009054906101000a900473ffffffffffffffffffffffffffffffffffffffff1673ffffffffffffffffffffffffffffffffffffffff166108fc600188815481106106b6576106b5612f28565b5b90600052602060002090600a0201600401549081150290604051600060405180830381858888f193505050501580156106f3573d6000803e3d6000fd5b507f53fb16f62e54f4596c7684a225d64c2ba05e4ed0ecc04634c3ac2c562086c561866001888154811061072a57610729612f28565b5b90600052602060002090600a0201838860405161074a9493929190613751565b60405180910390a15050610a86565b600082600188815481106107705761076f612f28565b5b90600052602060002090600a02016004015461078c91906137d3565b90506000838261079c9190613804565b600189815481106107b0576107af612f28565b5b90600052602060002090600a0201600401546107cc919061385e565b90506000805b600260008b8152602001908152602001600020805490508110156109955761082f600260008c8152602001908152602001600020828154811061081857610817612f28565b5b90600052602060002090600302016000018a612309565b1561098257600260008b8152602001908152602001600020818154811061085957610858612f28565b5b906000526020600020906003020160020160009054906101000a900473ffffffffffffffffffffffffffffffffffffffff1685838061089790613244565b9450815181106108aa576108a9612f28565b5b602002602001019073ffffffffffffffffffffffffffffffffffffffff16908173ffffffffffffffffffffffffffffffffffffffff1681525050600260008b8152602001908152602001600020818154811061090957610908612f28565b5b906000526020600020906003020160020160009054906101000a900473ffffffffffffffffffffffffffffffffffffffff1673ffffffffffffffffffffffffffffffffffffffff166108fc859081150290604051600060405180830381858888f19350505050158015610980573d6000803e3d6000fd5b505b808061098d90613244565b9150506107d2565b50600189815481106109aa576109a9612f28565b5b90600052602060002090600a020160030160009054906101000a900473ffffffffffffffffffffffffffffffffffffffff1673ffffffffffffffffffffffffffffffffffffffff166108fc839081150290604051600060405180830381858888f19350505050158015610a21573d6000803e3d6000fd5b507f53fb16f62e54f4596c7684a225d64c2ba05e4ed0ecc04634c3ac2c562086c5618960018b81548110610a5857610a57612f28565b5b90600052602060002090600a0201868b604051610a789493929190613751565b60405180910390a150505050505b50505050565b606060004290506000805b600180549050811015610b55578260018281548110610ab957610ab8612f28565b5b90600052602060002090600a02016005015411158015610b2e57508260018281548110610ae957610ae8612f28565b5b90600052602060002090600a02016006015460018381548110610b0f57610b0e612f28565b5b90600052602060002090600a020160050154610b2b91906130f0565b10155b15610b42578180610b3e90613244565b9250505b8080610b4d90613244565b915050610a97565b508067ffffffffffffffff811115610b7057610b6f61328d565b5b604051908082528060200260200182016040528015610ba957816020015b610b96612398565b815260200190600190039081610b8e5790505b5092506000805b600180549050811015610e89578360018281548110610bd257610bd1612f28565b5b90600052602060002090600a02016005015411158015610c4757508360018281548110610c0257610c01612f28565b5b90600052602060002090600a02016006015460018381548110610c2857610c27612f28565b5b90600052602060002090600a020160050154610c4491906130f0565b10155b15610e765760018181548110610c6057610c5f612f28565b5b90600052602060002090600a02016040518061014001604052908160008201548152602001600182018054610c949061331c565b80601f0160208091040260200160405190810160405280929190818152602001828054610cc09061331c565b8015610d0d5780601f10610ce257610100808354040283529160200191610d0d565b820191906000526020600020905b815481529060010190602001808311610cf057829003601f168201915b50505050508152602001600282018054610d269061331c565b80601f0160208091040260200160405190810160405280929190818152602001828054610d529061331c565b8015610d9f5780601f10610d7457610100808354040283529160200191610d9f565b820191906000526020600020905b815481529060010190602001808311610d8257829003601f168201915b505050505081526020016003820160009054906101000a900473ffffffffffffffffffffffffffffffffffffffff1673ffffffffffffffffffffffffffffffffffffffff1673ffffffffffffffffffffffffffffffffffffffff16815260200160048201548152602001600582015481526020016006820154815260200160078201548152602001600882015481526020016009820160009054906101000a900460ff161515151581525050858380610e5790613244565b945081518110610e6a57610e69612f28565b5b60200260200101819052505b8080610e8190613244565b915050610bb0565b5050505090565b60036020528160005260406000206020528060005260406000206000915091509054906101000a900460ff1681565b6000428511610f03576040517f08c379a0000000000000000000000000000000000000000000000000000000008152600401610efa90613904565b60405180910390fd5b60008411610f46576040517f08c379a0000000000000000000000000000000000000000000000000000000008152600401610f3d90613970565b60405180910390fd5b60008a8a90501415610f8d576040517f08c379a0000000000000000000000000000000000000000000000000000000008152600401610f84906139dc565b60405180910390fd5b60008611610fd0576040517f08c379a0000000000000000000000000000000000000000000000000000000008152600401610fc790613a48565b60405180910390fd5b348614611012576040517f08c379a000000000000000000000000000000000000000000000000000000000815260040161100990613ada565b60405180910390fd5b600060405180610140016040528060018054905081526020018c8c8080601f016020809104026020016040519081016040528093929190818152602001838380828437600081840152601f19601f8201169050808301925050505050505081526020018a8a8080601f016020809104026020016040519081016040528093929190818152602001838380828437600081840152601f19601f8201169050808301925050505050505081526020013373ffffffffffffffffffffffffffffffffffffffff16815260200188815260200187815260200186815260200185815260200184815260200160001515815250905060018190806001815401808255809150506001900390600052602060002090600a0201600090919091909150600082015181600001556020820151816001019080519060200190611154929190612409565b506040820151816002019080519060200190611171929190612409565b5060608201518160030160006101000a81548173ffffffffffffffffffffffffffffffffffffffff021916908373ffffffffffffffffffffffffffffffffffffffff1602179055506080820151816004015560a0820151816005015560c0820151816006015560e0820151816007015561010082015181600801556101208201518160090160006101000a81548160ff02191690831515021790555050507ffd8ebe1156c53cd42cc839c579227faeaba4fe87e6df3c95f6c2cbc5c60eafca60018080549050611241919061385e565b82604051611250929190613bdb565b60405180910390a160018080549050611269919061385e565b9150509998505050505050505050565b60606000805b600180549050811015611327578373ffffffffffffffffffffffffffffffffffffffff16600182815481106112b7576112b6612f28565b5b90600052602060002090600a020160030160009054906101000a900473ffffffffffffffffffffffffffffffffffffffff1673ffffffffffffffffffffffffffffffffffffffff16141561131457818061131090613244565b9250505b808061131f90613244565b91505061127f565b508067ffffffffffffffff8111156113425761134161328d565b5b60405190808252806020026020018201604052801561137b57816020015b611368612398565b8152602001906001900390816113605790505b5091506000805b600180549050811015611645578473ffffffffffffffffffffffffffffffffffffffff16600182815481106113ba576113b9612f28565b5b90600052602060002090600a020160030160009054906101000a900473ffffffffffffffffffffffffffffffffffffffff1673ffffffffffffffffffffffffffffffffffffffff161415611632576001818154811061141c5761141b612f28565b5b90600052602060002090600a020160405180610140016040529081600082015481526020016001820180546114509061331c565b80601f016020809104026020016040519081016040528092919081815260200182805461147c9061331c565b80156114c95780601f1061149e576101008083540402835291602001916114c9565b820191906000526020600020905b8154815290600101906020018083116114ac57829003601f168201915b505050505081526020016002820180546114e29061331c565b80601f016020809104026020016040519081016040528092919081815260200182805461150e9061331c565b801561155b5780601f106115305761010080835404028352916020019161155b565b820191906000526020600020905b81548152906001019060200180831161153e57829003601f168201915b505050505081526020016003820160009054906101000a900473ffffffffffffffffffffffffffffffffffffffff1673ffffffffffffffffffffffffffffffffffffffff1673ffffffffffffffffffffffffffffffffffffffff16815260200160048201548152602001600582015481526020016006820154815260200160078201548152602001600882015481526020016009820160009054906101000a900460ff16151515158152505084838061161390613244565b94508151811061162657611625612f28565b5b60200260200101819052505b808061163d90613244565b915050611382565b505050919050565b8560018054905011611694576040517f08c379a000000000000000000000000000000000000000000000000000000000815260040161168b90613c57565b60405180910390fd5b3373ffffffffffffffffffffffffffffffffffffffff16600187815481106116bf576116be612f28565b5b90600052602060002090600a020160030160009054906101000a900473ffffffffffffffffffffffffffffffffffffffff1673ffffffffffffffffffffffffffffffffffffffff1614611747576040517f08c379a000000000000000000000000000000000000000000000000000000000815260040161173e90613ce9565b60405180910390fd5b426001878154811061175c5761175b612f28565b5b90600052602060002090600a020160050154116117ae576040517f08c379a00000000000000000000000000000000000000000000000000000000081526004016117a590613d7b565b60405180910390fd5b600073ffffffffffffffffffffffffffffffffffffffff168373ffffffffffffffffffffffffffffffffffffffff16141561181e576040517f08c379a000000000000000000000000000000000000000000000000000000000815260040161181590613de7565b60405180910390fd5b60006001878154811061183457611833612f28565b5b90600052602060002090600a02019050858582600201919061185792919061248f565b50838160030160006101000a81548173ffffffffffffffffffffffffffffffffffffffff021916908373ffffffffffffffffffffffffffffffffffffffff16021790555082816007018190555081816008018190555050505050505050565b600181815481106118c657600080fd5b90600052602060002090600a02016000915090508060000154908060010180546118ef9061331c565b80601f016020809104026020016040519081016040528092919081815260200182805461191b9061331c565b80156119685780601f1061193d57610100808354040283529160200191611968565b820191906000526020600020905b81548152906001019060200180831161194b57829003601f168201915b50505050509080600201805461197d9061331c565b80601f01602080910402602001604051908101604052809291908181526020018280546119a99061331c565b80156119f65780601f106119cb576101008083540402835291602001916119f6565b820191906000526020600020905b8154815290600101906020018083116119d957829003601f168201915b5050505050908060030160009054906101000a900473ffffffffffffffffffffffffffffffffffffffff16908060040154908060050154908060060154908060070154908060080154908060090160009054906101000a900460ff1690508a565b6001151560018381548110611a6f57611a6e612f28565b5b90600052602060002090600a020160090160009054906101000a900460ff16151514611ad0576040517f08c379a0000000000000000000000000000000000000000000000000000000008152600401611ac790613e53565b60405180910390fd5b4260018381548110611ae557611ae4612f28565b5b90600052602060002090600a02016006015460018481548110611b0b57611b0a612f28565b5b90600052602060002090600a020160050154611b2791906130f0565b1015611b68576040517f08c379a0000000000000000000000000000000000000000000000000000000008152600401611b5f90613ebf565b60405180910390fd5b600015156003600084815260200190815260200160002060003373ffffffffffffffffffffffffffffffffffffffff1673ffffffffffffffffffffffffffffffffffffffff16815260200190815260200160002060009054906101000a900460ff16151514611c0c576040517f08c379a0000000000000000000000000000000000000000000000000000000008152600401611c0390613f51565b60405180910390fd5b60005b6001811015611d0557600460ff16828260018110611c3057611c2f612f28565b5b602002016020810190611c439190613f71565b60ff1610611c86576040517f08c379a0000000000000000000000000000000000000000000000000000000008152600401611c7d90613fea565b60405180910390fd5b6000828260018110611c9b57611c9a612f28565b5b602002016020810190611cae9190613f71565b60ff161415611cf2576040517f08c379a0000000000000000000000000000000000000000000000000000000008152600401611ce990614056565b60405180910390fd5b8080611cfd90613244565b915050611c0f565b5060016003600084815260200190815260200160002060003373ffffffffffffffffffffffffffffffffffffffff1673ffffffffffffffffffffffffffffffffffffffff16815260200190815260200160002060006101000a81548160ff021916908315150217905550600260008381526020019081526020016000206040518060600160405280836001806020026040519081016040528092919082600160200280828437600081840152601f19601f82011690508083019250505050505081526020014281526020013373ffffffffffffffffffffffffffffffffffffffff168152509080600181540180825580915050600190039060005260206000209060030201600090919091909150600082015181600001906001611e2a929190612515565b506020820151816001015560408201518160020160006101000a81548173ffffffffffffffffffffffffffffffffffffffff021916908373ffffffffffffffffffffffffffffffffffffffff16021790555050505050565b60026020528160005260406000208181548110611e9e57600080fd5b9060005260206000209060030201600091509150508060010154908060020160009054906101000a900473ffffffffffffffffffffffffffffffffffffffff16905082565b8360008054906101000a900473ffffffffffffffffffffffffffffffffffffffff1673ffffffffffffffffffffffffffffffffffffffff163373ffffffffffffffffffffffffffffffffffffffff161480611fae575060018181548110611f4d57611f4c612f28565b5b90600052602060002090600a020160030160009054906101000a900473ffffffffffffffffffffffffffffffffffffffff1673ffffffffffffffffffffffffffffffffffffffff163373ffffffffffffffffffffffffffffffffffffffff16145b611fed576040517f08c379a0000000000000000000000000000000000000000000000000000000008152600401611fe490612fc9565b60405180910390fd5b600015156001868154811061200557612004612f28565b5b90600052602060002090600a020160090160009054906101000a900460ff16151514612066576040517f08c379a000000000000000000000000000000000000000000000000000000000815260040161205d906140c2565b60405180910390fd5b60005b60018110156121bb57600085826001811061208757612086612f28565b5b60200281019061209791906140f1565b905014156120da576040517f08c379a00000000000000000000000000000000000000000000000000000000081526004016120d1906141a0565b60405180910390fd5b60005b8482600181106120f0576120ef612f28565b5b60200281019061210091906141c0565b5060048110156121a757600085836001811061211f5761211e612f28565b5b60200281019061212f91906141c0565b826004811061214157612140612f28565b5b60200281019061215191906140f1565b90501415612194576040517f08c379a000000000000000000000000000000000000000000000000000000000815260040161218b90614234565b60405180910390fd5b808061219f90613244565b9150506120dd565b5080806121b390613244565b915050612069565b50600185815481106121d0576121cf612f28565b5b90600052602060002090600a0201600701546121ed858585612362565b1461222d576040517f08c379a0000000000000000000000000000000000000000000000000000000008152600401612224906142a0565b60405180910390fd5b426001868154811061224257612241612f28565b5b90600052602060002090600a020160050181905550600180868154811061226c5761226b612f28565b5b90600052602060002090600a020160090160006101000a81548160ff0219169083151502179055507f6e73af66ef58dbb602faa624a30f0199266c672ed88c9598c4550262f5bed7de8585856040516122c7939291906145c2565b60405180910390a15050505050565b600082826040516020016122eb929190614607565b60405160208183030381529060405280519060200120905092915050565b60008160405160200161231c9190614630565b6040516020818303038152906040528051906020012083604051602001612343919061535e565b6040516020818303038152906040528051906020012014905092915050565b600083838360405160200161237993929190615379565b6040516020818303038152906040528051906020012090509392505050565b604051806101400160405280600081526020016060815260200160608152602001600073ffffffffffffffffffffffffffffffffffffffff16815260200160008152602001600081526020016000815260200160008019168152602001600080191681526020016000151581525090565b8280546124159061331c565b90600052602060002090601f016020900481019282612437576000855561247e565b82601f1061245057805160ff191683800117855561247e565b8280016001018555821561247e579182015b8281111561247d578251825591602001919060010190612462565b5b50905061248b91906125af565b5090565b82805461249b9061331c565b90600052602060002090601f0160209004810192826124bd5760008555612504565b82601f106124d657803560ff1916838001178555612504565b82800160010185558215612504579182015b828111156125035782358255916020019190600101906124e8565b5b50905061251191906125af565b5090565b826001601f0160209004810192821561259e5791602002820160005b8382111561256f57835183826101000a81548160ff021916908360ff1602179055509260200192600101602081600001049283019260010302612531565b801561259c5782816101000a81549060ff021916905560010160208160000104928301926001030261256f565b505b5090506125ab91906125af565b5090565b5b808211156125c85760008160009055506001016125b0565b5090565b600080fd5b600080fd5b6000819050919050565b6125e9816125d6565b81146125f457600080fd5b50565b600081359050612606816125e0565b92915050565b600080fd5b60008190508260206001028201111561262d5761262c61260c565b5b92915050565b6000819050919050565b61264681612633565b811461265157600080fd5b50565b6000813590506126638161263d565b92915050565b600080600060608486031215612682576126816125cc565b5b6000612690868287016125f7565b93505060206126a186828701612611565b92505060406126b286828701612654565b9150509250925092565b600081519050919050565b600082825260208201905092915050565b6000819050602082019050919050565b6126f1816125d6565b82525050565b600081519050919050565b600082825260208201905092915050565b60005b83811015612731578082015181840152602081019050612716565b83811115612740576000848401525b50505050565b6000601f19601f8301169050919050565b6000612762826126f7565b61276c8185612702565b935061277c818560208601612713565b61278581612746565b840191505092915050565b600073ffffffffffffffffffffffffffffffffffffffff82169050919050565b60006127bb82612790565b9050919050565b6127cb816127b0565b82525050565b6127da81612633565b82525050565b60008115159050919050565b6127f5816127e0565b82525050565b60006101408301600083015161281460008601826126e8565b506020830151848203602086015261282c8282612757565b915050604083015184820360408601526128468282612757565b915050606083015161285b60608601826127c2565b50608083015161286e60808601826126e8565b5060a083015161288160a08601826126e8565b5060c083015161289460c08601826126e8565b5060e08301516128a760e08601826127d1565b506101008301516128bc6101008601826127d1565b506101208301516128d16101208601826127ec565b508091505092915050565b60006128e883836127fb565b905092915050565b6000602082019050919050565b6000612908826126bc565b61291281856126c7565b935083602082028501612924856126d8565b8060005b85811015612960578484038952815161294185826128dc565b945061294c836128f0565b925060208a01995050600181019050612928565b50829750879550505050505092915050565b6000602082019050818103600083015261298c81846128fd565b905092915050565b61299d816127b0565b81146129a857600080fd5b50565b6000813590506129ba81612994565b92915050565b600080604083850312156129d7576129d66125cc565b5b60006129e5858286016125f7565b92505060206129f6858286016129ab565b9150509250929050565b612a09816127e0565b82525050565b6000602082019050612a246000830184612a00565b92915050565b600080fd5b600080fd5b60008083601f840112612a4a57612a49612a2a565b5b8235905067ffffffffffffffff811115612a6757612a66612a2f565b5b602083019150836001820283011115612a8357612a8261260c565b5b9250929050565b600080600080600080600080600060e08a8c031215612aac57612aab6125cc565b5b60008a013567ffffffffffffffff811115612aca57612ac96125d1565b5b612ad68c828d01612a34565b995099505060208a013567ffffffffffffffff811115612af957612af86125d1565b5b612b058c828d01612a34565b97509750506040612b188c828d016125f7565b9550506060612b298c828d016125f7565b9450506080612b3a8c828d016125f7565b93505060a0612b4b8c828d01612654565b92505060c0612b5c8c828d01612654565b9150509295985092959850929598565b612b75816125d6565b82525050565b6000602082019050612b906000830184612b6c565b92915050565b600060208284031215612bac57612bab6125cc565b5b6000612bba848285016129ab565b91505092915050565b60008060008060008060a08789031215612be057612bdf6125cc565b5b6000612bee89828a016125f7565b965050602087013567ffffffffffffffff811115612c0f57612c0e6125d1565b5b612c1b89828a01612a34565b95509550506040612c2e89828a016129ab565b9350506060612c3f89828a01612654565b9250506080612c5089828a01612654565b9150509295509295509295565b600060208284031215612c7357612c726125cc565b5b6000612c81848285016125f7565b91505092915050565b600082825260208201905092915050565b6000612ca6826126f7565b612cb08185612c8a565b9350612cc0818560208601612713565b612cc981612746565b840191505092915050565b612cdd816127b0565b82525050565b612cec81612633565b82525050565b600061014082019050612d08600083018d612b6c565b8181036020830152612d1a818c612c9b565b90508181036040830152612d2e818b612c9b565b9050612d3d606083018a612cd4565b612d4a6080830189612b6c565b612d5760a0830188612b6c565b612d6460c0830187612b6c565b612d7160e0830186612ce3565b612d7f610100830185612ce3565b612d8d610120830184612a00565b9b9a5050505050505050505050565b60008060408385031215612db357612db26125cc565b5b6000612dc1858286016125f7565b9250506020612dd285828601612611565b9150509250929050565b60008060408385031215612df357612df26125cc565b5b6000612e01858286016125f7565b9250506020612e12858286016125f7565b9150509250929050565b6000604082019050612e316000830185612b6c565b612e3e6020830184612cd4565b9392505050565b600081905082602060010282011115612e6157612e6061260c565b5b92915050565b600081905082602060010282011115612e8357612e8261260c565b5b92915050565b60008060008060808587031215612ea357612ea26125cc565b5b6000612eb1878288016125f7565b945050602085013567ffffffffffffffff811115612ed257612ed16125d1565b5b612ede87828801612e45565b935050604085013567ffffffffffffffff811115612eff57612efe6125d1565b5b612f0b87828801612e67565b9250506060612f1c87828801612654565b91505092959194509250565b7f4e487b7100000000000000000000000000000000000000000000000000000000600052603260045260246000fd5b7f4f6e6c79206f776e6572206f7220746865207175697a2063726561746f72206360008201527f616e207375626d6974207175657374696f6e7300000000000000000000000000602082015250565b6000612fb3603383612c8a565b9150612fbe82612f57565b604082019050919050565b60006020820190508181036000830152612fe281612fa6565b9050919050565b7f5175697a20646f6573206e6f7420657869737400000000000000000000000000600082015250565b600061301f601383612c8a565b915061302a82612fe9565b602082019050919050565b6000602082019050818103600083015261304e81613012565b9050919050565b7f5175697a20686173206e6f742073746172746564000000000000000000000000600082015250565b600061308b601483612c8a565b915061309682613055565b602082019050919050565b600060208201905081810360008301526130ba8161307e565b9050919050565b7f4e487b7100000000000000000000000000000000000000000000000000000000600052601160045260246000fd5b60006130fb826125d6565b9150613106836125d6565b9250827fffffffffffffffffffffffffffffffffffffffffffffffffffffffffffffffff0382111561313b5761313a6130c1565b5b828201905092915050565b7f436f727265637420416e73776572732063616e6e6f74206265207375626d697460008201527f746564206265666f726520656e642074696d6500000000000000000000000000602082015250565b60006131a2603383612c8a565b91506131ad82613146565b604082019050919050565b600060208201905081810360008301526131d181613195565b9050919050565b7f436f727265637420616e737765727320617265206e6f742076616c6964000000600082015250565b600061320e601d83612c8a565b9150613219826131d8565b602082019050919050565b6000602082019050818103600083015261323d81613201565b9050919050565b600061324f826125d6565b91507fffffffffffffffffffffffffffffffffffffffffffffffffffffffffffffffff821415613282576132816130c1565b5b600182019050919050565b7f4e487b7100000000000000000000000000000000000000000000000000000000600052604160045260246000fd5b60008160001c9050919050565b6000819050919050565b60006132e66132e1836132bc565b6132c9565b9050919050565b7f4e487b7100000000000000000000000000000000000000000000000000000000600052602260045260246000fd5b6000600282049050600182168061333457607f821691505b60208210811415613348576133476132ed565b5b50919050565b60008190508160005260206000209050919050565b600081546133708161331c565b61337a8186612702565b9450600182166000811461339557600181146133a7576133da565b60ff19831686526020860193506133da565b6133b08561334e565b60005b838110156133d2578154818901526001820191506020810190506133b3565b808801955050505b50505092915050565b600073ffffffffffffffffffffffffffffffffffffffff82169050919050565b6000613416613411836132bc565b6133e3565b9050919050565b6000819050919050565b600061343a613435836132bc565b61341d565b9050919050565b600060ff82169050919050565b600061346161345c836132bc565b613441565b9050919050565b600061014083016000808401549050613480816132d3565b61348d60008701826126e8565b506001840185830360208701526134a48382613363565b9250506002840185830360408701526134bd8382613363565b925050600384015490506134d081613403565b6134dd60608701826127c2565b50600484015490506134ee816132d3565b6134fb60808701826126e8565b506005840154905061350c816132d3565b61351960a08701826126e8565b506006840154905061352a816132d3565b61353760c08701826126e8565b506007840154905061354881613427565b61355560e08701826127d1565b506008840154905061356681613427565b6135746101008701826127d1565b50600984015490506135858161344e565b6135936101208701826127ec565b50819250505092915050565b600081519050919050565b600082825260208201905092915050565b6000819050602082019050919050565b60006135d783836127c2565b60208301905092915050565b6000602082019050919050565b60006135fb8261359f565b61360581856135aa565b9350613610836135bb565b8060005b8381101561364157815161362888826135cb565b9750613633836135e3565b925050600181019050613614565b5085935050505092915050565b600060019050919050565b600081905092915050565b6000819050919050565b600060ff82169050919050565b6136848161366e565b82525050565b6000613696838361367b565b60208301905092915050565b6136ab8161366e565b81146136b657600080fd5b50565b6000813590506136c8816136a2565b92915050565b60006136dd60208401846136b9565b905092915050565b6000602082019050919050565b6136fb8161364e565b6137058184613659565b925061371082613664565b8060005b838110156137495761372682846136ce565b613730878261368a565b965061373b836136e5565b925050600181019050613714565b505050505050565b60006080820190506137666000830187612b6c565b81810360208301526137788186613468565b9050818103604083015261378c81856135f0565b905061379b60608301846136f2565b95945050505050565b7f4e487b7100000000000000000000000000000000000000000000000000000000600052601260045260246000fd5b60006137de826125d6565b91506137e9836125d6565b9250826137f9576137f86137a4565b5b828204905092915050565b600061380f826125d6565b915061381a836125d6565b9250817fffffffffffffffffffffffffffffffffffffffffffffffffffffffffffffffff0483118215151615613853576138526130c1565b5b828202905092915050565b6000613869826125d6565b9150613874836125d6565b925082821015613887576138866130c1565b5b828203905092915050565b7f5175697a2063616e6e6f74206265206372656174656420696e2074686520706160008201527f7374000000000000000000000000000000000000000000000000000000000000602082015250565b60006138ee602283612c8a565b91506138f982613892565b604082019050919050565b6000602082019050818103600083015261391d816138e1565b9050919050565b7f4475726174696f6e206f66207175697a2063616e6e6f74206265207a65726f00600082015250565b600061395a601f83612c8a565b915061396582613924565b602082019050919050565b600060208201905081810360008301526139898161394d565b9050919050565b7f5175697a206e616d652063616e6e6f7420626520656d70747900000000000000600082015250565b60006139c6601983612c8a565b91506139d182613990565b602082019050919050565b600060208201905081810360008301526139f5816139b9565b9050919050565b7f5072697a65206d6f6e65792063616e6e6f74206265207a65726f000000000000600082015250565b6000613a32601a83612c8a565b9150613a3d826139fc565b602082019050919050565b60006020820190508181036000830152613a6181613a25565b9050919050565b7f5072697a65206d6f6e6579206d757374206d617463682074686520616d6f756e60008201527f742073656e740000000000000000000000000000000000000000000000000000602082015250565b6000613ac4602683612c8a565b9150613acf82613a68565b604082019050919050565b60006020820190508181036000830152613af381613ab7565b9050919050565b600061014083016000830151613b1360008601826126e8565b5060208301518482036020860152613b2b8282612757565b91505060408301518482036040860152613b458282612757565b9150506060830151613b5a60608601826127c2565b506080830151613b6d60808601826126e8565b5060a0830151613b8060a08601826126e8565b5060c0830151613b9360c08601826126e8565b5060e0830151613ba660e08601826127d1565b50610100830151613bbb6101008601826127d1565b50610120830151613bd06101208601826127ec565b508091505092915050565b6000604082019050613bf06000830185612b6c565b8181036020830152613c028184613afa565b90509392505050565b7f5175697a20496420646f6573206e6f7420657869737473000000000000000000600082015250565b6000613c41601783612c8a565b9150613c4c82613c0b565b602082019050919050565b60006020820190508181036000830152613c7081613c34565b9050919050565b7f4f6e6c79205175697a204f776e65722063616e2075706461746520746865207160008201527f75697a0000000000000000000000000000000000000000000000000000000000602082015250565b6000613cd3602383612c8a565b9150613cde82613c77565b604082019050919050565b60006020820190508181036000830152613d0281613cc6565b9050919050565b7f5175697a2063616e2062652075706461746564206265666f726520737461727460008201527f206f6620746865207175697a0000000000000000000000000000000000000000602082015250565b6000613d65602c83612c8a565b9150613d7082613d09565b604082019050919050565b60006020820190508181036000830152613d9481613d58565b9050919050565b7f5175697a206f776e65722063616e6e6f7420626520656d707479000000000000600082015250565b6000613dd1601a83612c8a565b9150613ddc82613d9b565b602082019050919050565b60006020820190508181036000830152613e0081613dc4565b9050919050565b7f5175697a20686173206e6f742073746172746564207965740000000000000000600082015250565b6000613e3d601883612c8a565b9150613e4882613e07565b602082019050919050565b60006020820190508181036000830152613e6c81613e30565b9050919050565b7f5175697a2068617320656e646564000000000000000000000000000000000000600082015250565b6000613ea9600e83612c8a565b9150613eb482613e73565b602082019050919050565b60006020820190508181036000830152613ed881613e9c565b9050919050565b7f596f75206861766520616c7265616479207375626d697474656420746865206160008201527f6e73776572730000000000000000000000000000000000000000000000000000602082015250565b6000613f3b602683612c8a565b9150613f4682613edf565b604082019050919050565b60006020820190508181036000830152613f6a81613f2e565b9050919050565b600060208284031215613f8757613f866125cc565b5b6000613f95848285016136b9565b91505092915050565b7f416e73776572206973206f7574206f662072616e676500000000000000000000600082015250565b6000613fd4601683612c8a565b9150613fdf82613f9e565b602082019050919050565b6000602082019050818103600083015261400381613fc7565b9050919050565b7f416e737765722063616e6e6f7420626520656d70747900000000000000000000600082015250565b6000614040601683612c8a565b915061404b8261400a565b602082019050919050565b6000602082019050818103600083015261406f81614033565b9050919050565b7f5175697a2068617320616c726561647920737461727465640000000000000000600082015250565b60006140ac601883612c8a565b91506140b782614076565b602082019050919050565b600060208201905081810360008301526140db8161409f565b9050919050565b600080fd5b600080fd5b600080fd5b6000808335600160200384360303811261410e5761410d6140e2565b5b80840192508235915067ffffffffffffffff8211156141305761412f6140e7565b5b60208301925060018202360383131561414c5761414b6140ec565b5b509250929050565b7f5175657374696f6e2063616e6e6f7420626520656d7074790000000000000000600082015250565b600061418a601883612c8a565b915061419582614154565b602082019050919050565b600060208201905081810360008301526141b98161417d565b9050919050565b6000823560016080038336030381126141dc576141db6140e2565b5b80830191505092915050565b7f4f7074696f6e2063616e6e6f7420626520656d70747900000000000000000000600082015250565b600061421e601683612c8a565b9150614229826141e8565b602082019050919050565b6000602082019050818103600083015261424d81614211565b9050919050565b7f5175657374696f6e7320617265206e6f742076616c6964000000000000000000600082015250565b600061428a601783612c8a565b915061429582614254565b602082019050919050565b600060208201905081810360008301526142b98161427d565b9050919050565b600060019050919050565b600081905092915050565b6000819050919050565b82818337600083830152505050565b60006142fb8385612702565b93506143088385846142e0565b61431183612746565b840190509392505050565b60006143298484846142ef565b90509392505050565b600080fd5b600080fd5b600080fd5b6000808335600160200384360303811261435e5761435d61433c565b5b83810192508235915060208301925067ffffffffffffffff82111561438657614385614332565b5b60018202360384131561439c5761439b614337565b5b509250929050565b6000602082019050919050565b60006143bc826142c0565b6143c681856142cb565b9350836020820285016143d8856142d6565b8060005b8581101561441e5784840389526143f38284614341565b6143fe86828461431c565b9550614409846143a4565b935060208b019a5050506001810190506143dc565b50829750879550505050505092915050565b600060019050919050565b600081905092915050565b6000819050919050565b600060049050919050565b600081905092915050565b6000819050919050565b6000602082019050919050565b600061448882614450565b614492818561445b565b9350836020820285016144a485614466565b8060005b858110156144ea5784840389526144bf8284614341565b6144ca86828461431c565b95506144d584614470565b935060208b019a5050506001810190506144a8565b50829750879550505050505092915050565b6000614508838361447d565b905092915050565b60008235600160800383360303811261452c5761452b61433c565b5b82810191505092915050565b6000602082019050919050565b600061455082614430565b61455a818561443b565b93508360208202850161456c85614446565b8060005b858110156145b05784840389526145878284614510565b61459185826144fc565b945061459c83614538565b925060208a01995050600181019050614570565b50829750879550505050505092915050565b60006060820190506145d76000830186612b6c565b81810360208301526145e981856143b1565b905081810360408301526145fd8184614545565b9050949350505050565b600060408201905061461c60008301856136f2565b6146296020830184612ce3565b9392505050565b600060208201905061464560008301846136f2565b92915050565b600060019050919050565b6000819050919050565b600060ff82169050919050565b600061468061467b836132bc565b614660565b9050919050565b60008160081c9050919050565b60006146a76146a283614687565b614660565b9050919050565b60008160101c9050919050565b60006146ce6146c9836146ae565b614660565b9050919050565b60008160181c9050919050565b60006146f56146f0836146d5565b614660565b9050919050565b60008160201c9050919050565b600061471c614717836146fc565b614660565b9050919050565b60008160281c9050919050565b600061474361473e83614723565b614660565b9050919050565b60008160301c9050919050565b600061476a6147658361474a565b614660565b9050919050565b60008160381c9050919050565b600061479161478c83614771565b614660565b9050919050565b60008160401c9050919050565b60006147b86147b383614798565b614660565b9050919050565b60008160481c9050919050565b60006147df6147da836147bf565b614660565b9050919050565b60008160501c9050919050565b6000614806614801836147e6565b614660565b9050919050565b60008160581c9050919050565b600061482d6148288361480d565b614660565b9050919050565b60008160601c9050919050565b600061485461484f83614834565b614660565b9050919050565b60008160681c9050919050565b600061487b6148768361485b565b614660565b9050919050565b60008160701c9050919050565b60006148a261489d83614882565b614660565b9050919050565b60008160781c9050919050565b60006148c96148c4836148a9565b614660565b9050919050565b60008160801c9050919050565b60006148f06148eb836148d0565b614660565b9050919050565b60008160881c9050919050565b6000614917614912836148f7565b614660565b9050919050565b60008160901c9050919050565b600061493e6149398361491e565b614660565b9050919050565b60008160981c9050919050565b600061496561496083614945565b614660565b9050919050565b60008160a01c9050919050565b600061498c6149878361496c565b614660565b9050919050565b60008160a81c9050919050565b60006149b36149ae83614993565b614660565b9050919050565b60008160b01c9050919050565b60006149da6149d5836149ba565b614660565b9050919050565b60008160b81c9050919050565b6000614a016149fc836149e1565b614660565b9050919050565b60008160c01c9050919050565b6000614a28614a2383614a08565b614660565b9050919050565b60008160c81c9050919050565b6000614a4f614a4a83614a2f565b614660565b9050919050565b60008160d01c9050919050565b6000614a76614a7183614a56565b614660565b9050919050565b60008160d81c9050919050565b6000614a9d614a9883614a7d565b614660565b9050919050565b60008160e01c9050919050565b6000614ac4614abf83614aa4565b614660565b9050919050565b60008160e81c9050919050565b6000614aeb614ae683614acb565b614660565b9050919050565b60008160f01c9050919050565b6000614b12614b0d83614af2565b614660565b9050919050565b60008160f81c9050919050565b6000614b39614b3483614b19565b614660565b9050919050565b614b498161464b565b614b538184613659565b925082614b5f83614656565b60008015614e8b575b83600160200382011015614e8a578154614b8a87614b858361466d565b61367b565b602087019650614ba287614b9d83614694565b61367b565b602087019650614bba87614bb5836146bb565b61367b565b602087019650614bd287614bcd836146e2565b61367b565b602087019650614bea87614be583614709565b61367b565b602087019650614c0287614bfd83614730565b61367b565b602087019650614c1a87614c1583614757565b61367b565b602087019650614c3287614c2d8361477e565b61367b565b602087019650614c4a87614c45836147a5565b61367b565b602087019650614c6287614c5d836147cc565b61367b565b602087019650614c7a87614c75836147f3565b61367b565b602087019650614c9287614c8d8361481a565b61367b565b602087019650614caa87614ca583614841565b61367b565b602087019650614cc287614cbd83614868565b61367b565b602087019650614cda87614cd58361488f565b61367b565b602087019650614cf287614ced836148b6565b61367b565b602087019650614d0a87614d05836148dd565b61367b565b602087019650614d2287614d1d83614904565b61367b565b602087019650614d3a87614d358361492b565b61367b565b602087019650614d5287614d4d83614952565b61367b565b602087019650614d6a87614d6583614979565b61367b565b602087019650614d8287614d7d836149a0565b61367b565b602087019650614d9a87614d95836149c7565b61367b565b602087019650614db287614dad836149ee565b61367b565b602087019650614dca87614dc583614a15565b61367b565b602087019650614de287614ddd83614a3c565b61367b565b602087019650614dfa87614df583614a63565b61367b565b602087019650614e1287614e0d83614a8a565b61367b565b602087019650614e2a87614e2583614ab1565b61367b565b602087019650614e4287614e3d83614ad8565b61367b565b602087019650614e5a87614e5583614aff565b61367b565b602087019650614e7287614e6d83614b26565b61367b565b60208701965060018301925050602081019050614b68565b5b600115615356578154600115614eba57614ead87614ea88361466d565b61367b565b6020870196506001820191505b600015614ee057614ed387614ece83614694565b61367b565b6020870196506001820191505b600015614f0657614ef987614ef4836146bb565b61367b565b6020870196506001820191505b600015614f2c57614f1f87614f1a836146e2565b61367b565b6020870196506001820191505b600015614f5257614f4587614f4083614709565b61367b565b6020870196506001820191505b600015614f7857614f6b87614f6683614730565b61367b565b6020870196506001820191505b600015614f9e57614f9187614f8c83614757565b61367b565b6020870196506001820191505b600015614fc457614fb787614fb28361477e565b61367b565b6020870196506001820191505b600015614fea57614fdd87614fd8836147a5565b61367b565b6020870196506001820191505b6000156150105761500387614ffe836147cc565b61367b565b6020870196506001820191505b6000156150365761502987615024836147f3565b61367b565b6020870196506001820191505b60001561505c5761504f8761504a8361481a565b61367b565b6020870196506001820191505b600015615082576150758761507083614841565b61367b565b6020870196506001820191505b6000156150a85761509b8761509683614868565b61367b565b6020870196506001820191505b6000156150ce576150c1876150bc8361488f565b61367b565b6020870196506001820191505b6000156150f4576150e7876150e2836148b6565b61367b565b6020870196506001820191505b60001561511a5761510d87615108836148dd565b61367b565b6020870196506001820191505b600015615140576151338761512e83614904565b61367b565b6020870196506001820191505b60001561516657615159876151548361492b565b61367b565b6020870196506001820191505b60001561518c5761517f8761517a83614952565b61367b565b6020870196506001820191505b6000156151b2576151a5876151a083614979565b61367b565b6020870196506001820191505b6000156151d8576151cb876151c6836149a0565b61367b565b6020870196506001820191505b6000156151fe576151f1876151ec836149c7565b61367b565b6020870196506001820191505b6000156152245761521787615212836149ee565b61367b565b6020870196506001820191505b60001561524a5761523d8761523883614a15565b61367b565b6020870196506001820191505b600015615270576152638761525e83614a3c565b61367b565b6020870196506001820191505b600015615296576152898761528483614a63565b61367b565b6020870196506001820191505b6000156152bc576152af876152aa83614a8a565b61367b565b6020870196506001820191505b6000156152e2576152d5876152d083614ab1565b61367b565b6020870196506001820191505b600015615308576152fb876152f683614ad8565b61367b565b6020870196506001820191505b60001561532e576153218761531c83614aff565b61367b565b6020870196506001820191505b600015615354576153478761534283614b26565b61367b565b6020870196506001820191505b505b505050505050565b60006020820190506153736000830184614b40565b92915050565b6000606082019050818103600083015261539381866143b1565b905081810360208301526153a78185614545565b90506153b66040830184612ce3565b94935050505056fea264697066735822122018117edade3877bc1d2c55ae8e4be2791926d1ad5fad83be0ade9692c3272a3464736f6c634300080a0033",
  "immutableReferences": {},
  "source": "// SPDX-License-Identifier: MIT\r\npragma solidity >=0.8.10;\r\n\r\ncontract QuizContract {\r\n    uint8 constant noOfQuestions = 1;\r\n    uint8 constant noOfOptions = 4;\r\n\r\n    event QuizCreated(uint256 quizId, Quiz quiz);\r\n\r\n    event QuizUpdated(uint256 quizId, Quiz quiz);\r\n\r\n    event QuizStarted(\r\n        uint256 quizId,\r\n        string[noOfQuestions] questions,\r\n        string[noOfOptions][noOfQuestions] options\r\n    );\r\n\r\n    event QuizCompleted(\r\n        uint256 quizId,\r\n        Quiz quiz,\r\n        address[] winners,\r\n        uint8[noOfQuestions] answers\r\n    );\r\n\r\n    struct Answers {\r\n        uint8[noOfQuestions] selectedOptions;\r\n        uint256 submissionTime;\r\n        address submissionAddress;\r\n    }\r\n\r\n    struct Quiz {\r\n        uint256 quizId;\r\n        string quizName;\r\n        string description;\r\n        address quizOwner;\r\n        uint256 prizeMoney; //wei\r\n        uint256 startTime;\r\n        uint256 duration; //seconds\r\n        bytes32 questionHash;\r\n        bytes32 answerHash;\r\n        bool isRunning;\r\n    }\r\n\r\n    address owner;\r\n    Quiz[] public quizzes;\r\n    mapping(uint256 => Answers[]) public submittedAnswers;\r\n    mapping(uint256 => mapping(address => bool)) public isSubmited;\r\n\r\n    constructor() {\r\n        owner = msg.sender;\r\n    }\r\n\r\n    modifier onlyOwners(uint256 _quizId) {\r\n        require(\r\n            msg.sender == owner || msg.sender == quizzes[_quizId].quizOwner,\r\n            \"Only owner or the quiz creator can submit questions\"\r\n        );\r\n        _;\r\n    }\r\n\r\n    modifier refundGas(uint256 _quizId) {\r\n        uint256 gasAtStart = gasleft();\r\n        _;\r\n        if (msg.sender != owner) return;\r\n        uint256 gasSpent = gasAtStart - gasleft() + 30000;\r\n        uint256 gasCost = gasSpent * tx.gasprice;\r\n        payable(msg.sender).transfer(gasCost);\r\n        quizzes[_quizId].prizeMoney -= gasCost;\r\n    }\r\n\r\n    function hashQuestions(\r\n        string[noOfQuestions] calldata _questions,\r\n        string[noOfOptions][noOfQuestions] calldata _options,\r\n        bytes32 _hashSalt\r\n    ) internal pure returns (bytes32) {\r\n        return keccak256(abi.encode(_questions, _options, _hashSalt));\r\n    }\r\n\r\n    function hashAnswers(\r\n        uint8[noOfQuestions] calldata _answers,\r\n        bytes32 _hashSalt\r\n    ) internal pure returns (bytes32) {\r\n        return keccak256(abi.encode(_answers, _hashSalt));\r\n    }\r\n\r\n    function equalAnswers(\r\n        uint8[noOfQuestions] storage correctOptions,\r\n        uint8[noOfQuestions] calldata optionsB\r\n    ) internal pure returns (bool) {\r\n        return\r\n            keccak256(abi.encode(correctOptions)) ==\r\n            keccak256(abi.encode(optionsB));\r\n    }\r\n\r\n    function getPendingQuizzes()\r\n        public\r\n        view\r\n        returns (Quiz[] memory pendingQuizzes)\r\n    {\r\n        uint256 present = block.timestamp;\r\n        uint256 noOfQuizzes = 0;\r\n        for (uint256 i = 0; i < quizzes.length; i++) {\r\n            if (\r\n                quizzes[i].startTime <= present &&\r\n                (quizzes[i].startTime + quizzes[i].duration) >= present\r\n            ) {\r\n                noOfQuizzes++;\r\n            }\r\n        }\r\n        pendingQuizzes = new Quiz[](noOfQuizzes);\r\n        uint256 j = 0;\r\n        for (uint256 i = 0; i < quizzes.length; i++) {\r\n            if (\r\n                quizzes[i].startTime <= present &&\r\n                (quizzes[i].startTime + quizzes[i].duration) >= present\r\n            ) {\r\n                pendingQuizzes[j++] = quizzes[i];\r\n            }\r\n        }\r\n        return pendingQuizzes;\r\n    }\r\n\r\n    function getQuizzesBy(address user)\r\n        external\r\n        view\r\n        returns (Quiz[] memory quizzesByUser)\r\n    {\r\n        uint256 noOfQuizzes = 0;\r\n        for (uint256 i = 0; i < quizzes.length; i++) {\r\n            if (quizzes[i].quizOwner == user) {\r\n                noOfQuizzes++;\r\n            }\r\n        }\r\n        quizzesByUser = new Quiz[](noOfQuizzes);\r\n        uint256 j = 0;\r\n        for (uint256 i = 0; i < quizzes.length; i++) {\r\n            if (quizzes[i].quizOwner == user) {\r\n                quizzesByUser[j++] = quizzes[i];\r\n            }\r\n        }\r\n        return quizzesByUser;\r\n    }\r\n\r\n    function createQuiz(\r\n        string calldata quizName,\r\n        string calldata description,\r\n        uint256 prizeMoney, //wei\r\n        uint256 startTime,\r\n        uint256 duration, //seconds\r\n        bytes32 questionHash,\r\n        bytes32 answerHash\r\n    ) external payable returns (uint256) {\r\n        require(\r\n            startTime > block.timestamp,\r\n            \"Quiz cannot be created in the past\"\r\n        );\r\n        require(duration > 0, \"Duration of quiz cannot be zero\");\r\n        require(bytes(quizName).length != 0, \"Quiz name cannot be empty\");\r\n        require(prizeMoney > 0, \"Prize money cannot be zero\");\r\n        require(\r\n            prizeMoney == msg.value,\r\n            \"Prize money must match the amount sent\"\r\n        );\r\n\r\n        Quiz memory _newQuiz = Quiz(\r\n            quizzes.length,\r\n            quizName,\r\n            description,\r\n            msg.sender,\r\n            prizeMoney,\r\n            startTime,\r\n            duration,\r\n            questionHash,\r\n            answerHash,\r\n            false\r\n        );\r\n        quizzes.push(_newQuiz);\r\n        emit QuizCreated(quizzes.length - 1, _newQuiz);\r\n\r\n        return quizzes.length - 1;\r\n    }\r\n\r\n    function updateQuiz(\r\n        uint256 _quizId,\r\n        string calldata _description,\r\n        address _quizOwner,\r\n        bytes32 _questionHash,\r\n        bytes32 _answerHash\r\n    ) external {\r\n        require(quizzes.length > _quizId, \"Quiz Id does not exists\");\r\n        require(\r\n            quizzes[_quizId].quizOwner == msg.sender,\r\n            \"Only Quiz Owner can update the quiz\"\r\n        );\r\n        require(\r\n            quizzes[_quizId].startTime > block.timestamp,\r\n            \"Quiz can be updated before start of the quiz\"\r\n        );\r\n\r\n        require(_quizOwner != address(0), \"Quiz owner cannot be empty\");\r\n\r\n        Quiz storage _quiz = quizzes[_quizId];\r\n        _quiz.description = _description;\r\n        _quiz.quizOwner = _quizOwner;\r\n        _quiz.questionHash = _questionHash;\r\n        _quiz.answerHash = _answerHash;\r\n    }\r\n\r\n    function submitQuestions(\r\n        uint256 _quizId,\r\n        string[noOfQuestions] calldata _questions,\r\n        string[noOfOptions][noOfQuestions] calldata _options,\r\n        bytes32 _hashSalt\r\n    ) external onlyOwners(_quizId) {\r\n        require(\r\n            quizzes[_quizId].isRunning == false,\r\n            \"Quiz has already started\"\r\n        );\r\n        for (uint256 i = 0; i < _questions.length; i++) {\r\n            require(\r\n                bytes(_questions[i]).length != 0,\r\n                \"Question cannot be empty\"\r\n            );\r\n            for (uint256 j = 0; j < _options[i].length; j++) {\r\n                require(\r\n                    bytes(_options[i][j]).length != 0,\r\n                    \"Option cannot be empty\"\r\n                );\r\n            }\r\n        }\r\n        require(\r\n            hashQuestions(_questions, _options, _hashSalt) ==\r\n                quizzes[_quizId].questionHash,\r\n            \"Questions are not valid\"\r\n        );\r\n\r\n        quizzes[_quizId].startTime = block.timestamp;\r\n        quizzes[_quizId].isRunning = true;\r\n        emit QuizStarted(_quizId, _questions, _options);\r\n    }\r\n\r\n    function submitCorrectAnswers(\r\n        uint256 _quizId,\r\n        uint8[noOfQuestions] calldata _quizAnswers,\r\n        bytes32 _hashSalt\r\n    ) external onlyOwners(_quizId) {\r\n        require(_quizId < quizzes.length, \"Quiz does not exist\");\r\n        require(quizzes[_quizId].isRunning == true, \"Quiz has not started\");\r\n        require(\r\n            block.timestamp >\r\n                quizzes[_quizId].startTime + quizzes[_quizId].duration,\r\n            \"Correct Answers cannot be submitted before end time\"\r\n        );\r\n        require(\r\n            hashAnswers(_quizAnswers, _hashSalt) == quizzes[_quizId].answerHash,\r\n            \"Correct answers are not valid\"\r\n        );\r\n\r\n        uint256 totalWinners = 0;\r\n        for (uint256 i = 0; i < submittedAnswers[_quizId].length; i++) {\r\n            if (\r\n                equalAnswers(\r\n                    submittedAnswers[_quizId][i].selectedOptions,\r\n                    _quizAnswers\r\n                )\r\n            ) {\r\n                totalWinners++;\r\n            }\r\n        }\r\n\r\n        address[] memory winners = new address[](totalWinners);\r\n        if (totalWinners == 0) {\r\n            payable(quizzes[_quizId].quizOwner).transfer(\r\n                quizzes[_quizId].prizeMoney\r\n            );\r\n            emit QuizCompleted(\r\n                _quizId,\r\n                quizzes[_quizId],\r\n                winners,\r\n                _quizAnswers\r\n            );\r\n            return;\r\n        }\r\n        uint256 prizeMoneyPerWinner = quizzes[_quizId].prizeMoney /\r\n            totalWinners;\r\n        uint256 prizeMoneyLeft = quizzes[_quizId].prizeMoney -\r\n            prizeMoneyPerWinner *\r\n            totalWinners;\r\n        uint256 j = 0;\r\n        for (uint256 i = 0; i < submittedAnswers[_quizId].length; i++) {\r\n            if (\r\n                equalAnswers(\r\n                    submittedAnswers[_quizId][i].selectedOptions,\r\n                    _quizAnswers\r\n                )\r\n            ) {\r\n                winners[j++] = submittedAnswers[_quizId][i].submissionAddress;\r\n                payable(submittedAnswers[_quizId][i].submissionAddress)\r\n                    .transfer(prizeMoneyPerWinner);\r\n            }\r\n        }\r\n        payable(quizzes[_quizId].quizOwner).transfer(prizeMoneyLeft);\r\n\r\n        emit QuizCompleted(_quizId, quizzes[_quizId], winners, _quizAnswers);\r\n    }\r\n\r\n    function submitPlayerAnswer(\r\n        uint256 _quizId,\r\n        uint8[noOfQuestions] calldata _answers\r\n    ) external {\r\n        require(quizzes[_quizId].isRunning == true, \"Quiz has not started yet\");\r\n        require(\r\n            quizzes[_quizId].startTime + quizzes[_quizId].duration >=\r\n                block.timestamp,\r\n            \"Quiz has ended\"\r\n        );\r\n        require(\r\n            isSubmited[_quizId][msg.sender] == false,\r\n            \"You have already submitted the answers\"\r\n        );\r\n\r\n        for (uint256 i = 0; i < _answers.length; i++) {\r\n            require(_answers[i] < noOfOptions, \"Answer is out of range\");\r\n            require(_answers[i] != 0, \"Answer cannot be empty\");\r\n        }\r\n\r\n        isSubmited[_quizId][msg.sender] = true;\r\n        submittedAnswers[_quizId].push(\r\n            Answers(_answers, block.timestamp, msg.sender)\r\n        );\r\n    }\r\n}\r\n",
  "sourcePath": "/app/contracts/QuizContract.sol",
  "compiler": {
    "name": "solc",
    "version": "0.8.10+commit.fc410830.Emscripten.clang"
  },
  "schemaVersion": "3.4.4",
  "updatedAt": "2022-01-14T07:07:56.156Z",
  "networkType": "ethereum",
  "devdoc": {
    "kind": "dev",
    "methods": {},
    "version": 1
  },
  "userdoc": {
    "kind": "user",
    "methods": {},
    "version": 1
  }
}