{
  "contractName": "QuizContract",
  "abi": [
    {
      "inputs": [],
      "stateMutability": "nonpayable",
      "type": "constructor"
    },
    {
      "anonymous": false,
      "inputs": [
        {
          "indexed": false,
          "internalType": "uint256",
          "name": "quizId",
          "type": "uint256"
        },
        {
          "components": [
            {
              "internalType": "uint256",
              "name": "quizId",
              "type": "uint256"
            },
            {
              "internalType": "string",
              "name": "quizName",
              "type": "string"
            },
            {
              "internalType": "string",
              "name": "description",
              "type": "string"
            },
            {
              "internalType": "address",
              "name": "quizOwner",
              "type": "address"
            },
            {
              "internalType": "uint256",
              "name": "prizeMoney",
              "type": "uint256"
            },
            {
              "internalType": "uint256",
              "name": "startTime",
              "type": "uint256"
            },
            {
              "internalType": "uint256",
              "name": "duration",
              "type": "uint256"
            },
            {
              "internalType": "bytes32",
              "name": "questionHash",
              "type": "bytes32"
            },
            {
              "internalType": "bytes32",
              "name": "answerHash",
              "type": "bytes32"
            },
            {
              "internalType": "bool",
              "name": "isRunning",
              "type": "bool"
            }
          ],
          "indexed": false,
          "internalType": "struct QuizContract.Quiz",
          "name": "quiz",
          "type": "tuple"
        },
        {
          "indexed": false,
          "internalType": "address[]",
          "name": "winners",
          "type": "address[]"
        },
        {
          "indexed": false,
          "internalType": "uint8[1]",
          "name": "answers",
          "type": "uint8[1]"
        }
      ],
      "name": "QuizCompleted",
      "type": "event"
    },
    {
      "anonymous": false,
      "inputs": [
        {
          "indexed": false,
          "internalType": "uint256",
          "name": "quizId",
          "type": "uint256"
        },
        {
          "components": [
            {
              "internalType": "uint256",
              "name": "quizId",
              "type": "uint256"
            },
            {
              "internalType": "string",
              "name": "quizName",
              "type": "string"
            },
            {
              "internalType": "string",
              "name": "description",
              "type": "string"
            },
            {
              "internalType": "address",
              "name": "quizOwner",
              "type": "address"
            },
            {
              "internalType": "uint256",
              "name": "prizeMoney",
              "type": "uint256"
            },
            {
              "internalType": "uint256",
              "name": "startTime",
              "type": "uint256"
            },
            {
              "internalType": "uint256",
              "name": "duration",
              "type": "uint256"
            },
            {
              "internalType": "bytes32",
              "name": "questionHash",
              "type": "bytes32"
            },
            {
              "internalType": "bytes32",
              "name": "answerHash",
              "type": "bytes32"
            },
            {
              "internalType": "bool",
              "name": "isRunning",
              "type": "bool"
            }
          ],
          "indexed": false,
          "internalType": "struct QuizContract.Quiz",
          "name": "quiz",
          "type": "tuple"
        }
      ],
      "name": "QuizCreated",
      "type": "event"
    },
    {
      "anonymous": false,
      "inputs": [
        {
          "indexed": false,
          "internalType": "uint256",
          "name": "quizId",
          "type": "uint256"
        },
        {
          "components": [
            {
              "internalType": "string",
              "name": "question",
              "type": "string"
            },
            {
              "internalType": "string[4]",
              "name": "options",
              "type": "string[4]"
            }
          ],
          "indexed": false,
          "internalType": "struct QuizContract.Question[1]",
          "name": "questions",
          "type": "tuple[1]"
        }
      ],
      "name": "QuizStarted",
      "type": "event"
    },
    {
      "anonymous": false,
      "inputs": [
        {
          "indexed": false,
          "internalType": "uint256",
          "name": "quizId",
          "type": "uint256"
        },
        {
          "components": [
            {
              "internalType": "uint256",
              "name": "quizId",
              "type": "uint256"
            },
            {
              "internalType": "string",
              "name": "quizName",
              "type": "string"
            },
            {
              "internalType": "string",
              "name": "description",
              "type": "string"
            },
            {
              "internalType": "address",
              "name": "quizOwner",
              "type": "address"
            },
            {
              "internalType": "uint256",
              "name": "prizeMoney",
              "type": "uint256"
            },
            {
              "internalType": "uint256",
              "name": "startTime",
              "type": "uint256"
            },
            {
              "internalType": "uint256",
              "name": "duration",
              "type": "uint256"
            },
            {
              "internalType": "bytes32",
              "name": "questionHash",
              "type": "bytes32"
            },
            {
              "internalType": "bytes32",
              "name": "answerHash",
              "type": "bytes32"
            },
            {
              "internalType": "bool",
              "name": "isRunning",
              "type": "bool"
            }
          ],
          "indexed": false,
          "internalType": "struct QuizContract.Quiz",
          "name": "quiz",
          "type": "tuple"
        }
      ],
      "name": "QuizUpdated",
      "type": "event"
    },
    {
      "inputs": [
        {
          "internalType": "uint256",
          "name": "",
          "type": "uint256"
        },
        {
          "internalType": "address",
          "name": "",
          "type": "address"
        }
      ],
      "name": "isSubmited",
      "outputs": [
        {
          "internalType": "bool",
          "name": "",
          "type": "bool"
        }
      ],
      "stateMutability": "view",
      "type": "function",
      "constant": true
    },
    {
      "inputs": [
        {
          "internalType": "uint256",
          "name": "",
          "type": "uint256"
        }
      ],
      "name": "quizzes",
      "outputs": [
        {
          "internalType": "uint256",
          "name": "quizId",
          "type": "uint256"
        },
        {
          "internalType": "string",
          "name": "quizName",
          "type": "string"
        },
        {
          "internalType": "string",
          "name": "description",
          "type": "string"
        },
        {
          "internalType": "address",
          "name": "quizOwner",
          "type": "address"
        },
        {
          "internalType": "uint256",
          "name": "prizeMoney",
          "type": "uint256"
        },
        {
          "internalType": "uint256",
          "name": "startTime",
          "type": "uint256"
        },
        {
          "internalType": "uint256",
          "name": "duration",
          "type": "uint256"
        },
        {
          "internalType": "bytes32",
          "name": "questionHash",
          "type": "bytes32"
        },
        {
          "internalType": "bytes32",
          "name": "answerHash",
          "type": "bytes32"
        },
        {
          "internalType": "bool",
          "name": "isRunning",
          "type": "bool"
        }
      ],
      "stateMutability": "view",
      "type": "function",
      "constant": true
    },
    {
      "inputs": [
        {
          "internalType": "uint256",
          "name": "",
          "type": "uint256"
        },
        {
          "internalType": "uint256",
          "name": "",
          "type": "uint256"
        }
      ],
      "name": "submittedAnswers",
      "outputs": [
        {
          "internalType": "uint256",
          "name": "submissionTime",
          "type": "uint256"
        },
        {
          "internalType": "address",
          "name": "submissionAddress",
          "type": "address"
        }
      ],
      "stateMutability": "view",
      "type": "function",
      "constant": true
    },
    {
      "inputs": [],
      "name": "getPendingQuizzes",
      "outputs": [
        {
          "components": [
            {
              "internalType": "uint256",
              "name": "quizId",
              "type": "uint256"
            },
            {
              "internalType": "string",
              "name": "quizName",
              "type": "string"
            },
            {
              "internalType": "string",
              "name": "description",
              "type": "string"
            },
            {
              "internalType": "address",
              "name": "quizOwner",
              "type": "address"
            },
            {
              "internalType": "uint256",
              "name": "prizeMoney",
              "type": "uint256"
            },
            {
              "internalType": "uint256",
              "name": "startTime",
              "type": "uint256"
            },
            {
              "internalType": "uint256",
              "name": "duration",
              "type": "uint256"
            },
            {
              "internalType": "bytes32",
              "name": "questionHash",
              "type": "bytes32"
            },
            {
              "internalType": "bytes32",
              "name": "answerHash",
              "type": "bytes32"
            },
            {
              "internalType": "bool",
              "name": "isRunning",
              "type": "bool"
            }
          ],
          "internalType": "struct QuizContract.Quiz[]",
          "name": "pendingQuizzes",
          "type": "tuple[]"
        }
      ],
      "stateMutability": "view",
      "type": "function",
      "constant": true
    },
    {
      "inputs": [
        {
          "internalType": "address",
          "name": "user",
          "type": "address"
        }
      ],
      "name": "getQuizzesBy",
      "outputs": [
        {
          "components": [
            {
              "internalType": "uint256",
              "name": "quizId",
              "type": "uint256"
            },
            {
              "internalType": "string",
              "name": "quizName",
              "type": "string"
            },
            {
              "internalType": "string",
              "name": "description",
              "type": "string"
            },
            {
              "internalType": "address",
              "name": "quizOwner",
              "type": "address"
            },
            {
              "internalType": "uint256",
              "name": "prizeMoney",
              "type": "uint256"
            },
            {
              "internalType": "uint256",
              "name": "startTime",
              "type": "uint256"
            },
            {
              "internalType": "uint256",
              "name": "duration",
              "type": "uint256"
            },
            {
              "internalType": "bytes32",
              "name": "questionHash",
              "type": "bytes32"
            },
            {
              "internalType": "bytes32",
              "name": "answerHash",
              "type": "bytes32"
            },
            {
              "internalType": "bool",
              "name": "isRunning",
              "type": "bool"
            }
          ],
          "internalType": "struct QuizContract.Quiz[]",
          "name": "quizzesByUser",
          "type": "tuple[]"
        }
      ],
      "stateMutability": "view",
      "type": "function",
      "constant": true
    },
    {
      "inputs": [
        {
          "internalType": "string",
          "name": "quizName",
          "type": "string"
        },
        {
          "internalType": "string",
          "name": "description",
          "type": "string"
        },
        {
          "internalType": "uint256",
          "name": "prizeMoney",
          "type": "uint256"
        },
        {
          "internalType": "uint256",
          "name": "startTime",
          "type": "uint256"
        },
        {
          "internalType": "uint256",
          "name": "duration",
          "type": "uint256"
        },
        {
          "internalType": "bytes32",
          "name": "questionHash",
          "type": "bytes32"
        },
        {
          "internalType": "bytes32",
          "name": "answerHash",
          "type": "bytes32"
        }
      ],
      "name": "createQuiz",
      "outputs": [
        {
          "internalType": "uint256",
          "name": "",
          "type": "uint256"
        }
      ],
      "stateMutability": "payable",
      "type": "function",
      "payable": true
    },
    {
      "inputs": [
        {
          "internalType": "uint256",
          "name": "_quizId",
          "type": "uint256"
        },
        {
          "internalType": "string",
          "name": "_description",
          "type": "string"
        },
        {
          "internalType": "address",
          "name": "_quizOwner",
          "type": "address"
        },
        {
          "internalType": "bytes32",
          "name": "_questionHash",
          "type": "bytes32"
        },
        {
          "internalType": "bytes32",
          "name": "_answerHash",
          "type": "bytes32"
        }
      ],
      "name": "updateQuiz",
      "outputs": [],
      "stateMutability": "nonpayable",
      "type": "function"
    },
    {
      "inputs": [
        {
          "internalType": "uint256",
          "name": "_quizId",
          "type": "uint256"
        },
        {
          "components": [
            {
              "internalType": "string",
              "name": "question",
              "type": "string"
            },
            {
              "internalType": "string[4]",
              "name": "options",
              "type": "string[4]"
            }
          ],
          "internalType": "struct QuizContract.Question[1]",
          "name": "_questions",
          "type": "tuple[1]"
        }
      ],
      "name": "submitQuestions",
      "outputs": [],
      "stateMutability": "nonpayable",
      "type": "function"
    },
    {
      "inputs": [
        {
          "internalType": "uint256",
          "name": "_quizId",
          "type": "uint256"
        },
        {
          "internalType": "uint8[1]",
          "name": "_quizAnswers",
          "type": "uint8[1]"
        },
        {
          "internalType": "bytes32",
          "name": "_hashSalt",
          "type": "bytes32"
        }
      ],
      "name": "submitCorrectAnswers",
      "outputs": [],
      "stateMutability": "nonpayable",
      "type": "function"
    },
    {
      "inputs": [
        {
          "internalType": "uint256",
          "name": "_quizId",
          "type": "uint256"
        },
        {
          "internalType": "uint8[1]",
          "name": "_answers",
          "type": "uint8[1]"
        }
      ],
      "name": "submitPlayerAnswer",
      "outputs": [],
      "stateMutability": "nonpayable",
      "type": "function"
    }
  ],
  "bytecode": "0x608060405234801561001057600080fd5b50336000806101000a81548173ffffffffffffffffffffffffffffffffffffffff021916908373ffffffffffffffffffffffffffffffffffffffff160217905550615396806100606000396000f3fe6080604052600436106100915760003560e01c80635d9c61c2116100595780635d9c61c2146101805780637de75686146101bd57806388409afa146101e6578063b6c3c9b91461022c578063cf1da55c1461025557610091565b80630caf673a1461009657806317079261146100bf578063224164c3146100ea5780632e730952146101135780632fbddbb214610150575b600080fd5b3480156100a257600080fd5b506100bd60048036038101906100b89190612688565b610293565b005b3480156100cb57600080fd5b506100d461096c565b6040516100e19190612991565b60405180910390f35b3480156100f657600080fd5b50610111600480360381019061010c91906129d5565b610d70565b005b34801561011f57600080fd5b5061013a60048036038101906101359190612a5d565b61129e565b6040516101479190612aac565b60405180910390f35b61016a60048036038101906101659190612b27565b6112cd565b6040516101779190612c18565b60405180910390f35b34801561018c57600080fd5b506101a760048036038101906101a29190612c33565b611691565b6040516101b49190612991565b60405180910390f35b3480156101c957600080fd5b506101e460048036038101906101df9190612c60565b611a65565b005b3480156101f257600080fd5b5061020d60048036038101906102089190612cfa565b611cce565b6040516102239a99989796959493929190612d8f565b60405180910390f35b34801561023857600080fd5b50610253600480360381019061024e9190612e39565b611e6f565b005b34801561026157600080fd5b5061027c60048036038101906102779190612e79565b61229a565b60405161028a929190612eb9565b60405180910390f35b8260008054906101000a900473ffffffffffffffffffffffffffffffffffffffff1673ffffffffffffffffffffffffffffffffffffffff163373ffffffffffffffffffffffffffffffffffffffff16148061035e5750600181815481106102fd576102fc612ee2565b5b90600052602060002090600a020160030160009054906101000a900473ffffffffffffffffffffffffffffffffffffffff1673ffffffffffffffffffffffffffffffffffffffff163373ffffffffffffffffffffffffffffffffffffffff16145b61039d576040517f08c379a000000000000000000000000000000000000000000000000000000000815260040161039490612f83565b60405180910390fd5b60018054905084106103e4576040517f08c379a00000000000000000000000000000000000000000000000000000000081526004016103db90612fef565b60405180910390fd5b60011515600185815481106103fc576103fb612ee2565b5b90600052602060002090600a020160090160009054906101000a900460ff1615151461045d576040517f08c379a00000000000000000000000000000000000000000000000000000000081526004016104549061305b565b60405180910390fd5b6001848154811061047157610470612ee2565b5b90600052602060002090600a0201600601546001858154811061049757610496612ee2565b5b90600052602060002090600a0201600501546104b391906130aa565b42116104f4576040517f08c379a00000000000000000000000000000000000000000000000000000000081526004016104eb90613172565b60405180910390fd5b6001848154811061050857610507612ee2565b5b90600052602060002090600a02016008015461052484846122fb565b14610564576040517f08c379a000000000000000000000000000000000000000000000000000000000815260040161055b906131de565b60405180910390fd5b6000805b60026000878152602001908152602001600020805490508110156105ec576105c56002600088815260200190815260200160002082815481106105ae576105ad612ee2565b5b90600052602060002090600302016000018661232e565b156105d95781806105d5906131fe565b9250505b80806105e4906131fe565b915050610568565b5060008167ffffffffffffffff81111561060957610608613247565b5b6040519080825280602002602001820160405280156106375781602001602082028036833780820191505090505b5090506000826001888154811061065157610650612ee2565b5b90600052602060002090600a02016004015461066d91906132a5565b90506000838261067d91906132d6565b6001898154811061069157610690612ee2565b5b90600052602060002090600a0201600401546106ad9190613330565b90506000805b600260008b81526020019081526020016000208054905081101561087657610710600260008c815260200190815260200160002082815481106106f9576106f8612ee2565b5b90600052602060002090600302016000018a61232e565b1561086357600260008b8152602001908152602001600020818154811061073a57610739612ee2565b5b906000526020600020906003020160020160009054906101000a900473ffffffffffffffffffffffffffffffffffffffff16858380610778906131fe565b94508151811061078b5761078a612ee2565b5b602002602001019073ffffffffffffffffffffffffffffffffffffffff16908173ffffffffffffffffffffffffffffffffffffffff1681525050600260008b815260200190815260200160002081815481106107ea576107e9612ee2565b5b906000526020600020906003020160020160009054906101000a900473ffffffffffffffffffffffffffffffffffffffff1673ffffffffffffffffffffffffffffffffffffffff166108fc859081150290604051600060405180830381858888f19350505050158015610861573d6000803e3d6000fd5b505b808061086e906131fe565b9150506106b3565b506001898154811061088b5761088a612ee2565b5b90600052602060002090600a020160030160009054906101000a900473ffffffffffffffffffffffffffffffffffffffff1673ffffffffffffffffffffffffffffffffffffffff166108fc839081150290604051600060405180830381858888f19350505050158015610902573d6000803e3d6000fd5b507f53fb16f62e54f4596c7684a225d64c2ba05e4ed0ecc04634c3ac2c562086c5618960018b8154811061093957610938612ee2565b5b90600052602060002090600a0201868b60405161095994939291906137f9565b60405180910390a1505050505050505050565b606060004290506000805b600180549050811015610a3557826001828154811061099957610998612ee2565b5b90600052602060002090600a02016005015411158015610a0e575082600182815481106109c9576109c8612ee2565b5b90600052602060002090600a020160060154600183815481106109ef576109ee612ee2565b5b90600052602060002090600a020160050154610a0b91906130aa565b10155b15610a22578180610a1e906131fe565b9250505b8080610a2d906131fe565b915050610977565b508067ffffffffffffffff811115610a5057610a4f613247565b5b604051908082528060200260200182016040528015610a8957816020015b610a766123b7565b815260200190600190039081610a6e5790505b5092506000805b600180549050811015610d69578360018281548110610ab257610ab1612ee2565b5b90600052602060002090600a02016005015411158015610b2757508360018281548110610ae257610ae1612ee2565b5b90600052602060002090600a02016006015460018381548110610b0857610b07612ee2565b5b90600052602060002090600a020160050154610b2491906130aa565b10155b15610d565760018181548110610b4057610b3f612ee2565b5b90600052602060002090600a02016040518061014001604052908160008201548152602001600182018054610b74906133c4565b80601f0160208091040260200160405190810160405280929190818152602001828054610ba0906133c4565b8015610bed5780601f10610bc257610100808354040283529160200191610bed565b820191906000526020600020905b815481529060010190602001808311610bd057829003601f168201915b50505050508152602001600282018054610c06906133c4565b80601f0160208091040260200160405190810160405280929190818152602001828054610c32906133c4565b8015610c7f5780601f10610c5457610100808354040283529160200191610c7f565b820191906000526020600020905b815481529060010190602001808311610c6257829003601f168201915b505050505081526020016003820160009054906101000a900473ffffffffffffffffffffffffffffffffffffffff1673ffffffffffffffffffffffffffffffffffffffff1673ffffffffffffffffffffffffffffffffffffffff16815260200160048201548152602001600582015481526020016006820154815260200160078201548152602001600882015481526020016009820160009054906101000a900460ff161515151581525050858380610d37906131fe565b945081518110610d4a57610d49612ee2565b5b60200260200101819052505b8080610d61906131fe565b915050610a90565b5050505090565b8160008054906101000a900473ffffffffffffffffffffffffffffffffffffffff1673ffffffffffffffffffffffffffffffffffffffff163373ffffffffffffffffffffffffffffffffffffffff161480610e3b575060018181548110610dda57610dd9612ee2565b5b90600052602060002090600a020160030160009054906101000a900473ffffffffffffffffffffffffffffffffffffffff1673ffffffffffffffffffffffffffffffffffffffff163373ffffffffffffffffffffffffffffffffffffffff16145b610e7a576040517f08c379a0000000000000000000000000000000000000000000000000000000008152600401610e7190612f83565b60405180910390fd5b8260005a90506000151560018681548110610e9857610e97612ee2565b5b90600052602060002090600a020160090160009054906101000a900460ff16151514610ef9576040517f08c379a0000000000000000000000000000000000000000000000000000000008152600401610ef090613898565b60405180910390fd5b60005b600181101561107b576000858260018110610f1a57610f19612ee2565b5b602002810190610f2a91906138c7565b8060000190610f3991906138ef565b90501415610f7c576040517f08c379a0000000000000000000000000000000000000000000000000000000008152600401610f739061399e565b60405180910390fd5b60005b858260018110610f9257610f91612ee2565b5b602002810190610fa291906138c7565b8060200190610fb191906139be565b506004811015611067576000868360018110610fd057610fcf612ee2565b5b602002810190610fe091906138c7565b8060200190610fef91906139be565b826004811061100157611000612ee2565b5b60200281019061101191906138ef565b90501415611054576040517f08c379a000000000000000000000000000000000000000000000000000000000815260040161104b90613a32565b60405180910390fd5b808061105f906131fe565b915050610f7f565b508080611073906131fe565b915050610efc565b50600185815481106110905761108f612ee2565b5b90600052602060002090600a0201600701546110ab85612387565b146110eb576040517f08c379a00000000000000000000000000000000000000000000000000000000081526004016110e290613a9e565b60405180910390fd5b4260018681548110611100576110ff612ee2565b5b90600052602060002090600a020160050181905550600180868154811061112a57611129612ee2565b5b90600052602060002090600a020160090160006101000a81548160ff0219169083151502179055507fb5a265e268d51746e1d7589c6598fb5a4fadfb287e4a17eb32d5d7907f9c8a638585604051611183929190613d92565b60405180910390a160008054906101000a900473ffffffffffffffffffffffffffffffffffffffff1673ffffffffffffffffffffffffffffffffffffffff163373ffffffffffffffffffffffffffffffffffffffff16146111e45750611298565b60006175305a836111f59190613330565b6111ff91906130aa565b905060003a8261120f91906132d6565b90503373ffffffffffffffffffffffffffffffffffffffff166108fc829081150290604051600060405180830381858888f19350505050158015611257573d6000803e3d6000fd5b50806001858154811061126d5761126c612ee2565b5b90600052602060002090600a0201600401600082825461128d9190613330565b925050819055505050505b50505050565b60036020528160005260406000206020528060005260406000206000915091509054906101000a900460ff1681565b6000428511611311576040517f08c379a000000000000000000000000000000000000000000000000000000000815260040161130890613e34565b60405180910390fd5b84848661131e91906130aa565b1161135e576040517f08c379a000000000000000000000000000000000000000000000000000000000815260040161135590613ec6565b60405180910390fd5b60008a8a905014156113a5576040517f08c379a000000000000000000000000000000000000000000000000000000000815260040161139c90613f32565b60405180910390fd5b600086116113e8576040517f08c379a00000000000000000000000000000000000000000000000000000000081526004016113df90613f9e565b60405180910390fd5b34861461142a576040517f08c379a000000000000000000000000000000000000000000000000000000000815260040161142190614030565b60405180910390fd5b600060405180610140016040528060018054905081526020018c8c8080601f016020809104026020016040519081016040528093929190818152602001838380828437600081840152601f19601f8201169050808301925050505050505081526020018a8a8080601f016020809104026020016040519081016040528093929190818152602001838380828437600081840152601f19601f8201169050808301925050505050505081526020013373ffffffffffffffffffffffffffffffffffffffff16815260200188815260200187815260200186815260200185815260200184815260200160001515815250905060018190806001815401808255809150506001900390600052602060002090600a020160009091909190915060008201518160000155602082015181600101908051906020019061156c929190612428565b506040820151816002019080519060200190611589929190612428565b5060608201518160030160006101000a81548173ffffffffffffffffffffffffffffffffffffffff021916908373ffffffffffffffffffffffffffffffffffffffff1602179055506080820151816004015560a0820151816005015560c0820151816006015560e0820151816007015561010082015181600801556101208201518160090160006101000a81548160ff02191690831515021790555050507ffd8ebe1156c53cd42cc839c579227faeaba4fe87e6df3c95f6c2cbc5c60eafca600180805490506116599190613330565b82604051611668929190614131565b60405180910390a1600180805490506116819190613330565b9150509998505050505050505050565b60606000805b60018054905081101561173f578373ffffffffffffffffffffffffffffffffffffffff16600182815481106116cf576116ce612ee2565b5b90600052602060002090600a020160030160009054906101000a900473ffffffffffffffffffffffffffffffffffffffff1673ffffffffffffffffffffffffffffffffffffffff16141561172c578180611728906131fe565b9250505b8080611737906131fe565b915050611697565b508067ffffffffffffffff81111561175a57611759613247565b5b60405190808252806020026020018201604052801561179357816020015b6117806123b7565b8152602001906001900390816117785790505b5091506000805b600180549050811015611a5d578473ffffffffffffffffffffffffffffffffffffffff16600182815481106117d2576117d1612ee2565b5b90600052602060002090600a020160030160009054906101000a900473ffffffffffffffffffffffffffffffffffffffff1673ffffffffffffffffffffffffffffffffffffffff161415611a4a576001818154811061183457611833612ee2565b5b90600052602060002090600a02016040518061014001604052908160008201548152602001600182018054611868906133c4565b80601f0160208091040260200160405190810160405280929190818152602001828054611894906133c4565b80156118e15780601f106118b6576101008083540402835291602001916118e1565b820191906000526020600020905b8154815290600101906020018083116118c457829003601f168201915b505050505081526020016002820180546118fa906133c4565b80601f0160208091040260200160405190810160405280929190818152602001828054611926906133c4565b80156119735780601f1061194857610100808354040283529160200191611973565b820191906000526020600020905b81548152906001019060200180831161195657829003601f168201915b505050505081526020016003820160009054906101000a900473ffffffffffffffffffffffffffffffffffffffff1673ffffffffffffffffffffffffffffffffffffffff1673ffffffffffffffffffffffffffffffffffffffff16815260200160048201548152602001600582015481526020016006820154815260200160078201548152602001600882015481526020016009820160009054906101000a900460ff161515151581525050848380611a2b906131fe565b945081518110611a3e57611a3d612ee2565b5b60200260200101819052505b8080611a55906131fe565b91505061179a565b505050919050565b8560018054905011611aac576040517f08c379a0000000000000000000000000000000000000000000000000000000008152600401611aa3906141ad565b60405180910390fd5b3373ffffffffffffffffffffffffffffffffffffffff1660018781548110611ad757611ad6612ee2565b5b90600052602060002090600a020160030160009054906101000a900473ffffffffffffffffffffffffffffffffffffffff1673ffffffffffffffffffffffffffffffffffffffff1614611b5f576040517f08c379a0000000000000000000000000000000000000000000000000000000008152600401611b569061423f565b60405180910390fd5b4260018781548110611b7457611b73612ee2565b5b90600052602060002090600a02016005015411611bc6576040517f08c379a0000000000000000000000000000000000000000000000000000000008152600401611bbd906142d1565b60405180910390fd5b600073ffffffffffffffffffffffffffffffffffffffff168373ffffffffffffffffffffffffffffffffffffffff161415611c36576040517f08c379a0000000000000000000000000000000000000000000000000000000008152600401611c2d9061433d565b60405180910390fd5b600060018781548110611c4c57611c4b612ee2565b5b90600052602060002090600a020190508585826002019190611c6f9291906124ae565b50838160030160006101000a81548173ffffffffffffffffffffffffffffffffffffffff021916908373ffffffffffffffffffffffffffffffffffffffff16021790555082816007018190555081816008018190555050505050505050565b60018181548110611cde57600080fd5b90600052602060002090600a0201600091509050806000015490806001018054611d07906133c4565b80601f0160208091040260200160405190810160405280929190818152602001828054611d33906133c4565b8015611d805780601f10611d5557610100808354040283529160200191611d80565b820191906000526020600020905b815481529060010190602001808311611d6357829003601f168201915b505050505090806002018054611d95906133c4565b80601f0160208091040260200160405190810160405280929190818152602001828054611dc1906133c4565b8015611e0e5780601f10611de357610100808354040283529160200191611e0e565b820191906000526020600020905b815481529060010190602001808311611df157829003601f168201915b5050505050908060030160009054906101000a900473ffffffffffffffffffffffffffffffffffffffff16908060040154908060050154908060060154908060070154908060080154908060090160009054906101000a900460ff1690508a565b6001151560018381548110611e8757611e86612ee2565b5b90600052602060002090600a020160090160009054906101000a900460ff16151514611ee8576040517f08c379a0000000000000000000000000000000000000000000000000000000008152600401611edf906143a9565b60405180910390fd5b4260018381548110611efd57611efc612ee2565b5b90600052602060002090600a02016006015460018481548110611f2357611f22612ee2565b5b90600052602060002090600a020160050154611f3f91906130aa565b1015611f80576040517f08c379a0000000000000000000000000000000000000000000000000000000008152600401611f7790614415565b60405180910390fd5b600015156003600084815260200190815260200160002060003373ffffffffffffffffffffffffffffffffffffffff1673ffffffffffffffffffffffffffffffffffffffff16815260200190815260200160002060009054906101000a900460ff16151514612024576040517f08c379a000000000000000000000000000000000000000000000000000000000815260040161201b906144a7565b60405180910390fd5b60005b600181101561211d57600460ff1682826001811061204857612047612ee2565b5b60200201602081019061205b91906144c7565b60ff161061209e576040517f08c379a000000000000000000000000000000000000000000000000000000000815260040161209590614540565b60405180910390fd5b60008282600181106120b3576120b2612ee2565b5b6020020160208101906120c691906144c7565b60ff16141561210a576040517f08c379a0000000000000000000000000000000000000000000000000000000008152600401612101906145ac565b60405180910390fd5b8080612115906131fe565b915050612027565b5060016003600084815260200190815260200160002060003373ffffffffffffffffffffffffffffffffffffffff1673ffffffffffffffffffffffffffffffffffffffff16815260200190815260200160002060006101000a81548160ff021916908315150217905550600260008381526020019081526020016000206040518060600160405280836001806020026040519081016040528092919082600160200280828437600081840152601f19601f82011690508083019250505050505081526020014281526020013373ffffffffffffffffffffffffffffffffffffffff168152509080600181540180825580915050600190039060005260206000209060030201600090919091909150600082015181600001906001612242929190612534565b506020820151816001015560408201518160020160006101000a81548173ffffffffffffffffffffffffffffffffffffffff021916908373ffffffffffffffffffffffffffffffffffffffff16021790555050505050565b600260205281600052604060002081815481106122b657600080fd5b9060005260206000209060030201600091509150508060010154908060020160009054906101000a900473ffffffffffffffffffffffffffffffffffffffff16905082565b600082826040516020016123109291906145cc565b60405160208183030381529060405280519060200120905092915050565b60008160405160200161234191906145f5565b60405160208183030381529060405280519060200120836040516020016123689190615323565b6040516020818303038152906040528051906020012014905092915050565b60008160405160200161239a919061533e565b604051602081830303815290604052805190602001209050919050565b604051806101400160405280600081526020016060815260200160608152602001600073ffffffffffffffffffffffffffffffffffffffff16815260200160008152602001600081526020016000815260200160008019168152602001600080191681526020016000151581525090565b828054612434906133c4565b90600052602060002090601f016020900481019282612456576000855561249d565b82601f1061246f57805160ff191683800117855561249d565b8280016001018555821561249d579182015b8281111561249c578251825591602001919060010190612481565b5b5090506124aa91906125ce565b5090565b8280546124ba906133c4565b90600052602060002090601f0160209004810192826124dc5760008555612523565b82601f106124f557803560ff1916838001178555612523565b82800160010185558215612523579182015b82811115612522578235825591602001919060010190612507565b5b50905061253091906125ce565b5090565b826001601f016020900481019282156125bd5791602002820160005b8382111561258e57835183826101000a81548160ff021916908360ff1602179055509260200192600101602081600001049283019260010302612550565b80156125bb5782816101000a81549060ff021916905560010160208160000104928301926001030261258e565b505b5090506125ca91906125ce565b5090565b5b808211156125e75760008160009055506001016125cf565b5090565b600080fd5b600080fd5b6000819050919050565b612608816125f5565b811461261357600080fd5b50565b600081359050612625816125ff565b92915050565b600080fd5b60008190508260206001028201111561264c5761264b61262b565b5b92915050565b6000819050919050565b61266581612652565b811461267057600080fd5b50565b6000813590506126828161265c565b92915050565b6000806000606084860312156126a1576126a06125eb565b5b60006126af86828701612616565b93505060206126c086828701612630565b92505060406126d186828701612673565b9150509250925092565b600081519050919050565b600082825260208201905092915050565b6000819050602082019050919050565b612710816125f5565b82525050565b600081519050919050565b600082825260208201905092915050565b60005b83811015612750578082015181840152602081019050612735565b8381111561275f576000848401525b50505050565b6000601f19601f8301169050919050565b600061278182612716565b61278b8185612721565b935061279b818560208601612732565b6127a481612765565b840191505092915050565b600073ffffffffffffffffffffffffffffffffffffffff82169050919050565b60006127da826127af565b9050919050565b6127ea816127cf565b82525050565b6127f981612652565b82525050565b60008115159050919050565b612814816127ff565b82525050565b6000610140830160008301516128336000860182612707565b506020830151848203602086015261284b8282612776565b915050604083015184820360408601526128658282612776565b915050606083015161287a60608601826127e1565b50608083015161288d6080860182612707565b5060a08301516128a060a0860182612707565b5060c08301516128b360c0860182612707565b5060e08301516128c660e08601826127f0565b506101008301516128db6101008601826127f0565b506101208301516128f061012086018261280b565b508091505092915050565b6000612907838361281a565b905092915050565b6000602082019050919050565b6000612927826126db565b61293181856126e6565b935083602082028501612943856126f7565b8060005b8581101561297f578484038952815161296085826128fb565b945061296b8361290f565b925060208a01995050600181019050612947565b50829750879550505050505092915050565b600060208201905081810360008301526129ab818461291c565b905092915050565b6000819050826020600102820111156129cf576129ce61262b565b5b92915050565b600080604083850312156129ec576129eb6125eb565b5b60006129fa85828601612616565b925050602083013567ffffffffffffffff811115612a1b57612a1a6125f0565b5b612a27858286016129b3565b9150509250929050565b612a3a816127cf565b8114612a4557600080fd5b50565b600081359050612a5781612a31565b92915050565b60008060408385031215612a7457612a736125eb565b5b6000612a8285828601612616565b9250506020612a9385828601612a48565b9150509250929050565b612aa6816127ff565b82525050565b6000602082019050612ac16000830184612a9d565b92915050565b600080fd5b600080fd5b60008083601f840112612ae757612ae6612ac7565b5b8235905067ffffffffffffffff811115612b0457612b03612acc565b5b602083019150836001820283011115612b2057612b1f61262b565b5b9250929050565b600080600080600080600080600060e08a8c031215612b4957612b486125eb565b5b60008a013567ffffffffffffffff811115612b6757612b666125f0565b5b612b738c828d01612ad1565b995099505060208a013567ffffffffffffffff811115612b9657612b956125f0565b5b612ba28c828d01612ad1565b97509750506040612bb58c828d01612616565b9550506060612bc68c828d01612616565b9450506080612bd78c828d01612616565b93505060a0612be88c828d01612673565b92505060c0612bf98c828d01612673565b9150509295985092959850929598565b612c12816125f5565b82525050565b6000602082019050612c2d6000830184612c09565b92915050565b600060208284031215612c4957612c486125eb565b5b6000612c5784828501612a48565b91505092915050565b60008060008060008060a08789031215612c7d57612c7c6125eb565b5b6000612c8b89828a01612616565b965050602087013567ffffffffffffffff811115612cac57612cab6125f0565b5b612cb889828a01612ad1565b95509550506040612ccb89828a01612a48565b9350506060612cdc89828a01612673565b9250506080612ced89828a01612673565b9150509295509295509295565b600060208284031215612d1057612d0f6125eb565b5b6000612d1e84828501612616565b91505092915050565b600082825260208201905092915050565b6000612d4382612716565b612d4d8185612d27565b9350612d5d818560208601612732565b612d6681612765565b840191505092915050565b612d7a816127cf565b82525050565b612d8981612652565b82525050565b600061014082019050612da5600083018d612c09565b8181036020830152612db7818c612d38565b90508181036040830152612dcb818b612d38565b9050612dda606083018a612d71565b612de76080830189612c09565b612df460a0830188612c09565b612e0160c0830187612c09565b612e0e60e0830186612d80565b612e1c610100830185612d80565b612e2a610120830184612a9d565b9b9a5050505050505050505050565b60008060408385031215612e5057612e4f6125eb565b5b6000612e5e85828601612616565b9250506020612e6f85828601612630565b9150509250929050565b60008060408385031215612e9057612e8f6125eb565b5b6000612e9e85828601612616565b9250506020612eaf85828601612616565b9150509250929050565b6000604082019050612ece6000830185612c09565b612edb6020830184612d71565b9392505050565b7f4e487b7100000000000000000000000000000000000000000000000000000000600052603260045260246000fd5b7f4f6e6c79206f776e6572206f7220746865207175697a2063726561746f72206360008201527f616e207375626d6974207175657374696f6e7300000000000000000000000000602082015250565b6000612f6d603383612d27565b9150612f7882612f11565b604082019050919050565b60006020820190508181036000830152612f9c81612f60565b9050919050565b7f5175697a20646f6573206e6f7420657869737400000000000000000000000000600082015250565b6000612fd9601383612d27565b9150612fe482612fa3565b602082019050919050565b6000602082019050818103600083015261300881612fcc565b9050919050565b7f5175697a20686173206e6f742073746172746564000000000000000000000000600082015250565b6000613045601483612d27565b91506130508261300f565b602082019050919050565b6000602082019050818103600083015261307481613038565b9050919050565b7f4e487b7100000000000000000000000000000000000000000000000000000000600052601160045260246000fd5b60006130b5826125f5565b91506130c0836125f5565b9250827fffffffffffffffffffffffffffffffffffffffffffffffffffffffffffffffff038211156130f5576130f461307b565b5b828201905092915050565b7f436f727265637420416e73776572732063616e6e6f74206265207375626d697460008201527f746564206265666f726520656e642074696d6500000000000000000000000000602082015250565b600061315c603383612d27565b915061316782613100565b604082019050919050565b6000602082019050818103600083015261318b8161314f565b9050919050565b7f436f727265637420616e737765727320617265206e6f742076616c6964000000600082015250565b60006131c8601d83612d27565b91506131d382613192565b602082019050919050565b600060208201905081810360008301526131f7816131bb565b9050919050565b6000613209826125f5565b91507fffffffffffffffffffffffffffffffffffffffffffffffffffffffffffffffff82141561323c5761323b61307b565b5b600182019050919050565b7f4e487b7100000000000000000000000000000000000000000000000000000000600052604160045260246000fd5b7f4e487b7100000000000000000000000000000000000000000000000000000000600052601260045260246000fd5b60006132b0826125f5565b91506132bb836125f5565b9250826132cb576132ca613276565b5b828204905092915050565b60006132e1826125f5565b91506132ec836125f5565b9250817fffffffffffffffffffffffffffffffffffffffffffffffffffffffffffffffff04831182151516156133255761332461307b565b5b828202905092915050565b600061333b826125f5565b9150613346836125f5565b9250828210156133595761335861307b565b5b828203905092915050565b60008160001c9050919050565b6000819050919050565b600061338e61338983613364565b613371565b9050919050565b7f4e487b7100000000000000000000000000000000000000000000000000000000600052602260045260246000fd5b600060028204905060018216806133dc57607f821691505b602082108114156133f0576133ef613395565b5b50919050565b60008190508160005260206000209050919050565b60008154613418816133c4565b6134228186612721565b9450600182166000811461343d576001811461344f57613482565b60ff1983168652602086019350613482565b613458856133f6565b60005b8381101561347a5781548189015260018201915060208101905061345b565b808801955050505b50505092915050565b600073ffffffffffffffffffffffffffffffffffffffff82169050919050565b60006134be6134b983613364565b61348b565b9050919050565b6000819050919050565b60006134e26134dd83613364565b6134c5565b9050919050565b600060ff82169050919050565b600061350961350483613364565b6134e9565b9050919050565b6000610140830160008084015490506135288161337b565b6135356000870182612707565b5060018401858303602087015261354c838261340b565b925050600284018583036040870152613565838261340b565b92505060038401549050613578816134ab565b61358560608701826127e1565b50600484015490506135968161337b565b6135a36080870182612707565b50600584015490506135b48161337b565b6135c160a0870182612707565b50600684015490506135d28161337b565b6135df60c0870182612707565b50600784015490506135f0816134cf565b6135fd60e08701826127f0565b506008840154905061360e816134cf565b61361c6101008701826127f0565b506009840154905061362d816134f6565b61363b61012087018261280b565b50819250505092915050565b600081519050919050565b600082825260208201905092915050565b6000819050602082019050919050565b600061367f83836127e1565b60208301905092915050565b6000602082019050919050565b60006136a382613647565b6136ad8185613652565b93506136b883613663565b8060005b838110156136e95781516136d08882613673565b97506136db8361368b565b9250506001810190506136bc565b5085935050505092915050565b600060019050919050565b600081905092915050565b6000819050919050565b600060ff82169050919050565b61372c81613716565b82525050565b600061373e8383613723565b60208301905092915050565b61375381613716565b811461375e57600080fd5b50565b6000813590506137708161374a565b92915050565b60006137856020840184613761565b905092915050565b6000602082019050919050565b6137a3816136f6565b6137ad8184613701565b92506137b88261370c565b8060005b838110156137f1576137ce8284613776565b6137d88782613732565b96506137e38361378d565b9250506001810190506137bc565b505050505050565b600060808201905061380e6000830187612c09565b81810360208301526138208186613510565b905081810360408301526138348185613698565b9050613843606083018461379a565b95945050505050565b7f5175697a2068617320616c726561647920737461727465640000000000000000600082015250565b6000613882601883612d27565b915061388d8261384c565b602082019050919050565b600060208201905081810360008301526138b181613875565b9050919050565b600080fd5b600080fd5b600080fd5b6000823560016040038336030381126138e3576138e26138b8565b5b80830191505092915050565b6000808335600160200384360303811261390c5761390b6138b8565b5b80840192508235915067ffffffffffffffff82111561392e5761392d6138bd565b5b60208301925060018202360383131561394a576139496138c2565b5b509250929050565b7f5175657374696f6e2063616e6e6f7420626520656d7074790000000000000000600082015250565b6000613988601883612d27565b915061399382613952565b602082019050919050565b600060208201905081810360008301526139b78161397b565b9050919050565b6000823560016080038336030381126139da576139d96138b8565b5b80830191505092915050565b7f4f7074696f6e2063616e6e6f7420626520656d70747900000000000000000000600082015250565b6000613a1c601683612d27565b9150613a27826139e6565b602082019050919050565b60006020820190508181036000830152613a4b81613a0f565b9050919050565b7f5175657374696f6e7320617265206e6f742076616c6964000000000000000000600082015250565b6000613a88601783612d27565b9150613a9382613a52565b602082019050919050565b60006020820190508181036000830152613ab781613a7b565b9050919050565b600060019050919050565b600081905092915050565b6000819050919050565b600080fd5b600080fd5b600080fd5b60008083356001602003843603038112613b0a57613b09613ae8565b5b83810192508235915060208301925067ffffffffffffffff821115613b3257613b31613ade565b5b600182023603841315613b4857613b47613ae3565b5b509250929050565b82818337600083830152505050565b6000613b6b8385612721565b9350613b78838584613b50565b613b8183612765565b840190509392505050565b600082356001608003833603038112613ba857613ba7613ae8565b5b82810191505092915050565b600060049050919050565b600081905092915050565b6000819050919050565b6000613be1848484613b5f565b90509392505050565b6000602082019050919050565b6000613c0282613bb4565b613c0c8185613bbf565b935083602082028501613c1e85613bca565b8060005b85811015613c64578484038952613c398284613aed565b613c44868284613bd4565b9550613c4f84613bea565b935060208b019a505050600181019050613c22565b50829750879550505050505092915050565b600060408301613c896000840184613aed565b8583036000870152613c9c838284613b5f565b92505050613cad6020840184613b8c565b8482036020860152613cbf8282613bf7565b9150508091505092915050565b6000613cd88383613c76565b905092915050565b600082356001604003833603038112613cfc57613cfb613ae8565b5b82810191505092915050565b6000602082019050919050565b6000613d2082613abe565b613d2a8185613ac9565b935083602082028501613d3c85613ad4565b8060005b85811015613d80578484038952613d578284613ce0565b613d618582613ccc565b9450613d6c83613d08565b925060208a01995050600181019050613d40565b50829750879550505050505092915050565b6000604082019050613da76000830185612c09565b8181036020830152613db98184613d15565b90509392505050565b7f5175697a2063616e6e6f74206265206372656174656420696e2074686520706160008201527f7374000000000000000000000000000000000000000000000000000000000000602082015250565b6000613e1e602283612d27565b9150613e2982613dc2565b604082019050919050565b60006020820190508181036000830152613e4d81613e11565b9050919050565b7f5175697a2063616e6e6f742062652063726561746564207769746820656e642060008201527f74696d65206265666f72652073746172742074696d6500000000000000000000602082015250565b6000613eb0603683612d27565b9150613ebb82613e54565b604082019050919050565b60006020820190508181036000830152613edf81613ea3565b9050919050565b7f5175697a206e616d652063616e6e6f7420626520656d70747900000000000000600082015250565b6000613f1c601983612d27565b9150613f2782613ee6565b602082019050919050565b60006020820190508181036000830152613f4b81613f0f565b9050919050565b7f5072697a65206d6f6e65792063616e6e6f74206265207a65726f000000000000600082015250565b6000613f88601a83612d27565b9150613f9382613f52565b602082019050919050565b60006020820190508181036000830152613fb781613f7b565b9050919050565b7f5072697a65206d6f6e6579206d757374206d617463682074686520616d6f756e60008201527f742073656e740000000000000000000000000000000000000000000000000000602082015250565b600061401a602683612d27565b915061402582613fbe565b604082019050919050565b600060208201905081810360008301526140498161400d565b9050919050565b6000610140830160008301516140696000860182612707565b50602083015184820360208601526140818282612776565b9150506040830151848203604086015261409b8282612776565b91505060608301516140b060608601826127e1565b5060808301516140c36080860182612707565b5060a08301516140d660a0860182612707565b5060c08301516140e960c0860182612707565b5060e08301516140fc60e08601826127f0565b506101008301516141116101008601826127f0565b5061012083015161412661012086018261280b565b508091505092915050565b60006040820190506141466000830185612c09565b81810360208301526141588184614050565b90509392505050565b7f5175697a20496420646f6573206e6f7420657869737473000000000000000000600082015250565b6000614197601783612d27565b91506141a282614161565b602082019050919050565b600060208201905081810360008301526141c68161418a565b9050919050565b7f4f6e6c79205175697a204f776e65722063616e2075706461746520746865207160008201527f75697a0000000000000000000000000000000000000000000000000000000000602082015250565b6000614229602383612d27565b9150614234826141cd565b604082019050919050565b600060208201905081810360008301526142588161421c565b9050919050565b7f5175697a2063616e2062652075706461746564206265666f726520737461727460008201527f206f6620746865207175697a0000000000000000000000000000000000000000602082015250565b60006142bb602c83612d27565b91506142c68261425f565b604082019050919050565b600060208201905081810360008301526142ea816142ae565b9050919050565b7f5175697a206f776e65722063616e6e6f7420626520656d707479000000000000600082015250565b6000614327601a83612d27565b9150614332826142f1565b602082019050919050565b600060208201905081810360008301526143568161431a565b9050919050565b7f5175697a20686173206e6f742073746172746564207965740000000000000000600082015250565b6000614393601883612d27565b915061439e8261435d565b602082019050919050565b600060208201905081810360008301526143c281614386565b9050919050565b7f5175697a2068617320656e646564000000000000000000000000000000000000600082015250565b60006143ff600e83612d27565b915061440a826143c9565b602082019050919050565b6000602082019050818103600083015261442e816143f2565b9050919050565b7f596f75206861766520616c7265616479207375626d697474656420746865206160008201527f6e73776572730000000000000000000000000000000000000000000000000000602082015250565b6000614491602683612d27565b915061449c82614435565b604082019050919050565b600060208201905081810360008301526144c081614484565b9050919050565b6000602082840312156144dd576144dc6125eb565b5b60006144eb84828501613761565b91505092915050565b7f416e73776572206973206f7574206f662072616e676500000000000000000000600082015250565b600061452a601683612d27565b9150614535826144f4565b602082019050919050565b600060208201905081810360008301526145598161451d565b9050919050565b7f416e737765722063616e6e6f7420626520656d70747900000000000000000000600082015250565b6000614596601683612d27565b91506145a182614560565b602082019050919050565b600060208201905081810360008301526145c581614589565b9050919050565b60006040820190506145e1600083018561379a565b6145ee6020830184612d80565b9392505050565b600060208201905061460a600083018461379a565b92915050565b600060019050919050565b6000819050919050565b600060ff82169050919050565b600061464561464083613364565b614625565b9050919050565b60008160081c9050919050565b600061466c6146678361464c565b614625565b9050919050565b60008160101c9050919050565b600061469361468e83614673565b614625565b9050919050565b60008160181c9050919050565b60006146ba6146b58361469a565b614625565b9050919050565b60008160201c9050919050565b60006146e16146dc836146c1565b614625565b9050919050565b60008160281c9050919050565b6000614708614703836146e8565b614625565b9050919050565b60008160301c9050919050565b600061472f61472a8361470f565b614625565b9050919050565b60008160381c9050919050565b600061475661475183614736565b614625565b9050919050565b60008160401c9050919050565b600061477d6147788361475d565b614625565b9050919050565b60008160481c9050919050565b60006147a461479f83614784565b614625565b9050919050565b60008160501c9050919050565b60006147cb6147c6836147ab565b614625565b9050919050565b60008160581c9050919050565b60006147f26147ed836147d2565b614625565b9050919050565b60008160601c9050919050565b6000614819614814836147f9565b614625565b9050919050565b60008160681c9050919050565b600061484061483b83614820565b614625565b9050919050565b60008160701c9050919050565b600061486761486283614847565b614625565b9050919050565b60008160781c9050919050565b600061488e6148898361486e565b614625565b9050919050565b60008160801c9050919050565b60006148b56148b083614895565b614625565b9050919050565b60008160881c9050919050565b60006148dc6148d7836148bc565b614625565b9050919050565b60008160901c9050919050565b60006149036148fe836148e3565b614625565b9050919050565b60008160981c9050919050565b600061492a6149258361490a565b614625565b9050919050565b60008160a01c9050919050565b600061495161494c83614931565b614625565b9050919050565b60008160a81c9050919050565b600061497861497383614958565b614625565b9050919050565b60008160b01c9050919050565b600061499f61499a8361497f565b614625565b9050919050565b60008160b81c9050919050565b60006149c66149c1836149a6565b614625565b9050919050565b60008160c01c9050919050565b60006149ed6149e8836149cd565b614625565b9050919050565b60008160c81c9050919050565b6000614a14614a0f836149f4565b614625565b9050919050565b60008160d01c9050919050565b6000614a3b614a3683614a1b565b614625565b9050919050565b60008160d81c9050919050565b6000614a62614a5d83614a42565b614625565b9050919050565b60008160e01c9050919050565b6000614a89614a8483614a69565b614625565b9050919050565b60008160e81c9050919050565b6000614ab0614aab83614a90565b614625565b9050919050565b60008160f01c9050919050565b6000614ad7614ad283614ab7565b614625565b9050919050565b60008160f81c9050919050565b6000614afe614af983614ade565b614625565b9050919050565b614b0e81614610565b614b188184613701565b925082614b248361461b565b60008015614e50575b83600160200382011015614e4f578154614b4f87614b4a83614632565b613723565b602087019650614b6787614b6283614659565b613723565b602087019650614b7f87614b7a83614680565b613723565b602087019650614b9787614b92836146a7565b613723565b602087019650614baf87614baa836146ce565b613723565b602087019650614bc787614bc2836146f5565b613723565b602087019650614bdf87614bda8361471c565b613723565b602087019650614bf787614bf283614743565b613723565b602087019650614c0f87614c0a8361476a565b613723565b602087019650614c2787614c2283614791565b613723565b602087019650614c3f87614c3a836147b8565b613723565b602087019650614c5787614c52836147df565b613723565b602087019650614c6f87614c6a83614806565b613723565b602087019650614c8787614c828361482d565b613723565b602087019650614c9f87614c9a83614854565b613723565b602087019650614cb787614cb28361487b565b613723565b602087019650614ccf87614cca836148a2565b613723565b602087019650614ce787614ce2836148c9565b613723565b602087019650614cff87614cfa836148f0565b613723565b602087019650614d1787614d1283614917565b613723565b602087019650614d2f87614d2a8361493e565b613723565b602087019650614d4787614d4283614965565b613723565b602087019650614d5f87614d5a8361498c565b613723565b602087019650614d7787614d72836149b3565b613723565b602087019650614d8f87614d8a836149da565b613723565b602087019650614da787614da283614a01565b613723565b602087019650614dbf87614dba83614a28565b613723565b602087019650614dd787614dd283614a4f565b613723565b602087019650614def87614dea83614a76565b613723565b602087019650614e0787614e0283614a9d565b613723565b602087019650614e1f87614e1a83614ac4565b613723565b602087019650614e3787614e3283614aeb565b613723565b60208701965060018301925050602081019050614b2d565b5b60011561531b578154600115614e7f57614e7287614e6d83614632565b613723565b6020870196506001820191505b600015614ea557614e9887614e9383614659565b613723565b6020870196506001820191505b600015614ecb57614ebe87614eb983614680565b613723565b6020870196506001820191505b600015614ef157614ee487614edf836146a7565b613723565b6020870196506001820191505b600015614f1757614f0a87614f05836146ce565b613723565b6020870196506001820191505b600015614f3d57614f3087614f2b836146f5565b613723565b6020870196506001820191505b600015614f6357614f5687614f518361471c565b613723565b6020870196506001820191505b600015614f8957614f7c87614f7783614743565b613723565b6020870196506001820191505b600015614faf57614fa287614f9d8361476a565b613723565b6020870196506001820191505b600015614fd557614fc887614fc383614791565b613723565b6020870196506001820191505b600015614ffb57614fee87614fe9836147b8565b613723565b6020870196506001820191505b600015615021576150148761500f836147df565b613723565b6020870196506001820191505b6000156150475761503a8761503583614806565b613723565b6020870196506001820191505b60001561506d576150608761505b8361482d565b613723565b6020870196506001820191505b600015615093576150868761508183614854565b613723565b6020870196506001820191505b6000156150b9576150ac876150a78361487b565b613723565b6020870196506001820191505b6000156150df576150d2876150cd836148a2565b613723565b6020870196506001820191505b600015615105576150f8876150f3836148c9565b613723565b6020870196506001820191505b60001561512b5761511e87615119836148f0565b613723565b6020870196506001820191505b600015615151576151448761513f83614917565b613723565b6020870196506001820191505b6000156151775761516a876151658361493e565b613723565b6020870196506001820191505b60001561519d576151908761518b83614965565b613723565b6020870196506001820191505b6000156151c3576151b6876151b18361498c565b613723565b6020870196506001820191505b6000156151e9576151dc876151d7836149b3565b613723565b6020870196506001820191505b60001561520f57615202876151fd836149da565b613723565b6020870196506001820191505b600015615235576152288761522383614a01565b613723565b6020870196506001820191505b60001561525b5761524e8761524983614a28565b613723565b6020870196506001820191505b600015615281576152748761526f83614a4f565b613723565b6020870196506001820191505b6000156152a75761529a8761529583614a76565b613723565b6020870196506001820191505b6000156152cd576152c0876152bb83614a9d565b613723565b6020870196506001820191505b6000156152f3576152e6876152e183614ac4565b613723565b6020870196506001820191505b6000156153195761530c8761530783614aeb565b613723565b6020870196506001820191505b505b505050505050565b60006020820190506153386000830184614b05565b92915050565b600060208201905081810360008301526153588184613d15565b90509291505056fea26469706673582212206cff59a252b3c89b504cdf0cfd82b8a15353ee8995593a139d89f4a17b9d7a3d64736f6c634300080a0033",
  "immutableReferences": {},
  "source": "// SPDX-License-Identifier: MIT\r\npragma solidity >=0.8.10;\r\n\r\ncontract QuizContract {\r\n    uint8 constant noOfQuestions = 1;\r\n    uint8 constant noOfOptions = 4;\r\n\r\n    event QuizCreated(uint256 quizId, Quiz quiz);\r\n\r\n    event QuizUpdated(uint256 quizId, Quiz quiz);\r\n\r\n    event QuizStarted(uint256 quizId, Question[noOfQuestions] questions);\r\n\r\n    event QuizCompleted(\r\n        uint256 quizId,\r\n        Quiz quiz,\r\n        address[] winners,\r\n        uint8[noOfQuestions] answers\r\n    );\r\n\r\n    struct Question {\r\n        string question;\r\n        string[noOfOptions] options;\r\n    }\r\n\r\n    struct Answers {\r\n        uint8[noOfQuestions] selectedOptions;\r\n        uint256 submissionTime;\r\n        address submissionAddress;\r\n    }\r\n\r\n    struct Quiz {\r\n        uint256 quizId;\r\n        string quizName;\r\n        string description;\r\n        address quizOwner;\r\n        uint256 prizeMoney; //wei\r\n        uint256 startTime;\r\n        uint256 duration; //seconds\r\n        bytes32 questionHash;\r\n        bytes32 answerHash;\r\n        bool isRunning;\r\n    }\r\n\r\n    address owner;\r\n    Quiz[] public quizzes;\r\n    mapping(uint256 => Answers[]) public submittedAnswers;\r\n    mapping(uint256 => mapping(address => bool)) public isSubmited;\r\n\r\n    constructor() {\r\n        owner = msg.sender;\r\n    }\r\n\r\n    modifier onlyOwners(uint256 _quizId) {\r\n        require(\r\n            msg.sender == owner || msg.sender == quizzes[_quizId].quizOwner,\r\n            \"Only owner or the quiz creator can submit questions\"\r\n        );\r\n        _;\r\n    }\r\n\r\n    modifier refundGas(uint256 _quizId) {\r\n        uint256 gasAtStart = gasleft();\r\n        _;\r\n        if (msg.sender != owner) return;\r\n        uint256 gasSpent = gasAtStart - gasleft() + 30000;\r\n        uint256 gasCost = gasSpent * tx.gasprice;\r\n        payable(msg.sender).transfer(gasCost);\r\n        quizzes[_quizId].prizeMoney -= gasCost;\r\n    }\r\n\r\n    function hashQuestions(Question[noOfQuestions] calldata questions)\r\n        internal\r\n        pure\r\n        returns (bytes32)\r\n    {\r\n        return keccak256(abi.encode(questions));\r\n    }\r\n\r\n    function hashAnswers(\r\n        uint8[noOfQuestions] calldata answers,\r\n        bytes32 _hashSalt\r\n    ) internal pure returns (bytes32) {\r\n        return keccak256(abi.encode(answers, _hashSalt));\r\n    }\r\n\r\n    function equalAnswers(\r\n        uint8[noOfQuestions] storage correctOptions,\r\n        uint8[noOfQuestions] calldata optionsB\r\n    ) internal pure returns (bool) {\r\n        return\r\n            keccak256(abi.encode(correctOptions)) ==\r\n            keccak256(abi.encode(optionsB));\r\n    }\r\n\r\n    function getPendingQuizzes()\r\n        public\r\n        view\r\n        returns (Quiz[] memory pendingQuizzes)\r\n    {\r\n        uint256 present = block.timestamp;\r\n        uint256 noOfQuizzes = 0;\r\n        for (uint256 i = 0; i < quizzes.length; i++) {\r\n            if (\r\n                quizzes[i].startTime <= present &&\r\n                (quizzes[i].startTime + quizzes[i].duration) >= present\r\n            ) {\r\n                noOfQuizzes++;\r\n            }\r\n        }\r\n        pendingQuizzes = new Quiz[](noOfQuizzes);\r\n        uint256 j = 0;\r\n        for (uint256 i = 0; i < quizzes.length; i++) {\r\n            if (\r\n                quizzes[i].startTime <= present &&\r\n                (quizzes[i].startTime + quizzes[i].duration) >= present\r\n            ) {\r\n                pendingQuizzes[j++] = quizzes[i];\r\n            }\r\n        }\r\n        return pendingQuizzes;\r\n    }\r\n\r\n    function getQuizzesBy(address user)\r\n        external\r\n        view\r\n        returns (Quiz[] memory quizzesByUser)\r\n    {\r\n        uint256 noOfQuizzes = 0;\r\n        for (uint256 i = 0; i < quizzes.length; i++) {\r\n            if (quizzes[i].quizOwner == user) {\r\n                noOfQuizzes++;\r\n            }\r\n        }\r\n        quizzesByUser = new Quiz[](noOfQuizzes);\r\n        uint256 j = 0;\r\n        for (uint256 i = 0; i < quizzes.length; i++) {\r\n            if (quizzes[i].quizOwner == user) {\r\n                quizzesByUser[j++] = quizzes[i];\r\n            }\r\n        }\r\n        return quizzesByUser;\r\n    }\r\n    \r\n    function createQuiz(\r\n        string calldata quizName,\r\n        string calldata description,\r\n        uint256 prizeMoney, //wei\r\n        uint256 startTime,\r\n        uint256 duration, //seconds\r\n        bytes32 questionHash,\r\n        bytes32 answerHash\r\n    ) external payable returns (uint256) {\r\n        require(\r\n            startTime > block.timestamp,\r\n            \"Quiz cannot be created in the past\"\r\n        );\r\n        require(\r\n            startTime + duration > startTime,\r\n            \"Quiz cannot be created with end time before start time\"\r\n        );\r\n        require(bytes(quizName).length != 0, \"Quiz name cannot be empty\");\r\n        require(prizeMoney > 0, \"Prize money cannot be zero\");\r\n        require(\r\n            prizeMoney == msg.value,\r\n            \"Prize money must match the amount sent\"\r\n        );\r\n\r\n        Quiz memory _newQuiz = Quiz(\r\n            quizzes.length,\r\n            quizName,\r\n            description,\r\n            msg.sender,\r\n            prizeMoney,\r\n            startTime,\r\n            duration,\r\n            questionHash,\r\n            answerHash,\r\n            false\r\n        );\r\n        quizzes.push(_newQuiz);\r\n        emit QuizCreated(quizzes.length - 1, _newQuiz);\r\n\r\n        return quizzes.length - 1;\r\n    }\r\n\r\n    function updateQuiz(\r\n        uint256 _quizId,\r\n        string calldata _description,\r\n        address _quizOwner,\r\n        bytes32 _questionHash,\r\n        bytes32 _answerHash\r\n    ) external {\r\n        require(quizzes.length > _quizId, \"Quiz Id does not exists\");\r\n        require(\r\n            quizzes[_quizId].quizOwner == msg.sender,\r\n            \"Only Quiz Owner can update the quiz\"\r\n        );\r\n        require(\r\n            quizzes[_quizId].startTime > block.timestamp,\r\n            \"Quiz can be updated before start of the quiz\"\r\n        );\r\n\r\n        require(_quizOwner != address(0), \"Quiz owner cannot be empty\");\r\n\r\n        Quiz storage _quiz = quizzes[_quizId];\r\n        _quiz.description = _description;\r\n        _quiz.quizOwner = _quizOwner;\r\n        _quiz.questionHash = _questionHash;\r\n        _quiz.answerHash = _answerHash;\r\n    }\r\n\r\n    function submitQuestions(\r\n        uint256 _quizId,\r\n        Question[noOfQuestions] calldata _questions\r\n    ) external onlyOwners(_quizId) refundGas(_quizId) {\r\n        require(quizzes[_quizId].isRunning == false, \"Quiz has already started\");\r\n        for (uint256 i = 0; i < _questions.length; i++) {\r\n            require(\r\n                bytes(_questions[i].question).length != 0,\r\n                \"Question cannot be empty\"\r\n            );\r\n            for (uint256 j = 0; j < _questions[i].options.length; j++) {\r\n                require(\r\n                    bytes(_questions[i].options[j]).length != 0,\r\n                    \"Option cannot be empty\"\r\n                );\r\n            }\r\n        }\r\n        require(\r\n            hashQuestions(_questions) == quizzes[_quizId].questionHash,\r\n            \"Questions are not valid\"\r\n        );\r\n\r\n        quizzes[_quizId].startTime = block.timestamp;\r\n        quizzes[_quizId].isRunning = true;\r\n        emit QuizStarted(_quizId, _questions);\r\n    }\r\n\r\n    function submitCorrectAnswers(\r\n        uint256 _quizId,\r\n        uint8[noOfQuestions] calldata _quizAnswers,\r\n        bytes32 _hashSalt\r\n    ) external onlyOwners(_quizId) {\r\n        require(_quizId < quizzes.length, \"Quiz does not exist\");\r\n        require(quizzes[_quizId].isRunning == true, \"Quiz has not started\");\r\n        require(\r\n            block.timestamp >\r\n                quizzes[_quizId].startTime + quizzes[_quizId].duration,\r\n            \"Correct Answers cannot be submitted before end time\"\r\n        );\r\n        require(\r\n            hashAnswers(_quizAnswers, _hashSalt) == quizzes[_quizId].answerHash,\r\n            \"Correct answers are not valid\"\r\n        );\r\n\r\n        uint256 totalWinners = 0;\r\n        for (uint256 i = 0; i < submittedAnswers[_quizId].length; i++) {\r\n            if (\r\n                equalAnswers(\r\n                    submittedAnswers[_quizId][i].selectedOptions,\r\n                    _quizAnswers\r\n                )\r\n            ) {\r\n                totalWinners++;\r\n            }\r\n        }\r\n        address[] memory winners = new address[](totalWinners);\r\n        uint256 prizeMoneyPerWinner = quizzes[_quizId].prizeMoney /\r\n            totalWinners;\r\n        uint256 prizeMoneyLeft = quizzes[_quizId].prizeMoney -\r\n            prizeMoneyPerWinner *\r\n            totalWinners;\r\n        uint256 j = 0;\r\n        for (uint256 i = 0; i < submittedAnswers[_quizId].length; i++) {\r\n            if (\r\n                equalAnswers(\r\n                    submittedAnswers[_quizId][i].selectedOptions,\r\n                    _quizAnswers\r\n                )\r\n            ) {\r\n                winners[j++] = submittedAnswers[_quizId][i].submissionAddress;\r\n                payable(submittedAnswers[_quizId][i].submissionAddress)\r\n                    .transfer(prizeMoneyPerWinner);\r\n            }\r\n        }\r\n        payable(quizzes[_quizId].quizOwner).transfer(prizeMoneyLeft);\r\n\r\n        emit QuizCompleted(_quizId, quizzes[_quizId], winners, _quizAnswers);\r\n    }\r\n\r\n    function submitPlayerAnswer(\r\n        uint256 _quizId,\r\n        uint8[noOfQuestions] calldata _answers\r\n    ) external {\r\n        require(\r\n            quizzes[_quizId].isRunning == true,\r\n            \"Quiz has not started yet\"\r\n        );\r\n        require(\r\n            quizzes[_quizId].startTime + quizzes[_quizId].duration >=\r\n                block.timestamp,\r\n            \"Quiz has ended\"\r\n        );\r\n        require(\r\n            isSubmited[_quizId][msg.sender] == false,\r\n            \"You have already submitted the answers\"\r\n        );\r\n\r\n        for (uint256 i = 0; i < _answers.length; i++) {\r\n            require(_answers[i] < noOfOptions, \"Answer is out of range\");\r\n            require(_answers[i] != 0, \"Answer cannot be empty\");\r\n        }\r\n\r\n        isSubmited[_quizId][msg.sender] = true;\r\n        submittedAnswers[_quizId].push(\r\n            Answers(_answers, block.timestamp, msg.sender)\r\n        );\r\n    }\r\n}\r\n",
  "sourcePath": "/app/contracts/QuizContract.sol",
  "compiler": {
    "name": "solc",
    "version": "0.8.10+commit.fc410830.Emscripten.clang"
  },
  "schemaVersion": "3.4.4",
  "updatedAt": "2022-01-01T05:37:10.462Z",
  "networkType": "ethereum",
  "devdoc": {
    "kind": "dev",
    "methods": {},
    "version": 1
  },
  "userdoc": {
    "kind": "user",
    "methods": {},
    "version": 1
  }
}